:020000040800F2
:1000000020110020991A0008D91A0008DB1A0008EC
:10001000DF1A0008E31A0008E71A000800000000D1
:10002000000000000000000000000000EB1A0008C3
:10003000ED1A000800000000EF1A0008F11A00088D
:10004000B31A0008B31A0008B31A0008B31A00085C
:10005000B31A0008B31A0008B31A0008B31A00084C
:10006000B31A0008B31A0008B31A0008B31A00083C
:10007000B31A0008B31A0008B31A0008B31A00082C
:10008000B31A0008B31A0008B31A0008B31A00081C
:10009000B31A0008B31A0008B31A0008B31A00080C
:1000A000B31A0008B31A0008B31A0008B31A0008FC
:1000B000B31A0008B31A0008A9050008B31A00080B
:1000C000B31A0008B31A0008B31A0008B31A0008DC
:1000D000B31A0008B31A0008091A0008B31A000876
:1000E000B31A0008B31A0008B31A0008B31A0008BC
:1000F000B31A0008B31A0008B31A0008B31A0008AC
:10010000B31A0008B31A0008B31A0008B31A00089B
:10011000B31A0008B31A0008B31A0008B31A00088B
:10012000B31A0008B31A0008B31A0008B31A00087B
:1001300000F002F800F05FF80AA090E8000C82449A
:100140008344AAF10107DA4501D100F054F8AFF277
:10015000090EBAE80F0013F0010F18BFFB1A43F0A5
:10016000010318475C4B00007C4B00000A444FF031
:10017000000C10F8013B13F0070408BF10F8014B06
:100180001D1108BF10F8015B641E05D010F8016B4B
:10019000641E01F8016BF9D113F0080F1EBF10F8AF
:1001A000014BAD1C0C1B09D16D1E58BF01F801CBD2
:1001B000FAD505E014F8016B01F8016B6D1EF9D555
:1001C0009142D6D37047000000230024002500266A
:1001D000103A28BF78C1FBD8520728BF30C148BFAA
:1001E0000B607047642903F0C387002070471FB578
:1001F0001FBD10B510BD04F072F81146FFF7F7FFF0
:1002000000F066F904F090F803B4FFF7F2FF03BCC6
:1002100001F094FB00B58BB01F208DF80400012085
:100220008DF80500FE480068808880B2ADF80600B1
:10023000FB480068007C8DF80C00F9480068417CA0
:100240008DF80D10F6480068817C8DF80E10F4488A
:100250000068C17C8DF80F10F24800788DF814000A
:10026000F04840788DF8150001A800F0D6FB0BB0DF
:1002700000BD10B500F044FA01F0DEF801F0C0F85E
:100280004FF48071E84802F0AEFD4FF40071E6488B
:1002900002F0A9FD10BD00B589B0E4480078C0F3B4
:1002A000820030B101282AD002283BD003284FD148
:1002B0004BE0DE480078C0F3400048B100F0DFFDBD
:1002C00000F019FED948007820F00200D7490870E4
:1002D000D4480278D6A101A803F002FF01AA0221A6
:1002E000142000F0AAFECF484278D4A101A803F060
:1002F000F7FE01AA0421142000F09FFE31E0CB4854
:100300000078C0F3400060B100F0F5FDC748007808
:1003100020F00200C54908700021C148006801F0C2
:10032000EDF91EE0C1480078C0F3400060B100F074
:10033000E2FDBE48007820F00200BC4908700121AF
:10034000B748006801F0DAF90BE000F0A6FD08E01C
:10035000B648007820F01C00B4490870FFF79BFFF6
:1003600000BF00BF09B000BD02E0B74800F08AFA44
:10037000FBE710B5B44800F085FA002841D1B24C33
:10038000607820B1012815D0022839D113E0A748A0
:10039000007820F00100401CA4490870AB480078A8
:1003A00020F0F800A9490870A94A0021084600F089
:1003B00004FF25E024E0A08899490968496888423B
:1003C0001DD1E07905281ADDE0799549096888731F
:1003D000E07901F087F99F48006808B9012000E042
:1003E00000209C490860C82001F07BFA9A48D0F8A8
:1003F000B40108B9012000E000209649086000BF60
:1004000000BF10BD10B591480078C0F3400060B146
:100410008E48007820F002008C4908708149491C00
:10042000481E00F08CFCFFF736FF8848007800F08B
:10043000010038B18548007820F001008349087038
:10044000FFF7E8FE81480078C0F3800070B17F4874
:10045000007820F004007D4908707E48006808B9E3
:10046000012000E000207B49086007E06F48007829
:1004700000F0010010B1012076490860734800784F
:100480000F21B1EBD00F0AD16848007820F00100AD
:1004900066490870714A0021084600F08EFE10BDC2
:1004A00010B5002000F0D9FF88B16048007820F036
:1004B0000200801C5D490870084600788008401CD6
:1004C000097860F3840159480170FFF7E4FE10BD1C
:1004D00001F0CAF94FF4A06002F00AFB00F0D9FE67
:1004E0004FF4E13001F039FAFFF7C3FE01F086F86E
:1004F0005BA202211E2000F0A0FD5C4801F03DF946
:100500004FF47A7001F0EDF90CE059A202210F20AE
:1005100000F093FD59A204210A2000F08EFD642012
:1005200001F0DFF900F0FEF90028EED100F041FA09
:1005300000F0C1FC4FF48051544802F03AFC50B92D
:100540000A2001F0CEF94FF48051504802F031FCFE
:1005500008B9FFF709FF0CE04DA202210F2000F0BF
:100560006CFD46A204210A2000F067FD322001F054
:10057000B8F900F010FC0028EED100F09CFC41F628
:100580001F4140F2E73000F0F3FA344A00210846F8
:1005900000F013FEFFF77FFE05E0FFF7EAFEFFF72E
:1005A0007FFFFFF72FFFF8E710B501213B4802F06E
:1005B0008AFA002833D00121384802F095FA3848E9
:1005C0000068401C3649086008460068142190FB0A
:1005D000F1F201FB120088B91C48007820F00200FB
:1005E000801C1A49087008460078012101EBD000F0
:1005F0001649097860F3C70114480170084800687B
:10060000807B00EB800040002549096891FBF0F2F7
:1006100000FB121010B90548007843E04CE067E099
:1006200054010020000000200008014009000020C3
:1006300074656D703A2564632000000068756D690B
:100640003A25642525200000B8010020080000207C
:100650003C430008B4812142008021425C430008F1
:1006600041494920494E495400000000D80100206A
:100670004E524620636865636B000000706C6561D4
:10068000736520776169742E2E2E0000000C0140E6
:10069000444854313120636865636B0000080040B2
:1006A0000C00002000F0010030B11248007820F06A
:1006B0000100401C0F4908700F4800680A2190FB98
:1006C000F1F201FB120058B90C48007800F001006B
:1006D00030B90848007820F00400001D0549087072
:1006E00005480068B0F5967F02D1002002490860F5
:1006F00010BD0000080000200C00002009000020B0
:1007000008B501214FF4CE7002F07CFD4FF4F0509B
:10071000ADF8000010208DF8030003208DF80200D2
:100720006946CE4802F0B2FA6946CD4802F0AEFA08
:100730006946CC4802F0AAFA4FF48070ADF8000088
:1007400048208DF8030003208DF802006946C34855
:1007500002F09CFA4FF48040ADF8000048208DF87C
:10076000030003208DF802006946BE4802F08EFAAD
:1007700008BD002000E0401CB0F5167FFBD8704794
:10078000002119E000F08002802A03D10122B64B3B
:100790001A6002E00022B44B1A604206100E0122D9
:1007A000B14B1B1D1A60B14AD2F820210243D0B2CE
:1007B00000221A604A1CD1B20829E3DB704770B5E9
:1007C00005460C460020A849083108602846FFF776
:1007D000D7FF06462046FFF7D3FF0120A349C1F803
:1007E000AC01304670BD30B5044600209E4908314A
:1007F00008602046FFF7C4FFFF20FFF7C1FF054652
:1008000001209A49C1F8AC01284630BD2DE9F041DC
:1008100007460D46164600209349083108603846C1
:10082000FFF7AEFF8046002405E0FF20FFF7A8FF9A
:100830002855601CC4B2B442F7DB01208A49083154
:1008400008604046BDE8F0812DE9F04107460C46BE
:10085000154600208449083108603846FFF790FFAC
:100860008046002605E014F8010BFFF789FF701C95
:10087000C6B2AE42F7DB01207B4908310860404632
:10088000BDE8F08130B504460720FFF7ACFF054610
:1008900029462720FFF793FF05F04000A0B1002074
:1008A00071490C310860202221466120FFF7AEFF1C
:1008B000FF21E220FFF783FF01206C49C1F8B0015E
:1008C000FFF757FF002030BD0120FCE730B505469B
:1008D000002065490C31086020222946A020FFF73E
:1008E000B3FF01206149C1F8B00100BF6048006852
:1008F0000128FBD00720FFF776FF0446214627207A
:10090000FFF75DFF04F0100028B1FF21E120FFF7A1
:1009100056FF102030BD04F0200008B12020F9E778
:10092000FF20F7E70FB553A103C9CDE9020100206D
:10093000009001904C49091D086001204B49C1F805
:10094000AC01002048490C310860052202A9302082
:10095000FFF77AFF052269461020FFF757FF9DF841
:100960000000112812D19DF8010022280ED19DF817
:10097000020033280AD19DF80300442806D19DF8CF
:100980000400552802D1002004B000BD0120FBE77F
:1009900010B50446002034490C31086004F12001F0
:1009A000C8B20021FFF70BFF01203049C1F8B001A8
:1009B00010BD00B500202C490C31086020213120E9
:1009C000FFF7FDFEFF21E220FFF7F9FE05222B498C
:1009D0003020FFF739FF052229492A20FFF734FF8D
:1009E00001212120FFF7EBFE01212220FFF7E7FE86
:1009F0001A212420FFF7E3FE00212520FFF7DFFE68
:100A00000F212620FFF7DBFE0F212020FFF7D7FE66
:100A100001201649C1F8B00100BD10B50446002000
:100A200011490C3108600E212020FFF7C8FE01207B
:100A30000E49C1F8B0010F2000F02FFF2046FFF74C
:100A400045FF002008490C3108600F212020FFF7E6
:100A5000B6FE01200549C1F8B00110BD00080140F3
:100A600000100140000C0140A4012142000021427D
:100A70003881214211223344550000009C44000873
:100A8000A14400087FB505460C460121084602F046
:100A9000C6FBADF80850ADF804400020ADF80A00E0
:100AA000ADF8060001A94FF0804001F0E7F90122FE
:100AB0001146900701F059FD1C208DF8000003201D
:100AC0008DF801008DF8020001208DF803006846C2
:100AD00002F013F80121880701F02CFD7FBD30B52D
:100AE00089B005460C460121022002F098FB012145
:100AF000092002F087FB01214D4802F098F92020DF
:100B0000ADF8200018208DF8230003208DF8220076
:100B100008A9484802F0BAF8ADF81850ADF81440EA
:100B20000020ADF81A00ADF8160005A9424801F002
:100B3000A5F97020ADF804000120ADF806000020F2
:100B4000ADF80C0001A93C4801F017FA01A93A4898
:100B500001F060FA0821384801F032FE08213648D9
:100B600001F021FE0121344801F0E4FC09B030BD60
:100B70007FB505460C460121042002F050FBADF87C
:100B80000850ADF804400020ADF80A00ADF80600AA
:100B900001A92A4801F072F901221146274801F003
:100BA000E4FC1E208DF8000003208DF801008DF874
:100BB000020001208DF80300684601F09EFF01212C
:100BC0001E4801F0B7FC7FBD7FB505460C460121EC
:100BD000022002F024FB184801F07CF8ADF8085020
:100BE000ADF804400020ADF80A00ADF8060001A9F8
:100BF000114801F043F901210F4801F061FF012282
:100C000011460D4801F0B1FC1D208DF800000020B8
:100C10008DF801008DF8020001208DF80300684670
:100C200001F06BFF0021044801F084FC7FBD00004F
:100C300000081A00000C01400004004000080040B9
:100C400010B56448006820F0F0006249086008466A
:100C5000006840F03000086000205F490860142000
:100C600000F03FFE01205D49C1F8A4011E2000F004
:100C700014FE10BD10B500245648006820F0F000A6
:100C8000544908600846006840F08000086004E0AD
:100C9000601CC4B2012000F000FE4F48803800689C
:100CA00008B1642CF4DB642C01DB012010BD0024AE
:100CB00004E0601CC4B2012000F0EFFD464880381B
:100CC000006808B9642CF4DB642C01DB0120EDE73B
:100CD0000020EBE710B5002404E0601CC4B2012042
:100CE00000F0DBFD3C488038006808B1642CF4DB80
:100CF000002404E0601CC4B2012000F0CEFD3648A0
:100D00008038006808B9642CF4DB282000F0C5FDA9
:100D100031488038006808B1012010BD0020FCE790
:100D200070B50024002506E06006040EFFF7D2FF30
:100D30000443681CC5B2082DF6DB204670BD7CB5A7
:100D400005460E46FFF77CFFFFF794FFF8B9002435
:100D500005E0FFF7E5FF0DF80400601CC4B2052CA8
:100D6000F7DB9DF800009DF8011008449DF8021083
:100D700008449DF8031008449DF80410884208D1E7
:100D80009DF8000030709DF80200287001E00120FD
:100D90007CBD0020FCE708B50121082002F032FAF2
:100DA0004FF40070ADF8000010208DF80300032010
:100DB0008DF8020069460748001F01F067FF4FF4F5
:100DC00000710448001F02F00EF8FFF739FFFFF72B
:100DD00051FF08BD040C0140A48121420080214242
:100DE00070B504460E4626B11021F94801F0FBFF0C
:100DF00003E01021F64801F0F8FF4FF48051F44869
:100E000001F0F3FF002517E08021F14801F0EDFF2C
:100E100004F0800020B14021ED4801F0E4FF03E040
:100E20004021EB4801F0E1FF8021E94801F0DBFFC0
:100E30006006040E681CC5B2082DE5DB4FF4805136
:100E4000E34801F0D0FF1021E14801F0CCFF70BD74
:100E500070B504460D4605F1B001C8B20021FFF798
:100E6000BFFF102141EA14100021FFF7B9FF04F081
:100E70000F0141F001000021FFF7B2FF70BD10B576
:100E800000218D20FFF7ACFF00211420FFF7A8FF01
:100E90000021AF20FFF7A4FF10BD10B500218D2069
:100EA000FFF79EFF00211020FFF79AFF0021AE20E0
:100EB000FFF796FF10BD70B5002419E004F1B001F2
:100EC000C8B20021FFF78CFF00210846FFF788FF1A
:100ED00000211020FFF784FF002505E001210020FC
:100EE000FFF77EFF681CC5B2802DF7DB601CC4B223
:100EF000082CE3DB70BD70B5022419E004F1B001E9
:100F0000C8B20021FFF76CFF00210846FFF768FF19
:100F100000211020FFF764FF002505E001210020DB
:100F2000FFF75EFF681CC5B2802DF7DB601CC4B202
:100F3000082CE3DB70BD2DE9F04107460E469046D4
:100F400000250024A8F12000C5B27F2F02DD002774
:100F5000B01CC6B231463846FFF77AFF002408E0DD
:100F600004EB05119B4A505C0121FFF739FF601C1F
:100F7000C4B2082CF4DB701CC1B23846FFF768FF1E
:100F8000002409E004EB05110831924A505C01216C
:100F9000FFF726FF601CC4B2082CF3DBBDE8F0812C
:100FA00010B50246012000E050430B00A1F10104FE
:100FB000E1B2F9D110BD2DE9FF5F074691461D460C
:100FC0000E9E4FF0000A002433E0281B401EC1B2E1
:100FD0000A20FFF7E5FFB9FBF0F00A21B0FBF1F2C0
:100FE00001FB1208BAF1000F13D1681EA04210DDF8
:100FF000B8F1000F0BD1B34606EBDB71491001FBD2
:101000000471C8B220220199FFF795FF0FE04FF05D
:10101000010AB34606EBDB71491001FB0471C8B24B
:1010200008F13001CAB20199FFF785FF00BF601CCB
:10103000C4B2AC42C9DBBDE8FF9F2DE9F0410646D2
:101040000F46144600250EE0625D39463046FFF734
:1010500072FF06F10800C6B2782E02DD0026B81C29
:10106000C7B2681CC5B2605D10B1605D0A28EBD1E3
:10107000BDE8F0812DE9F04180460E461546002777
:1010800031464046FFF7E4FE00240AE0524A02EBF4
:101090004511085D0121FFF7A3FE781CC7B2601C53
:1010A000C4B2102CF2DB701CC1B24046FFF7D0FE78
:1010B00000240CE06900491C474A02EB0111085D5D
:1010C0000121FFF78DFE781CC7B2601CC4B2102C42
:1010D000F0DBBDE8F0812DE9F05F06460F46904653
:1010E0001C46DDF828A04FF0070BE11704EB517107
:1010F000C910A4EBC10131B92046E11704EB5171CD
:10110000C1F3C70506E02046E11704EB5171C91091
:10111000491CCDB23D4618E029463046FFF798FEFF
:101120000B9800F0DEFBB1460BE059460BF1010BCA
:101130001AF801000121FFF753FE09F1010000F048
:10114000FF09C145F1DB681CC5B2A542E4DBBDE87F
:10115000F09F2DE9F04705460C4616462046E1175C
:1011600004EB5171C1F3C7092046E11704EB51713B
:10117000C910A4EBC10101F0FF0A0120A04000F05A
:10118000FF08284605EBD0714910A5EB410109B9CC
:10119000681CC7B249463846FFF75AFE012E04D1F3
:1011A00001214046FFF71CFE05E06FEA0801C8B2C6
:1011B0000121FFF715FEBDE8F0872DE9F041074654
:1011C0000E46154631463846FFF742FE10240BE026
:1011D000000C0140CE46000810000020285D0121CF
:1011E000FFF7FEFD601CC4B2202CF7DB701CC1B2FF
:1011F0003846FFF72DFE002405E0285D0121FFF7AA
:10120000EFFD601CC4B2102CF7DBBDE8F0812DE9C6
:10121000F04107460E46154631463846FFF718FEA0
:10122000602405E0285D0121FFF7DAFD601CC4B2EF
:10123000802CF7DB701CC1B23846FFF709FE402452
:1012400005E0285D0121FFF7CBFD601CC4B2602CD6
:10125000F7DBB01CC1B23846FFF7FAFD202405E0E9
:10126000285D0121FFF7BCFD601CC4B2402CF7DBF8
:10127000F01CC1B23846FFF7EBFD002405E0285D05
:101280000121FFF7ADFD601CC4B2202CF7DBBDE8E7
:10129000F08108B50121092001F0B4FF0121554872
:1012A00001F0C5FD0121544801F0C1FD4FF4387033
:1012B000ADF8000010208DF8030002208DF8020028
:1012C00069464E4801F0E2FC0121082001F09AFF36
:1012D0001020ADF8000002208DF8020010208DF8DB
:1012E00003006946454801F0D1FC002001F0F7FEFB
:1012F0002021424801F079FD642000F0F2FA20211B
:101300003E4801F070FD0021AE20FFF769FD00218D
:101310000846FFF765FD00211020FFF761FD002161
:101320004020FFF75DFD00218120FFF759FD0021DE
:10133000CF20FFF755FD0021A120FFF751FD00212F
:10134000C820FFF74DFD0021A620FFF749FD002131
:10135000A820FFF745FD00213F20FFF741FD0021B8
:10136000D320FFF73DFD00210846FFF739FD00219E
:10137000D520FFF735FD00218020FFF731FD00214A
:10138000D920FFF72DFD0021F120FFF729FD0021D5
:10139000DA20FFF725FD00211220FFF721FD0021B3
:1013A000DB20FFF71DFD00214020FFF719FD002184
:1013B0002020FFF715FD00210220FFF711FD00217D
:1013C0008D20FFF70DFD00211420FFF709FD0021FE
:1013D000A420FFF705FD0021A620FFF701FD002155
:1013E000AF20FFF7FDFC0021AF20FFF7F9FCFFF76E
:1013F00062FD08BD0002300000043000000C014016
:1014000008B50121082001F0FDFE4FF40050ADF8B1
:10141000000010208DF8030003208DF802006946BB
:10142000044801F033FC4FF40051024801F0DBFCAA
:1014300008BD0000000C014008B50121082001F0A2
:10144000E1FE4FF48050ADF8000048208DF8030015
:101450006946164801F01AFC08BD10B5044614B1DF
:101460000120134908701248007898B14FF4805158
:10147000104801F09EFC68B90A2000F032FA002002
:101480000B4908704FF480510A4801F092FC50B9A2
:10149000012010BD4FF48051064801F08AFC01285C
:1014A00001D1034908700020F3E700000018014053
:1014B00050010020000C01400146088870472DE9CA
:1014C000F04105460E461746002407E036F8141092
:1014D000284602F066FAAD1C601C84B2BC42F5DB03
:1014E000BDE8F08130B503460C461546002207E002
:1014F0001846FFF7E1FF24F812009B1C501C82B233
:10150000AA42F5DB30BD2DE9F05F80468A461746DA
:10151000B8F1006F02D33748804501D3BDE8F09F92
:1015200002F0F7F8A8F1006B4FEADB25CBF349098D
:10153000C9F58064A74200DC3C464DE04FF00061F5
:1015400001EBC5204A142C49FFF7CCFF00260BE025
:1015500009EB0600284931F810004FF6FF71884268
:1015600000D003E0701C86B2A642F1DB00BFA642A9
:101570001BDA4FF0006101EBC52002F00FF90026E5
:1015800008E03AF8160006EB09011B4A22F81100A0
:10159000701C86B2A642F4DB4FF0006101EBC5205F
:1015A0004A141549FFF78BFF04E022465146404696
:1015B000FFF785FFA74200D10FE06D1C4FF0000937
:1015C0000AEB440AA044381B87B2B7F5806F02DDEE
:1015D0004FF4806400E03C46B0E700BF02F0A5F89D
:1015E00000BF9BE713B50446012201A92046FFF77F
:1015F0008AFF1CBD00000808F801002000B587B074
:1016000001214FF4017001F0FDFD4FF4004001F0A5
:101610005DFD0220ADF8040000208DF8070001A94F
:101620002E4801F033FB2E4802F032FB00200290DE
:101630008DF80C008DF80D004FF460200490002010
:10164000059001208DF8180002A9254802F047FBFB
:101650000121234802F06FFB214802F08EFB00BFFE
:101660001F4802F08FFB0028FAD11D4802F094FBBE
:1016700000BF1B4802F095FB0028FAD107B000BD5F
:1016800010B50446072301222146154802F0BFFB8E
:101690000121134802F08FFB00BF0221104802F025
:1016A000FBFC0028F9D00E4802F018FC10BD2DE913
:1016B000F04107460C460025002608E03846FFF7B3
:1016C000DFFF0544052000F00CF9701CC6B2A642ED
:1016D000F4DBB5FBF4F080B2BDE8F0810008014016
:1016E0000024014010B504464C4800688473202251
:1016F0004A4801684A48FFF706FF10BD30B589B077
:1017000004460D4615B1012D34D11EE045A101A8B6
:10171000626802F0E5FC01AA02210F20FFF78DFCB0
:1017200042A101A8A26802F0DBFC01AA04210F205B
:10173000FFF783FC227C3FA101A802F0D1FC01AAA3
:1017400006210F20FFF779FC14E0A2893BA101A834
:1017500002F0C6FC01AA02210F20FFF76EFCA27B5B
:1017600038A101A802F0BCFC01AA04210F20FFF758
:1017700064FC00BF00BF09B030BD10B50446202294
:1017800021462748FFF7AEFE244804600068007831
:10179000772811D121480068407833280CD1FFF711
:1017A0008AFB00211D480068FFF7A8FF28A200213E
:1017B0001E20FFF742FC30E0FFF77DFB27A202214D
:1017C0000F20FFF73AFC772014490968087033208E
:1017D00012490968487040F2E930104909684860C8
:1017E00040F2D1700D490968888101200B490968D0
:1017F000886005200949096888730220074909683B
:101800000874002105480068417404480068817428
:10181000202221460248FFF776FE10BD5401002029
:1018200000A0000869643A2025640000736E3A2025
:10183000256400006E756D3A202564007869643A6D
:101840002025640074696D653A202564000000005D
:10185000696E666F2067657400000000696E666FD0
:10186000207361766500000010B56FF0040001F090
:101870008EF92E4800682E49B0FBF1F02D49087012
:101880000846007800EB4001C1EBC0104FF6FF7135
:1018900001EAC0002849088010BD0146254A127897
:1018A0004A434FF0E0235A6100229A611A461269B6
:1018B00042F001021A6100BF4FF0E022106900F00F
:1018C00001021AB100F48032002AF5D04FF0E02274
:1018D000126922F001024FF0E0231A6100229A619E
:1018E00070470146144A12884A434FF0E0235A6178
:1018F00000229A611A46126942F001021A6100BF81
:101900004FF0E022106900F001021AB100F48032B9
:10191000002AF5D04FF0E022126922F001024FF0C8
:10192000E0231A6100229A617047000090010020B4
:1019300000127A00580100205A010020014600BF21
:10194000704700BF4F4A128802F04002002AF9D0C7
:10195000C2B24C4B1B1D1A80704710B586B00446AE
:101960000121042001F04EFC0121480401F057FC44
:101970000420ADF8140018208DF8170005A942487E
:1019800001F084F90820ADF8140004208DF8170048
:1019900005A93D4801F07AF90121480401F059FCFC
:1019A00000214FF4003001F054FC4FF4A06001F02E
:1019B0009FF826208DF8000003208DF801008DF897
:1019C000020001208DF80300684601F096F80194AA
:1019D0000020ADF80800ADF80A00ADF80C00ADF835
:1019E00010000C20ADF80E0001A9284801F0B1FC50
:1019F000012240F22551254801F043FD01212348F1
:101A000001F033FD06B010BD10B540F225511F485E
:101A100001F01CFE10B31D4801F098FDC4B21C4833
:101A2000008800F40040C8B91948008800F48040DC
:101A300060B10A2C03D000201549088020E014482A
:101A4000008840F400401249088019E00D2C06D1AE
:101A50000F48008840F480400D49088010E00C4891
:101A60000088C0F30D000B490C5409480088401C45
:101A70000749088008460088C72801DD0020088043
:101A800010BD000000380140000801400044004043
:101A90008C010020F80900200948804709480047C8
:101AA000FEE7FEE7FEE7FEE7FEE7FEE7FEE7FEE70E
:101AB000FEE7FEE704480549054A064B704700006B
:101AC000D31B000831010008200B0020201100204A
:101AD000200D0020200D0020704700BFFEE700BF52
:101AE000FEE700BFFEE700BFFEE7704770477047A4
:101AF000704700000CB50020019000906C48006811
:101B000040F480306A49086000BF6948006800F40A
:101B1000003000900198401C0190009818B901987D
:101B2000B0F5A06FF1D16248006800F4003010B148
:101B30000120009001E0002000900098012843D18E
:101B40005C48006840F010005A4908600846006888
:101B500020F0030008600846006840F002000860BA
:101B60005348406852494860084640684860084603
:101B7000406840F4806048600846406820F47C106B
:101B800048600846406840F4E8104860084600682D
:101B900040F08070086000BF4548006800F00070A9
:101BA0000028F9D04248406820F0030040494860CE
:101BB0000846406840F00200486000BF3C4840686A
:101BC00000F00C000828F9D10CBD10B5FFF792FF0A
:101BD00010BD10B53648006840F001003449086077
:101BE0000846406834490840314948600846006862
:101BF000324908402E4908600846006820F48020D9
:101C000008600846406820F4FE0048604FF41F005A
:101C10008860FFF7DAFF4FF000602949086010BDC7
:101C200010B5002100200022214B5B6803F00C015D
:101C300021B1042906D0082928D107E0214B224CE4
:101C4000236027E01F4B204C236023E0184B5B6888
:101C500003F47010164B5B6803F48032022303EB2D
:101C6000904022B9194B4343174C23600DE0104BB1
:101C70005B6803F4003323B1144B4343124C2360DD
:101C800003E0104B4343104C236003E00D4B0E4C1C
:101C9000236000BF00BF064B5B68C3F303130C4C0B
:101CA000E15C094B1B68CB40074C236010BD000072
:101CB00000100240002002400000FFF8FFFFF6FE87
:101CC00008ED00E000127A009001002000093D00BC
:101CD0009401002010B50446FE48844208D1012139
:101CE000C01401F0A9FA0021E01401F0A5FAC4E043
:101CF000B4F1804F08D10121084601F0AAFA002171
:101D0000012001F0A6FAB8E0F348844208D101218D
:101D1000022001F09EFA0021022001F09AFAACE0C4
:101D2000EE48844208D10121042001F092FA0021FA
:101D3000042001F08EFAA0E0E948844208D1012194
:101D4000082001F086FA0021082001F082FA94E0D0
:101D5000E448844208D10121102001F07AFA0021E0
:101D6000102001F076FA88E0DF48844208D1012192
:101D7000202001F06EFA0021202001F06AFA7CE0B8
:101D8000DA48844208D10121401401F055FA0021BB
:101D9000601401F051FA70E0D548844209D1012164
:101DA000C80401F049FA00214FF4002001F044FA80
:101DB00063E0D048844209D10121080501F03CFAD2
:101DC00000214FF4801001F037FA56E0CA488442EF
:101DD00009D10121480501F02FFA00214FF400102C
:101DE00001F02AFA49E0C548844208D10121402087
:101DF00001F02FFA0021402001F02BFA3DE0C0480D
:101E0000844208D10121802001F023FA00218020A2
:101E100001F01FFA31E0BB48844208D1012180154E
:101E200001F017FA0021A01501F013FA25E0B648D9
:101E3000844209D10121080401F0FEF900214FF488
:101E4000803001F0F9F918E0B048844209D101214D
:101E5000480401F0F1F900214FF4003001F0ECF9F1
:101E60000BE0AB48844208D10121880401F0E4F979
:101E700000214FF4802001F0DFF910BD002202881C
:101E8000944B98420ED0994B98420BD0B0F1804FB2
:101E900008D0914B984205D0904B984202D0904B7D
:101EA000984204D14FF68F731A404B881A438D4BDA
:101EB000984207D08C4B984204D04FF6FF431A400B
:101EC000CB881A4302808B8883850B880385814BDE
:101ED00098420BD0854B984208D08B4B984205D046
:101EE0008A4B984202D08A4B984201D10B7A0386E2
:101EF00001238382704770B5002400220023058CE3
:101F00004FF6FE7635400584028C8388048B4FF6AD
:101F10008F752C40B51E2C400D882C43751E2A4011
:101F20000D892A434D882A436A4DA8420BD06F4D34
:101F3000A84208D0744DA84205D0744DA84202D0E2
:101F4000734DA84213D14FF6F7752A404D892A43A5
:101F50004FF6FB752A408D882A434FF6FF652B40CC
:101F60004FF6FF552B408D892B43CD892B43838022
:101F70000483CD888586028470BD70B5002400225C
:101F80000023058C4FF6EF7635400584028C83885C
:101F9000048B48F6FF752C404FF6FF452C400D880A
:101FA0004FF6FF7606EA05252C434FF6DF752A40EB
:101FB0000D8906EA05152A434D8806EA05152A43C8
:101FC000444DA84202D0494DA8421DD14FF67F751D
:101FD0002A404D894FF6FF7606EA05152A434FF64B
:101FE000BF752A408D8806EA05152A434FF6FF354E
:101FF0002B404FF2FF752B408D8906EA85052B4358
:10200000CD8906EA85052B4383800483CD88058727
:10201000028470BD70B5002400220023058C4FF6A9
:10202000FF6635400584028C8388848B4FF68F755C
:102030002C404FF6FC752C400D882C434FF6FF5575
:102040002A400D894FF6FF7606EA05252A434D887A
:1020500006EA05252A431F4DA84202D0234DA84277
:102060001DD14FF2FF752A404D894FF6FF7606EAE3
:1020700005252A434FF6FF352A408D8806EA0525B7
:102080002A434EF6FF752B404DF6FF752B408D8988
:1020900006EA05152B43CD8906EA05152B438380F7
:1020A0008483CD888587028470BD70B500220023AB
:1020B0000024058C4EF6FF7635400584038C848819
:1020C000828B48F6FF752A404FF6FF452A400D885F
:1020D00020E00000002C0140000400400008004007
:1020E000000C00400010004000140040003401408B
:1020F000004C0140005001400054014000180040D5
:10210000001C00400020004000400140004401400D
:10211000004801404FF6FF7606EA05252A434DF6B2
:10212000FF752B400D8906EA05352B434D8806EADD
:1021300005352B43FA4DA84202D0FA4DA84208D1EA
:102140004BF6FF752C408D894FF6FF7606EA851514
:102150002C4384808283CD88A0F84050038470BDD6
:10216000828B4FF2FF331A408283828B4FF6FF73CC
:1021700003EA01231A4382837047F0B50C461546E3
:10218000002200210026078C4EF6FF7C07EA0C0790
:102190000784828B018C4FF6FF7707EA043640F6FE
:1021A000FF473A404FF6FF7707EA05273A434FF6D5
:1021B000FF7707EA03373A43D94FB8420ED0D94FD9
:1021C000B8420BD0B0F1804F08D0D74FB84205D0FD
:1021D000D64FB84202D0D64FB84206D14DF6FF775F
:1021E000394046F48057394305E047F6FF573940F8
:1021F00044F48057394382830184F0BD828B4FF6CB
:10220000F3731A408283828B0A4382837047F0B54E
:102210000C461546002200210026078C4FF6FF6C65
:1022200007EA0C070784828B018C4FF6FF7707EAD9
:1022300004264FF60C773A404FF6FF7707EA03176C
:102240002F433A43B64FB8420ED0B64FB8420BD0E8
:10225000B0F1804F08D0B44FB84205D0B34FB84268
:1022600002D0B34FB84206D14FF6FF57394046F47B
:102270008077394305E04FF2FF57394044F48077C7
:10228000394382830184F0BD028B4FF2FF331A4041
:102290000283028B4FF6FF7303EA01231A43028382
:1022A0007047F0B50C461546002200210026078C29
:1022B0004FF6EF7C07EA0C070784028B018C4FF680
:1022C000FF7707EA041640F6FF473A404FF6FF77DC
:1022D00007EA03373A434FF6FF7707EA05273A4301
:1022E0008F4FB8420ED08F4FB8420BD0B0F1804F15
:1022F00008D08D4FB84205D08C4FB84202D08C4FD9
:10230000B84206D14FF6DF77394046F0100739431F
:1023100005E04FF65F77394044F0100739430283F8
:102320000184F0BD028B4FF6F3731A400283028BD7
:102330000A4302837047F0B50C461546002200217F
:10234000068C4FF6FE773E400684028B018C4FF6DA
:102350000C7632407E1C06EA03162E433243704E42
:10236000B0420ED06F4EB0420BD0B0F1804F08D0CB
:102370006D4EB04205D06D4EB04202D06C4EB042B0
:1023800006D14FF6FD76314044F00106314305E0B9
:102390004FF6F576314044F0010631430283018463
:1023A000F0BD70B505460C465D4885420ED05D48CF
:1023B00085420BD0B5F1804F08D05B48854205D0EF
:1023C0005A48854202D05A48854200D100E000BFF9
:1023D000208850B92389A28861882846FFF7ABFF7F
:1023E000E1882846FFF79EFF25E0208804280AD1CF
:1023F0002389A28861882846FFF753FFE188284691
:10240000FFF742FF17E0208808280AD12389A28815
:1024100061882846FFF7FBFEE1882846FFF7EEFEBD
:1024200009E02389A28861882846FFF7A6FEE18893
:102430002846FFF795FE70BD2DE9F04105460C4694
:1024400000260127608808B9022600E00026A0883F
:10245000012801D1022700E001272088A0B92389A3
:10246000A28861882846FFF766FFE1882846FFF7C3
:1024700059FF23893A4631462846FFF712FFE18883
:102480002846FFF701FF13E02389A28861882846C8
:10249000FFF707FFE1882846FFF7F6FE23893A4653
:1024A00031462846FFF747FFE1882846FFF73AFF05
:1024B000BDE8F0810A884B881A438B881A43CB8881
:1024C0001A430B891A434B891A438B891A43A0F884
:1024D000442070474FF6FF71818000210180C18048
:1024E0004180017270470021018041808180C1805C
:1024F000018141818181C18170470021018041803A
:10250000012181800021C18001817047002101806B
:1025100041808180C18001814181818170470000BB
:10252000002C01400034014000040040000800403D
:10253000000C004021B1028842F00102028004E058
:1025400002884FF6FE731A400280704731B1B0F82E
:10255000442042F40042A0F8442005E0B0F84420B2
:10256000C2F30E02A0F8442070471AB183890B43CE
:10257000838102E083898B43838170478182704726
:1025800041EA0203A0F8483070471AB183890B432F
:10259000838102E083898B438381704701894FF6F1
:1025A000F8721140018170470A46002101894FF6F7
:1025B0008F73194011430181704730B504460D46B1
:1025C00029462046FFF7F0FF208940F007002081D0
:1025D00030BD2DE9F04104460D4616461F46602DDC
:1025E00006D13B46012231462046FFF75AFE05E060
:1025F0003B46012231462046FFF79DFE29462046F4
:10260000FFF7D2FF208940F007002081BDE8F0816C
:1026100030B50C4600210189C9B24FF6FF7505EAB5
:102620000325154325432943018130BD2DE9F041A0
:1026300005460E4617469846002443463A4631461C
:102640002846FFF7E5FF2C894FF6F870044044F068
:1026500007044FF68F70044044F070042C81BDE8ED
:10266000F081F0B504460D4616461F463B463246FD
:1026700029462046FFF7CCFF208940F48040208186
:10268000F0BD0185828270470A46002101884FF61D
:102690008F731940114301807047F0B50C46154601
:1026A0001E460021002200230189028B038C4FF675
:1026B000F877394021434FF6FC473A4040F2011782
:1026C0003A434FF6DD773B404FF6FF7707EA0617B0
:1026D0002F433B43018102830384F0BD0A4600215E
:1026E000018B4FF68F7319401143018370470A46DF
:1026F0000021018B48F6FF7319404FF6FF7303EA80
:1027000002231943018370470A460021818B4FF64B
:102710008F7319401143818370470A460021818BD2
:1027200048F6FF7319404FF6FF7303EA022319437B
:102730008183704721B1028842F08002028004E068
:1027400002884FF67F731A400280704721B1828859
:1027500042F00402828004E082884FF6FB731A4044
:102760008280704721B1828842F00802828004E0B2
:1027700082884FF6F7731A408280704721B18288B1
:1027800042F00102828004E082884FF6FE731A4014
:10279000828070470A460021018B4FF6F77319407B
:1027A0001143018370470A460021018B4FF2FF73EA
:1027B00019404FF6FF7303EA022319430183704760
:1027C0000A460021818B4FF6F7731940114381832C
:1027D00070470A460021818B4FF2FF7319404FF674
:1027E000FF7303EA02231943818370470A460021DD
:1027F000018B4FF6FB7319401143018370470A4662
:102800000021018B4FF6FF3319404FF6FF7303EAA7
:1028100002231943018370470A460021818B4FF63A
:10282000FB7319401143818370470A460021818B55
:102830004FF6FF3319404FF6FF7303EA02231943A3
:10284000818370470A460021018B4FF67F73194040
:102850001143018370470A460021018BC1F30E0129
:102860004FF6FF7303EA02231943018370470A46B8
:102870000021818B4FF67F7319401143818370478C
:102880000A460021818BC1F30E014FF6FF7303EA64
:1028900002231943818370470A460021018C4FF6B9
:1028A000FD7319401143018470470A460021018CD1
:1028B0004FF6F77319401143018470470A4600210F
:1028C000018C4FF6DF7319404FF6FF7303EA0213D2
:1028D0001943018470470A460021018C4FF67F732B
:1028E00019404FF6FF7303EA02131943018470473E
:1028F0000A460021018C4FF6FF5319404FF6FF7333
:1029000003EA02231943018470470A460021018C1F
:102910004FF2FF7319404FF6FF7303EA0223194386
:10292000018470470A460021018C4DF6FF7319405F
:102930004FF6FF7303EA023319430184704730B541
:10294000002301248C40A3B2048C9C430484048C97
:1029500002FA01F5ADB22C43048430BD30B500233A
:1029600004248C40A3B2048C9C430484048C02FA9B
:1029700001F5ADB22C43048430BD70B50346002090
:1029800000241846183001258D40ACB21D8CA5439B
:102990001D8409B1082909D100EB6100056825F003
:1029A000700505600568154305600EE00D1FC5F351
:1029B0004E052844056825F4E045056005684FF696
:1029C000FF7606EA02263543056070BD21B1028814
:1029D00042F00202028004E002884FF6FD731A40C2
:1029E0000280704721B1028842F00402028004E0B4
:1029F00002884FF6FB731A400280704721B182882B
:102A000042F08002828004E082884FF67F731A4091
:102A10008280704702884FF6F7731A40028002885E
:102A20000A430280704782884FF68F731A40828073
:102A300082880A438280704702894FF6F8731A40F1
:102A4000028102890A430281704702894FF67F732F
:102A50001A40028102890A430281704781847047CB
:102A600081857047818670470187704781877047ED
:102A7000A0F84010704702884FF6FF431A400280CA
:102A800002880A43028070470146888E70470146DB
:102A9000088F70470146888F70470146B1F84000A3
:102AA00070470146888C70470146088D7047024682
:102AB0000020138A0B400BB1012000E0002070477A
:102AC000CA430282704730B502460020002300242A
:102AD000158A05EA0103958905EA010413B10CB1D1
:102AE000012000E0002030BDCA4302827047000090
:102AF00031490143314A1160704770B5002100230C
:102B00000F22C47804B32D4C246804F4E064C4F5A7
:102B1000E064210AC1F10403CA40447804FA03F1D5
:102B20008478144021430901254C0678A155047886
:102B300004F01F050124AC4005786D11AD0005F1CE
:102B4000E025C5F8004109E0047804F01F050124E0
:102B5000AC401C4D0678761145F8264070BD1A4AE7
:102B60000A400243154B1B1F1A60704739B1134AC4
:102B7000121D12680243114B1B1D1A6006E00F4A1A
:102B8000121D126882430D4B1B1D1A6070470428EA
:102B900008D14FF0E021096941F004014FF0E02233
:102BA000116107E04FF0E021096921F004014FF0C5
:102BB000E0221161704700000000FA050CED00E012
:102BC00000E400E080E100E080FFFF1F10B5044654
:102BD000CC48844208D10121042000F02DFB0021C3
:102BE000042000F029FB46E0C748844208D10121B7
:102BF000082000F021FB0021082000F01DFB3AE036
:102C0000C248844208D10121102000F015FB0021A8
:102C1000102000F011FB2EE0BD48844208D10121B4
:102C2000202000F009FB0021202000F005FB22E01D
:102C3000B848844208D10121402000F0FDFA00216B
:102C4000402000F0F9FA16E0B348844208D101218F
:102C5000802000F0F1FA0021802000F0EDFA0AE077
:102C6000AE48844207D10121801500F0E5FA002129
:102C7000A01500F0E1FA10BD10B50121084600F0E2
:102C8000DBFA0021012000F0D7FA10BD2DE9F04158
:102C9000024600250026002000230024002791F88A
:102CA00003C00CF00F0591F803C00CF0100CBCF140
:102CB000000F03D091F802C04CEA050591F800C05E
:102CC000BCF1000F31D0146800202BE04FF0010C54
:102CD0000CFA00F3B1F800C00CEA03069E4220D1C2
:102CE00083004FF00F0C0CFA03F7BC4305FA03FC0A
:102CF0004CEA040491F803C0BCF1280F06D14FF050
:102D0000010C0CFA00FCC2F814C00AE091F803C0F0
:102D1000BCF1480F05D14FF0010C0CFA00FCC2F8D1
:102D200010C0401C0828D1D31460B1F800C0BCF119
:102D3000FF0F34DD546800202EE000F1080C4FF046
:102D4000010808FA0CF3B1F800C00CEA03069E4231
:102D500021D183004FF00F0C0CFA03F7BC4305FAA6
:102D600003FC4CEA040491F803C0BCF1280F05D120
:102D700000F1080C08FA0CF8C2F8148091F803C0AE
:102D8000BCF1480F07D100F1080C4FF0010808FA18
:102D90000CF8C2F81080401C0828CED35460BDE85F
:102DA000F0814FF6FF710180022181700421C17012
:102DB00070470246002093680B400BB1012000E0F1
:102DC000002070470146886880B2704702460020A4
:102DD000D3680B400BB1012000E000207047014692
:102DE000C86880B2704701617047416170470AB19D
:102DF000016100E041617047C16070474FF480326B
:102E00000A438261816182618269826970470246F8
:102E10000020434B18684FF68073184040EA0210B8
:102E200008433F4B186070473E49C8617047F0B592
:102E30000A46002300240021002500F00046B6F1D8
:102E4000004F02D1364EF16901E0354E7168C0F392
:102E5000034583B200F44016B6F5401F08D121F0B7
:102E600070612F4E766826F070662D4F7E6012E0FE
:102E700000F48016B6F5801F06D1032606FA05F485
:102E8000A14341F0706106E0460D360103FA06F6F3
:102E9000B14341F0706122B1460D360103FA06F6E6
:102EA000314300F00046B6F1004F02D11C4EF161F3
:102EB00001E01B4E7160F0BD30B500228B071C0F86
:102EC0000F2303FA04F2164B08338C1053F8243006
:102ED0009343134C08348D1044F8253023468C104E
:102EE00053F824308C07240F00FA04F423430C4CCD
:102EF00008348D1044F8253030BD0A49DC310860B3
:102F00007047000000080140000C01400010014023
:102F10000014014000180140001C01400020014045
:102F20000000014000002042DF48006840F001003E
:102F3000DD49086008464068DC490840DA494860D5
:102F400008460068DA490840D74908600846006822
:102F500020F4802008600846406820F4FE004860A5
:102F60004FF41F0088607047CF49096821F4803111
:102F7000CD4A11601146096821F480211160B0F535
:102F8000803F03D0B0F5802F0ED106E0C649096816
:102F900041F48031C44A116007E0C349096841F433
:102FA000A021C14A116000E000BF00BF704710B50A
:102FB00001460022002300204A11012A02D1BA4C06
:102FC000236806E0022A02D1B74C236A01E0B64C1E
:102FD000636A01F01F02012494401C400CB10120DF
:102FE00000E0002010BD38B500200090002400252E
:102FF00000BF3120FFF7DBFF05460098401C009022
:103000000098B0F5A06F01D0002DF2D03120FFF76D
:10301000CEFF08B1012400E00024204638BD01465F
:103020000020A14A106820F0F80040EAC1001060BA
:103030007047A04908607047024600209A4B5868C4
:1030400020F47C1042EA01031843974B5860704704
:1030500098490866704701460020934A506820F05E
:1030600003000843506070478F48406800F00C0030
:103070007047014600208C4A506820F0F000084359
:103080005060704701460020874A506820F4E06095
:1030900008435060704701460020834A506820F47E
:1030A000605040EAC1005060704729B17E4A527AB0
:1030B00002437D4B5A7204E07B4A527A82437A4B38
:1030C0005A7270477B49D83108607047014600202A
:1030D000754A506820F44040084350607047002112
:1030E000714A20321170704A82F82010012802D0F3
:1030F00004280AD104E001216B4A2032117005E056
:103100000521694A2032117000E000BF00BF7047FE
:103110006949086070476449096A0143624A11625B
:103120007047654944390860704730B50021002276
:10313000002400235C4D6D6805F00C0121B10429C9
:1031400005D0082923D105E05C4D056022E05B4DE8
:1031500005601FE0544D6D6805F47012524D6D68A6
:1031600005F48034022505EB92421CB9544D5543B9
:1031700005600BE04C4D6D6805F400351DB1504DF8
:103180005543056002E04D4D5543056002E04B4D4F
:10319000056000BF00BF444D6D6805F0F0010909EE
:1031A000484D6B5C0568DD4045603F4D6D6805F43A
:1031B000E061090A434D6B5C4568DD4085603A4D2E
:1031C0006D6805F46051C90A3E4D6B5C4568DD4091
:1031D000C560354D6D6805F44041890B3A4D6B5C17
:1031E000C568B5FBF3F5056130BD29B12E4A5269BA
:1031F00002432D4B5A6104E02B4A526982432A4B09
:103200005A61704729B1284A92690243264B9A6154
:1032100004E0254A92698243234B9A61704729B1A1
:10322000214AD2690243204BDA6104E01E4AD26986
:1032300082431D4BDA61704729B11B4AD2680243B1
:10324000194BDA6004E0184AD2688243164BDA6000
:10325000704729B1144A12690243134B1A6104E002
:10326000114A12698243104B1A6170471249403962
:10327000086070470F49C86470470B49C8717047B0
:103280000948406A40F0807007494862704701462B
:103290000020054A92680A400AB1012000E000209F
:1032A0007047014988727047001002400000FFF823
:1032B000FFFFF6FE000042428004424200127A0004
:1032C00000093D00A4010020B401002010B504460F
:1032D000FB48844209D101218803FFF7ADFF00219B
:1032E0004FF48040FFF7A8FF32E0F648844209D14E
:1032F00001214804FFF7ADFF00214FF40030FFF734
:10330000A8FF25E0F048844209D101218804FFF795
:10331000A0FF00214FF48020FFF79BFF18E0EB484F
:10332000844209D10121C804FFF793FF00214FF423
:103330000020FFF78EFF0BE0E548844208D1012111
:103340000805FFF786FF00214FF48010FFF781FF8B
:1033500010BD2DE9F04786B005460E460024A24672
:1033600000BFA1460027B08900B100BF2F462C8ABC
:103370004CF6FF700440F08804432C82AC894EF672
:10338000F3100440B088318908437189084304432D
:10339000AC81AC8A4FF6FF400440B0890443AC8254
:1033A00001A8FFF7C2FEC648874202D1DDF810A08F
:1033B00001E0DDF80CA0A88900F4004040B10AEB60
:1033C000CA0000EB0A1031684900B0FBF1F807E0D1
:1033D0000AEBCA0000EB0A1031688900B0FBF1F873
:1033E0006420B8FBF0F004012009642101FB10897E
:1033F000A88900F4004040B1322000EBC900B0FBC6
:10340000F1F000F00700044308E0322000EB09105F
:103410006421B0FBF1F000F00F0004432C8106B0F2
:10342000BDE8F0874FF41651016000218180C18012
:1034300001810C21418100218181704710B5024634
:103440000020108A4FF2FF0318400B884C8823435A
:103450008C882343CC8823431843108210BD00215D
:10346000018041808180C180704721B1828942F40E
:103470000052828104E082894DF6FF731A408281F6
:103480007047F0B50346002400260025002040F6D2
:103490006A17B94200D100BF1846C1F3421401F0C7
:1034A0001F06012707FA06F5012C01D10C3004E0B4
:1034B000022C01D1103000E014301AB107682F43FC
:1034C000076002E00768AF430760F0BD1AB1838A66
:1034D0000B43838202E0838A8B4383827047028A94
:1034E0004FF6F0731A400282028A0A430282704742
:1034F00082894FF2FF731A40828182890A43828156
:10350000704721B1828942F00202828104E08289FF
:103510004FF6FD731A4082817047028A4FF6DF73BF
:103520001A400282028A0A430282704721B1028A4B
:1035300042F48042028204E0028A4BF6FF731A4092
:1035400002827047C1F30802828070470146888872
:10355000C0F308007047818941F001018181704703
:10356000028BD2B20283028B42EA012202837047AD
:10357000028B02F47F420283028B0A43028370476C
:1035800021B1828A42F02002828204E0828A4FF6D0
:10359000DF731A408282704721B1828A42F01002A2
:1035A000828204E0828A4FF6EF731A40828270476B
:1035B00021B1828A42F00802828204E0828A4FF6B8
:1035C000F7731A408282704721B1828942F4004227
:1035D000828103E08289C2F30E028281704721B1A9
:1035E000828A42F40062828204E0828A4FF2FF7390
:1035F0001A4082827047828A4FF6FB731A40828299
:10360000828A0A438282704721B1828A42F0020292
:10361000828204E0828A4FF6FD731A4082827047EC
:1036200002460020B1F5007F00D100BF13880B4097
:103630000BB1012000E00020704701F40072B2F5E8
:10364000007F00D100BFCA430280704770B50246B8
:10365000002400230025002040F66A16B14200D164
:1036600000BFC1F3421501F01F03012606FA03F360
:10367000012D02D19689334006E0022D02D1168A2F
:10368000334001E0968A33400C12012606FA04F416
:103690001688344013B10CB1012000E0002070BD49
:1036A00010B50022002340F66A14A14200D100BFE9
:1036B0000A1201249440A3B2DC43048010BD000030
:1036C000003801400044004000480040004C0040E9
:1036D0000050004001460020FE4A106800F038000B
:1036E000084310607047FB49096821F00801F94A56
:1036F000116011460968014311607047F549096876
:1037000021F01001F34A116011460968014311606C
:103710007047F148EF494860F04848607047EE480C
:10372000EC494860ED4848607047EA48006940F05D
:103730008000E84908617047E648006940F0800071
:10374000E449086170470420E249C96801F00101B9
:1037500009B101200EE0DF49C96801F0040109B197
:10376000022007E0DB49C96801F0100109B103201C
:1037700000E00420704700B502460423FFF7E3FF92
:10378000034603E0FFF7DFFF0346521E012B01D182
:10379000002AF7D102B90523184600BD30B504460A
:1037A00004254FF43020FFF7E6FF0546042D17D11E
:1037B000C848006940F00200C649086108464461F3
:1037C000006940F0400008614FF43020FFF7D3FF5C
:1037D0000546C048006941F6FD710840BD490861D1
:1037E000284630BD10B504244FF43020FFF7C3FF46
:1037F0000446042C16D1B748006940F00400B549CE
:1038000008610846006940F0400008614FF430202C
:10381000FFF7B1FF0446AF48006941F6FB7108406D
:10382000AC490861204610BD00B502460423FFF7ED
:103830008AFF034603E0FFF786FF0346521E012B73
:1038400001D1002AF7D102B90523184600BD10B5F1
:1038500004244FF43020FFF7E7FF0446042C16D170
:103860009C48006940F004009A49086108460069D4
:1038700040F0400008614FF43020FFF7D5FF0446C8
:103880009448006941F6FB7108409249086120465E
:1038900010BD00208F49C96901F0020109B1012062
:1038A00000E00020704730B5A5250424FFF7F1FFA4
:1038B00000B100254FF43020FFF75DFF0446042CD3
:1038C0003AD1854883498860844888600846006901
:1038D00040F0200008610846006940F0400008619F
:1038E0004FF43020FFF747FF0446042C1BD17948E2
:1038F000006941F6DF7108407649086108460069B1
:1039000040F01000086176480580E002FFF733FFC1
:103910000446052C10D06F48006941F6EF7108404D
:103920006C49086108E0052C06D06A48006941F638
:10393000EF71084067490861204630BD78B50646FA
:103940000C46042500200090E802FFF714FF05460E
:10395000042D24D15F48006940F001005D490861F1
:103960003480E802FFF707FF0546042D10D1B01C94
:103970000090200C00990880E802FFF7FCFE054645
:103980005448006941F6FE7108405249086106E05A
:103990005048006941F6FE7108404E4908612846CA
:1039A00078BD70B504460D460426F002FFF7E3FE2D
:1039B0000646042E11D14748006940F001004549F0
:1039C00008612580F002FFF7D6FE064641480069EF
:1039D00041F6FE7108403F490861304670BD70B540
:1039E00005460E460424E002FFF7C5FE0446042CFB
:1039F00017D13948374988603848886008460069D7
:103A000040F0100008612E80E002FFF7B4FE04468B
:103A1000052C06D02F48006941F6EF7108402D496A
:103A20000861204670BD2DE9F04304464FF6FF764D
:103A30003746B046B1460425E443E6B2C4F307274F
:103A4000C4F307484FEA1469E802FFF794FE0546FD
:103A5000042D49D120481F498860204888600846C5
:103A6000006940F010000861FF2E06D01C480830A5
:103A70000680E802FFF77FFE0546042D08D1FF2FE0
:103A800006D017480A300780E802FFF774FE0546A3
:103A9000042D0AD1B8F1FF0F07D011480C30A0F85F
:103AA0000080E802FFF767FE0546042D0AD1B9F150
:103AB000FF0F07D00A480E30A0F80090E802FFF789
:103AC0005AFE0546052D0FD00248006941F6EF71F8
:103AD000084007E00020024023016745AB89EFCD95
:103AE00000F8FF1F664908612846BDE8F08330B53D
:103AF000054604244FF43020FFF73DFE0446042C15
:103B000041D160485E4988605F4888600846006926
:103B100040F0200008610846006940F0400008615C
:103B20004FF43020FFF727FE0446042C22D15448DE
:103B3000006941F6DF710840514908610846006993
:103B400040F0100008611DB100205049088002E0DB
:103B5000A5204E4908804FF43020FFF70CFE0446A4
:103B6000052C10D04648006941F6EF7108404449E1
:103B7000086108E0052C06D04148006941F6DF7174
:103B800008403F490861204630BDF0B505460E4665
:103B9000174604243B483A4988603B488860E00265
:103BA000FFF7E9FD0446042C19D13548006940F0BF
:103BB00010003349086147F0F80030432843334987
:103BC000891C0880E002FFF7D6FD0446052C06D0CC
:103BD0002B48006941F6EF710840294908612046E9
:103BE000F0BD2748C069800870472548006A7047C3
:103BF00000202349096801F0200109B1012000E0FB
:103C00000020704729B11E4A126902431C4B1A61F9
:103C100004E01B4A12698243194B1A61704701463E
:103C20000020012908D1164AD26902F001020AB126
:103C3000012008E0002006E0114AD2680A400AB1DB
:103C4000012000E0002070470D49C8607047042043
:103C50000B49C96801F0010109B101200EE00849D2
:103C6000C96801F0040109B1022007E00449C968EC
:103C700001F0100109B1032000E0042070470000AA
:103C80000020024023016745AB89EFCD00F8FF1FFC
:103C900010B50446FA48844208D101214015FFF7C7
:103CA000CBFA00216015FFF7C7FA17E0F548844208
:103CB00008D101210015FFF7BFFA00212015FFF7F9
:103CC000BBFA0BE0F048844208D10121C803FFF79A
:103CD000B3FA00214FF40040FFF7AEFA10BD30B543
:103CE0000246002000235068E84C20400D790C6803
:103CF00044EA0524204350609068E54C2040D1E917
:103D000002542C434D7944EA450420439060D06A24
:103D100020F470000C7C641EE4B2234340EA03509C
:103D2000D06230BD00210160017141718160C160CC
:103D300001210174704721B1826842F00102826062
:103D400003E0826822F001028260704721B182683C
:103D500042F48072826003E0826822F480728260A2
:103D6000704710B50023CBB21AB144681C434460BD
:103D700002E044689C43446010BD816841F0080142
:103D800081607047014600208A6802F008020AB18B
:103D9000012000E000207047816841F0040181604B
:103DA0007047014600208A6802F004020AB101202F
:103DB00000E00020704721B1826842F4A0028260D6
:103DC00003E0826822F4A00282607047014600206E
:103DD0008A6802F480020AB1012000E000207047E6
:103DE00010B50A4600210023416821F46041531EAA
:103DF00041EA4331416010BD21B1426842F40062A2
:103E0000426003E0426822F4006242607047F0B50D
:103E100004460D4600200021092D11DDE068A5F1C2
:103E20000A0606EB4607072606FA07F18843A5F1BE
:103E30000A0606EB460603FA06F10843E0600CE0CA
:103E4000206905EB4507072606FA07F1884305EBCD
:103E5000450603FA06F108432061072A0FDA606B72
:103E6000561E06EB86071F2606FA07F18843561EE4
:103E700006EB860605FA06F10843606322E00D2A88
:103E80000FDA206BD61F06EB86071F2606FA07F10E
:103E90008843D61F06EB860605FA06F10843206321
:103EA00010E0E06AA2F10D0606EB86071F2606FA6F
:103EB00007F18843A2F10D0606EB860605FA06F126
:103EC0000843E062F0BD21B1826842F48012826052
:103ED00003E0826822F48012826070470146C86C59
:103EE00080B2704766484C300068704721B1426824
:103EF00042F48062426003E0426822F480624260E1
:103F0000704721B1426842F48052426003E0426847
:103F100022F48052426070470A460021816821F4F1
:103F2000E04111438160704721B1826842F4004250
:103F3000826003E0826822F400428260704721B10F
:103F4000826842F40212826003E0826822F4021264
:103F500082607047014600208A6802F400120AB1AC
:103F6000012000E000207047F0B50446154600200F
:103F700000220026092911DDE068A1F10A0707EBFC
:103F8000470C072707FA0CF29043A1F10A0707EB49
:103F9000470703FA07F21043E0600CE0206901EBE9
:103FA000410C072707FA0CF2904301EB410703FA93
:103FB00007F210432061A06BC0F30156EF1C06F11D
:103FC000010CA7EB0C0707EB870C1F2707FA0CF275
:103FD0009043EF1C06F1010CA7EB0C0707EB8707DA
:103FE00001FA07F21043A063F0BD10B50A460021A4
:103FF0000023816B21F44011531E41EA0351816378
:1040000010BD08B5002300930090009B0B44009363
:10401000009B1A6008BD08B502460020009000927F
:1040200001F12800009B184400900098006880B2BD
:1040300008BD0A4600214168164B194011434160F2
:1040400070474162826270470A460021416821F050
:104050001F0111434160704740B1094908310968A7
:1040600041F40001064A0832116007E004490831B2
:10407000096821F40001024A08321160704700000B
:104080000024014000280140003C0140FFFEF0FFF9
:10409000FDF7F1FFFFFD3FFF0246002013680B40D4
:1040A0000BB1012000E000207047CA430260704756
:1040B00070B502460020002300240B125568CEB2D2
:1040C00005EA060415681D4015B10CB1012000E099
:1040D000002070BD00220A12D3430360704770476E
:1040E0000FB41CB5074B06AA7B446946009005989F
:1040F00000F0DDF80020694600F0ECF81CBC5DF82B
:1041000014FB0000E90100002DE9F0410E460446D1
:10411000002020622046E168884730B3252805D07A
:10412000D4E901219047206A401CF2E7E16820466B
:1041300000278847050018D0A5F14100192802D8AA
:1041400020354FF400673246294620462760FCF7A9
:1041500049F840B1012804D0F61D26F007060836BC
:10416000D8E7361DD6E72846DAE7206ABDE8F081B1
:104170002DE9F0410646002410687529314616A540
:1041800010D0AFF30080002802DA404213A507E008
:1041900031688A0701D512A502E0490704D511A5A7
:1041A000012401E0AFF3008000210A2206F1240778
:1041B00009E0B0FBF2FCB0FBF2F302FB1C00303074
:1041C00078541846491C0028F3D123462A46304625
:1041D000BDE8F04100F00CB8000000002D00000028
:1041E0002B000000200000007047704770477047A8
:1041F0002DE9F0470D4699469246044600F1240801
:104200000168880604D5E06921F01001216000E012
:104210000120A84201DD471B00E00027A1697A19AF
:1042200002EB0900081AA0612078C00602D42046DB
:10423000AFF30080002608E0D4E901211AF8060057
:104240009047206A401C761C20624E45F4DB2078A3
:10425000C0060AD52046AFF3008006E0D4E901216C
:1042600030209047206A401C2062381EA7F10107C9
:10427000F4DC07E0D4E9012118F805009047206A32
:10428000401C2062281EA5F10105F3DC2046AFF397
:1042900000802078000602D50220BDE8F0870120CA
:1042A000FBE7000001694A1C02610878704700B50D
:1042B0008FB0CDE901310021059105497944CDE95F
:1042C000031011466846FFF71FFF0FB000BD000046
:1042D000E5FFFFFF0A6802F8010B0A6070477546A8
:1042E00000F028F8AE4605006946534620F0070066
:1042F000854618B020B5FDF7DDFBBDE820404FF046
:1043000000064FF000074FF000084FF0000B21F0BF
:104310000701AC46ACE8C009ACE8C009ACE8C0098C
:10432000ACE8C0098D4670470446AFF300802046D4
:10433000FBF76AFF00487047C00A002000003C3DC0
:104340003D1B073F3F3C033F3F3E00000000EEEEB9
:10435000DEDCBCBC78F0F0E08000000063F7E74EE4
:104360000EC080191900C07107FFFFF873777777C7
:10437000670200FCFC0000F0E0800000000000008C
:104380000000000000000000000101010101010027
:10439000000000000000000000000000000000001D
:1043A000000000000E3F7FE0CF9F9080808080C0A3
:1043B000C0713F0F0000000000000000000000007E
:1043C0000000000000C0E0781C8E870303070E1C6D
:1043D00038F0C000000000000000000000000000F5
:1043E00000000000000000000000008080000000CD
:1043F00000000000000000000000000000000000BD
:10440000000000000000070F1C1830313130181C6C
:104410000F07000000000000000000000000000086
:10442000000000000000F0F81F0F00C0C0000F1FC8
:10443000F8F0000000000000000000000000000094
:104440000000000000000000FFFF09090000FFFF5E
:10445000000000000000000000000000000000005C
:104460000000000000000000F0F81C0C0C1CF8F02C
:10447000000000000000000000000000000F080F16
:10448000080F080F08080808080F010000F010D0F6
:1044900010D010D01010101010F08000FFFFFFFFA0
:1044A000FF00000000000000000000000000002FDE
:1044B000000000000700070000147F147F14002490
:1044C0002A7F2A12006264081323003649552250BD
:1044D00000000503000000001C22410000004122F2
:1044E0001C000014083E08140008083E08080000DC
:1044F00000A06000000808080808000060600000D4
:10450000002010080402003E5149453E0000427F51
:104510004000004261514946002141454B3100189D
:1045200014127F10002745454539003C4A4949305F
:104530000001710905030036494949360006494919
:10454000291E000036360000000056360000000824
:104550001422410000141414141400004122140801
:1045600000020151090600324959513E007C1211E6
:10457000127C007F49494936003E41414122007F7B
:104580004141221C007F49494941007F0909090135
:10459000003E4149497A007F0808087F0000417FBA
:1045A0004100002040413F01007F08142241007F6C
:1045B00040404040007F020C027F007F0408107FD3
:1045C000003E4141413E007F09090906003E41513C
:1045D000215E007F091929460046494949310001F9
:1045E000017F0101003F4040403F001F2040201F4D
:1045F000003F4038403F0063140814630007087010
:10460000080700615149454300007F4141000055C2
:104610002A552A55000041417F000004020102048E
:10462000004040404040000001020400002054547B
:104630005478007F484444380038444444200038CB
:104640004444487F00385454541800087E0901023D
:104650000018A4A4A47C007F080404780000447D12
:104660004000004080847D00007F1028440000004E
:10467000417F4000007C04180478007C0804047822
:1046800000384444443800FC24242418001824240E
:1046900018FC007C0804040800485454542000040A
:1046A0003F444020003C4040207C001C2040201C17
:1046B000003C4030403C004428102844001CA0A08E
:1046C000A07C004464544C441414141414140000CA
:1046D00000000000000000000000000000000000DA
:1046E00000F800000000000000333000000000105F
:1046F0000C06100C0600000000000000000040C086
:104700007840C0784000043F04043F040400007077
:1047100088FC08300000001820FF211E0000F0086F
:10472000F000E018000000211C031E211E0000F014
:104730000888700000001E2123241927211010165C
:104740000E0000000000000000000000000000005B
:1047500000E01804020000000007182040000002DA
:104760000418E0000000004020180700000040404E
:1047700080F0804040000202010F010202000000B0
:1047800000F0000000000101011F01010100000014
:1047900000000000000080B0700000000000000079
:1047A0000000000000000001010101010101000002
:1047B0000000000000000030300000000000000099
:1047C000000080601804006018060100000000E08E
:1047D00010080810E000000F102020100F0000103B
:1047E00010F8000000000020203F20200000007092
:1047F000080808887000003028242221300000308A
:104800000888884830000018202020110E00000081
:10481000C02010F8000000070424243F240000F802
:104820000888880808000019212020110E0000E0E7
:10483000108888180000000F112020110E00003889
:104840000808C83808000000003F000000000070A1
:10485000880808887000001C222121221C0000E02A
:1048600010080810E0000000312222110F000000A3
:1048700000C0C00000000000003030000000000058
:1048800000800000000000008060000000000000C8
:104890008040201008000001020408102000404061
:1048A00040404040400004040404040404000008A4
:1048B0001020408000000020100804020100007059
:1048C00048080808F0000000003036010000C03041
:1048D000C828E810E0000718272423140B00000064
:1048E000C038E0000000203C23020227382008F8EE
:1048F000888888700000203F202020110E00C030E2
:10490000080808083800071820202010080008F8B8
:1049100008080810E000203F202020100F0008F8B1
:104920008888E8081000203F20202320180008F87D
:104930008888E8081000203F200003000000C030F5
:1049400008080838000007182020221E020008F876
:1049500008000008F808203F210101213F2000083D
:1049600008F8080800000020203F20200000000078
:104970000808F8080800C08080807F00000008F860
:1049800088C028180800203F20012638200008F899
:10499000080000000000203F20202020300008F800
:1049A000F800F8F80800203F003F003F200008F81A
:1049B00030C00008F808203F200007183F00E01032
:1049C00008080810E0000F10202020100F0008F841
:1049D00008080808F000203F210101010000E01054
:1049E00008080810E0000F18242438504F0008F879
:1049F000888888887000203F2000030C30200070D9
:104A00008808080838000038202121221C001808D6
:104A100008F8080818000000203F2000000008F8EF
:104A200008000008F808001F202020201F00087838
:104A3000880000C83808000007380E010000F80898
:104A400000F80008F800033C0700073C03000818C2
:104A500068808068180820302C03032C3020083828
:104A6000C800C83808000000203F200000001008DF
:104A70000808C83808002038262120201800000027
:104A800000FE020202000000007F40404000000CD7
:104A900030C000000000000000010638C000000225
:104AA0000202FE000000004040407F0000000000C5
:104AB00004020202040000000000000000000000E8
:104AC00000000000000080808080808080800002E4
:104AD00002040000000000000000000000000000D0
:104AE0008080808000000019242222223F2008F8C4
:104AF000008080000000003F112020110E00000007
:104B0000008080800000000E112020201100000095
:104B100000808088F800000E112020103F20000047
:104B2000808080800000001F22222222130000804B
:104B300080F0888888180020203F20200000000096
:104B4000808080808000006B94949493600008F8CB
:104B5000008080800000203F210000203F20008056
:104B60009898000000000020203F20200000000056
:104B700000809898000000C08080807F000008F8C6
:104B8000000080808000203F24022D30200000089B
:104B900008F8000000000020203F20200000808056
:104BA000808080808000203F20003F20003F808068
:104BB000008080800000203F210000203F20000076
:104BC000808080800000001F202020201F00808027
:104BD00000808000000080FFA12020110E00000056
:104BE000008080808000000E112020A0FF80808047
:104BF00080008080800020203F21200001000000F4
:104C000080808080800000332424242419000080C8
:104C100080E0808000000000001F202000008080D5
:104C2000000000808000001F202020103F20808096
:104C300080000080808000010E3008060100808026
:104C40000080008080800F300C030C300F0000804B
:104C50008000808080000020312E0E312000808076
:104C600080000080808080818E70180601000080A6
:104C70008080808080000021302C222130000000C4
:104C80000000807C020200000000003F4040000065
:104C90000000FF00000000000000FF000000000214
:104CA000027C800000000040403F00000000000641
:104CB00001010202040400000000000000000000E6
:104CC000E04C000800000020B80100006C01000862
:104CD000144E0008B8010020680F0000C801000849
:104CE00001112BF808013AFF0623FC082B030101F0
:104CF0003AFF0632031A200122FF2EFF2010080C73
:104D00000F26602010107F2B3F40013A701F2E208D
:104D100020A07FA00723302017404020100C031D47
:104D2000010608102C11180840301196909091043B
:104D30001698141350302A04011E44847E06050878
:104D40001306041010101010FF905020F84F48491F
:104D5000FA484C081C0242815E111019FF222222DF
:104D60003F2232202040484443F64A430AE42326A7
:104D70002A22F322295D14FF02041BFF490119981E
:104D80002C808082016009E2A2928A8680C0802BFA
:104D90004080445130102020109088949699D2B4CD
:104DA00088C89030101B809FA21A0E5A3A5F2E18A6
:104DB0000CFC0404FE4420504F4848C87F21151FB6
:104DC00008081F3E3048444241E011100FF010FF28
:104DD00010F02018C8090E08882818272067221FFD
:104DE000123B1A3F211A4120F20118096666663FFC
:104DF0000AD7233C68823FFC9A9919149184A24AED
:104E000004680901020304060708090C691005007B
:044E1000020406088A
:0400000508000131BD
:00000001FF
