Component: ARM Compiler 5.05 update 1 (build 106) Tool: armlink [4d0efa]

==============================================================================

Section Cross References

    main.o(.text) refers to _printf_percent.o(.ARM.Collect$$_printf_percent$$00000000) for _printf_percent
    main.o(.text) refers to _printf_d.o(.ARM.Collect$$_printf_percent$$00000009) for _printf_d
    main.o(.text) refers to _printf_dec.o(.text) for _printf_int_dec
    main.o(.text) refers to _printf_s.o(.ARM.Collect$$_printf_percent$$00000014) for _printf_s
    main.o(.text) refers to _printf_str.o(.text) for _printf_str
    main.o(.text) refers to nrf24l01_api.o(.text) for SPI_GPIO_Init
    main.o(.text) refers to key.o(.text) for KEY_Init
    main.o(.text) refers to led.o(.text) for LED_Init
    main.o(.text) refers to stm32f10x_gpio.o(.text) for GPIO_SetBits
    main.o(.text) refers to noretval__2sprintf.o(.text) for __2sprintf
    main.o(.text) refers to noretval__2printf.o(.text) for __2printf
    main.o(.text) refers to lcd.o(.text) for LCD_ShowChinese
    main.o(.text) refers to h1_alloc.o(.text) for malloc
    main.o(.text) refers to base64.o(.text) for encode
    main.o(.text) refers to h1_free.o(.text) for free
    main.o(.text) refers to dev.o(.data) for it
    main.o(.text) refers to main.o(.bss) for rec_buff
    main.o(.text) refers to main.o(.data) for System_t
==============================================================================

Removing Unused input sections from the image.

    Removing adc.o(.text), (232 bytes).
    Removing cjson.o(.text), (6784 bytes).
    Removing cjson.o(.constdata), (7 bytes).
    Removing cjson.o(.data), (12 bytes).
    Removing sys.o(.emb_text), (6 bytes).
    Removing sys.o(.text), (12 bytes).
    Removing core_cm3.o(.emb_text), (32 bytes).
    Removing stm32f10x_exti.o(.text), (284 bytes).
    Removing stm32f10x_adc.o(.text), (1102 bytes).
    Removing stm32f10x_dac.o(.text), (396 bytes).

10 unused section(s) (total 8867 bytes) removed from the image.

==============================================================================

Image Symbol Table

    Local Symbols

    Symbol Name                              Value     Ov Type        Size  Object(Section)

    ../clib/angel/boardlib.s                 0x00000000   Number         0  boardinit1.o ABSOLUTE
    ../clib/angel/boardlib.s                 0x00000000   Number         0  boardshut.o ABSOLUTE
    ../clib/angel/boardlib.s                 0x00000000   Number         0  boardinit2.o ABSOLUTE
    ../clib/angel/boardlib.s                 0x00000000   Number         0  boardinit3.o ABSOLUTE
    ../clib/angel/dczerorl2.s                0x00000000   Number         0  __dczerorl2.o ABSOLUTE
    ../clib/angel/handlers.s                 0x00000000   Number         0  __scatter_zi.o ABSOLUTE
    ../clib/angel/kernel.s                   0x00000000   Number         0  rtexit.o ABSOLUTE
    ../clib/angel/kernel.s                   0x00000000   Number         0  __rtentry.o ABSOLUTE
    ../clib/angel/kernel.s                   0x00000000   Number         0  rtexit2.o ABSOLUTE
    ../clib/angel/kernel.s                   0x00000000   Number         0  __rtentry4.o ABSOLUTE
    ../clib/angel/kernel.s                   0x00000000   Number         0  __rtentry2.o ABSOLUTE
    ../clib/angel/rt.s                       0x00000000   Number         0  rt_ctype_table.o ABSOLUTE
    ../clib/angel/rt.s                       0x00000000   Number         0  rt_heap_descriptor.o ABSOLUTE
    ../clib/angel/rt.s                       0x00000000   Number         0  rt_locale.o ABSOLUTE
    ../clib/angel/rt.s                       0x00000000   Number         0  rt_heap_descriptor_intlibspace.o ABSOLUTE
    ../clib/angel/rt.s                       0x00000000   Number         0  rt_errno_addr.o ABSOLUTE
    ../clib/angel/rt.s                       0x00000000   Number         0  rt_raise.o ABSOLUTE
    ../clib/angel/rt.s                       0x00000000   Number         0  rt_locale_intlibspace.o ABSOLUTE
    ../clib/angel/rt.s                       0x00000000   Number         0  rt_errno_addr_intlibspace.o ABSOLUTE
    ../clib/angel/scatter.s                  0x00000000   Number         0  __scatter.o ABSOLUTE
    ../clib/angel/startup.s                  0x00000000   Number         0  __main.o ABSOLUTE
    ../clib/angel/sys.s                      0x00000000   Number         0  indicate_semi.o ABSOLUTE
    ../clib/angel/sys.s                      0x00000000   Number         0  libspace.o ABSOLUTE
    ../clib/angel/sys.s                      0x00000000   Number         0  mutex_dummy.o ABSOLUTE
    ../clib/angel/sys.s                      0x00000000   Number         0  use_no_semi.o ABSOLUTE
    ../clib/angel/sys.s                      0x00000000   Number         0  sys_stackheap_outer.o ABSOLUTE
    ../clib/angel/sys.s                      0x00000000   Number         0  use_no_semi_2.o ABSOLUTE
    ../clib/angel/sysapp.c                   0x00000000   Number         0  sys_command.o ABSOLUTE
    ../clib/armsys.c                         0x00000000   Number         0  argv_veneer.o ABSOLUTE
    ../clib/armsys.c                         0x00000000   Number         0  argv_veneer.o ABSOLUTE
    ../clib/armsys.c                         0x00000000   Number         0  no_argv.o ABSOLUTE
    ../clib/armsys.c                         0x00000000   Number         0  _get_argv_nomalloc.o ABSOLUTE
    ../clib/armsys.c                         0x00000000   Number         0  _get_argv.o ABSOLUTE
    ../clib/bigflt.c                         0x00000000   Number         0  bigflt0.o ABSOLUTE
    ../clib/btod.s                           0x00000000   Number         0  btod.o ABSOLUTE
    ../clib/ctype.c                          0x00000000   Number         0  tolower.o ABSOLUTE
    ../clib/fenv.c                           0x00000000   Number         0  _rserrno.o ABSOLUTE
    ../clib/heap1.c                          0x00000000   Number         0  h1_free.o ABSOLUTE
    ../clib/heap1.c                          0x00000000   Number         0  h1_init_mt.o ABSOLUTE
    ../clib/heap1.c                          0x00000000   Number         0  h1_alloc_mt.o ABSOLUTE
    ../clib/heap1.c                          0x00000000   Number         0  h1_final.o ABSOLUTE
    ../clib/heap1.c                          0x00000000   Number         0  h1_final_mt.o ABSOLUTE
    ../clib/heap1.c                          0x00000000   Number         0  h1_free_mt.o ABSOLUTE
    ../clib/heap1.c                          0x00000000   Number         0  h1_extend_mt.o ABSOLUTE
    ../clib/heap1.c                          0x00000000   Number         0  h1_extend.o ABSOLUTE
    ../clib/heap1.c                          0x00000000   Number         0  h1_init.o ABSOLUTE
    ../clib/heap1.c                          0x00000000   Number         0  h1_alloc.o ABSOLUTE
    ../clib/heap2.c                          0x00000000   Number         0  heap2mt.o ABSOLUTE
    ../clib/heap2.c                          0x00000000   Number         0  heap2.o ABSOLUTE
    ../clib/heap2.c                          0x00000000   Number         0  fdtree.o ABSOLUTE
    ../clib/heapalloc.c                      0x00000000   Number         0  init_alloc.o ABSOLUTE
    ../clib/heapalloc.c                      0x00000000   Number         0  hguard.o ABSOLUTE
    ../clib/heapalloc.c                      0x00000000   Number         0  heapstubs.o ABSOLUTE
    ../clib/heapalloc.c                      0x00000000   Number         0  maybetermalloc2.o ABSOLUTE
    ../clib/heapalloc.c                      0x00000000   Number         0  free.o ABSOLUTE
    ../clib/heapalloc.c                      0x00000000   Number         0  maybetermalloc2.o ABSOLUTE
    ../clib/heapalloc.c                      0x00000000   Number         0  maybetermalloc1.o ABSOLUTE
    ../clib/heapalloc.c                      0x00000000   Number         0  maybetermalloc1.o ABSOLUTE
    ../clib/heapalloc.c                      0x00000000   Number         0  hrguard.o ABSOLUTE
    ../clib/heapalloc.c                      0x00000000   Number         0  malloc.o ABSOLUTE
    ../clib/heapalloc.c                      0x00000000   Number         0  term_alloc.o ABSOLUTE
    ../clib/heapaux.c                        0x00000000   Number         0  heapauxa.o ABSOLUTE
    ../clib/heapaux.c                        0x00000000   Number         0  heapauxi.o ABSOLUTE
    ../clib/libinit.s                        0x00000000   Number         0  libinit2.o ABSOLUTE
    ../clib/libinit.s                        0x00000000   Number         0  libinit.o ABSOLUTE
    ../clib/libinit.s                        0x00000000   Number         0  libshutdown.o ABSOLUTE
    ../clib/libinit.s                        0x00000000   Number         0  libshutdown2.o ABSOLUTE
    ../clib/locale.s                         0x00000000   Number         0  lc_numeric_c.o ABSOLUTE
    ../clib/locale.s                         0x00000000   Number         0  lc_ctype_c.o ABSOLUTE
    ../clib/longlong.s                       0x00000000   Number         0  lludiv10.o ABSOLUTE
    ../clib/memcpset.s                       0x00000000   Number         0  rt_memclr_w.o ABSOLUTE
    ../clib/memcpset.s                       0x00000000   Number         0  rt_memcpy_w.o ABSOLUTE
    ../clib/memcpset.s                       0x00000000   Number         0  rt_memcpy_v6.o ABSOLUTE
    ../clib/memcpset.s                       0x00000000   Number         0  strcmpv7m.o ABSOLUTE
    ../clib/misc.s                           0x00000000   Number         0  printf_stubs.o ABSOLUTE
    ../clib/printf.c                         0x00000000   Number         0  __printf_ss_wp.o ABSOLUTE
    ../clib/printf.c                         0x00000000   Number         0  __printf_flags_ss_wp.o ABSOLUTE
    ../clib/printf.c                         0x00000000   Number         0  _printf_dec.o ABSOLUTE
    ../clib/printf.c                         0x00000000   Number         0  __printf.o ABSOLUTE
    ../clib/printf.c                         0x00000000   Number         0  _printf_hex_ll_ptr.o ABSOLUTE
    ../clib/printf.c                         0x00000000   Number         0  _printf_fp_infnan.o ABSOLUTE
    ../clib/printf.c                         0x00000000   Number         0  __2printf.o ABSOLUTE
    ../clib/printf.c                         0x00000000   Number         0  __printf_nopercent.o ABSOLUTE
    ../clib/printf.c                         0x00000000   Number         0  _printf_str.o ABSOLUTE
    ../clib/printf.c                         0x00000000   Number         0  _printf_hex_int_ll_ptr.o ABSOLUTE
    ../clib/printf.c                         0x00000000   Number         0  _printf_pad.o ABSOLUTE
    ../clib/printf.c                         0x00000000   Number         0  __printf_flags.o ABSOLUTE
    ../clib/printf.c                         0x00000000   Number         0  _printf_char_file.o ABSOLUTE
    ../clib/printf.c                         0x00000000   Number         0  _printf_char.o ABSOLUTE
    ../clib/printf.c                         0x00000000   Number         0  _sputc.o ABSOLUTE
    ../clib/printf.c                         0x00000000   Number         0  _printf_char_common.o ABSOLUTE
    ../clib/printf.c                         0x00000000   Number         0  noretval__2sprintf.o ABSOLUTE
    ../clib/printf.c                         0x00000000   Number         0  _printf_hex_int_ptr.o ABSOLUTE
    ../clib/printf.c                         0x00000000   Number         0  _printf_fp_dec.o ABSOLUTE
    ../clib/printf.c                         0x00000000   Number         0  noretval__2printf.o ABSOLUTE
    ../clib/printf.c                         0x00000000   Number         0  _printf_intcommon.o ABSOLUTE
    ../clib/printf.c                         0x00000000   Number         0  __2sprintf.o ABSOLUTE
    ../clib/printf.c                         0x00000000   Number         0  _printf_hex_ptr.o ABSOLUTE
    ../clib/printf.c                         0x00000000   Number         0  _printf_hex_int_ll.o ABSOLUTE
    ../clib/printf.c                         0x00000000   Number         0  _printf_hex_int.o ABSOLUTE
    ../clib/printf.c                         0x00000000   Number         0  _printf_hex_ll.o ABSOLUTE
    ../clib/printf.c                         0x00000000   Number         0  __printf_ss.o ABSOLUTE
    ../clib/printf.c                         0x00000000   Number         0  __printf_flags_ss.o ABSOLUTE
    ../clib/printf.c                         0x00000000   Number         0  __printf_wp.o ABSOLUTE
    ../clib/printf.c                         0x00000000   Number         0  __printf_flags_wp.o ABSOLUTE
    ../clib/printf_percent.s                 0x00000000   Number         0  _printf_s.o ABSOLUTE
    ../clib/printf_percent.s                 0x00000000   Number         0  _printf_x.o ABSOLUTE
    ../clib/printf_percent.s                 0x00000000   Number         0  _printf_f.o ABSOLUTE
    ../clib/printf_percent.s                 0x00000000   Number         0  _printf_d.o ABSOLUTE
    ../clib/printf_percent.s                 0x00000000   Number         0  _printf_e.o ABSOLUTE
    ../clib/printf_percent.s                 0x00000000   Number         0  _printf_percent_end.o ABSOLUTE
    ../clib/printf_percent.s                 0x00000000   Number         0  _printf_percent.o ABSOLUTE
    ../clib/signal.c                         0x00000000   Number         0  defsig_rtmem_formal.o ABSOLUTE
    ../clib/signal.c                         0x00000000   Number         0  defsig_rtmem_outer.o ABSOLUTE
    ../clib/signal.c                         0x00000000   Number         0  defsig_fpe_inner.o ABSOLUTE
    ../clib/signal.c                         0x00000000   Number         0  defsig_rtred_inner.o ABSOLUTE
    ../clib/signal.c                         0x00000000   Number         0  defsig_stak_inner.o ABSOLUTE
    ../clib/signal.c                         0x00000000   Number         0  defsig_pvfn_inner.o ABSOLUTE
    ../clib/signal.c                         0x00000000   Number         0  defsig_cppl_inner.o ABSOLUTE
    ../clib/signal.c                         0x00000000   Number         0  defsig_segv_inner.o ABSOLUTE
    ../clib/signal.c                         0x00000000   Number         0  defsig_exit.o ABSOLUTE
    ../clib/signal.c                         0x00000000   Number         0  defsig_rtmem_inner.o ABSOLUTE
    ../clib/signal.c                         0x00000000   Number         0  defsig_other.o ABSOLUTE
    ../clib/signal.c                         0x00000000   Number         0  __raise.o ABSOLUTE
    ../clib/signal.c                         0x00000000   Number         0  defsig_general.o ABSOLUTE
    ../clib/signal.c                         0x00000000   Number         0  defsig_abrt_inner.o ABSOLUTE
    ../clib/signal.s                         0x00000000   Number         0  defsig.o ABSOLUTE
    ../clib/stdio.c                          0x00000000   Number         0  ferror_locked.o ABSOLUTE
    ../clib/stdio.c                          0x00000000   Number         0  ferror.o ABSOLUTE
    ../clib/stdlib.c                         0x00000000   Number         0  exit.o ABSOLUTE
    ../clib/string.c                         0x00000000   Number         0  strlen.o ABSOLUTE
    ../clib/string.c                         0x00000000   Number         0  strncmp.o ABSOLUTE
    ../clib/string.c                         0x00000000   Number         0  strstr.o ABSOLUTE
    ../clib/string.c                         0x00000000   Number         0  strchr.o ABSOLUTE
    ../clib/string.c                         0x00000000   Number         0  strcpy.o ABSOLUTE
    ../fplib/daddsub.s                       0x00000000   Number         0  daddsub_clz.o ABSOLUTE
    ../fplib/dcheck1.s                       0x00000000   Number         0  dcheck1.o ABSOLUTE
    ../fplib/dcmpi.s                         0x00000000   Number         0  dcmpi.o ABSOLUTE
    ../fplib/ddiv.s                          0x00000000   Number         0  ddiv.o ABSOLUTE
    ../fplib/deqf.s                          0x00000000   Number         0  deqf.o ABSOLUTE
    ../fplib/dfix.s                          0x00000000   Number         0  dfix.o ABSOLUTE
    ../fplib/dflt.s                          0x00000000   Number         0  dflt_clz.o ABSOLUTE
    ../fplib/dleqf.s                         0x00000000   Number         0  dleqf.o ABSOLUTE
    ../fplib/dmul.s                          0x00000000   Number         0  dmul.o ABSOLUTE
    ../fplib/dnaninf.s                       0x00000000   Number         0  dnaninf.o ABSOLUTE
    ../fplib/dretinf.s                       0x00000000   Number         0  dretinf.o ABSOLUTE
    ../fplib/drleqf.s                        0x00000000   Number         0  drleqf.o ABSOLUTE
    ../fplib/dsqrt.s                         0x00000000   Number         0  dsqrt_noumaal.o ABSOLUTE
    ../fplib/f2d.s                           0x00000000   Number         0  f2d.o ABSOLUTE
    ../fplib/ffixu.s                         0x00000000   Number         0  ffixu.o ABSOLUTE
    ../fplib/fmul.s                          0x00000000   Number         0  fmul.o ABSOLUTE
    ../fplib/fnaninf.s                       0x00000000   Number         0  fnaninf.o ABSOLUTE
    ../fplib/fpinit.s                        0x00000000   Number         0  fpinit.o ABSOLUTE
    ../fplib/fretinf.s                       0x00000000   Number         0  fretinf.o ABSOLUTE
    ../fplib/istatus.s                       0x00000000   Number         0  istatus.o ABSOLUTE
    ../fplib/printf1.s                       0x00000000   Number         0  printf1.o ABSOLUTE
    ../fplib/retnan.s                        0x00000000   Number         0  retnan.o ABSOLUTE
    ../fplib/scalbn.s                        0x00000000   Number         0  scalbn.o ABSOLUTE
    ../fplib/trapv.s                         0x00000000   Number         0  trapv.o ABSOLUTE
    ../fplib/usenofp.s                       0x00000000   Number         0  usenofp.o ABSOLUTE
    ../mathlib/dunder.c                      0x00000000   Number         0  dunder.o ABSOLUTE
    ../mathlib/floor.c                       0x00000000   Number         0  floor.o ABSOLUTE
    ../mathlib/fpclassify.c                  0x00000000   Number         0  fpclassify.o ABSOLUTE
    ../mathlib/poly.c                        0x00000000   Number         0  poly.o ABSOLUTE
    ../mathlib/pow.c                         0x00000000   Number         0  pow_x.o ABSOLUTE
    ../mathlib/pow.c                         0x00000000   Number         0  pow.o ABSOLUTE
    ../mathlib/qnan.c                        0x00000000   Number         0  qnan.o ABSOLUTE
    ../mathlib/sqrt.c                        0x00000000   Number         0  sqrt_x.o ABSOLUTE
    ../mathlib/sqrt.c                        0x00000000   Number         0  sqrt.o ABSOLUTE
    ..\CORE\core_cm3.c                       0x00000000   Number         0  core_cm3.o ABSOLUTE
    ..\CORE\startup_stm32f10x_hd.s           0x00000000   Number         0  startup_stm32f10x_hd.o ABSOLUTE
    ..\HARDWARE\ADC\adc.c                    0x00000000   Number         0  adc.o ABSOLUTE
    ..\HARDWARE\BASE64\base64.c              0x00000000   Number         0  base64.o ABSOLUTE
    ..\HARDWARE\DMA\dma.c                    0x00000000   Number         0  dma.o ABSOLUTE
    ..\HARDWARE\KEY\key.c                    0x00000000   Number         0  key.o ABSOLUTE
    ..\HARDWARE\LCD\lcd.c                    0x00000000   Number         0  lcd.o ABSOLUTE
    ..\HARDWARE\LCD\lcd_init.c               0x00000000   Number         0  lcd_init.o ABSOLUTE
    ..\HARDWARE\LED\led.c                    0x00000000   Number         0  led.o ABSOLUTE
    ..\HARDWARE\SPI\spi.c                    0x00000000   Number         0  spi.o ABSOLUTE
    ..\HARDWARE\STMFLASH\stmflash.c          0x00000000   Number         0  stmflash.o ABSOLUTE
    ..\HARDWARE\TIMER\timer.c                0x00000000   Number         0  timer.o ABSOLUTE
    ..\HARDWARE\cjson\cJSON.c                0x00000000   Number         0  cjson.o ABSOLUTE
    ..\HARDWARE\decive\dev.c                 0x00000000   Number         0  dev.o ABSOLUTE
    ..\HARDWARE\nrf\nRF24L01_API.c           0x00000000   Number         0  nrf24l01_api.o ABSOLUTE
    ..\STM32F10x_FWLib\src\misc.c            0x00000000   Number         0  misc.o ABSOLUTE
    ..\STM32F10x_FWLib\src\stm32f10x_adc.c   0x00000000   Number         0  stm32f10x_adc.o ABSOLUTE
    ..\STM32F10x_FWLib\src\stm32f10x_dac.c   0x00000000   Number         0  stm32f10x_dac.o ABSOLUTE
    ..\STM32F10x_FWLib\src\stm32f10x_dma.c   0x00000000   Number         0  stm32f10x_dma.o ABSOLUTE
    ..\STM32F10x_FWLib\src\stm32f10x_exti.c  0x00000000   Number         0  stm32f10x_exti.o ABSOLUTE
    ..\STM32F10x_FWLib\src\stm32f10x_flash.c 0x00000000   Number         0  stm32f10x_flash.o ABSOLUTE
    ..\STM32F10x_FWLib\src\stm32f10x_gpio.c  0x00000000   Number         0  stm32f10x_gpio.o ABSOLUTE
    ..\STM32F10x_FWLib\src\stm32f10x_rcc.c   0x00000000   Number         0  stm32f10x_rcc.o ABSOLUTE
    ..\STM32F10x_FWLib\src\stm32f10x_spi.c   0x00000000   Number         0  stm32f10x_spi.o ABSOLUTE
    ..\STM32F10x_FWLib\src\stm32f10x_tim.c   0x00000000   Number         0  stm32f10x_tim.o ABSOLUTE
    ..\STM32F10x_FWLib\src\stm32f10x_usart.c 0x00000000   Number         0  stm32f10x_usart.o ABSOLUTE
    ..\SYSTEM\delay\delay.c                  0x00000000   Number         0  delay.o ABSOLUTE
    ..\SYSTEM\sys\sys.c                      0x00000000   Number         0  sys.o ABSOLUTE
    ..\SYSTEM\usart\usart.c                  0x00000000   Number         0  usart.o ABSOLUTE
    ..\\CORE\\core_cm3.c                     0x00000000   Number         0  core_cm3.o ABSOLUTE
    ..\\SYSTEM\\sys\\sys.c                   0x00000000   Number         0  sys.o ABSOLUTE
    dc.s                                     0x00000000   Number         0  dc.o ABSOLUTE
    main.c                                   0x00000000   Number         0  main.o ABSOLUTE
    stm32f10x_it.c                           0x00000000   Number         0  stm32f10x_it.o ABSOLUTE
    system_stm32f10x.c                       0x00000000   Number         0  system_stm32f10x.o ABSOLUTE
    RESET                                    0x08000000   Section      304  startup_stm32f10x_hd.o(RESET)
    !!!main                                  0x08000130   Section        8  __main.o(!!!main)
    !!!scatter                               0x08000138   Section       52  __scatter.o(!!!scatter)
    !!dczerorl2                              0x0800016c   Section       90  __dczerorl2.o(!!dczerorl2)
    !!handler_zi                             0x080001c8   Section       28  __scatter_zi.o(!!handler_zi)
    .ARM.Collect$$_printf_percent$$00000000  0x080001e4   Section        0  _printf_percent.o(.ARM.Collect$$_printf_percent$$00000000)
    .ARM.Collect$$_printf_percent$$00000009  0x080001e4   Section        6  _printf_d.o(.ARM.Collect$$_printf_percent$$00000009)
    .ARM.Collect$$_printf_percent$$00000014  0x080001ea   Section        6  _printf_s.o(.ARM.Collect$$_printf_percent$$00000014)
    .ARM.Collect$$_printf_percent$$00000017  0x080001f0   Section        4  _printf_percent_end.o(.ARM.Collect$$_printf_percent$$00000017)
    .ARM.Collect$$libinit$$00000000          0x080001f4   Section        2  libinit.o(.ARM.Collect$$libinit$$00000000)
    .ARM.Collect$$libinit$$00000002          0x080001f6   Section        0  libinit2.o(.ARM.Collect$$libinit$$00000002)
    .ARM.Collect$$libinit$$00000004          0x080001f6   Section        0  libinit2.o(.ARM.Collect$$libinit$$00000004)
    .ARM.Collect$$libinit$$00000005          0x080001f6   Section        8  libinit2.o(.ARM.Collect$$libinit$$00000005)
    .ARM.Collect$$libinit$$0000000A          0x080001fe   Section        0  libinit2.o(.ARM.Collect$$libinit$$0000000A)
    .ARM.Collect$$libinit$$0000000C          0x080001fe   Section        0  libinit2.o(.ARM.Collect$$libinit$$0000000C)
    .ARM.Collect$$libinit$$0000000E          0x080001fe   Section        0  libinit2.o(.ARM.Collect$$libinit$$0000000E)
    .ARM.Collect$$libinit$$00000011          0x080001fe   Section        0  libinit2.o(.ARM.Collect$$libinit$$00000011)
    .ARM.Collect$$libinit$$00000013          0x080001fe   Section        0  libinit2.o(.ARM.Collect$$libinit$$00000013)
    .ARM.Collect$$libinit$$00000015          0x080001fe   Section        0  libinit2.o(.ARM.Collect$$libinit$$00000015)
    .ARM.Collect$$libinit$$00000017          0x080001fe   Section        0  libinit2.o(.ARM.Collect$$libinit$$00000017)
    .ARM.Collect$$libinit$$00000019          0x080001fe   Section        0  libinit2.o(.ARM.Collect$$libinit$$00000019)
    .ARM.Collect$$libinit$$0000001B          0x080001fe   Section        0  libinit2.o(.ARM.Collect$$libinit$$0000001B)
    .ARM.Collect$$libinit$$0000001D          0x080001fe   Section        0  libinit2.o(.ARM.Collect$$libinit$$0000001D)
    .ARM.Collect$$libinit$$0000001F          0x080001fe   Section        0  libinit2.o(.ARM.Collect$$libinit$$0000001F)
    .ARM.Collect$$libinit$$00000021          0x080001fe   Section        0  libinit2.o(.ARM.Collect$$libinit$$00000021)
    .ARM.Collect$$libinit$$00000023          0x080001fe   Section        0  libinit2.o(.ARM.Collect$$libinit$$00000023)
    .ARM.Collect$$libinit$$00000025          0x080001fe   Section        0  libinit2.o(.ARM.Collect$$libinit$$00000025)
    .ARM.Collect$$libinit$$0000002C          0x080001fe   Section        0  libinit2.o(.ARM.Collect$$libinit$$0000002C)
    .ARM.Collect$$libinit$$0000002E          0x080001fe   Section        0  libinit2.o(.ARM.Collect$$libinit$$0000002E)
    .ARM.Collect$$libinit$$00000030          0x080001fe   Section        0  libinit2.o(.ARM.Collect$$libinit$$00000030)
    .ARM.Collect$$libinit$$00000032          0x080001fe   Section        0  libinit2.o(.ARM.Collect$$libinit$$00000032)
    .ARM.Collect$$libinit$$00000033          0x080001fe   Section        2  libinit2.o(.ARM.Collect$$libinit$$00000033)
    .ARM.Collect$$libshutdown$$00000000      0x08000200   Section        2  libshutdown.o(.ARM.Collect$$libshutdown$$00000000)
    .ARM.Collect$$libshutdown$$00000003      0x08000202   Section        0  libshutdown2.o(.ARM.Collect$$libshutdown$$00000003)
    .ARM.Collect$$libshutdown$$00000006      0x08000202   Section        0  libshutdown2.o(.ARM.Collect$$libshutdown$$00000006)
    .ARM.Collect$$libshutdown$$00000009      0x08000202   Section        0  libshutdown2.o(.ARM.Collect$$libshutdown$$00000009)
    .ARM.Collect$$libshutdown$$0000000B      0x08000202   Section        0  libshutdown2.o(.ARM.Collect$$libshutdown$$0000000B)
    .ARM.Collect$$libshutdown$$0000000E      0x08000202   Section        0  libshutdown2.o(.ARM.Collect$$libshutdown$$0000000E)
    .ARM.Collect$$libshutdown$$0000000F      0x08000202   Section        2  libshutdown2.o(.ARM.Collect$$libshutdown$$0000000F)
    .ARM.Collect$$rtentry$$00000000          0x08000204   Section        0  __rtentry.o(.ARM.Collect$$rtentry$$00000000)
    .ARM.Collect$$rtentry$$00000002          0x08000204   Section        0  __rtentry2.o(.ARM.Collect$$rtentry$$00000002)
    .ARM.Collect$$rtentry$$00000004          0x08000204   Section        6  __rtentry4.o(.ARM.Collect$$rtentry$$00000004)
    .ARM.Collect$$rtentry$$00000009          0x0800020a   Section        0  __rtentry2.o(.ARM.Collect$$rtentry$$00000009)
    .ARM.Collect$$rtentry$$0000000A          0x0800020a   Section        4  __rtentry2.o(.ARM.Collect$$rtentry$$0000000A)
    .ARM.Collect$$rtentry$$0000000C          0x0800020e   Section        0  __rtentry2.o(.ARM.Collect$$rtentry$$0000000C)
    .ARM.Collect$$rtentry$$0000000D          0x0800020e   Section        8  __rtentry2.o(.ARM.Collect$$rtentry$$0000000D)
    .ARM.Collect$$rtexit$$00000000           0x08000216   Section        2  rtexit.o(.ARM.Collect$$rtexit$$00000000)
    .ARM.Collect$$rtexit$$00000002           0x08000218   Section        0  rtexit2.o(.ARM.Collect$$rtexit$$00000002)
    .ARM.Collect$$rtexit$$00000003           0x08000218   Section        4  rtexit2.o(.ARM.Collect$$rtexit$$00000003)
    .ARM.Collect$$rtexit$$00000004           0x0800021c   Section        6  rtexit2.o(.ARM.Collect$$rtexit$$00000004)
    .emb_text                                0x08000224   Section        0  maybetermalloc1.o(.emb_text)
    .text                                    0x08000224   Section        0  main.o(.text)
    .text                                    0x080008b4   Section        0  led.o(.text)
    .text                                    0x080008ec   Section        0  nrf24l01_api.o(.text)
    .text                                    0x08000c44   Section        0  key.o(.text)
    .text                                    0x08000d00   Section        0  lcd.o(.text)
    .text                                    0x08001810   Section        0  spi.o(.text)
    .text                                    0x0800189c   Section        0  lcd_init.o(.text)
    .text                                    0x08001b30   Section        0  dma.o(.text)
    .text                                    0x08001c04   Section        0  stmflash.o(.text)
    .text                                    0x08001d48   Section        0  dev.o(.text)
    .text                                    0x08002108   Section        0  base64.o(.text)
    .text                                    0x080022bc   Section        0  timer.o(.text)
    .text                                    0x08002478   Section        0  delay.o(.text)
    .text                                    0x0800254c   Section        0  usart.o(.text)
    .text                                    0x08002694   Section       64  startup_stm32f10x_hd.o(.text)
    .text                                    0x080026d4   Section        0  stm32f10x_it.o(.text)
    .text                                    0x080026f0   Section        0  system_stm32f10x.o(.text)
    SetSysClockTo72                          0x080026f1   Thumb Code   214  system_stm32f10x.o(.text)
    SetSysClock                              0x080027c7   Thumb Code     8  system_stm32f10x.o(.text)
    .text                                    0x080028d0   Section        0  stm32f10x_tim.o(.text)
    TI4_Config                               0x08002d77   Thumb Code   130  stm32f10x_tim.o(.text)
    TI3_Config                               0x08002e0b   Thumb Code   122  stm32f10x_tim.o(.text)
    TI2_Config                               0x08002e9f   Thumb Code   130  stm32f10x_tim.o(.text)
    TI1_Config                               0x08002f33   Thumb Code   108  stm32f10x_tim.o(.text)
    .text                                    0x080036ec   Section        0  misc.o(.text)
    .text                                    0x080037c8   Section        0  stm32f10x_gpio.o(.text)
    .text                                    0x08003b24   Section        0  stm32f10x_rcc.o(.text)
    .text                                    0x08003ec8   Section        0  stm32f10x_usart.o(.text)
    .text                                    0x080042d0   Section        0  stm32f10x_spi.o(.text)
    .text                                    0x080045dc   Section        0  stm32f10x_dma.o(.text)
    .text                                    0x08004830   Section        0  stm32f10x_flash.o(.text)
    .text                                    0x08004dec   Section        2  use_no_semi_2.o(.text)
    .text                                    0x08004dee   Section        0  h1_alloc.o(.text)
    .text                                    0x08004e4c   Section        0  h1_free.o(.text)
    .text                                    0x08004e9c   Section        0  noretval__2printf.o(.text)
    .text                                    0x08004eb4   Section        0  noretval__2sprintf.o(.text)
    .text                                    0x08004edc   Section        0  _printf_str.o(.text)
    .text                                    0x08004f30   Section        0  _printf_dec.o(.text)
    .text                                    0x08004fa8   Section        0  __printf_flags_wp.o(.text)
    .text                                    0x080050e0   Section        0  strstr.o(.text)
    .text                                    0x08005104   Section        0  heapauxi.o(.text)
    .text                                    0x0800510a   Section        2  use_no_semi.o(.text)
    .text                                    0x0800510c   Section        8  rt_heap_descriptor_intlibspace.o(.text)
    .text                                    0x08005114   Section        0  hguard.o(.text)
    .text                                    0x08005118   Section        0  init_alloc.o(.text)
    .text                                    0x080051a2   Section        0  h1_init.o(.text)
    .text                                    0x080051b0   Section        0  _printf_intcommon.o(.text)
    .text                                    0x08005264   Section        0  _printf_char_common.o(.text)
    _printf_input_char                       0x08005265   Thumb Code    10  _printf_char_common.o(.text)
    .text                                    0x08005294   Section        0  _sputc.o(.text)
    .text                                    0x0800529e   Section        0  _printf_char.o(.text)
    .text                                    0x080052cc   Section        0  _printf_char_file.o(.text)
    .text                                    0x080052f0   Section        8  libspace.o(.text)
    .text                                    0x080052f8   Section        0  h1_extend.o(.text)
    .text                                    0x0800532c   Section        0  ferror.o(.text)
    .text                                    0x08005334   Section        0  defsig_rtmem_outer.o(.text)
    .text                                    0x08005342   Section       74  sys_stackheap_outer.o(.text)
    .text                                    0x0800538c   Section        0  exit.o(.text)
    .text                                    0x08005398   Section        0  defsig_exit.o(.text)
    .text                                    0x080053a4   Section        0  defsig_rtmem_inner.o(.text)
    .text                                    0x080053f4   Section        0  defsig_general.o(.text)
    i._is_digit                              0x08005426   Section        0  __printf_wp.o(i._is_digit)
    x$fpl$ffixu                              0x08005434   Section       62  ffixu.o(x$fpl$ffixu)
    x$fpl$fmul                               0x08005474   Section      258  fmul.o(x$fpl$fmul)
    x$fpl$fnaninf                            0x08005576   Section      140  fnaninf.o(x$fpl$fnaninf)
    x$fpl$fretinf                            0x08005602   Section       10  fretinf.o(x$fpl$fretinf)
    .constdata                               0x0800560c   Section     3200  main.o(.constdata)
    x$fpl$usenofp                            0x0800560c   Section        0  usenofp.o(x$fpl$usenofp)
    .constdata                               0x0800628c   Section       10  nrf24l01_api.o(.constdata)
    .constdata                               0x08006296   Section    14328  lcd.o(.constdata)
    .constdata                               0x08009a8e   Section      123  base64.o(.constdata)
    table                                    0x08009a8e   Data         123  base64.o(.constdata)
    .constdata                               0x08009b09   Section       17  __printf_flags_wp.o(.constdata)
    maptable                                 0x08009b09   Data          17  __printf_flags_wp.o(.constdata)
    .conststring                             0x08009b1c   Section       65  base64.o(.conststring)
    .data                                    0x20000000   Section     2188  main.o(.data)
    .data                                    0x2000088c   Section        1  key.o(.data)
    key_up                                   0x2000088c   Data           1  key.o(.data)
    .data                                    0x2000088e   Section        2  dma.o(.data)
    .data                                    0x20000890   Section        8  dev.o(.data)
    .data                                    0x20000898   Section        4  base64.o(.data)
    base64_table                             0x20000898   Data           4  base64.o(.data)
    .data                                    0x2000089c   Section        4  delay.o(.data)
    fac_us                                   0x2000089c   Data           1  delay.o(.data)
    fac_ms                                   0x2000089e   Data           2  delay.o(.data)
    .data                                    0x200008a0   Section        6  usart.o(.data)
    .data                                    0x200008a8   Section       20  system_stm32f10x.o(.data)
    .data                                    0x200008bc   Section       20  stm32f10x_rcc.o(.data)
    APBAHBPrescTable                         0x200008bc   Data          16  stm32f10x_rcc.o(.data)
    ADCPrescTable                            0x200008cc   Data           4  stm32f10x_rcc.o(.data)
    .bss                                     0x200008d0   Section       64  main.o(.bss)
    .bss                                     0x20000910   Section       44  dma.o(.bss)
    .bss                                     0x2000093c   Section     2048  stmflash.o(.bss)
    .bss                                     0x2000113c   Section      200  usart.o(.bss)
    .bss                                     0x20001204   Section       96  libspace.o(.bss)
    HEAP                                     0x20001268   Section      512  startup_stm32f10x_hd.o(HEAP)
    Heap_Mem                                 0x20001268   Data         512  startup_stm32f10x_hd.o(HEAP)
    STACK                                    0x20001468   Section     1024  startup_stm32f10x_hd.o(STACK)
    Stack_Mem                                0x20001468   Data        1024  startup_stm32f10x_hd.o(STACK)
    __initial_sp                             0x20001868   Data           0  startup_stm32f10x_hd.o(STACK)

    Global Symbols

    Symbol Name                              Value     Ov Type        Size  Object(Section)

    BuildAttributes$$THM_ISAv4$P$D$K$B$S$PE$A:L22UL41UL21$X:L11$S22US41US21$IEEE1$IW$USESV6$~STKCKD$USESV7$~SHL$OTIME$ROPI$IEEEX$EBA8$UX$STANDARDLIB$REQ8$PRES8$EABIv2 0x00000000   Number         0  anon$$obj.o ABSOLUTE
    __ARM_use_no_argv                        0x00000000   Number         0  main.o ABSOLUTE
    _printf_flags                            0x00000000   Number         0  printf_stubs.o ABSOLUTE
    _printf_return_value                     0x00000000   Number         0  printf_stubs.o ABSOLUTE
    _printf_sizespec                         0x00000000   Number         0  printf_stubs.o ABSOLUTE
    _printf_widthprec                        0x00000000   Number         0  printf_stubs.o ABSOLUTE
    __ARM_exceptions_init                     - Undefined Weak Reference
    __alloca_initialize                       - Undefined Weak Reference
    __arm_preinit_                            - Undefined Weak Reference
    __cpp_initialize__aeabi_                  - Undefined Weak Reference
    __cxa_finalize                            - Undefined Weak Reference
    __sigvec_lookup                           - Undefined Weak Reference
    __user_heap_extent                        - Undefined Weak Reference
    _atexit_init                              - Undefined Weak Reference
    _call_atexit_fns                          - Undefined Weak Reference
    _clock_init                               - Undefined Weak Reference
    _fp_trap_init                             - Undefined Weak Reference
    _fp_trap_shutdown                         - Undefined Weak Reference
    _get_lc_collate                           - Undefined Weak Reference
    _get_lc_monetary                          - Undefined Weak Reference
    _get_lc_time                              - Undefined Weak Reference
    _getenv_init                              - Undefined Weak Reference
    _handle_redirection                       - Undefined Weak Reference
    _initio                                   - Undefined Weak Reference
    _mutex_acquire                            - Undefined Weak Reference
    _mutex_free                               - Undefined Weak Reference
    _mutex_release                            - Undefined Weak Reference
    _printf_mbtowc                            - Undefined Weak Reference
    _printf_truncate_signed                   - Undefined Weak Reference
    _printf_truncate_unsigned                 - Undefined Weak Reference
    _rand_init                                - Undefined Weak Reference
    _signal_finish                            - Undefined Weak Reference
    _signal_init                              - Undefined Weak Reference
    _terminateio                              - Undefined Weak Reference
    __Vectors_Size                           0x00000130   Number         0  startup_stm32f10x_hd.o ABSOLUTE
    __Vectors                                0x08000000   Data           4  startup_stm32f10x_hd.o(RESET)
    __Vectors_End                            0x08000130   Data           0  startup_stm32f10x_hd.o(RESET)
    __main                                   0x08000131   Thumb Code     8  __main.o(!!!main)
    __scatterload                            0x08000139   Thumb Code     0  __scatter.o(!!!scatter)
    __scatterload_rt2                        0x08000139   Thumb Code    44  __scatter.o(!!!scatter)
    __scatterload_rt2_thumb_only             0x08000139   Thumb Code     0  __scatter.o(!!!scatter)
    __scatterload_null                       0x08000147   Thumb Code     0  __scatter.o(!!!scatter)
    __decompress                             0x0800016d   Thumb Code    90  __dczerorl2.o(!!dczerorl2)
    __decompress1                            0x0800016d   Thumb Code     0  __dczerorl2.o(!!dczerorl2)
    __scatterload_zeroinit                   0x080001c9   Thumb Code    28  __scatter_zi.o(!!handler_zi)
    _printf_d                                0x080001e5   Thumb Code     0  _printf_d.o(.ARM.Collect$$_printf_percent$$00000009)
    _printf_percent                          0x080001e5   Thumb Code     0  _printf_percent.o(.ARM.Collect$$_printf_percent$$00000000)
    _printf_s                                0x080001eb   Thumb Code     0  _printf_s.o(.ARM.Collect$$_printf_percent$$00000014)
    _printf_percent_end                      0x080001f1   Thumb Code     0  _printf_percent_end.o(.ARM.Collect$$_printf_percent$$00000017)
    __rt_lib_init                            0x080001f5   Thumb Code     0  libinit.o(.ARM.Collect$$libinit$$00000000)
    __rt_lib_init_fp_1                       0x080001f7   Thumb Code     0  libinit2.o(.ARM.Collect$$libinit$$00000002)
    __rt_lib_init_heap_2                     0x080001f7   Thumb Code     0  libinit2.o(.ARM.Collect$$libinit$$00000005)
    __rt_lib_init_preinit_1                  0x080001f7   Thumb Code     0  libinit2.o(.ARM.Collect$$libinit$$00000004)
    __rt_lib_init_alloca_1                   0x080001ff   Thumb Code     0  libinit2.o(.ARM.Collect$$libinit$$0000002E)
    __rt_lib_init_argv_1                     0x080001ff   Thumb Code     0  libinit2.o(.ARM.Collect$$libinit$$0000002C)
    __rt_lib_init_atexit_1                   0x080001ff   Thumb Code     0  libinit2.o(.ARM.Collect$$libinit$$0000001B)
    __rt_lib_init_clock_1                    0x080001ff   Thumb Code     0  libinit2.o(.ARM.Collect$$libinit$$00000021)
    __rt_lib_init_cpp_1                      0x080001ff   Thumb Code     0  libinit2.o(.ARM.Collect$$libinit$$00000032)
    __rt_lib_init_exceptions_1               0x080001ff   Thumb Code     0  libinit2.o(.ARM.Collect$$libinit$$00000030)
    __rt_lib_init_fp_trap_1                  0x080001ff   Thumb Code     0  libinit2.o(.ARM.Collect$$libinit$$0000001F)
    __rt_lib_init_getenv_1                   0x080001ff   Thumb Code     0  libinit2.o(.ARM.Collect$$libinit$$00000023)
    __rt_lib_init_heap_1                     0x080001ff   Thumb Code     0  libinit2.o(.ARM.Collect$$libinit$$0000000A)
    __rt_lib_init_lc_collate_1               0x080001ff   Thumb Code     0  libinit2.o(.ARM.Collect$$libinit$$00000011)
    __rt_lib_init_lc_ctype_1                 0x080001ff   Thumb Code     0  libinit2.o(.ARM.Collect$$libinit$$00000013)
    __rt_lib_init_lc_monetary_1              0x080001ff   Thumb Code     0  libinit2.o(.ARM.Collect$$libinit$$00000015)
    __rt_lib_init_lc_numeric_1               0x080001ff   Thumb Code     0  libinit2.o(.ARM.Collect$$libinit$$00000017)
    __rt_lib_init_lc_time_1                  0x080001ff   Thumb Code     0  libinit2.o(.ARM.Collect$$libinit$$00000019)
    __rt_lib_init_rand_1                     0x080001ff   Thumb Code     0  libinit2.o(.ARM.Collect$$libinit$$0000000E)
    __rt_lib_init_return                     0x080001ff   Thumb Code     0  libinit2.o(.ARM.Collect$$libinit$$00000033)
    __rt_lib_init_signal_1                   0x080001ff   Thumb Code     0  libinit2.o(.ARM.Collect$$libinit$$0000001D)
    __rt_lib_init_stdio_1                    0x080001ff   Thumb Code     0  libinit2.o(.ARM.Collect$$libinit$$00000025)
    __rt_lib_init_user_alloc_1               0x080001ff   Thumb Code     0  libinit2.o(.ARM.Collect$$libinit$$0000000C)
    __rt_lib_shutdown                        0x08000201   Thumb Code     0  libshutdown.o(.ARM.Collect$$libshutdown$$00000000)
    __rt_lib_shutdown_fp_trap_1              0x08000203   Thumb Code     0  libshutdown2.o(.ARM.Collect$$libshutdown$$00000006)
    __rt_lib_shutdown_heap_1                 0x08000203   Thumb Code     0  libshutdown2.o(.ARM.Collect$$libshutdown$$0000000E)
    __rt_lib_shutdown_return                 0x08000203   Thumb Code     0  libshutdown2.o(.ARM.Collect$$libshutdown$$0000000F)
    __rt_lib_shutdown_signal_1               0x08000203   Thumb Code     0  libshutdown2.o(.ARM.Collect$$libshutdown$$00000009)
    __rt_lib_shutdown_stdio_1                0x08000203   Thumb Code     0  libshutdown2.o(.ARM.Collect$$libshutdown$$00000003)
    __rt_lib_shutdown_user_alloc_1           0x08000203   Thumb Code     0  libshutdown2.o(.ARM.Collect$$libshutdown$$0000000B)
    __rt_entry                               0x08000205   Thumb Code     0  __rtentry.o(.ARM.Collect$$rtentry$$00000000)
    __rt_entry_presh_1                       0x08000205   Thumb Code     0  __rtentry2.o(.ARM.Collect$$rtentry$$00000002)
    __rt_entry_sh                            0x08000205   Thumb Code     0  __rtentry4.o(.ARM.Collect$$rtentry$$00000004)
    __rt_entry_li                            0x0800020b   Thumb Code     0  __rtentry2.o(.ARM.Collect$$rtentry$$0000000A)
    __rt_entry_postsh_1                      0x0800020b   Thumb Code     0  __rtentry2.o(.ARM.Collect$$rtentry$$00000009)
    __rt_entry_main                          0x0800020f   Thumb Code     0  __rtentry2.o(.ARM.Collect$$rtentry$$0000000D)
    __rt_entry_postli_1                      0x0800020f   Thumb Code     0  __rtentry2.o(.ARM.Collect$$rtentry$$0000000C)
    __rt_exit                                0x08000217   Thumb Code     0  rtexit.o(.ARM.Collect$$rtexit$$00000000)
    __rt_exit_ls                             0x08000219   Thumb Code     0  rtexit2.o(.ARM.Collect$$rtexit$$00000003)
    __rt_exit_prels_1                        0x08000219   Thumb Code     0  rtexit2.o(.ARM.Collect$$rtexit$$00000002)
    __rt_exit_exit                           0x0800021d   Thumb Code     0  rtexit2.o(.ARM.Collect$$rtexit$$00000004)
    _maybe_terminate_alloc                   0x08000225   Thumb Code     0  maybetermalloc1.o(.emb_text)
    gpio_init                                0x08000225   Thumb Code    26  main.o(.text)
    Send_on                                  0x0800023f   Thumb Code    72  main.o(.text)
    update_state                             0x08000287   Thumb Code   110  main.o(.text)
    Lora_send                                0x080002f5   Thumb Code   144  main.o(.text)
    event_nrf                                0x08000385   Thumb Code   118  main.o(.text)
    event_key                                0x080003fb   Thumb Code    30  main.o(.text)
    change_link                              0x08000419   Thumb Code    84  main.o(.text)
    draw_menu                                0x0800046d   Thumb Code   238  main.o(.text)
    Event_time                               0x0800055b   Thumb Code   366  main.o(.text)
    event_rec                                0x080006c9   Thumb Code   198  main.o(.text)
    main                                     0x0800078f   Thumb Code   158  main.o(.text)
    TIM4_IRQHandler                          0x0800082d   Thumb Code    92  main.o(.text)
    LED_Init                                 0x080008b5   Thumb Code    50  led.o(.text)
    SPI_GPIO_Init                            0x080008ed   Thumb Code   106  nrf24l01_api.o(.text)
    delay_150us                              0x08000957   Thumb Code    14  nrf24l01_api.o(.text)
    SPI_RW                                   0x08000965   Thumb Code    62  nrf24l01_api.o(.text)
    NRF24L01_Write_Reg                       0x080009a3   Thumb Code    40  nrf24l01_api.o(.text)
    NRF24L01_Read_Reg                        0x080009cb   Thumb Code    38  nrf24l01_api.o(.text)
    NRF24L01_Read_Buf                        0x080009f1   Thumb Code    60  nrf24l01_api.o(.text)
    NRF24L01_Write_Buf                       0x08000a2d   Thumb Code    60  nrf24l01_api.o(.text)
    NRF24L01_RxPacket                        0x08000a69   Thumb Code    70  nrf24l01_api.o(.text)
    NRF24L01_TxPacket                        0x08000aaf   Thumb Code    86  nrf24l01_api.o(.text)
    NRF24L01_Check                           0x08000b05   Thumb Code   106  nrf24l01_api.o(.text)
    NRF24L01_RT_Init                         0x08000b6f   Thumb Code   102  nrf24l01_api.o(.text)
    SEND_BUF                                 0x08000bd5   Thumb Code    62  nrf24l01_api.o(.text)
    KEY_Init                                 0x08000c45   Thumb Code    32  key.o(.text)
    KEY_Scan                                 0x08000c65   Thumb Code   146  key.o(.text)
    LCD_Fill                                 0x08000d01   Thumb Code    74  lcd.o(.text)
    LCD_DrawPoint                            0x08000d4b   Thumb Code    28  lcd.o(.text)
    LCD_DrawLine                             0x08000d67   Thumb Code   172  lcd.o(.text)
    LCD_DrawRectangle                        0x08000e13   Thumb Code    74  lcd.o(.text)
    Draw_Circle                              0x08000e5d   Thumb Code   158  lcd.o(.text)
    LCD_ShowChinese32x32                     0x08000efb   Thumb Code   306  lcd.o(.text)
    LCD_ShowChinese24x24                     0x0800102d   Thumb Code   322  lcd.o(.text)
    LCD_ShowChinese16x16                     0x0800116f   Thumb Code   306  lcd.o(.text)
    LCD_ShowChinese12x12                     0x080012a1   Thumb Code   340  lcd.o(.text)
    LCD_ShowChinese                          0x080013f5   Thumb Code   140  lcd.o(.text)
    LCD_ShowChar                             0x08001481   Thumb Code   328  lcd.o(.text)
    LCD_ShowString                           0x080015c9   Thumb Code    66  lcd.o(.text)
    mypow                                    0x0800160b   Thumb Code    22  lcd.o(.text)
    LCD_ShowIntNum                           0x08001621   Thumb Code   150  lcd.o(.text)
    LCD_ShowFloatNum1                        0x080016b7   Thumb Code   184  lcd.o(.text)
    LCD_ShowPicture                          0x0800176f   Thumb Code   124  lcd.o(.text)
    lcd_init                                 0x080017eb   Thumb Code    26  lcd.o(.text)
    SPI1_Init                                0x08001811   Thumb Code   132  spi.o(.text)
    LCD_GPIO_Init                            0x0800189d   Thumb Code    46  lcd_init.o(.text)
    delay                                    0x080018cb   Thumb Code    12  lcd_init.o(.text)
    LCD_Writ_Bus                             0x080018d7   Thumb Code    50  lcd_init.o(.text)
    LCD_WR_DATA8                             0x08001909   Thumb Code    12  lcd_init.o(.text)
    LCD_WR_DATA                              0x08001915   Thumb Code    18  lcd_init.o(.text)
    LCD_WR_REG                               0x08001927   Thumb Code    28  lcd_init.o(.text)
    LCD_Address_Set                          0x08001943   Thumb Code    66  lcd_init.o(.text)
    LCD_Init                                 0x08001985   Thumb Code   420  lcd_init.o(.text)
    MYDMA_Config                             0x08001b31   Thumb Code    82  dma.o(.text)
    MYDMA_Config1                            0x08001b83   Thumb Code    86  dma.o(.text)
    MYDMA_Enable                             0x08001bd9   Thumb Code    32  dma.o(.text)
    STMFLASH_ReadHalfWord                    0x08001c05   Thumb Code     6  stmflash.o(.text)
    STMFLASH_Write_NoCheck                   0x08001c0b   Thumb Code    38  stmflash.o(.text)
    STMFLASH_Read                            0x08001c31   Thumb Code    34  stmflash.o(.text)
    STMFLASH_Write                           0x08001c53   Thumb Code   222  stmflash.o(.text)
    Test_Write                               0x08001d31   Thumb Code    16  stmflash.o(.text)
    Add_dev                                  0x08001d49   Thumb Code    64  dev.o(.text)
    show_info                                0x08001d89   Thumb Code   278  dev.o(.text)
    Read_Device                              0x08001e9f   Thumb Code   216  dev.o(.text)
    save_dev_info                            0x08001f77   Thumb Code    94  dev.o(.text)
    sys_info_init                            0x08001fd5   Thumb Code   178  dev.o(.text)
    encode                                   0x08002109   Thumb Code   226  base64.o(.text)
    base64_decode                            0x080021eb   Thumb Code   192  base64.o(.text)
    TIM2_Int_Init                            0x080022bd   Thumb Code    90  timer.o(.text)
    TIM3_PWM_Init                            0x08002317   Thumb Code   146  timer.o(.text)
    TIM4_Int_Init                            0x080023a9   Thumb Code    88  timer.o(.text)
    TIM3_Int_Init                            0x08002401   Thumb Code   102  timer.o(.text)
    delay_init                               0x08002479   Thumb Code    50  delay.o(.text)
    delay_us                                 0x080024ab   Thumb Code    72  delay.o(.text)
    delay_ms                                 0x080024f3   Thumb Code    72  delay.o(.text)
    _sys_exit                                0x0800254d   Thumb Code     6  usart.o(.text)
    _ttywrch                                 0x08002553   Thumb Code     6  usart.o(.text)
    fputc                                    0x08002559   Thumb Code    24  usart.o(.text)
    uart_init                                0x08002571   Thumb Code   152  usart.o(.text)
    USART1_IRQHandler                        0x08002609   Thumb Code   122  usart.o(.text)
    Reset_Handler                            0x08002695   Thumb Code     8  startup_stm32f10x_hd.o(.text)
    ADC1_2_IRQHandler                        0x080026af   Thumb Code     0  startup_stm32f10x_hd.o(.text)
    ADC3_IRQHandler                          0x080026af   Thumb Code     0  startup_stm32f10x_hd.o(.text)
    CAN1_RX1_IRQHandler                      0x080026af   Thumb Code     0  startup_stm32f10x_hd.o(.text)
    CAN1_SCE_IRQHandler                      0x080026af   Thumb Code     0  startup_stm32f10x_hd.o(.text)
    DMA1_Channel1_IRQHandler                 0x080026af   Thumb Code     0  startup_stm32f10x_hd.o(.text)
    DMA1_Channel2_IRQHandler                 0x080026af   Thumb Code     0  startup_stm32f10x_hd.o(.text)
    DMA1_Channel3_IRQHandler                 0x080026af   Thumb Code     0  startup_stm32f10x_hd.o(.text)
    DMA1_Channel4_IRQHandler                 0x080026af   Thumb Code     0  startup_stm32f10x_hd.o(.text)
    DMA1_Channel5_IRQHandler                 0x080026af   Thumb Code     0  startup_stm32f10x_hd.o(.text)
    DMA1_Channel6_IRQHandler                 0x080026af   Thumb Code     0  startup_stm32f10x_hd.o(.text)
    DMA1_Channel7_IRQHandler                 0x080026af   Thumb Code     0  startup_stm32f10x_hd.o(.text)
    DMA2_Channel1_IRQHandler                 0x080026af   Thumb Code     0  startup_stm32f10x_hd.o(.text)
    DMA2_Channel2_IRQHandler                 0x080026af   Thumb Code     0  startup_stm32f10x_hd.o(.text)
    DMA2_Channel3_IRQHandler                 0x080026af   Thumb Code     0  startup_stm32f10x_hd.o(.text)
    DMA2_Channel4_5_IRQHandler               0x080026af   Thumb Code     0  startup_stm32f10x_hd.o(.text)
    EXTI0_IRQHandler                         0x080026af   Thumb Code     0  startup_stm32f10x_hd.o(.text)
    EXTI15_10_IRQHandler                     0x080026af   Thumb Code     0  startup_stm32f10x_hd.o(.text)
    EXTI1_IRQHandler                         0x080026af   Thumb Code     0  startup_stm32f10x_hd.o(.text)
    EXTI2_IRQHandler                         0x080026af   Thumb Code     0  startup_stm32f10x_hd.o(.text)
    EXTI3_IRQHandler                         0x080026af   Thumb Code     0  startup_stm32f10x_hd.o(.text)
    EXTI4_IRQHandler                         0x080026af   Thumb Code     0  startup_stm32f10x_hd.o(.text)
    EXTI9_5_IRQHandler                       0x080026af   Thumb Code     0  startup_stm32f10x_hd.o(.text)
    FLASH_IRQHandler                         0x080026af   Thumb Code     0  startup_stm32f10x_hd.o(.text)
    FSMC_IRQHandler                          0x080026af   Thumb Code     0  startup_stm32f10x_hd.o(.text)
    I2C1_ER_IRQHandler                       0x080026af   Thumb Code     0  startup_stm32f10x_hd.o(.text)
    I2C1_EV_IRQHandler                       0x080026af   Thumb Code     0  startup_stm32f10x_hd.o(.text)
    I2C2_ER_IRQHandler                       0x080026af   Thumb Code     0  startup_stm32f10x_hd.o(.text)
    I2C2_EV_IRQHandler                       0x080026af   Thumb Code     0  startup_stm32f10x_hd.o(.text)
    PVD_IRQHandler                           0x080026af   Thumb Code     0  startup_stm32f10x_hd.o(.text)
    RCC_IRQHandler                           0x080026af   Thumb Code     0  startup_stm32f10x_hd.o(.text)
    RTCAlarm_IRQHandler                      0x080026af   Thumb Code     0  startup_stm32f10x_hd.o(.text)
    RTC_IRQHandler                           0x080026af   Thumb Code     0  startup_stm32f10x_hd.o(.text)
    SDIO_IRQHandler                          0x080026af   Thumb Code     0  startup_stm32f10x_hd.o(.text)
    SPI1_IRQHandler                          0x080026af   Thumb Code     0  startup_stm32f10x_hd.o(.text)
    SPI2_IRQHandler                          0x080026af   Thumb Code     0  startup_stm32f10x_hd.o(.text)
    SPI3_IRQHandler                          0x080026af   Thumb Code     0  startup_stm32f10x_hd.o(.text)
    TAMPER_IRQHandler                        0x080026af   Thumb Code     0  startup_stm32f10x_hd.o(.text)
    TIM1_BRK_IRQHandler                      0x080026af   Thumb Code     0  startup_stm32f10x_hd.o(.text)
    TIM1_CC_IRQHandler                       0x080026af   Thumb Code     0  startup_stm32f10x_hd.o(.text)
    TIM1_TRG_COM_IRQHandler                  0x080026af   Thumb Code     0  startup_stm32f10x_hd.o(.text)
    TIM1_UP_IRQHandler                       0x080026af   Thumb Code     0  startup_stm32f10x_hd.o(.text)
    TIM2_IRQHandler                          0x080026af   Thumb Code     0  startup_stm32f10x_hd.o(.text)
    TIM3_IRQHandler                          0x080026af   Thumb Code     0  startup_stm32f10x_hd.o(.text)
    TIM5_IRQHandler                          0x080026af   Thumb Code     0  startup_stm32f10x_hd.o(.text)
    TIM6_IRQHandler                          0x080026af   Thumb Code     0  startup_stm32f10x_hd.o(.text)
    TIM7_IRQHandler                          0x080026af   Thumb Code     0  startup_stm32f10x_hd.o(.text)
    TIM8_BRK_IRQHandler                      0x080026af   Thumb Code     0  startup_stm32f10x_hd.o(.text)
    TIM8_CC_IRQHandler                       0x080026af   Thumb Code     0  startup_stm32f10x_hd.o(.text)
    TIM8_TRG_COM_IRQHandler                  0x080026af   Thumb Code     0  startup_stm32f10x_hd.o(.text)
    TIM8_UP_IRQHandler                       0x080026af   Thumb Code     0  startup_stm32f10x_hd.o(.text)
    UART4_IRQHandler                         0x080026af   Thumb Code     0  startup_stm32f10x_hd.o(.text)
    UART5_IRQHandler                         0x080026af   Thumb Code     0  startup_stm32f10x_hd.o(.text)
    USART2_IRQHandler                        0x080026af   Thumb Code     0  startup_stm32f10x_hd.o(.text)
    USART3_IRQHandler                        0x080026af   Thumb Code     0  startup_stm32f10x_hd.o(.text)
    USBWakeUp_IRQHandler                     0x080026af   Thumb Code     0  startup_stm32f10x_hd.o(.text)
    USB_HP_CAN1_TX_IRQHandler                0x080026af   Thumb Code     0  startup_stm32f10x_hd.o(.text)
    USB_LP_CAN1_RX0_IRQHandler               0x080026af   Thumb Code     0  startup_stm32f10x_hd.o(.text)
    WWDG_IRQHandler                          0x080026af   Thumb Code     0  startup_stm32f10x_hd.o(.text)
    __user_initial_stackheap                 0x080026b1   Thumb Code     0  startup_stm32f10x_hd.o(.text)
    NMI_Handler                              0x080026d5   Thumb Code     2  stm32f10x_it.o(.text)
    HardFault_Handler                        0x080026d7   Thumb Code     4  stm32f10x_it.o(.text)
    MemManage_Handler                        0x080026db   Thumb Code     4  stm32f10x_it.o(.text)
    BusFault_Handler                         0x080026df   Thumb Code     4  stm32f10x_it.o(.text)
    UsageFault_Handler                       0x080026e3   Thumb Code     4  stm32f10x_it.o(.text)
    SVC_Handler                              0x080026e7   Thumb Code     2  stm32f10x_it.o(.text)
    DebugMon_Handler                         0x080026e9   Thumb Code     2  stm32f10x_it.o(.text)
    PendSV_Handler                           0x080026eb   Thumb Code     2  stm32f10x_it.o(.text)
    SysTick_Handler                          0x080026ed   Thumb Code     2  stm32f10x_it.o(.text)
    SystemInit                               0x080027cf   Thumb Code    78  system_stm32f10x.o(.text)
    SystemCoreClockUpdate                    0x0800281d   Thumb Code   142  system_stm32f10x.o(.text)
    TIM_DeInit                               0x080028d1   Thumb Code   424  stm32f10x_tim.o(.text)
    TIM_TimeBaseInit                         0x08002a79   Thumb Code   122  stm32f10x_tim.o(.text)
    TIM_OC1Init                              0x08002af3   Thumb Code   132  stm32f10x_tim.o(.text)
    TIM_OC2Init                              0x08002b77   Thumb Code   154  stm32f10x_tim.o(.text)
    TIM_OC3Init                              0x08002c11   Thumb Code   150  stm32f10x_tim.o(.text)
    TIM_OC4Init                              0x08002ca7   Thumb Code   182  stm32f10x_tim.o(.text)
    TIM_SetIC4Prescaler                      0x08002d5d   Thumb Code    26  stm32f10x_tim.o(.text)
    TIM_SetIC3Prescaler                      0x08002df9   Thumb Code    18  stm32f10x_tim.o(.text)
    TIM_SetIC2Prescaler                      0x08002e85   Thumb Code    26  stm32f10x_tim.o(.text)
    TIM_SetIC1Prescaler                      0x08002f21   Thumb Code    18  stm32f10x_tim.o(.text)
    TIM_ICInit                               0x08002f9f   Thumb Code   150  stm32f10x_tim.o(.text)
    TIM_PWMIConfig                           0x08003035   Thumb Code   124  stm32f10x_tim.o(.text)
    TIM_BDTRConfig                           0x080030b1   Thumb Code    32  stm32f10x_tim.o(.text)
    TIM_TimeBaseStructInit                   0x080030d1   Thumb Code    18  stm32f10x_tim.o(.text)
    TIM_OCStructInit                         0x080030e3   Thumb Code    20  stm32f10x_tim.o(.text)
    TIM_ICStructInit                         0x080030f7   Thumb Code    18  stm32f10x_tim.o(.text)
    TIM_BDTRStructInit                       0x08003109   Thumb Code    40  stm32f10x_tim.o(.text)
    TIM_Cmd                                  0x08003131   Thumb Code    24  stm32f10x_tim.o(.text)
    TIM_CtrlPWMOutputs                       0x08003149   Thumb Code    30  stm32f10x_tim.o(.text)
    TIM_ITConfig                             0x08003167   Thumb Code    18  stm32f10x_tim.o(.text)
    TIM_GenerateEvent                        0x08003179   Thumb Code     4  stm32f10x_tim.o(.text)
    TIM_DMAConfig                            0x0800317d   Thumb Code    10  stm32f10x_tim.o(.text)
    TIM_DMACmd                               0x08003187   Thumb Code    18  stm32f10x_tim.o(.text)
    TIM_InternalClockConfig                  0x08003199   Thumb Code    12  stm32f10x_tim.o(.text)
    TIM_SelectInputTrigger                   0x080031a5   Thumb Code    18  stm32f10x_tim.o(.text)
    TIM_ITRxExternalClockConfig              0x080031b7   Thumb Code    24  stm32f10x_tim.o(.text)
    TIM_TIxExternalClockConfig               0x080031cf   Thumb Code    62  stm32f10x_tim.o(.text)
    TIM_ETRConfig                            0x0800320d   Thumb Code    28  stm32f10x_tim.o(.text)
    TIM_ETRClockMode1Config                  0x08003229   Thumb Code    54  stm32f10x_tim.o(.text)
    TIM_ETRClockMode2Config                  0x0800325f   Thumb Code    32  stm32f10x_tim.o(.text)
    TIM_PrescalerConfig                      0x0800327f   Thumb Code     6  stm32f10x_tim.o(.text)
    TIM_CounterModeConfig                    0x08003285   Thumb Code    18  stm32f10x_tim.o(.text)
    TIM_EncoderInterfaceConfig               0x08003297   Thumb Code    66  stm32f10x_tim.o(.text)
    TIM_ForcedOC1Config                      0x080032d9   Thumb Code    18  stm32f10x_tim.o(.text)
    TIM_ForcedOC2Config                      0x080032eb   Thumb Code    26  stm32f10x_tim.o(.text)
    TIM_ForcedOC3Config                      0x08003305   Thumb Code    18  stm32f10x_tim.o(.text)
    TIM_ForcedOC4Config                      0x08003317   Thumb Code    26  stm32f10x_tim.o(.text)
    TIM_ARRPreloadConfig                     0x08003331   Thumb Code    24  stm32f10x_tim.o(.text)
    TIM_SelectCOM                            0x08003349   Thumb Code    24  stm32f10x_tim.o(.text)
    TIM_SelectCCDMA                          0x08003361   Thumb Code    24  stm32f10x_tim.o(.text)
    TIM_CCPreloadControl                     0x08003379   Thumb Code    24  stm32f10x_tim.o(.text)
    TIM_OC1PreloadConfig                     0x08003391   Thumb Code    18  stm32f10x_tim.o(.text)
    TIM_OC2PreloadConfig                     0x080033a3   Thumb Code    26  stm32f10x_tim.o(.text)
    TIM_OC3PreloadConfig                     0x080033bd   Thumb Code    18  stm32f10x_tim.o(.text)
    TIM_OC4PreloadConfig                     0x080033cf   Thumb Code    26  stm32f10x_tim.o(.text)
    TIM_OC1FastConfig                        0x080033e9   Thumb Code    18  stm32f10x_tim.o(.text)
    TIM_OC2FastConfig                        0x080033fb   Thumb Code    26  stm32f10x_tim.o(.text)
    TIM_OC3FastConfig                        0x08003415   Thumb Code    18  stm32f10x_tim.o(.text)
    TIM_OC4FastConfig                        0x08003427   Thumb Code    26  stm32f10x_tim.o(.text)
    TIM_ClearOC1Ref                          0x08003441   Thumb Code    18  stm32f10x_tim.o(.text)
    TIM_ClearOC2Ref                          0x08003453   Thumb Code    24  stm32f10x_tim.o(.text)
    TIM_ClearOC3Ref                          0x0800346b   Thumb Code    18  stm32f10x_tim.o(.text)
    TIM_ClearOC4Ref                          0x0800347d   Thumb Code    24  stm32f10x_tim.o(.text)
    TIM_OC1PolarityConfig                    0x08003495   Thumb Code    18  stm32f10x_tim.o(.text)
    TIM_OC1NPolarityConfig                   0x080034a7   Thumb Code    18  stm32f10x_tim.o(.text)
    TIM_OC2PolarityConfig                    0x080034b9   Thumb Code    26  stm32f10x_tim.o(.text)
    TIM_OC2NPolarityConfig                   0x080034d3   Thumb Code    26  stm32f10x_tim.o(.text)
    TIM_OC3PolarityConfig                    0x080034ed   Thumb Code    26  stm32f10x_tim.o(.text)
    TIM_OC3NPolarityConfig                   0x08003507   Thumb Code    26  stm32f10x_tim.o(.text)
    TIM_OC4PolarityConfig                    0x08003521   Thumb Code    26  stm32f10x_tim.o(.text)
    TIM_CCxCmd                               0x0800353b   Thumb Code    30  stm32f10x_tim.o(.text)
    TIM_CCxNCmd                              0x08003559   Thumb Code    30  stm32f10x_tim.o(.text)
    TIM_SelectOCxM                           0x08003577   Thumb Code    82  stm32f10x_tim.o(.text)
    TIM_UpdateDisableConfig                  0x080035c9   Thumb Code    24  stm32f10x_tim.o(.text)
    TIM_UpdateRequestConfig                  0x080035e1   Thumb Code    24  stm32f10x_tim.o(.text)
    TIM_SelectHallSensor                     0x080035f9   Thumb Code    24  stm32f10x_tim.o(.text)
    TIM_SelectOnePulseMode                   0x08003611   Thumb Code    18  stm32f10x_tim.o(.text)
    TIM_SelectOutputTrigger                  0x08003623   Thumb Code    18  stm32f10x_tim.o(.text)
    TIM_SelectSlaveMode                      0x08003635   Thumb Code    18  stm32f10x_tim.o(.text)
    TIM_SelectMasterSlaveMode                0x08003647   Thumb Code    18  stm32f10x_tim.o(.text)
    TIM_SetCounter                           0x08003659   Thumb Code     4  stm32f10x_tim.o(.text)
    TIM_SetAutoreload                        0x0800365d   Thumb Code     4  stm32f10x_tim.o(.text)
    TIM_SetCompare1                          0x08003661   Thumb Code     4  stm32f10x_tim.o(.text)
    TIM_SetCompare2                          0x08003665   Thumb Code     4  stm32f10x_tim.o(.text)
    TIM_SetCompare3                          0x08003669   Thumb Code     4  stm32f10x_tim.o(.text)
    TIM_SetCompare4                          0x0800366d   Thumb Code     6  stm32f10x_tim.o(.text)
    TIM_SetClockDivision                     0x08003673   Thumb Code    18  stm32f10x_tim.o(.text)
    TIM_GetCapture1                          0x08003685   Thumb Code     6  stm32f10x_tim.o(.text)
    TIM_GetCapture2                          0x0800368b   Thumb Code     6  stm32f10x_tim.o(.text)
    TIM_GetCapture3                          0x08003691   Thumb Code     6  stm32f10x_tim.o(.text)
    TIM_GetCapture4                          0x08003697   Thumb Code     8  stm32f10x_tim.o(.text)
    TIM_GetCounter                           0x0800369f   Thumb Code     6  stm32f10x_tim.o(.text)
    TIM_GetPrescaler                         0x080036a5   Thumb Code     6  stm32f10x_tim.o(.text)
    TIM_GetFlagStatus                        0x080036ab   Thumb Code    18  stm32f10x_tim.o(.text)
    TIM_ClearFlag                            0x080036bd   Thumb Code     6  stm32f10x_tim.o(.text)
    TIM_GetITStatus                          0x080036c3   Thumb Code    34  stm32f10x_tim.o(.text)
    TIM_ClearITPendingBit                    0x080036e5   Thumb Code     6  stm32f10x_tim.o(.text)
    NVIC_PriorityGroupConfig                 0x080036ed   Thumb Code    10  misc.o(.text)
    NVIC_Init                                0x080036f7   Thumb Code   100  misc.o(.text)
    NVIC_SetVectorTable                      0x0800375b   Thumb Code    14  misc.o(.text)
    NVIC_SystemLPConfig                      0x08003769   Thumb Code    34  misc.o(.text)
    SysTick_CLKSourceConfig                  0x0800378b   Thumb Code    40  misc.o(.text)
    GPIO_DeInit                              0x080037c9   Thumb Code   172  stm32f10x_gpio.o(.text)
    GPIO_AFIODeInit                          0x08003875   Thumb Code    20  stm32f10x_gpio.o(.text)
    GPIO_Init                                0x08003889   Thumb Code   278  stm32f10x_gpio.o(.text)
    GPIO_StructInit                          0x0800399f   Thumb Code    16  stm32f10x_gpio.o(.text)
    GPIO_ReadInputDataBit                    0x080039af   Thumb Code    18  stm32f10x_gpio.o(.text)
    GPIO_ReadInputData                       0x080039c1   Thumb Code     8  stm32f10x_gpio.o(.text)
    GPIO_ReadOutputDataBit                   0x080039c9   Thumb Code    18  stm32f10x_gpio.o(.text)
    GPIO_ReadOutputData                      0x080039db   Thumb Code     8  stm32f10x_gpio.o(.text)
    GPIO_SetBits                             0x080039e3   Thumb Code     4  stm32f10x_gpio.o(.text)
    GPIO_ResetBits                           0x080039e7   Thumb Code     4  stm32f10x_gpio.o(.text)
    GPIO_WriteBit                            0x080039eb   Thumb Code    10  stm32f10x_gpio.o(.text)
    GPIO_Write                               0x080039f5   Thumb Code     4  stm32f10x_gpio.o(.text)
    GPIO_PinLockConfig                       0x080039f9   Thumb Code    18  stm32f10x_gpio.o(.text)
    GPIO_EventOutputConfig                   0x08003a0b   Thumb Code    26  stm32f10x_gpio.o(.text)
    GPIO_EventOutputCmd                      0x08003a25   Thumb Code     6  stm32f10x_gpio.o(.text)
    GPIO_PinRemapConfig                      0x08003a2b   Thumb Code   138  stm32f10x_gpio.o(.text)
    GPIO_EXTILineConfig                      0x08003ab5   Thumb Code    66  stm32f10x_gpio.o(.text)
    GPIO_ETH_MediaInterfaceConfig            0x08003af7   Thumb Code     8  stm32f10x_gpio.o(.text)
    RCC_DeInit                               0x08003b25   Thumb Code    64  stm32f10x_rcc.o(.text)
    RCC_HSEConfig                            0x08003b65   Thumb Code    70  stm32f10x_rcc.o(.text)
    RCC_GetFlagStatus                        0x08003bab   Thumb Code    56  stm32f10x_rcc.o(.text)
    RCC_WaitForHSEStartUp                    0x08003be3   Thumb Code    56  stm32f10x_rcc.o(.text)
    RCC_AdjustHSICalibrationValue            0x08003c1b   Thumb Code    20  stm32f10x_rcc.o(.text)
    RCC_HSICmd                               0x08003c2f   Thumb Code     6  stm32f10x_rcc.o(.text)
    RCC_PLLConfig                            0x08003c35   Thumb Code    24  stm32f10x_rcc.o(.text)
    RCC_PLLCmd                               0x08003c4d   Thumb Code     6  stm32f10x_rcc.o(.text)
    RCC_SYSCLKConfig                         0x08003c53   Thumb Code    18  stm32f10x_rcc.o(.text)
    RCC_GetSYSCLKSource                      0x08003c65   Thumb Code    10  stm32f10x_rcc.o(.text)
    RCC_HCLKConfig                           0x08003c6f   Thumb Code    18  stm32f10x_rcc.o(.text)
    RCC_PCLK1Config                          0x08003c81   Thumb Code    18  stm32f10x_rcc.o(.text)
    RCC_PCLK2Config                          0x08003c93   Thumb Code    20  stm32f10x_rcc.o(.text)
    RCC_ITConfig                             0x08003ca7   Thumb Code    26  stm32f10x_rcc.o(.text)
    RCC_USBCLKConfig                         0x08003cc1   Thumb Code     8  stm32f10x_rcc.o(.text)
    RCC_ADCCLKConfig                         0x08003cc9   Thumb Code    18  stm32f10x_rcc.o(.text)
    RCC_LSEConfig                            0x08003cdb   Thumb Code    50  stm32f10x_rcc.o(.text)
    RCC_LSICmd                               0x08003d0d   Thumb Code     6  stm32f10x_rcc.o(.text)
    RCC_RTCCLKConfig                         0x08003d13   Thumb Code    12  stm32f10x_rcc.o(.text)
    RCC_RTCCLKCmd                            0x08003d1f   Thumb Code     8  stm32f10x_rcc.o(.text)
    RCC_GetClocksFreq                        0x08003d27   Thumb Code   192  stm32f10x_rcc.o(.text)
    RCC_AHBPeriphClockCmd                    0x08003de7   Thumb Code    26  stm32f10x_rcc.o(.text)
    RCC_APB2PeriphClockCmd                   0x08003e01   Thumb Code    26  stm32f10x_rcc.o(.text)
    RCC_APB1PeriphClockCmd                   0x08003e1b   Thumb Code    26  stm32f10x_rcc.o(.text)
    RCC_APB2PeriphResetCmd                   0x08003e35   Thumb Code    26  stm32f10x_rcc.o(.text)
    RCC_APB1PeriphResetCmd                   0x08003e4f   Thumb Code    26  stm32f10x_rcc.o(.text)
    RCC_BackupResetCmd                       0x08003e69   Thumb Code     8  stm32f10x_rcc.o(.text)
    RCC_ClockSecuritySystemCmd               0x08003e71   Thumb Code     6  stm32f10x_rcc.o(.text)
    RCC_MCOConfig                            0x08003e77   Thumb Code     6  stm32f10x_rcc.o(.text)
    RCC_ClearFlag                            0x08003e7d   Thumb Code    14  stm32f10x_rcc.o(.text)
    RCC_GetITStatus                          0x08003e8b   Thumb Code    20  stm32f10x_rcc.o(.text)
    RCC_ClearITPendingBit                    0x08003e9f   Thumb Code     6  stm32f10x_rcc.o(.text)
    USART_DeInit                             0x08003ec9   Thumb Code   134  stm32f10x_usart.o(.text)
    USART_Init                               0x08003f4f   Thumb Code   210  stm32f10x_usart.o(.text)
    USART_StructInit                         0x08004021   Thumb Code    24  stm32f10x_usart.o(.text)
    USART_ClockInit                          0x08004039   Thumb Code    34  stm32f10x_usart.o(.text)
    USART_ClockStructInit                    0x0800405b   Thumb Code    12  stm32f10x_usart.o(.text)
    USART_Cmd                                0x08004067   Thumb Code    24  stm32f10x_usart.o(.text)
    USART_ITConfig                           0x0800407f   Thumb Code    74  stm32f10x_usart.o(.text)
    USART_DMACmd                             0x080040c9   Thumb Code    18  stm32f10x_usart.o(.text)
    USART_SetAddress                         0x080040db   Thumb Code    18  stm32f10x_usart.o(.text)
    USART_WakeUpConfig                       0x080040ed   Thumb Code    18  stm32f10x_usart.o(.text)
    USART_ReceiverWakeUpCmd                  0x080040ff   Thumb Code    24  stm32f10x_usart.o(.text)
    USART_LINBreakDetectLengthConfig         0x08004117   Thumb Code    18  stm32f10x_usart.o(.text)
    USART_LINCmd                             0x08004129   Thumb Code    24  stm32f10x_usart.o(.text)
    USART_SendData                           0x08004141   Thumb Code     8  stm32f10x_usart.o(.text)
    USART_ReceiveData                        0x08004149   Thumb Code    10  stm32f10x_usart.o(.text)
    USART_SendBreak                          0x08004153   Thumb Code    10  stm32f10x_usart.o(.text)
    USART_SetGuardTime                       0x0800415d   Thumb Code    16  stm32f10x_usart.o(.text)
    USART_SetPrescaler                       0x0800416d   Thumb Code    16  stm32f10x_usart.o(.text)
    USART_SmartCardCmd                       0x0800417d   Thumb Code    24  stm32f10x_usart.o(.text)
    USART_SmartCardNACKCmd                   0x08004195   Thumb Code    24  stm32f10x_usart.o(.text)
    USART_HalfDuplexCmd                      0x080041ad   Thumb Code    24  stm32f10x_usart.o(.text)
    USART_OverSampling8Cmd                   0x080041c5   Thumb Code    22  stm32f10x_usart.o(.text)
    USART_OneBitMethodCmd                    0x080041db   Thumb Code    24  stm32f10x_usart.o(.text)
    USART_IrDAConfig                         0x080041f3   Thumb Code    18  stm32f10x_usart.o(.text)
    USART_IrDACmd                            0x08004205   Thumb Code    24  stm32f10x_usart.o(.text)
    USART_GetFlagStatus                      0x0800421d   Thumb Code    26  stm32f10x_usart.o(.text)
    USART_ClearFlag                          0x08004237   Thumb Code    18  stm32f10x_usart.o(.text)
    USART_GetITStatus                        0x08004249   Thumb Code    84  stm32f10x_usart.o(.text)
    USART_ClearITPendingBit                  0x0800429d   Thumb Code    52  stm32f10x_usart.o(.text)
    SPI_I2S_DeInit                           0x080042d1   Thumb Code    76  stm32f10x_spi.o(.text)
    SPI_Init                                 0x0800431d   Thumb Code    60  stm32f10x_spi.o(.text)
    I2S_Init                                 0x08004359   Thumb Code   226  stm32f10x_spi.o(.text)
    SPI_StructInit                           0x0800443b   Thumb Code    24  stm32f10x_spi.o(.text)
    I2S_StructInit                           0x08004453   Thumb Code    20  stm32f10x_spi.o(.text)
    SPI_Cmd                                  0x08004467   Thumb Code    24  stm32f10x_spi.o(.text)
    I2S_Cmd                                  0x0800447f   Thumb Code    24  stm32f10x_spi.o(.text)
    SPI_I2S_ITConfig                         0x08004497   Thumb Code    32  stm32f10x_spi.o(.text)
    SPI_I2S_DMACmd                           0x080044b7   Thumb Code    18  stm32f10x_spi.o(.text)
    SPI_I2S_SendData                         0x080044c9   Thumb Code     4  stm32f10x_spi.o(.text)
    SPI_I2S_ReceiveData                      0x080044cd   Thumb Code     6  stm32f10x_spi.o(.text)
    SPI_NSSInternalSoftwareConfig            0x080044d3   Thumb Code    30  stm32f10x_spi.o(.text)
    SPI_SSOutputCmd                          0x080044f1   Thumb Code    24  stm32f10x_spi.o(.text)
    SPI_DataSizeConfig                       0x08004509   Thumb Code    18  stm32f10x_spi.o(.text)
    SPI_TransmitCRC                          0x0800451b   Thumb Code    10  stm32f10x_spi.o(.text)
    SPI_CalculateCRC                         0x08004525   Thumb Code    24  stm32f10x_spi.o(.text)
    SPI_GetCRC                               0x0800453d   Thumb Code    16  stm32f10x_spi.o(.text)
    SPI_GetCRCPolynomial                     0x0800454d   Thumb Code     6  stm32f10x_spi.o(.text)
    SPI_BiDirectionalLineConfig              0x08004553   Thumb Code    28  stm32f10x_spi.o(.text)
    SPI_I2S_GetFlagStatus                    0x0800456f   Thumb Code    18  stm32f10x_spi.o(.text)
    SPI_I2S_ClearFlag                        0x08004581   Thumb Code     6  stm32f10x_spi.o(.text)
    SPI_I2S_GetITStatus                      0x08004587   Thumb Code    52  stm32f10x_spi.o(.text)
    SPI_I2S_ClearITPendingBit                0x080045bb   Thumb Code    20  stm32f10x_spi.o(.text)
    DMA_DeInit                               0x080045dd   Thumb Code   324  stm32f10x_dma.o(.text)
    DMA_Init                                 0x08004721   Thumb Code    60  stm32f10x_dma.o(.text)
    DMA_StructInit                           0x0800475d   Thumb Code    26  stm32f10x_dma.o(.text)
    DMA_Cmd                                  0x08004777   Thumb Code    24  stm32f10x_dma.o(.text)
    DMA_ITConfig                             0x0800478f   Thumb Code    18  stm32f10x_dma.o(.text)
    DMA_SetCurrDataCounter                   0x080047a1   Thumb Code     4  stm32f10x_dma.o(.text)
    DMA_GetCurrDataCounter                   0x080047a5   Thumb Code     8  stm32f10x_dma.o(.text)
    DMA_GetFlagStatus                        0x080047ad   Thumb Code    40  stm32f10x_dma.o(.text)
    DMA_ClearFlag                            0x080047d5   Thumb Code    22  stm32f10x_dma.o(.text)
    DMA_GetITStatus                          0x080047eb   Thumb Code    40  stm32f10x_dma.o(.text)
    DMA_ClearITPendingBit                    0x08004813   Thumb Code    22  stm32f10x_dma.o(.text)
    FLASH_SetLatency                         0x08004831   Thumb Code    18  stm32f10x_flash.o(.text)
    FLASH_HalfCycleAccessCmd                 0x08004843   Thumb Code    22  stm32f10x_flash.o(.text)
    FLASH_PrefetchBufferCmd                  0x08004859   Thumb Code    22  stm32f10x_flash.o(.text)
    FLASH_Unlock                             0x0800486f   Thumb Code    12  stm32f10x_flash.o(.text)
    FLASH_UnlockBank1                        0x0800487b   Thumb Code    12  stm32f10x_flash.o(.text)
    FLASH_Lock                               0x08004887   Thumb Code    14  stm32f10x_flash.o(.text)
    FLASH_LockBank1                          0x08004895   Thumb Code    14  stm32f10x_flash.o(.text)
    FLASH_GetBank1Status                     0x080048a3   Thumb Code    48  stm32f10x_flash.o(.text)
    FLASH_WaitForLastOperation               0x080048d3   Thumb Code    38  stm32f10x_flash.o(.text)
    FLASH_ErasePage                          0x080048f9   Thumb Code    72  stm32f10x_flash.o(.text)
    FLASH_EraseAllPages                      0x08004941   Thumb Code    68  stm32f10x_flash.o(.text)
    FLASH_WaitForLastBank1Operation          0x08004985   Thumb Code    38  stm32f10x_flash.o(.text)
    FLASH_EraseAllBank1Pages                 0x080049ab   Thumb Code    68  stm32f10x_flash.o(.text)
    FLASH_GetReadOutProtectionStatus         0x080049ef   Thumb Code    20  stm32f10x_flash.o(.text)
    FLASH_EraseOptionBytes                   0x08004a03   Thumb Code   150  stm32f10x_flash.o(.text)
    FLASH_ProgramWord                        0x08004a99   Thumb Code   102  stm32f10x_flash.o(.text)
    FLASH_ProgramHalfWord                    0x08004aff   Thumb Code    60  stm32f10x_flash.o(.text)
    FLASH_ProgramOptionByteData              0x08004b3b   Thumb Code    72  stm32f10x_flash.o(.text)
    FLASH_EnableWriteProtection              0x08004b83   Thumb Code   200  stm32f10x_flash.o(.text)
    FLASH_ReadOutProtection                  0x08004c4b   Thumb Code   156  stm32f10x_flash.o(.text)
    FLASH_UserOptionByteConfig               0x08004ce7   Thumb Code    88  stm32f10x_flash.o(.text)
    FLASH_GetUserOptionByte                  0x08004d3f   Thumb Code     8  stm32f10x_flash.o(.text)
    FLASH_GetWriteProtectionOptionByte       0x08004d47   Thumb Code     6  stm32f10x_flash.o(.text)
    FLASH_GetPrefetchBufferStatus            0x08004d4d   Thumb Code    20  stm32f10x_flash.o(.text)
    FLASH_ITConfig                           0x08004d61   Thumb Code    26  stm32f10x_flash.o(.text)
    FLASH_GetFlagStatus                      0x08004d7b   Thumb Code    42  stm32f10x_flash.o(.text)
    FLASH_ClearFlag                          0x08004da5   Thumb Code     6  stm32f10x_flash.o(.text)
    FLASH_GetStatus                          0x08004dab   Thumb Code    48  stm32f10x_flash.o(.text)
    __use_no_semihosting                     0x08004ded   Thumb Code     2  use_no_semi_2.o(.text)
    malloc                                   0x08004def   Thumb Code    94  h1_alloc.o(.text)
    free                                     0x08004e4d   Thumb Code    78  h1_free.o(.text)
    __2printf                                0x08004e9d   Thumb Code    20  noretval__2printf.o(.text)
    __2sprintf                               0x08004eb5   Thumb Code    34  noretval__2sprintf.o(.text)
    _printf_str                              0x08004edd   Thumb Code    82  _printf_str.o(.text)
    _printf_int_dec                          0x08004f31   Thumb Code   104  _printf_dec.o(.text)
    __printf                                 0x08004fa9   Thumb Code   308  __printf_flags_wp.o(.text)
    strstr                                   0x080050e1   Thumb Code    36  strstr.o(.text)
    __use_two_region_memory                  0x08005105   Thumb Code     2  heapauxi.o(.text)
    __rt_heap_escrow                         0x08005107   Thumb Code     2  heapauxi.o(.text)
    __rt_heap_expand                         0x08005109   Thumb Code     2  heapauxi.o(.text)
    __I$use$semihosting                      0x0800510b   Thumb Code     0  use_no_semi.o(.text)
    __use_no_semihosting_swi                 0x0800510b   Thumb Code     2  use_no_semi.o(.text)
    __rt_heap_descriptor                     0x0800510d   Thumb Code     8  rt_heap_descriptor_intlibspace.o(.text)
    __use_no_heap                            0x08005115   Thumb Code     2  hguard.o(.text)
    __heap$guard                             0x08005117   Thumb Code     2  hguard.o(.text)
    _terminate_user_alloc                    0x08005119   Thumb Code     2  init_alloc.o(.text)
    _init_user_alloc                         0x0800511b   Thumb Code     2  init_alloc.o(.text)
    __Heap_Full                              0x0800511d   Thumb Code    34  init_alloc.o(.text)
    __Heap_Broken                            0x0800513f   Thumb Code     6  init_alloc.o(.text)
    _init_alloc                              0x08005145   Thumb Code    94  init_alloc.o(.text)
    __Heap_Initialize                        0x080051a3   Thumb Code    10  h1_init.o(.text)
    __Heap_DescSize                          0x080051ad   Thumb Code     4  h1_init.o(.text)
    _printf_int_common                       0x080051b1   Thumb Code   178  _printf_intcommon.o(.text)
    _printf_char_common                      0x0800526f   Thumb Code    32  _printf_char_common.o(.text)
    _sputc                                   0x08005295   Thumb Code    10  _sputc.o(.text)
    _printf_cs_common                        0x0800529f   Thumb Code    20  _printf_char.o(.text)
    _printf_char                             0x080052b3   Thumb Code    16  _printf_char.o(.text)
    _printf_string                           0x080052c3   Thumb Code     8  _printf_char.o(.text)
    _printf_char_file                        0x080052cd   Thumb Code    32  _printf_char_file.o(.text)
    __user_libspace                          0x080052f1   Thumb Code     8  libspace.o(.text)
    __user_perproc_libspace                  0x080052f1   Thumb Code     0  libspace.o(.text)
    __user_perthread_libspace                0x080052f1   Thumb Code     0  libspace.o(.text)
    __Heap_ProvideMemory                     0x080052f9   Thumb Code    52  h1_extend.o(.text)
    ferror                                   0x0800532d   Thumb Code     8  ferror.o(.text)
    __rt_SIGRTMEM                            0x08005335   Thumb Code    14  defsig_rtmem_outer.o(.text)
    __user_setup_stackheap                   0x08005343   Thumb Code    74  sys_stackheap_outer.o(.text)
    exit                                     0x0800538d   Thumb Code    12  exit.o(.text)
    __sig_exit                               0x08005399   Thumb Code    10  defsig_exit.o(.text)
    __rt_SIGRTMEM_inner                      0x080053a5   Thumb Code    22  defsig_rtmem_inner.o(.text)
    __default_signal_display                 0x080053f5   Thumb Code    50  defsig_general.o(.text)
    _is_digit                                0x08005427   Thumb Code    14  __printf_wp.o(i._is_digit)
    __aeabi_f2uiz                            0x08005435   Thumb Code     0  ffixu.o(x$fpl$ffixu)
    _ffixu                                   0x08005435   Thumb Code    62  ffixu.o(x$fpl$ffixu)
    __aeabi_fmul                             0x08005475   Thumb Code     0  fmul.o(x$fpl$fmul)
    _fmul                                    0x08005475   Thumb Code   258  fmul.o(x$fpl$fmul)
    __fpl_fnaninf                            0x08005577   Thumb Code   140  fnaninf.o(x$fpl$fnaninf)
    __fpl_fretinf                            0x08005603   Thumb Code    10  fretinf.o(x$fpl$fretinf)
    __I$use$fp                               0x0800560c   Number         0  usenofp.o(x$fpl$usenofp)
    gImage_1                                 0x0800560c   Data        3200  main.o(.constdata)
    TX_ADDRESS                               0x0800628c   Data           5  nrf24l01_api.o(.constdata)
    RX_ADDRESS                               0x08006291   Data           5  nrf24l01_api.o(.constdata)
    ascii_1206                               0x08006296   Data        1140  lcd.o(.constdata)
    ascii_1608                               0x0800670a   Data        1520  lcd.o(.constdata)
    ascii_2412                               0x08006cfa   Data        4560  lcd.o(.constdata)
    ascii_3216                               0x08007eca   Data        6080  lcd.o(.constdata)
    tfont12                                  0x0800968a   Data          26  lcd.o(.constdata)
    tfont16                                  0x080096a4   Data         408  lcd.o(.constdata)
    tfont24                                  0x0800983c   Data          74  lcd.o(.constdata)
    tfont32                                  0x08009886   Data         520  lcd.o(.constdata)
    Region$$Table$$Base                      0x08009b60   Number         0  anon$$obj.o(Region$$Table)
    Region$$Table$$Limit                     0x08009b80   Number         0  anon$$obj.o(Region$$Table)
    one                                      0x20000000   Data         128  main.o(.data)
    two                                      0x20000080   Data         128  main.o(.data)
    three                                    0x20000100   Data         128  main.o(.data)
    jie                                      0x20000180   Data          72  main.o(.data)
    shou                                     0x200001c8   Data          72  main.o(.data)
    dian                                     0x20000210   Data         128  main.o(.data)
    ledoff                                   0x20000290   Data         128  main.o(.data)
    ledon                                    0x20000310   Data         128  main.o(.data)
    guangai                                  0x20000390   Data         128  main.o(.data)
    tongfeng                                 0x20000410   Data         128  main.o(.data)
    wifioff                                  0x20000490   Data         128  main.o(.data)
    wifion                                   0x20000510   Data         128  main.o(.data)
    wen                                      0x20000590   Data          72  main.o(.data)
    shi                                      0x200005d8   Data          72  main.o(.data)
    du                                       0x20000620   Data          72  main.o(.data)
    tu                                       0x20000668   Data          72  main.o(.data)
    rang                                     0x200006b0   Data          72  main.o(.data)
    guang                                    0x200006f8   Data          72  main.o(.data)
    xian                                     0x20000740   Data          72  main.o(.data)
    sun                                      0x20000788   Data         128  main.o(.data)
    rain                                     0x20000808   Data         128  main.o(.data)
    System_t                                 0x20000888   Data           4  main.o(.data)
    DMA1_MEM_LEN                             0x2000088e   Data           2  dma.o(.data)
    it                                       0x20000890   Data           4  dev.o(.data)
    dev_head                                 0x20000894   Data           4  dev.o(.data)
    __stdout                                 0x200008a0   Data           4  usart.o(.data)
    USART_RX_STA                             0x200008a4   Data           2  usart.o(.data)
    SystemCoreClock                          0x200008a8   Data           4  system_stm32f10x.o(.data)
    AHBPrescTable                            0x200008ac   Data          16  system_stm32f10x.o(.data)
    use_buf                                  0x200008d0   Data          32  main.o(.bss)
    rec_buff                                 0x200008f0   Data          32  main.o(.bss)
    DMA_InitStructure                        0x20000910   Data          44  dma.o(.bss)
    STMFLASH_BUF                             0x2000093c   Data        2048  stmflash.o(.bss)
    USART_RX_BUF                             0x2000113c   Data         200  usart.o(.bss)
    __libspace_start                         0x20001204   Data          96  libspace.o(.bss)
    __temporary_stack_top$libspace           0x20001264   Data           0  libspace.o(.bss)



==============================================================================

Memory Map of the image

  Image Entry point : 0x08000131

  Load Region LR_IROM1 (Base: 0x08000000, Size: 0x0000a450, Max: 0x00010000, ABSOLUTE, COMPRESSED[0x0000a134])

    Execution Region ER_IROM1 (Base: 0x08000000, Size: 0x00009b80, Max: 0x00010000, ABSOLUTE)

    Base Addr    Size         Type   Attr      Idx    E Section Name        Object

    0x08000000   0x00000130   Data   RO          455    RESET               startup_stm32f10x_hd.o
    0x08000130   0x00000008   Code   RO          802  * !!!main             c_w.l(__main.o)
    0x08000138   0x00000034   Code   RO         1172    !!!scatter          c_w.l(__scatter.o)
    0x0800016c   0x0000005a   Code   RO         1170    !!dczerorl2         c_w.l(__dczerorl2.o)
    0x080001c6   0x00000002   PAD
    0x080001c8   0x0000001c   Code   RO         1174    !!handler_zi        c_w.l(__scatter_zi.o)
    0x080001e4   0x00000000   Code   RO          783    .ARM.Collect$$_printf_percent$$00000000  c_w.l(_printf_percent.o)
    0x080001e4   0x00000006   Code   RO          780    .ARM.Collect$$_printf_percent$$00000009  c_w.l(_printf_d.o)
    0x080001ea   0x00000006   Code   RO          778    .ARM.Collect$$_printf_percent$$00000014  c_w.l(_printf_s.o)
    0x080001f0   0x00000004   Code   RO          898    .ARM.Collect$$_printf_percent$$00000017  c_w.l(_printf_percent_end.o)
    0x080001f4   0x00000002   Code   RO         1110    .ARM.Collect$$libinit$$00000000  c_w.l(libinit.o)
    0x080001f6   0x00000000   Code   RO          902    .ARM.Collect$$libinit$$00000002  c_w.l(libinit2.o)
    0x080001f6   0x00000000   Code   RO          904    .ARM.Collect$$libinit$$00000004  c_w.l(libinit2.o)
    0x080001f6   0x00000008   Code   RO          905    .ARM.Collect$$libinit$$00000005  c_w.l(libinit2.o)
    0x080001fe   0x00000000   Code   RO          907    .ARM.Collect$$libinit$$0000000A  c_w.l(libinit2.o)
    0x080001fe   0x00000000   Code   RO          909    .ARM.Collect$$libinit$$0000000C  c_w.l(libinit2.o)
    0x080001fe   0x00000000   Code   RO          911    .ARM.Collect$$libinit$$0000000E  c_w.l(libinit2.o)
    0x080001fe   0x00000000   Code   RO          914    .ARM.Collect$$libinit$$00000011  c_w.l(libinit2.o)
    0x080001fe   0x00000000   Code   RO          916    .ARM.Collect$$libinit$$00000013  c_w.l(libinit2.o)
    0x080001fe   0x00000000   Code   RO          918    .ARM.Collect$$libinit$$00000015  c_w.l(libinit2.o)
    0x080001fe   0x00000000   Code   RO          920    .ARM.Collect$$libinit$$00000017  c_w.l(libinit2.o)
    0x080001fe   0x00000000   Code   RO          922    .ARM.Collect$$libinit$$00000019  c_w.l(libinit2.o)
    0x080001fe   0x00000000   Code   RO          924    .ARM.Collect$$libinit$$0000001B  c_w.l(libinit2.o)
    0x080001fe   0x00000000   Code   RO          926    .ARM.Collect$$libinit$$0000001D  c_w.l(libinit2.o)
    0x080001fe   0x00000000   Code   RO          928    .ARM.Collect$$libinit$$0000001F  c_w.l(libinit2.o)
    0x080001fe   0x00000000   Code   RO          930    .ARM.Collect$$libinit$$00000021  c_w.l(libinit2.o)
    0x080001fe   0x00000000   Code   RO          932    .ARM.Collect$$libinit$$00000023  c_w.l(libinit2.o)
    0x080001fe   0x00000000   Code   RO          934    .ARM.Collect$$libinit$$00000025  c_w.l(libinit2.o)
    0x080001fe   0x00000000   Code   RO          938    .ARM.Collect$$libinit$$0000002C  c_w.l(libinit2.o)
    0x080001fe   0x00000000   Code   RO          940    .ARM.Collect$$libinit$$0000002E  c_w.l(libinit2.o)
    0x080001fe   0x00000000   Code   RO          942    .ARM.Collect$$libinit$$00000030  c_w.l(libinit2.o)
    0x080001fe   0x00000000   Code   RO          944    .ARM.Collect$$libinit$$00000032  c_w.l(libinit2.o)
    0x080001fe   0x00000002   Code   RO          945    .ARM.Collect$$libinit$$00000033  c_w.l(libinit2.o)
    0x08000200   0x00000002   Code   RO         1167    .ARM.Collect$$libshutdown$$00000000  c_w.l(libshutdown.o)
    0x08000202   0x00000000   Code   RO         1125    .ARM.Collect$$libshutdown$$00000003  c_w.l(libshutdown2.o)
    0x08000202   0x00000000   Code   RO         1128    .ARM.Collect$$libshutdown$$00000006  c_w.l(libshutdown2.o)
    0x08000202   0x00000000   Code   RO         1131    .ARM.Collect$$libshutdown$$00000009  c_w.l(libshutdown2.o)
    0x08000202   0x00000000   Code   RO         1133    .ARM.Collect$$libshutdown$$0000000B  c_w.l(libshutdown2.o)
    0x08000202   0x00000000   Code   RO         1136    .ARM.Collect$$libshutdown$$0000000E  c_w.l(libshutdown2.o)
    0x08000202   0x00000002   Code   RO         1137    .ARM.Collect$$libshutdown$$0000000F  c_w.l(libshutdown2.o)
    0x08000204   0x00000000   Code   RO          856    .ARM.Collect$$rtentry$$00000000  c_w.l(__rtentry.o)
    0x08000204   0x00000000   Code   RO          996    .ARM.Collect$$rtentry$$00000002  c_w.l(__rtentry2.o)
    0x08000204   0x00000006   Code   RO         1008    .ARM.Collect$$rtentry$$00000004  c_w.l(__rtentry4.o)
    0x0800020a   0x00000000   Code   RO          998    .ARM.Collect$$rtentry$$00000009  c_w.l(__rtentry2.o)
    0x0800020a   0x00000004   Code   RO          999    .ARM.Collect$$rtentry$$0000000A  c_w.l(__rtentry2.o)
    0x0800020e   0x00000000   Code   RO         1001    .ARM.Collect$$rtentry$$0000000C  c_w.l(__rtentry2.o)
    0x0800020e   0x00000008   Code   RO         1002    .ARM.Collect$$rtentry$$0000000D  c_w.l(__rtentry2.o)
    0x08000216   0x00000002   Code   RO         1113    .ARM.Collect$$rtexit$$00000000  c_w.l(rtexit.o)
    0x08000218   0x00000000   Code   RO         1141    .ARM.Collect$$rtexit$$00000002  c_w.l(rtexit2.o)
    0x08000218   0x00000004   Code   RO         1142    .ARM.Collect$$rtexit$$00000003  c_w.l(rtexit2.o)
    0x0800021c   0x00000006   Code   RO         1143    .ARM.Collect$$rtexit$$00000004  c_w.l(rtexit2.o)
    0x08000222   0x00000002   PAD
    0x08000224   0x00000000   Code   RO         1022    .emb_text           c_w.l(maybetermalloc1.o)
    0x08000224   0x00000690   Code   RO            1    .text               main.o
    0x080008b4   0x00000038   Code   RO          173    .text               led.o
    0x080008ec   0x00000358   Code   RO          185    .text               nrf24l01_api.o
    0x08000c44   0x000000bc   Code   RO          200    .text               key.o
    0x08000d00   0x00000b10   Code   RO          263    .text               lcd.o
    0x08001810   0x0000008c   Code   RO          287    .text               spi.o
    0x0800189c   0x00000294   Code   RO          299    .text               lcd_init.o
    0x08001b30   0x000000d4   Code   RO          311    .text               dma.o
    0x08001c04   0x00000144   Code   RO          327    .text               stmflash.o
    0x08001d48   0x000003c0   Code   RO          342    .text               dev.o
    0x08002108   0x000001b4   Code   RO          360    .text               base64.o
    0x080022bc   0x000001bc   Code   RO          376    .text               timer.o
    0x08002478   0x000000d4   Code   RO          389    .text               delay.o
    0x0800254c   0x00000148   Code   RO          420    .text               usart.o
    0x08002694   0x00000040   Code   RO          456    .text               startup_stm32f10x_hd.o
    0x080026d4   0x0000001a   Code   RO          460    .text               stm32f10x_it.o
    0x080026ee   0x00000002   PAD
    0x080026f0   0x000001e0   Code   RO          501    .text               system_stm32f10x.o
    0x080028d0   0x00000e1a   Code   RO          543    .text               stm32f10x_tim.o
    0x080036ea   0x00000002   PAD
    0x080036ec   0x000000dc   Code   RO          555    .text               misc.o
    0x080037c8   0x0000035c   Code   RO          567    .text               stm32f10x_gpio.o
    0x08003b24   0x000003a4   Code   RO          579    .text               stm32f10x_rcc.o
    0x08003ec8   0x00000408   Code   RO          593    .text               stm32f10x_usart.o
    0x080042d0   0x0000030c   Code   RO          605    .text               stm32f10x_spi.o
    0x080045dc   0x00000254   Code   RO          629    .text               stm32f10x_dma.o
    0x08004830   0x000005bc   Code   RO          641    .text               stm32f10x_flash.o
    0x08004dec   0x00000002   Code   RO          655    .text               c_w.l(use_no_semi_2.o)
    0x08004dee   0x0000005e   Code   RO          661    .text               c_w.l(h1_alloc.o)
    0x08004e4c   0x0000004e   Code   RO          663    .text               c_w.l(h1_free.o)
    0x08004e9a   0x00000002   PAD
    0x08004e9c   0x00000018   Code   RO          725    .text               c_w.l(noretval__2printf.o)
    0x08004eb4   0x00000028   Code   RO          727    .text               c_w.l(noretval__2sprintf.o)
    0x08004edc   0x00000052   Code   RO          733    .text               c_w.l(_printf_str.o)
    0x08004f2e   0x00000002   PAD
    0x08004f30   0x00000078   Code   RO          735    .text               c_w.l(_printf_dec.o)
    0x08004fa8   0x00000138   Code   RO          770    .text               c_w.l(__printf_flags_wp.o)
    0x080050e0   0x00000024   Code   RO          786    .text               c_w.l(strstr.o)
    0x08005104   0x00000006   Code   RO          800    .text               c_w.l(heapauxi.o)
    0x0800510a   0x00000002   Code   RO          852    .text               c_w.l(use_no_semi.o)
    0x0800510c   0x00000008   Code   RO          862    .text               c_w.l(rt_heap_descriptor_intlibspace.o)
    0x08005114   0x00000004   Code   RO          864    .text               c_w.l(hguard.o)
    0x08005118   0x0000008a   Code   RO          866    .text               c_w.l(init_alloc.o)
    0x080051a2   0x0000000e   Code   RO          870    .text               c_w.l(h1_init.o)
    0x080051b0   0x000000b2   Code   RO          886    .text               c_w.l(_printf_intcommon.o)
    0x08005262   0x00000002   PAD
    0x08005264   0x00000030   Code   RO          890    .text               c_w.l(_printf_char_common.o)
    0x08005294   0x0000000a   Code   RO          892    .text               c_w.l(_sputc.o)
    0x0800529e   0x0000002c   Code   RO          894    .text               c_w.l(_printf_char.o)
    0x080052ca   0x00000002   PAD
    0x080052cc   0x00000024   Code   RO          896    .text               c_w.l(_printf_char_file.o)
    0x080052f0   0x00000008   Code   RO          992    .text               c_w.l(libspace.o)
    0x080052f8   0x00000034   Code   RO         1024    .text               c_w.l(h1_extend.o)
    0x0800532c   0x00000008   Code   RO         1059    .text               c_w.l(ferror.o)
    0x08005334   0x0000000e   Code   RO         1069    .text               c_w.l(defsig_rtmem_outer.o)
    0x08005342   0x0000004a   Code   RO         1087    .text               c_w.l(sys_stackheap_outer.o)
    0x0800538c   0x0000000c   Code   RO         1093    .text               c_w.l(exit.o)
    0x08005398   0x0000000a   Code   RO         1095    .text               c_w.l(defsig_exit.o)
    0x080053a2   0x00000002   PAD
    0x080053a4   0x00000050   Code   RO         1097    .text               c_w.l(defsig_rtmem_inner.o)
    0x080053f4   0x00000032   Code   RO         1121    .text               c_w.l(defsig_general.o)
    0x08005426   0x0000000e   Code   RO          768    i._is_digit         c_w.l(__printf_wp.o)
    0x08005434   0x0000003e   Code   RO          830    x$fpl$ffixu         fz_ws.l(ffixu.o)
    0x08005472   0x00000002   PAD
    0x08005474   0x00000102   Code   RO          834    x$fpl$fmul          fz_ws.l(fmul.o)
    0x08005576   0x0000008c   Code   RO          956    x$fpl$fnaninf       fz_ws.l(fnaninf.o)
    0x08005602   0x0000000a   Code   RO          958    x$fpl$fretinf       fz_ws.l(fretinf.o)
    0x0800560c   0x00000000   Code   RO          962    x$fpl$usenofp       fz_ws.l(usenofp.o)
    0x0800560c   0x00000c80   Data   RO            3    .constdata          main.o
    0x0800628c   0x0000000a   Data   RO          186    .constdata          nrf24l01_api.o
    0x08006296   0x000037f8   Data   RO          264    .constdata          lcd.o
    0x08009a8e   0x0000007b   Data   RO          361    .constdata          base64.o
    0x08009b09   0x00000011   Data   RO          771    .constdata          c_w.l(__printf_flags_wp.o)
    0x08009b1a   0x00000002   PAD
    0x08009b1c   0x00000041   Data   RO          362    .conststring        base64.o
    0x08009b5d   0x00000003   PAD
    0x08009b60   0x00000020   Data   RO         1168    Region$$Table       anon$$obj.o


    Execution Region RW_IRAM1 (Base: 0x20000000, Size: 0x00001868, Max: 0x00005000, ABSOLUTE, COMPRESSED[0x000005b4])

    Base Addr    Size         Type   Attr      Idx    E Section Name        Object

    0x20000000   0x0000088c   Data   RW            4    .data               main.o
    0x2000088c   0x00000001   Data   RW          201    .data               key.o
    0x2000088d   0x00000001   PAD
    0x2000088e   0x00000002   Data   RW          313    .data               dma.o
    0x20000890   0x00000008   Data   RW          343    .data               dev.o
    0x20000898   0x00000004   Data   RW          363    .data               base64.o
    0x2000089c   0x00000004   Data   RW          390    .data               delay.o
    0x200008a0   0x00000006   Data   RW          422    .data               usart.o
    0x200008a6   0x00000002   PAD
    0x200008a8   0x00000014   Data   RW          502    .data               system_stm32f10x.o
    0x200008bc   0x00000014   Data   RW          580    .data               stm32f10x_rcc.o
    0x200008d0   0x00000040   Zero   RW            2    .bss                main.o
    0x20000910   0x0000002c   Zero   RW          312    .bss                dma.o
    0x2000093c   0x00000800   Zero   RW          328    .bss                stmflash.o
    0x2000113c   0x000000c8   Zero   RW          421    .bss                usart.o
    0x20001204   0x00000060   Zero   RW          993    .bss                c_w.l(libspace.o)
    0x20001264   0x00000004   PAD
    0x20001268   0x00000200   Zero   RW          454    HEAP                startup_stm32f10x_hd.o
    0x20001468   0x00000400   Zero   RW          453    STACK               startup_stm32f10x_hd.o


==============================================================================

Image component sizes


      Code (inc. data)   RO Data    RW Data    ZI Data      Debug   Object Name

       436         18        188          4          0       1695   base64.o
       212         18          0          4          0       1007   delay.o
       960        130          0          8          0       3846   dev.o
       212         12          0          2         44       1679   dma.o
       188         10          0          1          0        780   key.o
      2832         52      14328          0          0       9894   lcd.o
       660          8          0          0          0       1996   lcd_init.o
        56          6          0          0          0        475   led.o
      1680        154       3200       2188         64     281586   main.o
       220         22          0          0          0       1785   misc.o
       856         50         10          0          0       4182   nrf24l01_api.o
       140          8          0          0          0        580   spi.o
        64         26        304          0       1536        788   startup_stm32f10x_hd.o
       596          8          0          0          0       4310   stm32f10x_dma.o
      1468         34          0          0          0       8014   stm32f10x_flash.o
       860         38          0          0          0       5629   stm32f10x_gpio.o
        26          0          0          0          0       1170   stm32f10x_it.o
       932         36          0         20          0       8788   stm32f10x_rcc.o
       780         14          0          0          0       6510   stm32f10x_spi.o
      3610         88          0          0          0      22112   stm32f10x_tim.o
      1032         22          0          0          0       8352   stm32f10x_usart.o
       324          8          0          0       2048       2582   stmflash.o
         0          0          0          0          0         32   sys.o
       480         38          0         20          0       1715   system_stm32f10x.o
       444         18          0          0          0       1638   timer.o
       328         18          0          6        200       3299   usart.o

    ----------------------------------------------------------------------
     19400        836      18065       2256       3892     384444   Object Totals
         0          0         32          0          0          0   (incl. Generated)
         4          0          3          3          0          0   (incl. Padding)

    ----------------------------------------------------------------------

      Code (inc. data)   RO Data    RW Data    ZI Data      Debug   Library Member Name

        90          0          0          0          0          0   __dczerorl2.o
         8          0          0          0          0         68   __main.o
       312          4         17          0          0         92   __printf_flags_wp.o
        14          0          0          0          0         68   __printf_wp.o
         0          0          0          0          0          0   __rtentry.o
        12          0          0          0          0          0   __rtentry2.o
         6          0          0          0          0          0   __rtentry4.o
        52          8          0          0          0          0   __scatter.o
        28          0          0          0          0          0   __scatter_zi.o
        44          0          0          0          0        108   _printf_char.o
        48          6          0          0          0         96   _printf_char_common.o
        36          4          0          0          0         80   _printf_char_file.o
         6          0          0          0          0          0   _printf_d.o
       120         16          0          0          0         92   _printf_dec.o
       178          0          0          0          0         88   _printf_intcommon.o
         0          0          0          0          0          0   _printf_percent.o
         4          0          0          0          0          0   _printf_percent_end.o
         6          0          0          0          0          0   _printf_s.o
        82          0          0          0          0         80   _printf_str.o
        10          0          0          0          0         68   _sputc.o
        10          0          0          0          0         68   defsig_exit.o
        50          0          0          0          0         88   defsig_general.o
        80         58          0          0          0         76   defsig_rtmem_inner.o
        14          0          0          0          0         80   defsig_rtmem_outer.o
        12          0          0          0          0         72   exit.o
         8          0          0          0          0         68   ferror.o
        94          0          0          0          0         80   h1_alloc.o
        52          0          0          0          0         68   h1_extend.o
        78          0          0          0          0         80   h1_free.o
        14          0          0          0          0         84   h1_init.o
         6          0          0          0          0        152   heapauxi.o
         4          0          0          0          0        136   hguard.o
       138          0          0          0          0        168   init_alloc.o
         2          0          0          0          0          0   libinit.o
        10          0          0          0          0          0   libinit2.o
         2          0          0          0          0          0   libshutdown.o
         2          0          0          0          0          0   libshutdown2.o
         8          4          0          0         96         68   libspace.o
         0          0          0          0          0          0   maybetermalloc1.o
        24          4          0          0          0         84   noretval__2printf.o
        40          6          0          0          0         84   noretval__2sprintf.o
         8          4          0          0          0         68   rt_heap_descriptor_intlibspace.o
         2          0          0          0          0          0   rtexit.o
        10          0          0          0          0          0   rtexit2.o
        36          0          0          0          0         80   strstr.o
        74          0          0          0          0         80   sys_stackheap_outer.o
         2          0          0          0          0         68   use_no_semi.o
         2          0          0          0          0         68   use_no_semi_2.o
        62          4          0          0          0         84   ffixu.o
       258          4          0          0          0         84   fmul.o
       140          4          0          0          0         84   fnaninf.o
        10          0          0          0          0         68   fretinf.o
         0          0          0          0          0          0   usenofp.o

    ----------------------------------------------------------------------
      2324        126         19          0        100       2980   Library Totals
        16          0          2          0          4          0   (incl. Padding)

    ----------------------------------------------------------------------

      Code (inc. data)   RO Data    RW Data    ZI Data      Debug   Library Name

      1838        114         17          0         96       2660   c_w.l
       470         12          0          0          0        320   fz_ws.l

    ----------------------------------------------------------------------
      2324        126         19          0        100       2980   Library Totals

    ----------------------------------------------------------------------

==============================================================================


      Code (inc. data)   RO Data    RW Data    ZI Data      Debug   

     21724        962      18084       2256       3992     383676   Grand Totals
     21724        962      18084       1460       3992     383676   ELF Image Totals (compressed)
     21724        962      18084       1460          0          0   ROM Totals

==============================================================================

    Total RO  Size (Code + RO Data)                39808 (  38.88kB)
    Total RW  Size (RW Data + ZI Data)              6248 (   6.10kB)
    Total ROM Size (Code + RO Data + RW Data)      41268 (  40.30kB)

==============================================================================

