:020000040800F2
:100000006818002079260008B9260008BB260008D9
:10001000BF260008C3260008C7260008000000000D
:10002000000000000000000000000000CB260008D7
:10003000CD26000800000000CF260008D1260008C9
:1000400093260008932600089326000893260008AC
:10005000932600089326000893260008932600089C
:10006000932600089326000893260008932600088C
:10007000932600089326000893260008932600087C
:10008000932600089326000893260008932600086C
:10009000932600089326000893260008932600085C
:1000A000932600089326000893260008932600084C
:1000B00093260008932600080D08000893260008E0
:1000C000932600089326000893260008932600082C
:1000D00093260008ED2500089326000893260008C3
:1000E000932600089326000893260008932600080C
:1000F00093260008932600089326000893260008FC
:1001000093260008932600089326000893260008EB
:1001100093260008932600089326000893260008DB
:1001200093260008932600089326000893260008CB
:1001300000F002F800F066F80AA090E8000C824493
:100140008344AAF10107DA4501D100F05BF8AFF270
:10015000090EBAE80F0013F0010F18BFFB1A43F0A5
:1001600001031847E0990000009A00000A444FF08C
:10017000000C10F8013B13F0070408BF10F8014B06
:100180001D1108BF10F8015B641E05D010F8016B4B
:10019000641E01F8016BF9D113F0080F1EBF10F8AF
:1001A000014BAD1C0C1B09D16D1E58BF01F801CBD2
:1001B000FAD505E014F8016B01F8016B6D1EF9D555
:1001C0009142D6D37047000000230024002500266A
:1001D000103A28BF78C1FBD8520728BF30C148BFAA
:1001E0000B607047642904F09586732905F05B80E5
:1001F000002070471FB59DE8030004F095FF1FBD68
:1002000010B510BD05F08FF81146FFF7F3FF00F0B1
:10021000AEFA05F0ADF803B4FFF7F2FF03BC02F04D
:1002200087F9000010B500F053FB00F0FDFC00F072
:1002300033FB4FF48041FB4803F0C5FB10BD10B504
:1002400088B06C4608202070F748006840886080BD
:1002500000206070A080684600F0AEFC12208DF88F
:1002600000008DF8010017208DF80200EE480068AC
:100270004288EEA1E01C04F00FFE6946EDA004F0F8
:10028000FFFD08B010BDFEB50546EB48046800262A
:100290002AE06068A84224D10020E072207B00BBE5
:1002A00001202073607B70B9002020214FF6FF727F
:1002B000CDE900210290A17A607A47F67C53DFA253
:1002C00001F08AF80DE0002020214FF6FF72CDE901
:1002D00000210290A17A607A47F67C53D8A201F0FF
:1002E0007BF82469701C86B2CF480068C088B04291
:1002F000CFDCFEBDF0B5C3B004460F4612208DF82A
:100300000C008DF80D0017208DF80E00032094FBD3
:10031000F0F100FB114030B9032094FBF0F0012113
:1003200001EB800506E0032094FBF0F0401C012166
:1003300001EB8005284604F04CFD06463246214676
:10034000781C01F0D3FE0021681E315400201021DA
:100350004FF6FF724FF47843CDE900210290324608
:10036000C82101F023F93246B6A10DF10F0004F0C7
:1003700093FD304604F05CFD03A9AEA004F080FDBF
:1003800043B0F0BD30B591B0B04800F05FFB00283D
:1003900031D1AE4CA44800684088A080A2480068D3
:1003A0004089E0800020607020782146FFF7A2FF9E
:1003B00065882846FFF767FF002010214FF6FF727F
:1003C0000346CDE900210290A1A2B42101F004F876
:1003D0006388227CA0A104A804F05EFD0020102107
:1003E0004FF6FF720346CDE90021029004AAB42122
:1003F000202001F0DBF811B030BD10B5002000F076
:1004000023FC012807D19748006808B9012000E0C3
:1004100000209449086010BD3EB504469CB1002000
:1004200020214FF6FF720346CDE9002102908EA2F3
:10043000014600F0D1FF8D48C07820F00100401C3B
:100440008A49C87011E0002020214FF6FF72034650
:10045000CDE90021029086A2014600F0BDFF83484D
:10046000C07820F001008149C8703EBDFEB500256E
:1004700000260020FFF7D0FF48F230402023F02272
:1004800019460090002000F060FC002010214FF67B
:10049000FF720346CDE90021029076A2282100F0E8
:1004A0009BFF002010214FF6FF720346CDE900218B
:1004B000029073A2642100F08FFF48F23040AA231B
:1004C000F02219460090002000F03FFC6F482823DE
:1004D0001A46C8210090084601F03BF956480468C6
:1004E000002734E0607BC0B905EB8500C006000E34
:1004F00060723C20A072002020214FF6FF72CDE9EF
:100500000021029005EB8501C904080C00234BA2D1
:100510003C2100F061FF6D1C17E006EB8600C00671
:10052000000E60727820A072002020214FF6FF722A
:10053000CDE90021029006EB8601C904080C0023D6
:100540003FA2782100F048FF761C24697F1C3648C2
:100550000068C088B842C5DCFEBD3EB536480468B8
:100560004248C078C0F3400038B1FFF768FE3F480A
:10057000C07820F002003D49C8703C48C078C0F304
:10058000800000284DD000252DE0E07A1E2803DAF7
:10059000E07A401CE07223E0207B012820D100207B
:1005A0002073607B70B9002020214FF6FF72CDE9E7
:1005B00000210290A17A607A48F230431FA200F035
:1005C0000BFF0DE0002020214FF6FF72CDE9002146
:1005D0000290A17A607A48F2304319A200F0FCFE42
:1005E0002469681CC5B210480068C088A842CCDCE9
:1005F0001E488078401C1D498870084680781E2857
:1006000009DD1E2088700846C07800F0010010B196
:100610000020FFF701FF1548C07820F004001349BF
:10062000C8703EBD000C0140900800206F6E25642C
:10063000000000002573000094080020BCAF0000FB
:10064000BFD8000025730D0A00000000F00800204C
:10065000CEC2B6C80000000025642069643A256453
:1006600000000000A0012142BFAA0000880800206D
:10067000B9D80000B2C9BCAFC9E8B1B800000000E9
:10068000BFD8D6C6C9E8B1B800000000F0550008D0
:1006900070B594B07448008800F40040002864D01D
:1006A00071480088C0F30D06F1B20CAA6F4801F042
:1006B0008EFD002010214FF6FF724FF47843CDE9F4
:1006C00000210290694ADC2100F070FF0020664999
:1006D00008800CAC04ADA088654909684988884247
:1006E00043D1207820B101280ED002283CD11BE054
:1006F0000020604988700846C07800F0010010B9F9
:100700000120FFF789FE2FE01F20287020786870F5
:10071000A0886880E088A880207AA871607AE87153
:10072000284600F049FA1FE01F20287020786870E2
:10073000A0886880E088A880607AE871284600F088
:100740003BFA627A4CA10CA804F0A6FB0020102111
:100750004FF6FF720346CDE9002102900CAA014634
:10076000B42000F023FF00BF00BF14B070BD0EB571
:1007700001F074FE4FF4A06002F0AAFF4FF416508F
:1007800001F0E8FE01F023F8FFF74CFD3B48282379
:100790001A46C8210090084600F0DBFF384801F0F7
:1007A0000BFC41F2883001F096FE4FF6FF70F0230B
:1007B0001A4600210090084600F094FA0CE0002050
:1007C00010214FF6FF720346CDE9002102902DA2C1
:1007D0001E21084600F0EAFE00F086F90028EED15E
:1007E00000F0B7F941F61F4140F2E73001F0CEFDCD
:1007F000FFF73CFEFFF723FD07E0FFF7C3FDFFF720
:10080000FCFDFFF7AAFEFFF743FFF6E710B5012155
:10081000204802F048FF30B301211E4802F054FF87
:1008200014480088401C1349088008460088962117
:1008300090FBF1F201FB120030B90E48C07820F0B5
:100840000200801C0B49C8700A4800880A2190FBEE
:10085000F1F201FB120030B90648C07820F0040024
:10086000001D0449C87010BDA40800203C110020E0
:10087000900800208808002074256400F0550008C6
:10088000D00800206E726632346C30315F696E6958
:10089000740000000008004008B50121042003F0A6
:1008A000A1FA4FF48070ADF8000010208DF803001D
:1008B00003208DF802006946044802F0D7FF4FF488
:1008C0008071024803F081F808BD00000008014073
:1008D00008B501214FF4CE7003F084FA4FF42440A0
:1008E000ADF8000010208DF8030003208DF8020001
:1008F0006946C14802F0BAFF6946C04802F0B6FF37
:100900004FF48040ADF8000048208DF8030003202C
:100910008DF802006946B94802F0A8FF4FF4004084
:10092000ADF8000048208DF8030003208DF8020088
:100930006946B34802F09AFF08BD002000E0401C61
:10094000B0F5167FFBD87047002119E000F0800257
:10095000802A03D10122AB4B1A6002E00022A94B8E
:100960001A604206100E0122A64B083B1A60A64AE6
:10097000D2F838210243D0B200221A604A1CD1B208
:100980000829E3DB704770B505460C4600209D49F9
:10099000143908602846FFF7D7FF06462046FFF7C0
:1009A000D3FF01209849C1F8A801304670BD30B589
:1009B000044600209349143908602046FFF7C4FF1D
:1009C000FF20FFF7C1FF054601208F49C1F8A801AC
:1009D000284630BD2DE9F04107460D461646002059
:1009E0008849143908603846FFF7AEFF8046002476
:1009F00005E0FF20FFF7A8FF2855601CC4B2B442F1
:100A0000F7DB01207F49143908604046BDE8F081DA
:100A10002DE9F04107460C46154600207949143966
:100A200008603846FFF790FF8046002605E014F87E
:100A3000010BFFF789FF701CC6B2AE42F7DB012045
:100A40007049143908604046BDE8F08130B504466D
:100A50000720FFF7ACFF054629462720FFF793FF45
:100A600005F0400098B10020684908602022214626
:100A70006120FFF7AFFFFF21E220FFF784FF012095
:100A80006349C1F8BC01FFF758FF002030BD0120C9
:100A9000FCE730B5054600205C4908602022294665
:100AA000A020FFF7B5FF01205949C1F8BC0100BFE4
:100AB000584800680128FBD00720FFF778FF04465C
:100AC00021462720FFF75FFF04F0100028B1FF2127
:100AD000E120FFF758FF102030BD04F0200008B1DE
:100AE0002020F9E7FF20F7E70FB54BA103C9CDE9B7
:100AF000020100200090019042490839086001205D
:100B00004149C1F8A801002040490860052202A916
:100B10003020FFF77DFF052269461020FFF75AFFBE
:100B20009DF80000112812D19DF8010022280ED155
:100B30009DF8020033280AD19DF80300442806D10D
:100B40009DF80400552802D1002004B000BD01200A
:100B5000FBE700B500202D49086020213120FFF778
:100B600012FFFF21E220FFF70EFF05222C49302063
:100B7000FFF74EFF05222B492A20FFF749FF0121ED
:100B80002120FFF700FF01212220FFF7FCFE1A21A0
:100B90002420FFF7F8FE00212520FFF7F4FE0F21A7
:100BA0002620FFF7F0FE0F212020FFF7ECFE0120AA
:100BB0001749C1F8BC0100BD10B504460020134917
:100BC00008600E212020FFF7DEFE01201049C1F849
:100BD000BC010F2001F05BFC2046FFF75AFF00200C
:100BE0000A4908600F212020FFF7CDFE01200849A7
:100BF000C1F8BC0110BD000000100140000C014014
:100C000000080140BC81214200802142BC012242F7
:100C1000000022423C0121421122334455000000D1
:100C2000706200087562000808B50121082003F011
:100C3000D9F87020ADF8000048208DF8030069460F
:100C4000264802F013FE08BD10B5044614B1012079
:100C5000234908702248007848B310211F4802F049
:100C600098FE48B120211D4802F093FE20B140219A
:100C70001A4802F08EFED0B90A2001F02CFC0020A8
:100C8000174908701021154802F083FE08B90120A9
:100C900010BD2021114802F07CFE08B90220F7E7C0
:100CA00040210E4802F075FEA8B90320F0E710219C
:100CB0000A4802F06EFE01280DD12021074802F0FB
:100CC00068FE012807D14021044802F062FE012895
:100CD00001D1034908700020DAE70000000C014050
:100CE0008C0800202DE9F04706460F4614461D46A5
:100CF000DDF820A0681E83B2601E82B239463046FD
:100D000000F011FEB8460EE0B14606E0504600F095
:100D1000F3FD09F101001FFA80F9A145F6DB08F1A6
:100D200001001FFA80F8A845EEDBBDE8F08770B53A
:100D300004460D4616462B4622462946204600F01C
:100D4000F2FD304600F0D8FD70BD2DE9FF4F85B0B3
:100D500081468A460020039083460798A0EB090548
:100D60000898A0EB0A06CDF80890CDF804A0002D55
:100D700001DD012705E00DB9002702E04FF0FF3744
:100D80006D42002E02DD4FF0010806E016B94FF06B
:100D9000000802E04FF0FF387642B54201DD2C46F4
:100DA00000E03446002004901EE0019A91B2029ABD
:100DB00090B2129AFFF7BBFF039828440390B34404
:100DC0000398A04205DD0398001B03900298384465
:100DD0000290A34504DDABEB040B01984044019065
:100DE0000498401C80B20490611C04988842DCDBAB
:100DF00009B0BDE8F08F2DE9F84305460E461746C9
:100E00009846089C33463A46314628460094FFF7F8
:100E10009CFF43462A46314628460094FFF795FF3B
:100E200043463A46414628460094FFF78EFF434624
:100E30003A46314638460094FFF787FFBDE8F8830D
:100E40002DE9F04706460F46904699460025444650
:100E500041E07A1B91B2321B90B24A46FFF767FF1E
:100E60007A1B91B2321990B24A46FFF760FF3A19E5
:100E700091B2721B90B24A46FFF759FF3A1B91B2EA
:100E8000721B90B24A46FFF752FF7A1991B232199B
:100E900090B24A46FFF74BFF3A1B91B2721990B2DB
:100EA0004A46FFF744FF3A1991B2721990B24A4686
:100EB000FFF73DFF7A1991B2321B90B24A46FFF715
:100EC00036FF6D1C05FB05F004FB040108FB08F070
:100ED000814200DD641EA542BBDDBDE8F0872DE93F
:100EE000FF5F0646894692469B460F9C0020039072
:100EF00000962046E21704EB5272D2102146E31707
:100F000004EB5373DB10A4EBC3030BB1012300E02C
:100F100000231A44624392B20192042002900025F9
:100F200071E005EB8510FA4911F810009AF80010ED
:100F3000884265D105EB8510F54901EB400040780A
:100F40009AF8011088425BD109EB0400401E83B27D
:100F50003019401E82B24946304600F0E4FC0027BA
:100F60004BE04FF0000842E01098F8B905EB85100F
:100F7000E74901EB4000801CC05D012101FA08F146
:100F8000084018B1584600F0B7FC02E00E9800F097
:100F9000B3FC0398401CC0B20390039890FBF4F19B
:100FA00004FB1100F8B90020039023E005EB851045
:100FB000D74901EB4000801CC05D012101FA08F116
:100FC000084020B15A4649463046FFF7B0FE701C33
:100FD00086B20098301AA04205D1009E09F10100A6
:100FE0001FFA80F906E008F1010000F0FF08B8F1EF
:100FF000080FB9DB00BF781CC7B201988742B0DB8D
:1010000000BF681C85B2029885428ADBBDE8FF9F5D
:101010002DE9FF5F0646894692469B460F9C0020BD
:10102000039000962046E21704EB5272D21021463C
:10103000E31704EB5373DB10A4EBC3030BB10123E1
:1010400000E000231A44624392B201920120029010
:10105000002579E005EB850000EB4510AD4911F85E
:1010600010009AF8001088426BD105EB850000EB68
:101070004510A84901EB400040789AF801108842D9
:101080005FD109EB0400401E83B23019401E82B2CA
:101090004946304600F047FC00274FE04FF000087B
:1010A00046E0109808BB05EB850000EB4510994918
:1010B00001EB4000801CC05D012101FA08F10840ED
:1010C00018B1584600F018FC02E00E9800F014FC2D
:1010D0000398401CC0B20390039890FBF4F104FB0A
:1010E000110008BB0020039025E005EB850000EB14
:1010F0004510884901EB4000801CC05D012101FAC8
:1011000008F1084020B15A4649463046FFF70FFE25
:10111000701C86B20098301AA04205D1009E09F1D9
:1011200001001FFA80F906E008F1010000F0FF0855
:10113000B8F1080FB5DB00BF781CC7B20198874231
:10114000ACDB00BF681C85B20298854282DBBDE83B
:10115000FF9F2DE9FF5F0646894692469B460F9CFE
:101160000020039000962046E21704EB5272D21042
:101170002146E31704EB5373DB10A4EBC3030BB15D
:10118000012300E000231A44624392B201920C2032
:101190000290002571E005EB05105F4911F8100081
:1011A0009AF80010884265D105EB05105A4901EB09
:1011B000400040789AF8011088425BD109EB0400A6
:1011C000401E83B23019401E82B24946304600F0BC
:1011D000AAFB00274BE04FF0000842E01098F8B956
:1011E00005EB05104C4901EB4000801CC05D01215E
:1011F00001FA08F1084018B1584600F07DFB02E002
:101200000E9800F079FB0398401CC0B2039003983D
:1012100090FBF4F104FB1100F8B90020039023E0E7
:1012200005EB05103C4901EB4000801CC05D01212D
:1012300001FA08F1084020B15A4649463046FFF706
:1012400076FD701C86B20098301AA04205D1009E2F
:1012500009F101001FFA80F906E008F1010000F031
:10126000FF08B8F1080FB9DB00BF781CC7B20198BE
:101270008742B0DB00BF681C85B2029885428ADBDA
:10128000BDE8FF9F2DE9FF5F0646894692469B46D3
:101290000F9C0020039000962046E21704EB527248
:1012A000D2102146E31704EB5373DB10A4EBC30306
:1012B0000BB1012300E000231A44624392B2019271
:1012C00001200290002581E005EB850000EBC500C0
:1012D000124911F810009AF80010884273D105EBFA
:1012E000850000EBC5000D4901EB400040789AF8FD
:1012F0000110884267D109EB0400401E83B2301907
:10130000401E82B24946304600F00DFB002757E0F0
:101310006A98000820980008889600086E960008D1
:101320004FF0000846E0109808BB05EB850000EB85
:10133000C500FE4901EB4000801CC05D012101FA9F
:1013400008F1084018B1584600F0D6FA02E00E98AD
:1013500000F0D2FA0398401CC0B20390039890FBAF
:10136000F4F104FB110008BB0020039025E005EB1D
:10137000850000EBC500ED4901EB4000801CC05D1D
:10138000012101FA08F1084020B15A464946304689
:10139000FFF7CDFC701C86B20098301AA04205D130
:1013A000009E09F101001FFA80F906E008F1010032
:1013B00000F0FF08B8F1080FB5DB00BF781CC7B21A
:1013C00001988742ACDB00BF681C85B20298854259
:1013D000FFF67AAFBDE8FF9F2DE9FE4F80468946B4
:1013E00017469A46DDE90D460C9D36E00C2C09D1D6
:1013F00053463A4649464046CDE901460095FFF737
:1014000041FF25E0102C09D153463A464946404653
:10141000CDE901460095FFF79CFE19E0182C09D193
:1014200053463A4649464046CDE901460095FFF706
:10143000EFFD0DE0202C09D153463A46494640467F
:10144000CDE901460095FFF74AFD01E0BDE8FE8FBA
:10145000BF1C08EB04001FFA80F838780028C5D1BB
:1014600000BFF3E72DE9FF5F80468A4617469B469B
:101470000F9D00200290CDF80080284605EBD0712A
:10148000C1F347042046E21704EB5272D210214602
:10149000E31704EB5373DB10A4EBC3030BB101237D
:1014A00000E000231A446A4392B20192A7F120009F
:1014B000C7B20AEB0500401E83B208EB0400401ED1
:1014C00082B25146404600F02EFA002669E00C2D0B
:1014D00007D107EB4700964901EB8000805D039040
:1014E0001BE0102D05D1934800EB0710805D0390A1
:1014F00013E0182D07D107EB47008F4901EB0010CF
:10150000805D039009E0202D05D18C4800EB871009
:10151000805D039001E0BDE8FF9F4FF000093AE0D5
:101520001098C8B9012000FA09F00399084018B1D1
:10153000584600F0E1F902E00E9800F0DDF902985B
:10154000401CC0B20290029890FBF4F104FB110021
:10155000E8B90020029021E0012000FA09F0039987
:10156000084020B15A4651464046FFF7E0FB08F1DB
:1015700001001FFA80F80098A8EB0000A04206D1F5
:10158000DDF800800AF101001FFA80FA06E009F197
:10159000010000F0FF09B9F1080FC1DB00BF701CAA
:1015A00086B20198864292DB00BFB4E72DE9FE4F78
:1015B00006460F4614469846DDE90D5ADDF8309090
:1015C00010E0CDE9015ACDF8009022784346394623
:1015D0003046FFF747FF284605EBD07106EB610167
:1015E0008EB2641C20780028EBD1BDE8FE8F10B5C8
:1015F0000246012000E050430B00A1F10104E1B2DA
:10160000F9D110BD2DE9FF4F85B0074691461D4623
:10161000DDE913A600200490304606EBD071C1F33B
:10162000470B002434E0281B401EC1B20A20FFF7FC
:10163000DEFFB9FBF0F00A21B0FBF1F201FB12086A
:101640000498A0B9681EA04211DDB8F1000F0CD1BA
:10165000002004FB0B71CDE900A6029088B2202285
:10166000129B0699FFF7FEFE10E001200490002077
:1016700008F13001CAB204FB0B71CDE900A602905B
:1016800088B2129B0699FFF7EDFE00BF601CC4B242
:10169000AC42C8DB09B0BDE8F08F2DE9FF4F85B043
:1016A000074690461C46DDE91396304606EBD0719E
:1016B000C1F3470B2249404603F0CEFE039003F0EE
:1016C000ABFE80B2049000253EE0601B401EC1B21C
:1016D0000A20FFF78CFF0499B1FBF0F00A21B0FB60
:1016E000F1F201FB120AA01EA84210D10020A11E97
:1016F00001FB0B71CDE90096029088B22E22129B5D
:101700000699FFF7AFFE681CC5B2601CC4B200208A
:101710000AF13001CAB205FB0B71CDE900960290C7
:1017200088B2129B0699FFF79DFE0BE06E960008AB
:101730007A620008EE660008DE6C0008AE7E0008E3
:101740000000C842681CC5B2A542BEDB09B0BDE8B6
:10175000F08F2DE9F04706460F4614461D46DDF88A
:10176000208004FB05F04FF6FF7101EA400978196B
:10177000401E83B23019401E82B23946304600F016
:10178000D2F80821184802F020F94B464246174982
:10179000174800F0BFF90122022114480C3802F06A
:1017A0007CFE134800F00AFA09E04FF4007002F0E2
:1017B000EFFF20B14FF4007002F0FEFF00E0F4E70D
:1017C00000BF0821084802F0FEF8BDE8F08708B520
:1017D00000F0CAF84FF6FF70F0231A46002100907F
:1017E0000846FFF77FFA08BD000801400C300140B1
:1017F0003000024000B587B00121080302F0F2FA80
:101800000121042002F0EEFAA020ADF81800032018
:101810008DF81A0018208DF81B0006A9164802F052
:1018200025F8A021144802F0CEF84FF44040ADF85E
:1018300004004FF48270ADF806000020ADF80800F7
:101840000220ADF80A000120ADF80C004002ADF80E
:101850000E000820ADF810000020ADF8120007209F
:10186000ADF8140001A9054802F04AFD0121034822
:1018700002F0EBFD07B000BD000801400030014060
:1018800008B50121042002F0ADFA1E20ADF80000D9
:1018900010208DF8030003208DF8020069469B4854
:1018A00001F0E4FF1E21994802F08DF808BD00BF49
:1018B0000100A0F10100FBD1704710B504460821DA
:1018C000924802F082F800BF0221914802F041FEE6
:1018D0000028F9D021468E4802F0E8FD0120FFF7EC
:1018E000E6FF0821894802F06EF810BD10B50446E5
:1018F0002046FFF7E2FF10BD10B504462012FFF7A7
:10190000DCFFE0B2FFF7D9FF10BD10B5044604219B
:101910007E4802F05AF82046FFF7CFFF04217B48AB
:1019200002F051F810BD2DE9F04104460D4616466F
:101930001F462A20FFF7E9FF04F1500188B2FFF7A4
:10194000DBFF06F1500188B2FFF7D6FF2B20FFF72F
:10195000DCFF2846FFF7D0FF3846FFF7CDFF2C20ED
:10196000FFF7D3FFBDE8F08110B5FFF789FFFFF760
:1019700041FF0221654802F028F8642000F0ABFD29
:101980000221624802F01FF8642000F0A4FD10213B
:101990005E4802F018F8642000F09DFD1120FFF76A
:1019A000B4FF782000F097FD3620FFF7AEFFA020AF
:1019B000FFF79CFF3A20FFF7A8FF0520FFF796FFEF
:1019C000B220FFF7A2FF0C20FFF790FF0C20FFF7DB
:1019D0008DFF0020FFF78AFF3320FFF787FF3320BA
:1019E000FFF784FFB720FFF790FF3520FFF77EFF5A
:1019F000BB20FFF78AFF1920FFF778FFC020FFF711
:101A000084FF2C20FFF772FFC220FFF77EFF01202A
:101A1000FFF76CFFC320FFF778FF1220FFF766FF88
:101A2000C420FFF772FF2020FFF760FFC620FFF7FA
:101A30006CFF0F20FFF75AFFD020FFF766FFA420AE
:101A4000FFF754FFA120FFF751FFE020FFF75DFFF4
:101A5000D020FFF74BFF0420FFF748FF0D20FFF7D2
:101A600045FF1120FFF742FF1320FFF73FFF2B2018
:101A7000FFF73CFF3F20FFF739FF5420FFF736FF09
:101A80004C20FFF733FF1820FFF730FF0D20FFF742
:101A90002DFF0B20FFF72AFF1F20FFF727FF232032
:101AA000FFF724FFE120FFF730FFD020FFF71EFFF4
:101AB0000420FFF71BFF0C20FFF718FF1120FFF792
:101AC00015FF1320FFF712FF2C20FFF70FFF3F2019
:101AD000FFF70CFF4420FFF709FF5120FFF706FF37
:101AE0002F20FFF703FF1F20FFF700FF1F20FFF746
:101AF000FDFE2020FFF7FAFE2320FFF7F7FE21204E
:101B0000FFF703FF2920FFF700FF10BD0008014089
:101B1000003001402DE9F04107460D4616461C46AF
:101B20000121084602F051F9384602F049FD2B48E0
:101B300004802B48056046601020294988600846CB
:101B4000C460002008618020486100208861C8616D
:101B500008624FF48050486200208862384602F0E4
:101B6000D1FDBDE8F0812DE9F04107460D4616464E
:101B70001C460121084602F028F9384602F020FDF3
:101B80001648048016480560466010201449886095
:101B90000846C4600020086148614FF48070886185
:101BA0008000C861002008624FF480504862002025
:101BB0008862384602F0A6FDBDE8F08110B5044603
:101BC0000021204602F0C9FD04480188054802F0C2
:101BD000D9FD0121204602F0C0FD10BD8E08002075
:101BE00010090020300002400146088870472DE9A6
:101BF000F04105460E461746002407E036F814105B
:101C0000284602F06EFFAD1C601C84B2BC42F5DBBE
:101C1000BDE8F08130B503460C461546002207E0CA
:101C20001846FFF7E1FF24F812009B1C501C82B2FB
:101C3000AA42F5DB30BD2DE9F05F80468A461746A3
:101C4000B8F1006F02D33748804501D3BDE8F09F5B
:101C500002F0FFFDA8F1006B4FEADB25CBF3490949
:101C6000C9F58064A74200DC3C464DE04FF00061BE
:101C700001EBC5204A142C49FFF7CCFF00260BE0EE
:101C800009EB0600284931F810004FF6FF71884231
:101C900000D003E0701C86B2A642F1DB00BFA64272
:101CA0001BDA4FF0006101EBC52002F017FE0026A1
:101CB00008E03AF8160006EB09011B4A22F8110069
:101CC000701C86B2A642F4DB4FF0006101EBC52028
:101CD0004A141549FFF78BFF04E02246514640465F
:101CE000FFF785FFA74200D10FE06D1C4FF0000900
:101CF0000AEB440AA044381B87B2B7F5806F02DDB7
:101D00004FF4806400E03C46B0E700BF02F0ADFD58
:101D100000BF9BE713B50446012201A92046FFF747
:101D20008AFF1CBD000008083C09002070B506466B
:101D300000243546142003F04CF804460CB900206A
:101D400070BD2EB926460020306130723046F7E76C
:101D500000E02D6928690028FBD12C612560287AD4
:101D6000401C2072002020612046E9E710B590B0A9
:101D70000446002010214FF6FF724FF47843CDE95E
:101D800000210290B9A201465520FFF725FB002053
:101D900010214FF6FF720346CDE900210290B6A252
:101DA0003221FFF719FB6288B5A103A803F074F88C
:101DB000002010214FF6FF720346CDE9002102906A
:101DC00003AA32212020FFF7F1FB002010214FF65B
:101DD000FF720346CDE900210290ABA24621FFF736
:101DE000FBFAE288ABA103A803F056F8002010210B
:101DF0004FF6FF720346CDE90021029003AA462167
:101E00004020FFF7D3FB002010214FF6FF7203465E
:101E1000CDE900210290A0A25A21FFF7DDFA227A33
:101E20009CA103A803F038F8002010214FF6FF72A0
:101E30000346CDE90021029003AA5A214020FFF772
:101E4000B5FB002010214FF6FF720346CDE90021BB
:101E5000029094A26E21FFF7BFFA627A8DA103A8C7
:101E600003F01AF8002010214FF6FF720346CDE967
:101E70000021029003AA6E214020FFF797FB10B0CB
:101E800010BD70B590B0002010214FF6FF724FF4D6
:101E90007843CDE90021029085A282215020FFF7EE
:101EA00085FB002452E08549102202FB041003A99F
:101EB000FFF7B0FE03AE72A10BA8726802F0ECFF50
:101EC000002010214FF6FF72CDE90021029004EBB3
:101ED0008400800000F1960100230BAA1846FFF74A
:101EE00065FB2846FFF722FF05468DB10020102133
:101EF0004FF6FF72CDE90021029004EB84008000D0
:101F000000F1960100236EA29620FFF74FFB10E030
:101F1000002010214FF6FF72CDE90021029004EB62
:101F20008400800000F19601002366A29620FFF74E
:101F30003DFB6648006808B96448056070686860E1
:101F4000307B687300202873601CC4B2604800684E
:101F5000C088A042A7DC10B070BD10B586B04FF4A9
:101F60007A70019000208DF80C0077208DF8000029
:101F700070208DF80100002417E00198401C0190AA
:101F800040F2EA310198884203D101208DF80C001B
:101F900002E000208DF80C004849102202FB0410DA
:101FA0006946FFF748FE601CC4B249480068C08813
:101FB000A042E2DC06B010BD3EB504461022214628
:101FC0003E482838FFF726FE414804600068007844
:101FD000772816D13E4800684078312811D100207A
:101FE00010214FF6FF7247F67C53CDE90021029095
:101FF00038A21E21FFF7DAFA35480068FFF7B6FE6F
:1020000031E0002010214FF6FF720346CDE9002198
:10201000029033A21E21FFF7C9FA77202C490968E4
:10202000087031202A490968487040F6B9302849BB
:102030000968488140F2D170254909684880032029
:1020400023490968C88002202149096808720120D3
:102050001F49096848721022214618482838FFF79E
:10206000EAFDFFF77AFFFFF70CFF3EBDC9E8B1B804
:10207000D0C5CFA200000000C9E8B1B80000000040
:1020800049443A2564000000C9E8B1B8CAFDC1BF9F
:10209000000000003A256400B2C9BCAFC9E8B1B87D
:1020A00000000000BFD8D6C6C9E8B1B800000000E3
:1020B00072656164206465766963650028D00008F4
:1020C0006F6B00006661696C0000000094080020DE
:1020D00090080020696E666F20676574000000003C
:1020E000696E666F2073617665000000F0B5044686
:1020F0000E463546032095FBF0FC00FB1C5020B932
:10210000032095FBF0F0870004E0032095FBF0F03E
:10211000401C8700002100233AE0E05CDFF870C13A
:10212000DCF800C00CEBA00000785054E05C8007A5
:102130004FEA906C581C205C4CEA2010DFF850C12C
:10214000DCF800C01CF800C0481C02F800C0581C95
:10215000205C00074FEA906C981C205C4CEAA010B1
:10216000DFF82CC1DCF800C01CF800C0881C02F8A5
:1021700000C0981C205C00F03F00DFF814C1DCF8C0
:1021800000C01CF800C0C81C02F800C0DB1C091D00
:10219000B81E8842C1DC032095FBF0FC00FB1C50FC
:1021A000012802D002280FD108E04FF03D0C881E14
:1021B00002F800C0481E02F800C005E04FF03D0CD8
:1021C000481E02F800C000BF00BF1046F0BD2DE958
:1021D000F04706460C4617462EA1304602F072FF25
:1021E00048B12046E11704EB9171891001EB4101E0
:1021F000A1F1020915E028A1304602F063FF48B1C1
:102200002046E11704EB9171891001EB4101A1F126
:10221000010906E02046E11704EB9171891001EBFA
:102220004109002007F809000025804629E0705D7B
:102230001A49085C8100681C305C184A105C41EA4D
:10224000201007F80800681C305C1146085C01018A
:10225000A81C305C105C41EAA000C1B208F101008A
:102260003954E81C305C1146095CA81C305C105CD9
:1022700041EA8010C1B208F10200395408F10308A4
:102280002D1DA01EA842D2DC3846BDE8F087000014
:10229000980800203D3D00003D000000729A0008B3
:1022A0007FB505460C460121084601F0A8FDADF8B2
:1022B0000850ADF804400020ADF80A00ADF8060063
:1022C00001A94FF0804000F0C9FB012211469007A0
:1022D00000F03BFF1C208DF8000003208DF801006A
:1022E0008DF8020001208DF80300684601F0F5F931
:1022F0000121880700F00EFF7FBD30B589B005468B
:102300000C460121022001F07AFD0121092001F093
:1023100069FD01214D4801F07AFB2020ADF8200035
:1023200018208DF8230003208DF8220008A94848C2
:1023300001F09CFAADF81850ADF814400020ADF84B
:102340001A00ADF8160005A9424800F087FB70207E
:10235000ADF804000120ADF806000020ADF80C0037
:1023600001A93C4800F0F9FB01A93A4800F042FC01
:102370000821384801F014F80821364801F003F824
:102380000121344800F0C6FE09B030BD7FB50546D6
:102390000C460121042001F032FDADF80850ADF8E3
:1023A00004400020ADF80A00ADF8060001A92A4853
:1023B00000F054FB01221146274800F0C6FE1E2003
:1023C0008DF8000003208DF801008DF80200012037
:1023D0008DF80300684601F080F901211E4800F0E5
:1023E00099FE7FBD7FB505460C460121022001F014
:1023F00006FD184800F05EFAADF80850ADF804404C
:102400000020ADF80A00ADF8060001A9114800F05F
:1024100025FB01210F4801F043F9012211460D4827
:1024200000F093FE1D208DF8000000208DF80100C3
:102430008DF8020001208DF80300684601F04DF987
:102440000021044800F066FE7FBD000000081A006D
:10245000000C0140000400400008004010B56FF07F
:10246000040001F084F92E4800682E49B0FBF1F019
:102470002D4908700846007800EB4001C1EBC01000
:102480004FF6FF7101EAC0002849088010BD0146DF
:10249000254A12784A434FF0E0235A6100229A619C
:1024A0001A46126942F001021A6100BF4FF0E022A1
:1024B000106900F001021AB100F48032002AF5D050
:1024C0004FF0E022126922F001024FF0E0231A617E
:1024D00000229A6170470146144A12884A434FF01D
:1024E000E0235A6100229A611A46126942F0010201
:1024F0001A6100BF4FF0E022106900F001021AB12A
:1025000000F48032002AF5D04FF0E022126922F068
:1025100001024FF0E0231A6100229A617047000027
:10252000A808002000127A009C0800209E080020C5
:10253000014600BF7047014600BF704700BF4A4ACE
:10254000128802F04002002AF9D0C2B2464B1B1D8D
:102550001A80704710B586B00446012144F2040089
:1025600001F040FC4FF40070ADF8140003208DF82A
:10257000160018208DF8170005A93C4801F076F9DF
:102580004FF48060ADF8140004208DF8170005A901
:10259000364801F06BF925208DF8000003208DF8F6
:1025A00001008DF8020001208DF80300684601F05B
:1025B00094F801940020ADF80800ADF80A00ADF8D9
:1025C0000C00ADF810000C20ADF80E0001A9264853
:1025D00001F0AFFC012240F22551234801F041FDFA
:1025E0000121214801F031FD06B010BD10B540F2C7
:1025F00025511D4801F01AFE10B31B4801F096FD4D
:10260000C4B21B48008800F40040C8B918480088CC
:1026100000F4804060B10A2C03D0002014490880E7
:1026200020E01348008840F400401149088019E078
:102630000D2C06D10E48008840F480400C490880DB
:1026400010E00B480088C0F30D000A490C540848FC
:102650000088401C0649088008460088C72801DD1C
:102660000020088010BD0000003801400008014033
:10267000A40800203C110020094880470948004771
:10268000FEE7FEE7FEE7FEE7FEE7FEE7FEE7FEE722
:10269000FEE7FEE704480549054A064B704700007F
:1026A000B3270008310100086812002068180020D4
:1026B0006814002068140020704700BFFEE700BFC8
:1026C000FEE700BFFEE700BFFEE7704770477047B8
:1026D000704700000CB50020019000906C48006825
:1026E00040F480306A49086000BF6948006800F41F
:1026F000003000900198401C0190009818B9019892
:10270000B0F5A06FF1D16248006800F4003010B15C
:102710000120009001E0002000900098012843D1A2
:102720005C48006840F010005A490860084600689C
:1027300020F0030008600846006840F002000860CE
:102740005348406852494860084640684860084617
:10275000406840F4806048600846406820F47C107F
:1027600048600846406840F4E81048600846006841
:1027700040F08070086000BF4548006800F00070BD
:102780000028F9D04248406820F0030040494860E2
:102790000846406840F00200486000BF3C4840687E
:1027A00000F00C000828F9D10CBD10B5FFF792FF1E
:1027B00010BD10B53648006840F00100344908608B
:1027C0000846406834490840314948600846006876
:1027D000324908402E4908600846006820F48020ED
:1027E00008600846406820F4FE0048604FF41F006F
:1027F0008860FFF7DAFF4FF000602949086010BDDC
:1028000010B5002100200022214B5B6803F00C0171
:1028100021B1042906D0082928D107E0214B224CF8
:10282000236027E01F4B204C236023E0184B5B689C
:1028300003F47010164B5B6803F48032022303EB41
:10284000904022B9194B4343174C23600DE0104BC5
:102850005B6803F4003323B1144B4343124C2360F1
:1028600003E0104B4343104C236003E00D4B0E4C30
:10287000236000BF00BF064B5B68C3F303130C4C1F
:10288000E15C094B1B68CB40074C236010BD000086
:1028900000100240002002400000FFF8FFFFF6FE9B
:1028A00008ED00E000127A00A808002000093D00B1
:1028B000AC08002010B50446FE48844208D101212E
:1028C000C01401F0A9FA0021E01401F0A5FAC4E057
:1028D000B4F1804F08D10121084601F0AAFA002185
:1028E000012001F0A6FAB8E0F348844208D10121A2
:1028F000022001F09EFA0021022001F09AFAACE0D9
:10290000EE48844208D10121042001F092FA00210E
:10291000042001F08EFAA0E0E948844208D10121A8
:10292000082001F086FA0021082001F082FA94E0E4
:10293000E448844208D10121102001F07AFA0021F4
:10294000102001F076FA88E0DF48844208D10121A6
:10295000202001F06EFA0021202001F06AFA7CE0CC
:10296000DA48844208D10121401401F055FA0021CF
:10297000601401F051FA70E0D548844209D1012178
:10298000C80401F049FA00214FF4002001F044FA94
:1029900063E0D048844209D10121080501F03CFAE6
:1029A00000214FF4801001F037FA56E0CA48844203
:1029B00009D10121480501F02FFA00214FF4001040
:1029C00001F02AFA49E0C548844208D1012140209B
:1029D00001F02FFA0021402001F02BFA3DE0C04821
:1029E000844208D10121802001F023FA00218020B7
:1029F00001F01FFA31E0BB48844208D10121801563
:102A000001F017FA0021A01501F013FA25E0B648ED
:102A1000844209D10121080401F0FEF900214FF49C
:102A2000803001F0F9F918E0B048844209D1012161
:102A3000480401F0F1F900214FF4003001F0ECF905
:102A40000BE0AB48844208D10121880401F0E4F98D
:102A500000214FF4802001F0DFF910BD0022028830
:102A6000944B98420ED0994B98420BD0B0F1804FC6
:102A700008D0914B984205D0904B984202D0904B91
:102A8000984204D14FF68F731A404B881A438D4BEE
:102A9000984207D08C4B984204D04FF6FF431A401F
:102AA000CB881A4302808B8883850B880385814BF2
:102AB00098420BD0854B984208D08B4B984205D05A
:102AC0008A4B984202D08A4B984201D10B7A0386F6
:102AD00001238382704770B5002400220023058CF7
:102AE0004FF6FE7635400584028C8388048B4FF6C2
:102AF0008F752C40B51E2C400D882C43751E2A4026
:102B00000D892A434D882A436A4DA8420BD06F4D48
:102B1000A84208D0744DA84205D0744DA84202D0F6
:102B2000734DA84213D14FF6F7752A404D892A43B9
:102B30004FF6FB752A408D882A434FF6FF652B40E0
:102B40004FF6FF552B408D892B43CD892B43838036
:102B50000483CD888586028470BD70B50024002270
:102B60000023058C4FF6EF7635400584028C838870
:102B7000048B48F6FF752C404FF6FF452C400D881E
:102B80004FF6FF7606EA05252C434FF6DF752A40FF
:102B90000D8906EA05152A434D8806EA05152A43DC
:102BA000444DA84202D0494DA8421DD14FF67F7531
:102BB0002A404D894FF6FF7606EA05152A434FF65F
:102BC000BF752A408D8806EA05152A434FF6FF3562
:102BD0002B404FF2FF752B408D8906EA85052B436C
:102BE000CD8906EA85052B4383800483CD8805873C
:102BF000028470BD70B5002400220023058C4FF6BE
:102C0000FF6635400584028C8388848B4FF68F7570
:102C10002C404FF6FC752C400D882C434FF6FF5589
:102C20002A400D894FF6FF7606EA05252A434D888E
:102C300006EA05252A431F4DA84202D0234DA8428B
:102C40001DD14FF2FF752A404D894FF6FF7606EAF7
:102C500005252A434FF6FF352A408D8806EA0525CB
:102C60002A434EF6FF752B404DF6FF752B408D899C
:102C700006EA05152B43CD8906EA05152B4383800B
:102C80008483CD888587028470BD70B500220023BF
:102C90000024058C4EF6FF7635400584038C84882D
:102CA000828B48F6FF752A404FF6FF452A400D8873
:102CB00020E00000002C014000040040000800401B
:102CC000000C00400010004000140040003401409F
:102CD000004C0140005001400054014000180040E9
:102CE000001C004000200040004001400044014022
:102CF000004801404FF6FF7606EA05252A434DF6C7
:102D0000FF752B400D8906EA05352B434D8806EAF1
:102D100005352B43FA4DA84202D0FA4DA84208D1FE
:102D20004BF6FF752C408D894FF6FF7606EA851528
:102D30002C4384808283CD88A0F84050038470BDEA
:102D4000828B4FF2FF331A408283828B4FF6FF73E0
:102D500003EA01231A4382837047F0B50C461546F7
:102D6000002200210026078C4EF6FF7C07EA0C07A4
:102D70000784828B018C4FF6FF7707EA043640F612
:102D8000FF473A404FF6FF7707EA05273A434FF6E9
:102D9000FF7707EA03373A43D94FB8420ED0D94FED
:102DA000B8420BD0B0F1804F08D0D74FB84205D011
:102DB000D64FB84202D0D64FB84206D14DF6FF7773
:102DC000394046F48057394305E047F6FF5739400C
:102DD00044F48057394382830184F0BD828B4FF6DF
:102DE000F3731A408283828B0A4382837047F0B563
:102DF0000C461546002200210026078C4FF6FF6C7A
:102E000007EA0C070784828B018C4FF6FF7707EAED
:102E100004264FF60C773A404FF6FF7707EA031780
:102E20002F433A43B64FB8420ED0B64FB8420BD0FC
:102E3000B0F1804F08D0B44FB84205D0B34FB8427C
:102E400002D0B34FB84206D14FF6FF57394046F48F
:102E50008077394305E04FF2FF57394044F48077DB
:102E6000394382830184F0BD028B4FF2FF331A4055
:102E70000283028B4FF6FF7303EA01231A43028396
:102E80007047F0B50C461546002200210026078C3D
:102E90004FF6EF7C07EA0C070784028B018C4FF694
:102EA000FF7707EA041640F6FF473A404FF6FF77F0
:102EB00007EA03373A434FF6FF7707EA05273A4315
:102EC0008F4FB8420ED08F4FB8420BD0B0F1804F29
:102ED00008D08D4FB84205D08C4FB84202D08C4FED
:102EE000B84206D14FF6DF77394046F01007394334
:102EF00005E04FF65F77394044F01007394302830D
:102F00000184F0BD028B4FF6F3731A400283028BEB
:102F10000A4302837047F0B50C4615460022002193
:102F2000068C4FF6FE773E400684028B018C4FF6EE
:102F30000C7632407E1C06EA03162E433243704E56
:102F4000B0420ED06F4EB0420BD0B0F1804F08D0DF
:102F50006D4EB04205D06D4EB04202D06C4EB042C4
:102F600006D14FF6FD76314044F00106314305E0CD
:102F70004FF6F576314044F0010631430283018477
:102F8000F0BD70B505460C465D4885420ED05D48E3
:102F900085420BD0B5F1804F08D05B48854205D003
:102FA0005A48854202D05A48854200D100E000BF0D
:102FB000208850B92389A28861882846FFF7ABFF93
:102FC000E1882846FFF79EFF25E0208804280AD1E3
:102FD0002389A28861882846FFF753FFE1882846A5
:102FE000FFF742FF17E0208808280AD12389A2882A
:102FF00061882846FFF7FBFEE1882846FFF7EEFED2
:1030000009E02389A28861882846FFF7A6FEE188A7
:103010002846FFF795FE70BD2DE9F04105460C46A8
:1030200000260127608808B9022600E00026A08853
:10303000012801D1022700E001272088A0B92389B7
:10304000A28861882846FFF766FFE1882846FFF7D7
:1030500059FF23893A4631462846FFF712FFE18897
:103060002846FFF701FF13E02389A28861882846DC
:10307000FFF707FFE1882846FFF7F6FE23893A4667
:1030800031462846FFF747FFE1882846FFF73AFF19
:10309000BDE8F0810A884B881A438B881A43CB8895
:1030A0001A430B891A434B891A438B891A43A0F898
:1030B000442070474FF6FF71818000210180C1805C
:1030C0004180017270470021018041808180C18070
:1030D000018141818181C18170470021018041804E
:1030E000012181800021C180018170470021018080
:1030F00041808180C18001814181818170470000D0
:10310000002C014000340140000400400008004051
:10311000000C004021B1028842F00102028004E06C
:1031200002884FF6FE731A400280704731B1B0F842
:10313000442042F40042A0F8442005E0B0F84420C6
:10314000C2F30E02A0F8442070471AB183890B43E2
:10315000838102E083898B4383817047818270473A
:1031600041EA0203A0F8483070471AB183890B4343
:10317000838102E083898B438381704701894FF605
:10318000F8721140018170470A46002101894FF60B
:103190008F73194011430181704730B504460D46C5
:1031A00029462046FFF7F0FF208940F007002081E4
:1031B00030BD2DE9F04104460D4616461F46602DF0
:1031C00006D13B46012231462046FFF75AFE05E074
:1031D0003B46012231462046FFF79DFE2946204608
:1031E000FFF7D2FF208940F007002081BDE8F08181
:1031F00030B50C4600210189C9B24FF6FF7505EACA
:103200000325154325432943018130BD2DE9F041B4
:1032100005460E4617469846002443463A46314630
:103220002846FFF7E5FF2C894FF6F870044044F07C
:1032300007044FF68F70044044F070042C81BDE801
:10324000F081F0B504460D4616461F463B46324611
:1032500029462046FFF7CCFF208940F4804020819A
:10326000F0BD0185828270470A46002101884FF631
:103270008F731940114301807047F0B50C46154615
:103280001E460021002200230189028B038C4FF689
:10329000F877394021434FF6FC473A4040F2011796
:1032A0003A434FF6DD773B404FF6FF7707EA0617C4
:1032B0002F433B43018102830384F0BD0A46002172
:1032C000018B4FF68F7319401143018370470A46F3
:1032D0000021018B48F6FF7319404FF6FF7303EA94
:1032E00002231943018370470A460021818B4FF660
:1032F0008F7319401143818370470A460021818BE7
:1033000048F6FF7319404FF6FF7303EA022319438F
:103310008183704721B1028842F08002028004E07C
:1033200002884FF67F731A400280704721B182886D
:1033300042F00402828004E082884FF6FB731A4058
:103340008280704721B1828842F00802828004E0C6
:1033500082884FF6F7731A408280704721B18288C5
:1033600042F00102828004E082884FF6FE731A4028
:10337000828070470A460021018B4FF6F77319408F
:103380001143018370470A460021018B4FF2FF73FE
:1033900019404FF6FF7303EA022319430183704774
:1033A0000A460021818B4FF6F77319401143818340
:1033B00070470A460021818B4FF2FF7319404FF688
:1033C000FF7303EA02231943818370470A460021F1
:1033D000018B4FF6FB7319401143018370470A4676
:1033E0000021018B4FF6FF3319404FF6FF7303EABC
:1033F00002231943018370470A460021818B4FF64F
:10340000FB7319401143818370470A460021818B69
:103410004FF6FF3319404FF6FF7303EA02231943B7
:10342000818370470A460021018B4FF67F73194054
:103430001143018370470A460021018BC1F30E013D
:103440004FF6FF7303EA02231943018370470A46CC
:103450000021818B4FF67F731940114381837047A0
:103460000A460021818BC1F30E014FF6FF7303EA78
:1034700002231943818370470A460021018C4FF6CD
:10348000FD7319401143018470470A460021018CE5
:103490004FF6F77319401143018470470A46002123
:1034A000018C4FF6DF7319404FF6FF7303EA0213E6
:1034B0001943018470470A460021018C4FF67F733F
:1034C00019404FF6FF7303EA021319430184704752
:1034D0000A460021018C4FF6FF5319404FF6FF7347
:1034E00003EA02231943018470470A460021018C34
:1034F0004FF2FF7319404FF6FF7303EA022319439B
:10350000018470470A460021018C4DF6FF73194073
:103510004FF6FF7303EA023319430184704730B555
:10352000002301248C40A3B2048C9C430484048CAB
:1035300002FA01F5ADB22C43048430BD30B500234E
:1035400004248C40A3B2048C9C430484048C02FAAF
:1035500001F5ADB22C43048430BD70B503460020A4
:1035600000241846183001258D40ACB21D8CA543AF
:103570001D8409B1082909D100EB6100056825F017
:10358000700505600568154305600EE00D1FC5F365
:103590004E052844056825F4E045056005684FF6AA
:1035A000FF7606EA02263543056070BD21B1028828
:1035B00042F00202028004E002884FF6FD731A40D6
:1035C0000280704721B1028842F00402028004E0C8
:1035D00002884FF6FB731A400280704721B182883F
:1035E00042F08002828004E082884FF67F731A40A6
:1035F0008280704702884FF6F7731A400280028873
:103600000A430280704782884FF68F731A40828087
:1036100082880A438280704702894FF6F8731A4005
:10362000028102890A430281704702894FF67F7343
:103630001A40028102890A430281704781847047DF
:103640008185704781867047018770478187704701
:10365000A0F84010704702884FF6FF431A400280DE
:1036600002880A43028070470146888E70470146EF
:10367000088F70470146888F70470146B1F84000B7
:1036800070470146888C70470146088D7047024696
:103690000020138A0B400BB1012000E0002070478E
:1036A000CA430282704730B502460020002300243E
:1036B000158A05EA0103958905EA010413B10CB1E5
:1036C000012000E0002030BDCA43028270470000A4
:1036D00031490143314A1160704770B50021002320
:1036E0000F22C47804B32D4C246804F4E064C4F5BC
:1036F000E064210AC1F10403CA40447804FA03F1EA
:103700008478144021430901254C0678A15504789A
:1037100004F01F050124AC4005786D11AD0005F1E2
:10372000E025C5F8004109E0047804F01F050124F4
:10373000AC401C4D0678761145F8264070BD1A4AFB
:103740000A400243154B1B1F1A60704739B1134AD8
:10375000121D12680243114B1B1D1A6006E00F4A2E
:10376000121D126882430D4B1B1D1A6070470428FE
:1037700008D14FF0E021096941F004014FF0E02247
:10378000116107E04FF0E021096921F004014FF0D9
:10379000E0221161704700000000FA050CED00E026
:1037A00000E400E080E100E080FFFF1F10B5044668
:1037B000CC48844208D10121042000F02DFB0021D7
:1037C000042000F029FB46E0C748844208D10121CB
:1037D000082000F021FB0021082000F01DFB3AE04A
:1037E000C248844208D10121102000F015FB0021BD
:1037F000102000F011FB2EE0BD48844208D10121C9
:10380000202000F009FB0021202000F005FB22E031
:10381000B848844208D10121402000F0FDFA00217F
:10382000402000F0F9FA16E0B348844208D10121A3
:10383000802000F0F1FA0021802000F0EDFA0AE08B
:10384000AE48844207D10121801500F0E5FA00213D
:10385000A01500F0E1FA10BD10B50121084600F0F6
:10386000DBFA0021012000F0D7FA10BD2DE9F0416C
:10387000024600250026002000230024002791F89E
:1038800003C00CF00F0591F803C00CF0100CBCF154
:10389000000F03D091F802C04CEA050591F800C072
:1038A000BCF1000F31D0146800202BE04FF0010C68
:1038B0000CFA00F3B1F800C00CEA03069E4220D1D6
:1038C00083004FF00F0C0CFA03F7BC4305FA03FC1E
:1038D0004CEA040491F803C0BCF1280F06D14FF064
:1038E000010C0CFA00FCC2F814C00AE091F803C005
:1038F000BCF1480F05D14FF0010C0CFA00FCC2F8E6
:1039000010C0401C0828D1D31460B1F800C0BCF12D
:10391000FF0F34DD546800202EE000F1080C4FF05A
:10392000010808FA0CF3B1F800C00CEA03069E4245
:1039300021D183004FF00F0C0CFA03F7BC4305FABA
:1039400003FC4CEA040491F803C0BCF1280F05D134
:1039500000F1080C08FA0CF8C2F8148091F803C0C2
:10396000BCF1480F07D100F1080C4FF0010808FA2C
:103970000CF8C2F81080401C0828CED35460BDE873
:10398000F0814FF6FF710180022181700421C17026
:1039900070470246002093680B400BB1012000E005
:1039A000002070470146886880B2704702460020B8
:1039B000D3680B400BB1012000E0002070470146A6
:1039C000C86880B2704701617047416170470AB1B1
:1039D000016100E041617047C16070474FF480327F
:1039E0000A4382618161826182698269704702460D
:1039F0000020434B18684FF68073184040EA0210CD
:103A000008433F4B186070473E49C8617047F0B5A6
:103A10000A46002300240021002500F00046B6F1EC
:103A2000004F02D1364EF16901E0354E7168C0F3A6
:103A3000034583B200F44016B6F5401F08D121F0CB
:103A400070612F4E766826F070662D4F7E6012E012
:103A500000F48016B6F5801F06D1032606FA05F499
:103A6000A14341F0706106E0460D360103FA06F607
:103A7000B14341F0706122B1460D360103FA06F6FA
:103A8000314300F00046B6F1004F02D11C4EF16107
:103A900001E01B4E7160F0BD30B500228B071C0F9A
:103AA0000F2303FA04F2164B08338C1053F824301A
:103AB0009343134C08348D1044F8253023468C1062
:103AC00053F824308C07240F00FA04F423430C4CE1
:103AD00008348D1044F8253030BD0A49DC310860C7
:103AE0007047000000080140000C01400010014038
:103AF0000014014000180140001C0140002001405A
:103B00000000014000002042DF48006840F0010052
:103B1000DD49086008464068DC490840DA494860E9
:103B200008460068DA490840D74908600846006836
:103B300020F4802008600846406820F4FE004860B9
:103B40004FF41F0088607047CF49096821F4803125
:103B5000CD4A11601146096821F480211160B0F549
:103B6000803F03D0B0F5802F0ED106E0C64909682A
:103B700041F48031C44A116007E0C349096841F447
:103B8000A021C14A116000E000BF00BF704710B51E
:103B900001460022002300204A11012A02D1BA4C1A
:103BA000236806E0022A02D1B74C236A01E0B64C32
:103BB000636A01F01F02012494401C400CB10120F3
:103BC00000E0002010BD38B5002000900024002542
:103BD00000BF3120FFF7DBFF05460098401C009036
:103BE0000098B0F5A06F01D0002DF2D03120FFF782
:103BF000CEFF08B1012400E00024204638BD014674
:103C00000020A14A106820F0F80040EAC1001060CE
:103C10007047A04908607047024600209A4B5868D8
:103C200020F47C1042EA01031843974B5860704718
:103C300098490866704701460020934A506820F072
:103C400003000843506070478F48406800F00C0044
:103C50007047014600208C4A506820F0F00008436D
:103C60005060704701460020874A506820F4E060A9
:103C700008435060704701460020834A506820F492
:103C8000605040EAC1005060704729B17E4A527AC4
:103C900002437D4B5A7204E07B4A527A82437A4B4C
:103CA0005A7270477B49D83108607047014600203E
:103CB000754A506820F44040084350607047002126
:103CC000714A20321170704A82F82010012802D007
:103CD00004280AD104E001216B4A2032117005E06A
:103CE0000521694A2032117000E000BF00BF704713
:103CF0006949086070476449096A0143624A116270
:103D00007047654944390860704730B5002100228A
:103D1000002400235C4D6D6805F00C0121B10429DD
:103D200005D0082923D105E05C4D056022E05B4DFC
:103D300005601FE0544D6D6805F47012524D6D68BA
:103D400005F48034022505EB92421CB9544D5543CD
:103D500005600BE04C4D6D6805F400351DB1504D0C
:103D60005543056002E04D4D5543056002E04B4D63
:103D7000056000BF00BF444D6D6805F0F001090902
:103D8000484D6B5C0568DD4045603F4D6D6805F44E
:103D9000E061090A434D6B5C4568DD4085603A4D42
:103DA0006D6805F46051C90A3E4D6B5C4568DD40A5
:103DB000C560354D6D6805F44041890B3A4D6B5C2B
:103DC000C568B5FBF3F5056130BD29B12E4A5269CE
:103DD00002432D4B5A6104E02B4A526982432A4B1D
:103DE0005A61704729B1284A92690243264B9A6169
:103DF00004E0254A92698243234B9A61704729B1B6
:103E0000214AD2690243204BDA6104E01E4AD2699A
:103E100082431D4BDA61704729B11B4AD2680243C5
:103E2000194BDA6004E0184AD2688243164BDA6014
:103E3000704729B1144A12690243134B1A6104E016
:103E4000114A12698243104B1A6170471249403976
:103E5000086070470F49C86470470B49C8717047C4
:103E60000948406A40F0807007494862704701463F
:103E70000020054A92680A400AB1012000E00020B3
:103E80007047014988727047001002400000FFF837
:103E9000FFFFF6FE000042428004424200127A0018
:103EA00000093D00BC080020CC08002010B50446E5
:103EB000FB48844209D101218803FFF7ADFF0021AF
:103EC0004FF48040FFF7A8FF32E0F648844209D162
:103ED00001214804FFF7ADFF00214FF40030FFF748
:103EE000A8FF25E0F048844209D101218804FFF7AA
:103EF000A0FF00214FF48020FFF79BFF18E0EB4864
:103F0000844209D10121C804FFF793FF00214FF437
:103F10000020FFF78EFF0BE0E548844208D1012125
:103F20000805FFF786FF00214FF48010FFF781FF9F
:103F300010BD2DE9F04786B005460E460024A24686
:103F400000BFA1460027B08900B100BF2F462C8AD0
:103F50004CF6FF700440F08804432C82AC894EF686
:103F6000F3100440B0883189084371890843044341
:103F7000AC81AC8A4FF6FF400440B0890443AC8268
:103F800001A8FFF7C2FEC648874202D1DDF810A0A3
:103F900001E0DDF80CA0A88900F4004040B10AEB74
:103FA000CA0000EB0A1031684900B0FBF1F807E0E5
:103FB0000AEBCA0000EB0A1031688900B0FBF1F887
:103FC0006420B8FBF0F004012009642101FB108992
:103FD000A88900F4004040B1322000EBC900B0FBDA
:103FE000F1F000F00700044308E0322000EB091074
:103FF0006421B0FBF1F000F00F0004432C8106B007
:10400000BDE8F0874FF41651016000218180C18026
:1040100001810C21418100218181704710B5024648
:104020000020108A4FF2FF0318400B884C8823436E
:104030008C882343CC8823431843108210BD002171
:10404000018041808180C180704721B1828942F422
:104050000052828104E082894DF6FF731A4082810A
:104060007047F0B50346002400260025002040F6E6
:104070006A17B94200D100BF1846C1F3421401F0DB
:104080001F06012707FA06F5012C01D10C3004E0C8
:10409000022C01D1103000E014301AB107682F4310
:1040A000076002E00768AF430760F0BD1AB1838A7A
:1040B0000B43838202E0838A8B4383827047028AA8
:1040C0004FF6F0731A400282028A0A430282704756
:1040D00082894FF2FF731A40828182890A4382816A
:1040E000704721B1828942F00202828104E0828914
:1040F0004FF6FD731A4082817047028A4FF6DF73D4
:104100001A400282028A0A430282704721B1028A5F
:1041100042F48042028204E0028A4BF6FF731A40A6
:1041200002827047C1F30802828070470146888886
:10413000C0F308007047818941F001018181704717
:10414000028BD2B20283028B42EA012202837047C1
:10415000028B02F47F420283028B0A430283704780
:1041600021B1828A42F02002828204E0828A4FF6E4
:10417000DF731A408282704721B1828A42F01002B6
:10418000828204E0828A4FF6EF731A40828270477F
:1041900021B1828A42F00802828204E0828A4FF6CC
:1041A000F7731A408282704721B1828942F400423B
:1041B000828103E08289C2F30E028281704721B1BD
:1041C000828A42F40062828204E0828A4FF2FF73A4
:1041D0001A4082827047828A4FF6FB731A408282AD
:1041E000828A0A438282704721B1828A42F00202A7
:1041F000828204E0828A4FF6FD731A408282704701
:1042000002460020B1F5007F00D100BF13880B40AB
:104210000BB1012000E00020704701F40072B2F5FC
:10422000007F00D100BFCA430280704770B50246CC
:10423000002400230025002040F66A16B14200D178
:1042400000BFC1F3421501F01F03012606FA03F374
:10425000012D02D19689334006E0022D02D1168A43
:10426000334001E0968A33400C12012606FA04F42A
:104270001688344013B10CB1012000E0002070BD5D
:1042800010B50022002340F66A14A14200D100BFFD
:104290000A1201249440A3B2DC43048010BD000044
:1042A000003801400044004000480040004C0040FD
:1042B0000050004010B50446BE48844208D1012198
:1042C0008014FFF7A9FD0021A014FFF7A5FD16E05B
:1042D000B948844208D101210014FFF7AAFD00214A
:1042E0002014FFF7A6FD0AE0B448844207D101215B
:1042F000C013FFF79EFD0021E013FFF79AFD10BDEC
:1043000010B50022028802F441520B884C882343E6
:104310008C882343CC8823430C8923434C89234333
:104320008C892343CC8923431A430280838B4FF229
:10433000FF74234083830B8A038210BD2DE9F04F65
:1043400085B005460C464FF0000902274FF00008E3
:104350004FF0010B0026B246A88B4FF240010840F7
:10436000A88302202884B5F81C90A068022801D1F7
:1043700000BF38E0A08810B94FF0010B01E04FF00A
:10438000020B8D48854200D100E000BF6846FFF770
:10439000BCFCDDF800A0E088B0F5007F0AD14FEA50
:1043A0001A2000EB80004000A168B0FBF1F0401D36
:1043B00086B20BE04FEA4B10BAFBF0F000EB800046
:1043C0004000A168B0FBF1F0401D86B20A20B6FBA8
:1043D000F0F606F00108A6EB0800C0F34F074FF611
:1043E000FF7000EA0828022F01DBFF2F02DD022701
:1043F0004FF00008E08840EA080038432884A0888D
:10440000A1890843618808432188084340F400607B
:1044100040EA0909A5F81C9005B0BDE8F08F00211D
:10442000018041808180C180018141818181C18180
:104430000721018270470021018041808180C18075
:104440000221816000218181704721B1028842F000
:104450004002028004E002884FF6BF731A400280D7
:10446000704721B1828B42F48062828304E0828BA8
:104470004FF6FF331A408283704730B50024002383
:104480000C110125A540ABB21AB185881D4385806A
:1044900002E085889D43858030BD1AB183880B4337
:1044A000838002E083888B438380704781817047DB
:1044B0000146888970474FF6FF62914204D0028816
:1044C00042F48072028004E002884FF6FF631A40D3
:1044D0000280704721B1828842F00402828004E0A9
:1044E00082884FF6FB731A408280704702884FF231
:1044F000FF731A40028002880A43028070470188D5
:1045000041F480510180704721B1028842F4005289
:10451000028004E002884DF6FF731A400280704763
:1045200002460020012901D0108B00E0908A7047DC
:104530000146088A7047B1F5804F04D1028842F4E1
:104540008042028004E002884BF6FF731A4002802A
:1045500070470246002013890B400BB1012000E098
:1045600000207047CA4302817047F0B50246002020
:1045700000240023002501F00F070126BE40B4B23D
:104580000B1101269E40B3B2968806EA03051689F0
:10459000264016B10DB1012000E00020F0BD10B59D
:1045A000002201F00F040123A3409AB2D3430381F8
:1045B00010BD00000030014000380040003C0040C9
:1045C00001684FF6FE7211400160002101604160F8
:1045D0008160C1608D49884208D18C490839496899
:1045E00041F00F01894A083A51608AE08749143145
:1045F000884208D185490839496841F0F001834A69
:10460000083A51607DE081492831884208D17F49CC
:104610000839496841F470617C4A083A516070E099
:104620007A493C31884208D178490839496841F4CF
:104630007041764A083A516063E0744950318842CB
:1046400008D172490839496841F470216F4A083A23
:10465000516056E06D496431884208D16B49083990
:10466000496841F47001694A083A516049E0674974
:104670007831884208D165490839496841F070614C
:10468000624A083A51603CE06149884206D1011F04
:10469000096841F00F01021F116032E05C491431DA
:1046A000884208D15A49091F096841F0F001584A67
:1046B000121F116025E056492831884208D154491B
:1046C000091F096841F47061514A121F116018E016
:1046D0004F493C31884208D14D49091F096841F4CE
:1046E00070414B4A121F11600BE04949503188421A
:1046F00007D14749091F096841F47021444A121F34
:104700001160704710B50022026847F6F0739A43B3
:104710000C6A8B6823430C6923434C6923438C69DF
:104720002343CC6923434C6A23438C6A23431A43B3
:104730000260CB6843600B6883604B68C36010BD48
:104740000021016041608160C1600161416181615E
:10475000C161016241628162704721B1026842F029
:104760000102026004E002684FF6FE731A40026024
:1047700070471AB103680B43036002E003688B4380
:1047800003607047416070470146486880B27047D7
:1047900001460020002201F080531BB11C4B083B56
:1047A0001A6802E0194B083B1A6802EA01030BB1D0
:1047B000012000E00020704700F0805119B1144939
:1047C000091F086002E01149083948607047014636
:1047D0000020002201F080531BB10D4B083B1A68EA
:1047E00002E00A4B083B1A6802EA01030BB1012000
:1047F00000E00020704700F0805119B10449091F02
:10480000086002E00149083948607047080002402A
:104810000804024001460020FE4A106800F03800FB
:10482000084310607047FB49096821F00801F94A04
:10483000116011460968014311607047F549096824
:1048400021F01001F34A116011460968014311601B
:104850007047F148EF494860F04848607047EE48BB
:10486000EC494860ED4848607047EA48006940F00C
:104870008000E84908617047E648006940F0800020
:10488000E449086170470420E249C96801F0010168
:1048900009B101200EE0DF49C96801F0040109B146
:1048A000022007E0DB49C96801F0100109B10320CB
:1048B00000E00420704700B502460423FFF7E3FF41
:1048C000034603E0FFF7DFFF0346521E012B01D131
:1048D000002AF7D102B90523184600BD30B50446B9
:1048E00004254FF43020FFF7E6FF0546042D17D1CD
:1048F000C848006940F00200C649086108464461A2
:10490000006940F0400008614FF43020FFF7D3FF0A
:104910000546C048006941F6FD710840BD4908617F
:10492000284630BD10B504244FF43020FFF7C3FFF4
:104930000446042C16D1B748006940F00400B5497C
:1049400008610846006940F0400008614FF43020DB
:10495000FFF7B1FF0446AF48006941F6FB7108401C
:10496000AC490861204610BD00B502460423FFF79C
:104970008AFF034603E0FFF786FF0346521E012B22
:1049800001D1002AF7D102B90523184600BD10B5A0
:1049900004244FF43020FFF7E7FF0446042C16D11F
:1049A0009C48006940F004009A4908610846006983
:1049B00040F0400008614FF43020FFF7D5FF044677
:1049C0009448006941F6FB7108409249086120460D
:1049D00010BD00208F49C96901F0020109B1012011
:1049E00000E00020704730B5A5250424FFF7F1FF53
:1049F00000B100254FF43020FFF75DFF0446042C82
:104A00003AD18548834988608448886008460069AF
:104A100040F0200008610846006940F0400008614D
:104A20004FF43020FFF747FF0446042C1BD1794890
:104A3000006941F6DF71084076490861084600695F
:104A400040F01000086176480580E002FFF733FF70
:104A50000446052C10D06F48006941F6EF710840FC
:104A60006C49086108E0052C06D06A48006941F6E7
:104A7000EF71084067490861204630BD78B50646A9
:104A80000C46042500200090E802FFF714FF0546BD
:104A9000042D24D15F48006940F001005D490861A0
:104AA0003480E802FFF707FF0546042D10D1B01C43
:104AB0000090200C00990880E802FFF7FCFE0546F4
:104AC0005448006941F6FE7108405249086106E009
:104AD0005048006941F6FE7108404E490861284679
:104AE00078BD70B504460D460426F002FFF7E3FEDC
:104AF0000646042E11D14748006940F0010045499F
:104B000008612580F002FFF7D6FE0646414800699D
:104B100041F6FE7108403F490861304670BD70B5EE
:104B200005460E460424E002FFF7C5FE0446042CA9
:104B300017D1394837498860384888600846006985
:104B400040F0100008612E80E002FFF7B4FE04463A
:104B5000052C06D02F48006941F6EF7108402D4919
:104B60000861204670BD2DE9F04304464FF6FF76FC
:104B70003746B046B1460425E443E6B2C4F30727FE
:104B8000C4F307484FEA1469E802FFF794FE0546AC
:104B9000042D49D120481F49886020488860084674
:104BA000006940F010000861FF2E06D01C48083054
:104BB0000680E802FFF77FFE0546042D08D1FF2F8F
:104BC00006D017480A300780E802FFF774FE054652
:104BD000042D0AD1B8F1FF0F07D011480C30A0F80E
:104BE0000080E802FFF767FE0546042D0AD1B9F1FF
:104BF000FF0F07D00A480E30A0F80090E802FFF738
:104C00005AFE0546052D0FD00248006941F6EF71A6
:104C1000084007E00020024023016745AB89EFCD43
:104C200000F8FF1F664908612846BDE8F08330B5EB
:104C3000054604244FF43020FFF73DFE0446042CC3
:104C400041D160485E4988605F48886008460069D5
:104C500040F0200008610846006940F0400008610B
:104C60004FF43020FFF727FE0446042C22D154488D
:104C7000006941F6DF710840514908610846006942
:104C800040F0100008611DB100205049088002E08A
:104C9000A5204E4908804FF43020FFF70CFE044653
:104CA000052C10D04648006941F6EF710840444990
:104CB000086108E0052C06D04148006941F6DF7123
:104CC00008403F490861204630BDF0B505460E4614
:104CD000174604243B483A4988603B488860E00214
:104CE000FFF7E9FD0446042C19D13548006940F06E
:104CF00010003349086147F0F80030432843334936
:104D0000891C0880E002FFF7D6FD0446052C06D07A
:104D10002B48006941F6EF71084029490861204697
:104D2000F0BD2748C069800870472548006A704771
:104D300000202349096801F0200109B1012000E0A9
:104D40000020704729B11E4A126902431C4B1A61A8
:104D500004E01B4A12698243194B1A6170470146ED
:104D60000020012908D1164AD26902F001020AB1D5
:104D7000012008E0002006E0114AD2680A400AB18A
:104D8000012000E0002070470D49C86070470420F2
:104D90000B49C96801F0010109B101200EE0084981
:104DA000C96801F0040109B1022007E00449C9689B
:104DB00001F0100109B1032000E004207047000059
:104DC0000020024023016745AB89EFCD00F8FF1FAB
:104DD000704770B5064600F08BF9056806F10B00C8
:104DE00020F00704B4429CBF002070BD2B466A68C7
:104DF000BAB11068A04210D304F1080188423CBF48
:104E00005068586007D35168101941601168091B38
:104E1000016058601460101D70BD13465268002A6E
:104E2000E7D12146284600F06BF90028DED170BD9D
:104E300070B50446051F00F05BF90068002C14BF34
:104E4000446870BD002C18BFAC423CBF204664686B
:104E5000F8D301680A18AA4218BF456003D12A682E
:104E600005461144016028684119A1421CBF6C60CD
:104E700070BD6168696021680844286070BD0000E9
:104E80000FB4044910B503AA029800F011FA10BC3F
:104E90005DF814FBA00800200FB41CB5074B06AA50
:104EA0007B4469460090059800F0D3F900206946DC
:104EB00000F0E2F91CBC5DF814FB0000D503000013
:104EC00070B50C460546012A05D02878800600D525
:104ED000EA69002302E0012305E05B1C934202D251
:104EE000E05C0028F9D1A869E618C01AA861286A10
:104EF000184428622846AFF3008004E0D5E9012178
:104F000014F8010B9047B442F8D32846AFF3008061
:104F100070BD00002DE9F041064600241068752997
:104F2000314616A510D0AFF30080002802DA4042C7
:104F300013A507E031688A0701D512A502E04907E9
:104F400004D511A5012401E0AFF3008000210A225D
:104F500006F1240709E0B0FBF2FCB0FBF2F302FB20
:104F60001C00303078541846491C0028F3D12346E1
:104F70002A463046BDE8F04100F00CB900000000C0
:104F80002D0000002B000000200000002DE9F05F44
:104F9000894604464FF0000ADFF824B1FB44C0F80C
:104FA00020A02046E168884700287DD0252806D02B
:104FB000D4E901219047206A401C2062F1E70025D6
:104FC0005F462046E16888472028064607DB312EE9
:104FD00005D2B81910F8200C08B10543F1E7A8076D
:104FE00001D525F00405C4F81CA00027C4F818A0BA
:104FF0002A2E09D0304600F008FA38B304EB8708AF
:10500000303EC8F8186019E059F8041B204604EB3C
:1050100087029161E1688847012F064618D1E0694F
:10502000002820DA25F020051DE0D8F8180000EB54
:10503000800006EB40003038C8F818002046E168D0
:105040008847064600F0E1F90028EED1012F0AD08A
:105050002E2E08D12046E16888477F1C0646022F85
:1050600045F02005C4DBA069002803DA404245F082
:105070000105A061E80701D025F01005A6B1A6F151
:105080004100192802D8203645F400654A463146C9
:10509000204625604D46FBF7A5F860B1012807D0F2
:1050A000ED1D25F0070000E007E000F1080978E7B2
:1050B00005F1040975E730467AE7206ABDE8F09FFC
:1050C0004D4B000030B505460B462A4613F8014B00
:1050D00012F8010B08B1A042F8D01CB1002802D090
:1050E0006D1CF1E7284630BD704770477047704728
:1050F000004870470C120020704770477047704797
:1051000038B504460A4600206946AFF300800028FF
:1051100008BF38BD02460099204600F0DFF80120A4
:1051200038BD012000F0F8B8F8B5AFF300800546AF
:1051300000200C46102000BF0646A819A0420DD939
:10514000324669460020AFF30080070008BF00F038
:10515000E3F80098A04218BF0546C419FFF7C8FF3E
:1051600005600746F01D20F007004619284600F0AC
:105170000AF8B44208BFF8BDA21B31463868BDE842
:10518000F84000F0ABB800210160C0E901107047A1
:10519000102070472DE9F0470D4699469246044687
:1051A00000F124080168880604D5E06921F01001A7
:1051B000216000E00120A84201DD471B00E000273C
:1051C000A1697A1902EB0900081AA0612078C006CB
:1051D00002D42046AFF30080002608E0D4E9012184
:1051E0001AF806009047206A401C761C20624E4543
:1051F000F4DB2078C0060AD52046AFF3008006E035
:10520000D4E9012130209047206A401C2062381EDA
:10521000A7F10107F4DC07E0D4E9012118F8050043
:105220009047206A401C2062281EA5F10105F3DC8E
:105230002046AFF300802078000602D50220BDE8AA
:10524000F0870120FBE7000001694A1C0261087831
:10525000704700B58FB0CDE90131002105910549B6
:105260007944CDE9031011466846FFF78FFE0FB071
:1052700000BD0000E5FFFFFF0A6802F8010B0A60AD
:10528000704710B5436913B1AFF3008001E0FFF739
:1052900017FE012010BD127800F124010A700022CF
:1052A0004A700122EDE711684FF0FF32E9E7000094
:1052B000074B70B50D467B44FFF7CBFF04462846ED
:1052C00000F026F810B14FF0FF3070BD204670BDE1
:1052D00083D2FFFF00487047041200200346406855
:1052E0008C46002818BF88423CBF03464068F8D36C
:1052F00018681844884207D00CF1030020F007001A
:10530000001D411A521A0146081D0A60FFF790BDA0
:10531000007B00F08000704710B500F035F8BDE864
:10532000104000F02BB87546FFF7D4FFAE460500DD
:105330006946534620F00700854618B020B5FDF7B2
:10534000A9F9BDE820404FF000064FF000074FF0EC
:1053500000084FF0000B21F00701AC46ACE8C00993
:10536000ACE8C009ACE8C009ACE8C0098D4670479C
:105370000446AFF300802046FAF74DFF002801D025
:10538000FDF7D6B87047000010B5012805D0002100
:1053900003A000F021F8012010BD09A1F8E70000EA
:1053A00053494752544D454D3A204F7574206F660E
:1053B0002068656170206D656D6F72790000000076
:1053C0003A2048656170206D656D6F727920636F5A
:1053D000727275707465640070B505460C460A20DB
:1053E00000E06D1CFDF7A7F835B128780028F8D14A
:1053F00002E0641CFDF79FF814B120780028F8D172
:10540000BDE870400A20FDF796B830380A2801D26E
:105410000120704700207047C10DD1F19E0206DBCC
:105420004FEA002343F0004323FA02F070470042A2
:1054300007D54FEA4001B1F1FE4F02D24FF0000014
:10544000704710B500F089F8499224800020704719
:105450006FEA2000704700004FF47F0C1CEAD01266
:105460001EBF1CEAD11392EA0C0F93EA0C0F00F056
:10547000478090EA010F48BF42F480724FF0004C21
:105480004CEA00204CEA012102EB0302A0FB0113CD
:10549000A2F50002002918BF43F001035B0028BFFA
:1054A0004FEA330342EB22425FEA132C4CEBC2502B
:1054B0002EBFBCEB436FB2F57C0F70474FEA036C15
:1054C000BCF1004F08BF20F00100B2F57C0F38BFDF
:1054D00070470BD582F0FF0212F5803FC8BF7047BE
:1054E00000F1C040D8BF00F00040704700F5000C4C
:1054F0005FEA4C0C48BF7047B0F1C04000F073B891
:1055000090EA010F0CEAD11348BF42F48072624561
:1055100038BF634504D280EA010000F000407047C4
:1055200010B500F01AF800BF8900013E00F007B87E
:1055300000F009B85FEA410C5FEA1C6C08D080EA11
:10554000010000F050B85FEA400C5FEA1C6CF6D135
:105550004FF00040A0F5800070470EF1020E2EF0D3
:10556000030E5EF8044B244204D44FEA4102B2F128
:105570007F4F11D84FEA4003B3F17F4F0CD80ED1C3
:105580004FEAD07CB2F17F4F0CEB4C0C0CF1020CCB
:1055900008BF4CEBD17C04E04FF0080C01E04FEA6F
:1055A000D17C0CEB4C0324FA03F404F00704B4F1AF
:1055B000040C06D20EEB840CBDE810404CF0010C3C
:1055C0006047DFE80CF0070802024FF00040A0F54A
:1055D000800010BD0846420018BFD2F1807288BF1B
:1055E00000F0004010BDFF2141EAD050C0057047D7
:1055F000FFFFFFFFFFFFFFFFFFFFFFFFFFFFFFFFBB
:10560000FFFFFFFFFFFFFFFFFFFFFFFFFFFFF7BEF3
:10561000FFFFFFDEC6388C926B8E6B6E7C10AD96F2
:10562000E73CFFFFFFFFFFFFFFFFFFFFFFFFFFFF65
:10563000FFFFFFFFFFFFFFFFFFFFFFFFFFFFFFFF7A
:10564000FFFFFFFFFFFFFFFFFFFFFFFFFFFFFFFF6A
:10565000FFFFFFFFFFFFFFFFFFFFFFFFFFFFEF5D0C
:105660009D15634F426C320A298819461925214538
:1056700031E86B8EC638FFFFFFFFFFFFFFFFFFFF24
:10568000FFFFFFFFFFFFFFFFFFFFFFFFFFFFFFFF2A
:10569000FFFFFFFFFFFFFFFFFFFFFFFFFFFFFFFF1A
:1056A000FFFFFFFFFFFFFFFFFFFFFFFFA5365310C8
:1056B0004B1053514B0F3A6C31E92167192510E417
:1056C00008A30062088352CBD69AFFFFFFFFFFFFBB
:1056D000FFFFFFFFFFFFFFFFFFFFFFFFFFFFFFFFDA
:1056E000FFFFFFFFFFFFFFFFFFFFFFFFFFFFFFFFCA
:1056F000FFFFFFFFFFFFFFFFE73C637063B37CB872
:1057000063F54311324D29EA218819261905190537
:105710001104110410E4008308A38C72FFFFFFFF43
:10572000FFFFFFFFFFFFFFFFFFFFFFFFFFFFFFFF89
:10573000FFFFFFFFFFFFFFFFFFFFFFFFFFFFFFFF79
:10574000FFFFFFFFFFFFDEDB3A4B42F06C354B54AF
:1057500032B12A2E21EB21A9196719051104110470
:10576000110411041104190510E4004273AFFFFF86
:10577000FFFFFFFFFFFFFFFFFFFFFFFFFFFFFFFF39
:10578000FFFFFFFFFFFFFFFFFFFFFFFFFFFFFFFF29
:10579000FFFFFFFFEF5D3209324C4B10328F2A4F73
:1057A0002A2E19CC198921891947190511041104C8
:1057B00010C410C411041104110410E40042843117
:1057C000FFFFFFFFFFFFFFFFFFFFFFFFFFFFFFFFE9
:1057D000FFFFFFFFFFFFFFFFFFFFFFFFFFFFFFFFD9
:1057E000FFFFFFFF52EC1947324C2A0B21EC21EC52
:1057F000220C5B914AEE11061926190410E410E4FC
:1058000029A7216608A319051104110410E40082D8
:10581000BDF7FFFFFFFFFFFFFFFFFFFFFFFFFFFFE2
:10582000FFFFFFFFFFFFFFFFFFFFFFFFFFFFFFFF88
:10583000FFFFA535088321882188218921AA218A93
:10584000426B8C71FFFF8C720883110408C44229DB
:10585000DEFBEF5D5AEC0883110411041104088388
:1058600031E8FFDFFFFFFFFFFFFFFFFFFFFFFFFF4D
:10587000FFFFFFFFFFFFFFFFFFFFFFFFFFFFFFFF38
:10588000F7BE31C710C4192519261947194729A889
:10589000528A4A28AD55FFFF31E808A319056B4D20
:1058A0006B4DFFFFEF7D214510C41104110411045D
:1058B0000062AD76FFFFFFFFFFFFFFFFFFFFFFFF6F
:1058C000FFFFFFFFFFFFFFFFFFFFFFFFFFFFFFFFE8
:1058D000B5960062110419041105190508C44A8B14
:1058E000B5B6EF5DBDF7FFFF6B8E006242295AAA85
:1058F0004208FFFFFFFF52CC08831104110411047A
:1059000008A352ADFFFFFFFFFFFFFFFFFFFFFFFFF9
:10591000FFFFFFFFFFFFE71CFFFFFFFFFFFFFFFF92
:10592000634E006211041104110410E40062638EDE
:10593000FFFFFFFFFFFFFFFF73CF00019CF3632C0E
:10594000B596FFFFFFFF5B2D0083110411041104C6
:1059500010E42167EF3DFFFFFFFFFFFFFFFFFFFFA9
:10596000BDF8B5B7EF9E52CB94B3FFFFFFFFFFDF4B
:1059700031E808A3110411041104110408A34249D9
:10598000F7FFF7FFFFFFFFFF4A6A00018472FFFF86
:10599000FFFFF7FFEFDF3A0908A311041104110418
:1059A00011041105BE18FFFFFFFFFFFFFFFFFFFF00
:1059B0007BF0006231E831C70041A535FFFFEF5DA4
:1059C000214610C4110411041104110410E408A3A9
:1059D0009D76F7FFFFFFADB708A308A331C7E79E89
:1059E000F7FFF7FFA57608A310E4110411041104D2
:1059F00011051105A535FFFFFFFFFFFFFFFFFFFFAB
:105A0000DEDB29A7008310C410C410C4E71CEF9E7E
:105A1000110510E41104110411041104190408C43F
:105A200010E56BD16BD108C5006408A50043322B8B
:105A30009D7784B3192510C41104110411041104B5
:105A4000192509269D35FFFFFFFFFFFFFFFFFFFF21
:105A5000FFFF73AF00621904190500825B0D9B8E76
:105A60001062110511041104190410E400851105D8
:105A700039C45A817B409C22AC43A4039B8372822D
:105A8000498218C200A400C510E4190411041905C4
:105A9000194711675AECFFBEFFFFFFFFFFFFFFFF33
:105AA000FFDFDEDB10C410E41104110518A4C001EF
:105AB000888300E41905190408C521448343D523CC
:105AC000FE42FEE4FF27FF07FEA4FE64FE03FDA3E3
:105AD000FCE2EC42B383622410E508C419041926E1
:105AE00019A821879000BCD3FFFFFFFFFFFFFFFF36
:105AF000FFDFFFFF7C100042190511052883D0014C
:105B0000F84448A300E408C55A44ED02FDE2FE0251
:105B1000FE66FF74FFB8FF73F6E7F6A6F645F5A438
:105B2000FCC3FC62FCC2FCC2CBE349C41106198869
:105B3000018790A4F8019AECFFFFFFFFFFFFFFFF32
:105B4000FFFFFFFFF7BE31E8008309054082C00177
:105B5000F823F08548A300A45A44FD02CC23DCC2FC
:105B6000FE04FE28F648F646F624F5E4FD64FCE360
:105B7000FC62FCC2E402DC02FCE27AA40148016798
:105B800078C4F824F802B084E77DFFFFFFFFFFFF31
:105B9000FFFFFFFFFFFFDEDB192500A338C4E00293
:105BA000D822F844F8A678A400632143728339838D
:105BB0009B82F521FD61FD22FCE2FCA2FC42FC423D
:105BC000FC42AB22418392C352040126192598A4BA
:105BD000F844F823F802D0A4EF9EFFFFFFFFFFFF79
:105BE000FFFFFFFFFFFFFFFFD69A298700A5B843FD
:105BF000F822E023F865F8E8C9074883004200A3CB
:105C0000008429637AA2B362CBA2D362BB028A82E8
:105C1000398300A400E500E508E560C4D864F844D1
:105C2000F824F823F8028883C6DBFFFFFFFFFFFF9D
:105C3000FFFFFFFFFFFFFFFFFFFFE73D5B50310866
:105C4000E823F843F044F865F909F9ABD1898906EE
:105C500048A3184200020042006100820062006214
:105C6000008320A350C488A5D885F865F844F8447B
:105C7000F823F823D003108229C7EF5DFFFFFFFF51
:105C8000FFFFFFFFFFFFFFFFFFFFFFFFFFFF326C84
:105C900038A5D802F823F865F866F8A7F94AFA0C8F
:105CA000FA4DEA4CD20BB9A9B168A947B127B90797
:105CB000D107E8E7F8C7F8A7F865F865F844F823CE
:105CC000F803D00228A3090508C45AECFFFFFFFF20
:105CD000FFFFFFFFFFFFFFFFFFFFFFFFDEFB1905D9
:105CE00000C441A7C0E6F803F886F8A7F887F8864D
:105CF000F8C7F929F98AF9ABF9ABF98BF96AF929EF
:105D0000F908F8C7F8A6F886F865F864F823F002F1
:105D1000B106292500E410E4192519259D14FFFF7B
:105D2000FFFFFFFFFFFFFFFFFFFFFFFFAD960062DA
:105D300008829535CEBAA28BD044F825F887F8A70B
:105D4000F8C7F8A7F887F886F886F886F887F8A7DE
:105D5000F8A7F8A6F885F865F864F024B864930D00
:105D6000B6BB63CF0883110410E421663A49EF5DA6
:105D7000FFFFFFFFFFFFFFFFFFFFFFFF94D3004286
:105D800010E4CEBBFFFFE7BEB576AACCC107E04565
:105D9000F845F846F866F886F886F886F886F865D5
:105DA000F845F865E865D044A84388019082D73C5F
:105DB000EFFF95550883110411041905194694B392
:105DC000FFFFFFFFFFFFFFFFFFFFFFFF94B3004157
:105DD0002186DF5DFFFFFFFFFFFFE7DFC67AB4D359
:105DE000B34EC22AD168E0E6E8A6E8A5E8A5D8E661
:105DF000C988A906A822A802A000C800D800E5F713
:105E0000E7FFADF810C410E4110410E411054A8B4B
:105E1000FFFFFFFFFFFFFFFFFFFFFFFFA555004153
:105E200029A7DF5DF7FFFFFFFFFFFFFFFFFFFFFF7A
:105E3000EFFFDF7DCEDBCE59CDF8CDD7C5F7CE79DC
:105E4000BEFBA2ABF003F845D042E843F000D472A9
:105E5000DFFFAE3910E410E4110410E411052987C6
:105E6000FFFFFFFFFFFFFFFFFFFFFFFFCE5908838C
:105E70002146D71CF7FFFFFFFFFFFFFFFFFFFFFFDC
:105E8000FFFFFFFFFFFFFFFFFFFFFFFFFFFFFFFF22
:105E9000EFFFBA8BF804F845E062F044F800DB8EBF
:105EA000DFFFA5F810C410E410E4110410E4192574
:105EB000FFFFFFFFFFFFFFFFFFFFFFFFF7BE298789
:105EC0000883B639F7FFF7DFFFFFFFFFFFFFFFFF94
:105ED000FFFFFFFFFFFFFFFFFFFFFFFFFFFFFFFFD2
:105EE000E7BEBA4AF803F845F864F844F800E36EF0
:105EF000D7FF8CF40883110410E410E410E41905B2
:105F0000FFFFFFFFFFFFFFFFFFFFFFFFFFFF73EF3D
:105F100000008472EFFFEFBEFFDFFFFFFFFFFFFF18
:105F2000FFFFFFFFFFFFFFFFFFFFFFFFFFFFFFFF81
:105F3000E7DFBA8BF803F845F845F823F800D4D327
:105F4000D7FF5B4E00213A29A555088310C41925B7
:105F5000FFFFFFFFFFFFFFFFFFFFFFFFFFFFDEFB76
:105F600008A331E8DF9EE79EEFBFFFFFFFFFFFFFC3
:105F7000FFFFFFFFFFFFFFFFFFFFFFFFFFFFFFFF31
:105F8000F7FFBC51E002F803F003E043C2ECCF7E20
:105F9000BEFC2146002194D3FFFF845100002987D5
:105FA000FFFFFFFFFFFFFFFFFFFFFFFFFFFFFFFF01
:105FB000845100008CF4EFFFE79EEFBFFFDFFFFF8F
:105FC000FFFFFFFFFFFFFFFFFFFFFFFFFFFFFFFFE1
:105FD000FFFFDF3DBD55BC52BC72B5B7C75DDFFFEB
:105FE0006BF000003A09F7BFFFFFFFFF9D14A555B6
:105FF000FFFFFFFFFFFFFFFFFFFFFFFFFFFFFFFFB1
:10600000FFFF4AAC08A4BEBBE7DFE77EEFBEF7DFC9
:10601000FFDFFFFFFFFFFFFFFFFFFFFFFFFFFFFFB0
:10602000FFDFF7DFEFFFDFDFD7BFD79EDFDFA5D8CA
:1060300008831126D6DBFFFFFFFFFFFFFFFFFFFFF7
:10604000FFFFFFFFFFFFFFFFFFFFFFFFFFFFFFFF60
:10605000EE79DC8B312121A9CF3DDFBFDF7EE79ECA
:10606000EFBEEFBFF7DFF7DFF7DFF7DFF7DFEFBFF9
:10607000EFBEE79EDF7ED75ED75EDFDFB69A1926DA
:106080000842A3EDFFBFFFFFFFFFFFFFFFFFFFFF82
:10609000FFFFFFFFFFFFFFFFFFFFFFFFFFFFDD74BD
:1060A000DBC0FE00EE4242022189B67BDFDFD77EF5
:1060B000DF7EDF7EE79EE79EE79EE79EE79EDF7E30
:1060C000DF7ED75DD75DDF9EE7FFA5F8110718E3F8
:1060D000C502FD60D3E6EEDBFFFFFFFFFFFFFFFF22
:1060E000FFFFFFFFFFFFFFFFFFFFFFFFF79EBA84E9
:1060F000FCC1FE42FE82FEA2838121457474C75E0C
:10610000DFDFD77ED75ED75DD75ED75ED75DD75D41
:10611000D75EDF9EE7FFC73D63F108845242E62663
:10612000FF29FE86F3E0C36AFFFFFFFFFFFFFFFFCB
:10613000FFFFFFFFFFFFFFFFFFFFFFFFDE18D2C1E2
:10614000FDA2FE22FE42FE42FE62D4E26A414249C4
:106150007453A63BC73ED7BFD7BFD7BFDFBFD7BF9C
:10616000C73EA61A63F229A74182B422FE62FE83CB
:10617000FEAAFF0FFD67BA63EF3CFFFFFFFFFFFFC3
:10618000FFFFFFFFFFFFFFFFFFFFFFFFE69AD28049
:10619000FD21FDC2F5E2F5C2F582FD82FD62DC6102
:1061A0009B216A846AE9632C63AF7411636E632C6C
:1061B0005A8952047A81CBC2FCE2FD62FD82FDC2A3
:1061C000FDC2FDE4FD24CA62E71CFFFFFFFFFFFFE5
:1061D000FFFFFFFFFFFFFFFFFFFFFFFFFFFFCCB150
:1061E000D281F3C0FCC1FD02FD02FCE2FCC2FCC294
:1061F000FC81FB80C9C081A4AD35CE599C71812141
:10620000DA00FBA1FC82FCA2FC82FCA2FD02FD22C2
:10621000FCE2FC00DA60CC90FFFFFFFFFFFFFFFF16
:10622000FFFFFFFFFFFFFFFFFFFFFFFFFFFFFFFF7E
:10623000DE59C40DCB06D2E4DB03DB03DAE3D2C3C1
:10624000C2A4B309BCD2F79EFFFFFFFFFFFFE6FB2E
:10625000B40EBAA6D283E2E3EB02EB22E322DB0325
:10626000D2E4C36AD5B6FFFFFFFFFFFFFFFFFFFFCA
:106270000000000000FFFFFFFFFF00000000000023
:1062800000000000000000000404040404000004F6
:10629000000014140A0000000000000000000000CC
:1062A0000A0A1F0A0A1F0A0A000000040E15050642
:1062B0000C14150E0400000012150D152E2C2A12B8
:1062C00000000000040A0A36151529160000020213
:1062D0000100000000000000000010080804040491
:1062E000040408081000020404080808080804044C
:1062F000020000000004150E0E150400000000004E
:106300000008083E0808000000000000000000002F
:1063100000000202010000000000003F0000000039
:10632000000000000000000000000002000000204B
:106330001010080804040202010000000E111111DF
:106340001111110E00000000040604040404040EE0
:10635000000000000E1111080402011F00000000DF
:106360000E11100C1010110E00000000080C0C0A89
:10637000091F081C000000001F01010F1110110E61
:10638000000000000C12010D1311110E000000009E
:106390001E10080804040404000000000E11110E71
:1063A0001111110E000000000E111119161009062E
:1063B00000000000000004000000000400000000D5
:1063C00000000004000000040400000010080402A3
:1063D000020408100000000000003F003F00000021
:1063E0000000000002040810100804020000000071
:1063F0000E11110804040004000000001C22292DC5
:106400002D1D221C0000000004040C0A0A1E123379
:10641000000000000F12120E1212120F00000000F6
:106420001E1101010101110E000000000F121212D5
:106430001212120F000000001F120A0E0A02121F91
:10644000000000001F120A0E0A02020700000000EE
:106450001C1201013911120C000000003312121E2F
:1064600012121233000000001F0404040404041F6D
:10647000000000003E080808080808080907000096
:1064800037120A060A121237000000000702020241
:106490000202223F000000003B1B1B1B1515153597
:1064A000000000003B1216161A1A12170000000016
:1064B0000E1111111111110E000000000F12120E19
:1064C00002020207000000000E1111111117190E2F
:1064D000180000000F12120E0A12123700000000FE
:1064E0001E1101060810110F000000001F15040402
:1064F0000404040E00000000331212121212120CD7
:10650000000000003312120A0A0C0404000000000C
:10651000151515150E0A0A0A000000001B0A0A04C8
:10652000040A0A1B000000001B0A0A0A0404040EE5
:10653000000000001F0908040402121F00001C04D0
:1065400004040404040404041C00000202040404FF
:106550000808081010000E080808080808080808AD
:106560000E00040A0000000000000000000000000F
:106570000000000000000000003F020400000000D6
:1065800000000000000000000000000C121C123C83
:10659000000000030202020E1212120E00000000A0
:1065A0000000001C1202120C000000181010101C39
:1065B0001212123C000000000000000C121E021C0F
:1065C000000000182404041E0404041E000000003F
:1065D0000000003C120C021C221C00030202020EEE
:1065E0001212123700000004040000060404040E16
:1065F000000000080800000C08080808080700034D
:106600000202021A0A060A13000000070404040426
:106610000404041F000000000000000F15151515EC
:10662000000000000000000F1212123700000000EE
:106630000000000C1212120C000000000000000FFD
:106640001212120E020700000000001C1212121C8F
:10665000103800000000001B0602020700000000C6
:106660000000001E020C101E000000000004041EAA
:106670000404041C000000000000001B1212123C65
:10668000000000000000001B0A0A040400000000D3
:1066900000000015150E0A0A000000000000001B93
:1066A0000A040A1B000000000000003312120C084C
:1066B000040300000000001E0804041E0000180867
:1066C0000808080C0808080818000808080808083E
:1066D000080808080808060404040408040404045C
:1066E0000600160900000000000000000000000085
:1066F000000000000000000000000000000000009A
:1067000000080808080808080000181800000048D9
:106710006C241200000000000000000000000000D7
:10672000002424247F1212127F1212120000000093
:10673000081C2A2A0A0C1828282A2A1C08080000E3
:106740000022251515152A58545454220000000023
:10675000000C1212120A76252911916E0000000613
:1067600006040300000000000000000000000040DC
:106770002010100808080808081010204000000227
:10678000040808101010101010080804020000007F
:10679000000008086B1C1C6B0808000000000000CB
:1067A0000000080808087F0808080800000000002A
:1067B00000000000000000000000060604030000C6
:1067C000000000000000FE000000000000000000CB
:1067D00000000000000000000000060600000000AD
:1067E000804040202010100808040402020000002D
:1067F0000018244242424242424224180000000053
:1068000000080E08080808080808083E00000000F4
:10681000003C4242422020100804427E000000005A
:10682000003C4242201820404042221C0000000050
:1068300000203028242422227E202078000000001E
:10684000007E0202021A26404042221C0000000084
:1068500000382402021A2642424224180000000096
:10686000007E222210100808080808080000000016
:10687000003C4242422418244242423C00000000B4
:1068800000182442424264584040241C000000008A
:106890000000000018180000000018180000000098
:1068A00000000000000800000000000808040000CC
:1068B00000402010080402040810204000000000DE
:1068C000000000007F0000007F00000000000000CA
:1068D00000020408102040201008040200000000FC
:1068E000003C4242464020101000181800000000F2
:1068F000001C225A555555552D42221C00000000FF
:10690000000808181414243C224242E7000000004A
:10691000001F2222221E22424242221F00000000AB
:10692000007C4242010101010142221C00000000E2
:10693000001F2242424242424242221F0000000007
:10694000003F4212121E12120242423F000000009B
:10695000003F4212121E1212020202070000000043
:10696000003C2222010101712122221C00000000B2
:1069700000E7424242427E42424242E700000000BB
:10698000003E0808080808080808083E0000000043
:10699000007C10101010101010101010110F0000BB
:1069A000007722120A0E0A1212222277000000003B
:1069B00000070202020202020202427F00000000FF
:1069C0000077363636362A2A2A2A2A6B000000003B
:1069D00000E346464A4A52525262624700000000B3
:1069E000001C2241414141414141221C0000000064
:1069F000003F424242423E02020202070000000003
:106A0000001C2241414141414D53321C60000000B5
:106A1000003F4242423E1212222242C700000000C2
:106A2000007C4242020418204042423E0000000026
:106A3000007F4908080808080808081C0000000032
:106A400000E74242424242424242423C00000000D1
:106A500000E7424222242414141808080000000011
:106A6000006B494949495555362222220000000051
:106A700000E7422424181818242442E700000000EC
:106A800000772222141408080808081C00000000DF
:106A9000007E2120101008040442423F00000078CC
:106AA000080808080808080808080808780000000E
:106AB0000202040408080810102020204040001E94
:106AC0001010101010101010101010101E000038B0
:106AD0004400000000000000000000000000000072
:106AE00000000000000000000000000000FF0006A1
:106AF000080000000000000000000000000000008E
:106B000000000000003C4278444242FC00000000CB
:106B100000030202021A26424242261A0000000026
:106B20000000000000384402020244380000000067
:106B30000060404040784442424264D80000000077
:106B400000000000003C427E0202423C00000000C7
:106B500000F08808087E08080808083E00000000C9
:106B600000000000007C22221C023C42423C00004B
:106B700000030202023A4642424242E7000000009D
:106B8000000C0C00000E08080808083E0000000079
:106B9000003030000038202020202020221E00005D
:106BA000000302020272120A16122277000000008D
:106BB000000E0808080808080808083E0000000041
:106BC00000000000007F9292929292B700000000B5
:106BD00000000000003B4642424242E70000000045
:106BE00000000000003C42424242423C00000000E3
:106BF00000000000001B26424242221E0207000045
:106C000000000000007844424242447840E0000026
:106C10000000000000774C040404041F0000000082
:106C200000000000007C42023C40423E00000000A8
:106C300000000008083E08080808083000000000AE
:106C40000000000000634242424262DC000000009B
:106C50000000000000E7422424140808000000009F
:106C60000000000000EB49495555222200000000B9
:106C700000000000007624181818246E00000000A0
:106C80000000000000E74224241418080807000050
:106C900000000000007E22100808447E000000C0B2
:106CA000202020202010202020202020C000101094
:106CB00010101010101010101010101010100006EE
:106CC00008080808081008080808080806000C3218
:106CD000C2000000000000000000000000000000F2
:106CE00000000000000000000000000000000000A4
:106CF0000000000000000000000000000000000094
:106D00000000000000000000000000000000000083
:106D10000000000000006000600060006000600093
:106D20006000600040002000200020000000000003
:106D30000000600060006000000000000000000033
:106D400000006006600630039801880044000000DF
:106D50000000000000000000000000000000000033
:106D60000000000000000000000000000000000023
:106D70000000000000001002100210021002FE07C6
:106D8000FE0708020801080108010801FE07FE07C6
:106D900004010401040104010000000000000000DF
:106DA0000000000040004000F00158034C03CC03F9
:106DB0004C0058007000E000C001C00140034C03CB
:106DC0005C034C034801F00040004000000000005C
:106DD0000000000000000E010A01910091009100E6
:106DE000510051003A00AE03A00250045004480480
:106DF00048044804840284030000000000000000EE
:106E000000000000000038006C006C006C006C009A
:106E10006C002C0098071C011A0133013301630137
:106E2000E300C308C6093C070000000000000000A2
:106E300000000C001C0010001000080004000000FE
:106E40000000000000000000000000000000000042
:106E50000000000000000000000000000000000032
:106E6000000000040002000180008000400040009B
:106E700020002000200020002000200020004000F2
:106E800040008000800000010002000400000000BB
:106E90000000020004000800100010002000200084
:106EA0004000400040004000400040004000200002
:106EB0002000100010000800040002000000000084
:106EC000000000000000000000004000C000400082
:106ED000460C4E0FD001F0015E0F460C4000400002
:106EE0004000000000000000000000000000000062
:106EF0000000000000000000000000004000400012
:106F0000400040004000FE0F4000400040004000B4
:106F10004000000000000000000000000000000031
:106F20000000000000000000000000000000000061
:106F30000000000000000000000000000000000051
:106F400000000C001C0010001000080004000000ED
:106F50000000000000000000000000000000000031
:106F6000000000000000FE0700000000000000001C
:106F70000000000000000000000000000000000011
:106F80000000000000000000000000000000000001
:106F900000000000000000000000000000000000F1
:106FA00000001C001C001C0000000000000000008D
:106FB0000000000400060002000300010001800040
:106FC0008000400040006000200020001000100001
:106FD000080008000C000400060002000000000089
:106FE0000000000000000000F00098010C030C03FA
:106FF0000606060606060606060606060606060631
:107000000C030C039801F0000000000000000000D9
:10701000000000000000000040007C0060006000F4
:107020006000600060006000600060006000600060
:10703000600060006000FC03000000000000000031
:107040000000000000000000F800840102030603B5
:107050000603000300018001C00060002000100052
:10706000080204020602FE03000000000000000007
:1070700000000000000000007800C60086018601C4
:1070800080018001C0007000800100010003000346
:10709000060306038601F80000000000000000005F
:1070A000000000000000000080018001C001A0017C
:1070B000A00190018801880184018201FE0F8001F6
:1070C000800180018001E007000000000000000056
:1070D0000000000000000000FC03040004000400A5
:1070E00004000400F4008C01040300030003060301
:1070F000060382018401F800000000000000000087
:107100000000000000000000E00118030C030C0068
:1071100004000600E60116030E060606060606062D
:1071200004060C021803F00000000000000000003C
:107130000000000000000000F8070C060402040133
:10714000000100018000800040004000400060001D
:1071500060006000600060000000000000000000AF
:107160000000000000000000F8010C0306060606FF
:1071700006060C021C03F000C8010C0306060606F6
:10718000060606060C03F0010000000000000000E7
:107190000000000000000000F0000C010C030602DB
:1071A00006060606060606078C0678060006000395
:1071B00000030C018C0178000000000000000000BA
:1071C00000000000000000000000000000000000BF
:1071D0000000E000E000E00000000000000000000F
:1071E0000000E000E000E0000000000000000000FF
:1071F000000000000000000000000000000000008F
:1072000000006000600000000000000000000000BE
:10721000000000006000600040002000200000002E
:107220000000000000000004000200018000400097
:10723000200010000800040008001000200040009A
:1072400080000001000200040000000000000000B7
:10725000000000000000000000000000000000002E
:107260000000FE07000000000000FE070000000014
:10727000000000000000000000000000000000000E
:107280000000000000000400080010002000400082
:1072900080000001000200040002000180004000A4
:1072A00020001000080004000000000000000000A2
:1072B0000000000000000000E0031806040C040CAD
:1072C0000C0C0C0C00078001400040004000000046
:1072D0000000E000E000E00000000000000000000E
:1072E000000000000000E00018030C02CC0564055B
:1072F0006605A605B604B604B604B604B602E401F3
:107300000C040C021803F000000000000000000054
:107310000000000000000000600060005000D0008D
:1073200090009000880088010801F801040304031C
:107330000402020202060F0F00000000000000001D
:107340000000000000000000FE008C030C030C0392
:107350000C030C038C01FC000C030C020C060C0645
:107360000C060C060C03FE010000000000000000EB
:107370000000000000000000E00318030C060C04ED
:1073800004040600060006000600060006000604C7
:107390000C040C021803F0000000000000000000C4
:1073A00000000000000000007F008C010C030C03B3
:1073B0000C060C060C060C060C060C060C060C063D
:1073C0000C030C038C017F00000000000000000093
:1073D0000000000000000000FF030603060406048E
:1073E000060086008600FE008600860086000600F5
:1073F000060406040602FF0300000000000000006F
:107400000000000000000000FF030603060406045D
:10741000060086008600FE008600860086000600C4
:107420000600060006001F0000000000000000002B
:107430000000000000000000F00018010C020C0227
:1074400004020600060006000600C60F0603060337
:107450000C030C031803F000000000000000000003
:1074600000000000000000000F0F060606060606DA
:10747000060606060606FE070606060606060606B3
:107480000606060606060F0F0000000000000000BA
:107490000000000000000000FC03600060006000CD
:1074A00060006000600060006000600060006000DC
:1074B000600060006000FC030000000000000000AD
:1074C0000000000000000000F807C000C000C0007D
:1074D000C000C000C000C000C000C000C000C000AC
:1074E000C000C000C000C000C60066003C00000034
:1074F0000000000000000000CF038601C600460027
:107500002600160036002E006E004600C6008600DB
:107510008601060106038F0700000000000000003E
:1075200000000000000000001F000600060006002A
:10753000060006000600060006000600060006001B
:10754000060406040602FF0300000000000000001D
:1075500000000000000000000707860386038E037A
:107560008E034E034E034A035A035A033A0332036F
:1075700032033203120387070000000000000000FE
:1075800000000000000000008E0F0C021C021C0214
:1075900034023402640264024402C402840284039A
:1075A0008403040304031F02000000000000000025
:1075B0000000000000000000F00098010C030C0225
:1075C000060606060606060606060606060606065B
:1075D0000C020C039801F000000000000000000005
:1075E0000000000000000000FF000603060606067B
:1075F0000606060606068603FE00060006000600CE
:107600000600060006001F00000000000000000049
:107610000000000000000000F00098010C030C02C4
:10762000060606060606060606060606060676068A
:107630004C02CC039801F00080070003000000001A
:107640000000000000000000FF0106030606060619
:10765000060606060603FE004600C60086008601F2
:107660000603060306060F0E0000000000000000DF
:107670000000000000000000F8020C0306020602F1
:1076800006000E003C00F800E0038003000702063D
:10769000020606060C03F0010000000000000000D6
:1076A0000000000000000000FE076204610861089D
:1076B00060006000600060006000600060006000CA
:1076C000600060006000F8010000000000000000A1
:1076D00000000000000000001E070C020C020C025B
:1076E0000C020C020C020C020C020C020C020C022A
:1076F0000C020C021801F000000000000000000065
:1077000000000000000000000F0706020401040151
:107710000C010C018800880098009800500050006F
:107720007000300020002000000000000000000079
:107730000000000000000000F70E6204420446044E
:10774000460464026402E402E4029C029C01980183
:1077500098018801880088000000000000000000F7
:1077600000000000000000009E070C010801180145
:107770009000B0006000200060006000D000900029
:107780008801080104038E070000000000000000CB
:1077900000000000000000000F0F060404020C02AD
:1077A00008011801B800B0007000600060006000BF
:1077B000600060006000F8010000000000000000B0
:1077C0000000000000000000FC070C02060302019C
:1077D00080018000400040002000200010001800C0
:1077E00008040C040402FE03000000000000000076
:1077F0000000E003200020002000200020002000E6
:107800002000200020002000200020002000200078
:1078100020002000200020002000E00300000000E5
:107820000000000000000400040008000800100030
:10783000100010002000200040004000C000800028
:1078400080000001000100020002000200040000AC
:1078500000007C004000400040004000400040002C
:107860004000400040004000400040004000400018
:10787000400040004000400040007C00000000004C
:1078800060009000080100000000000000000000FF
:1078900000000000000000000000000000000000E8
:1078A00000000000000000000000000000000000D8
:1078B00000000000000000000000000000000000C8
:1078C00000000000000000000000000000000000B8
:1078D000000000000000000000000000FF0F00009A
:1078E0000000180060000000000000000000000020
:1078F0000000000000000000000000000000000088
:107900000000000000000000000000000000000077
:107910000000000000000000000000000000000067
:107920000000F0010C030C030003E0031C030E0332
:10793000060306038E0B7C0E000000000000000012
:1079400000000000000008000E000C000C000C00FD
:107950000C00CC013C031C060C060C060C060C06A5
:107960000C060C021C03E4010000000000000000F3
:107970000000000000000000000000000000000007
:107980000000F0008C018C01860106000600060054
:1079900006020C020C01F0000000000000000000D4
:1079A0000000000000000002C00300030003000309
:1079B000000378038C030C03060306030603060387
:1079C000060304038C07780100000000000000009B
:1079D00000000000000000000000000000000000A7
:1079E0000000E001180308020C060C06FC070C005E
:1079F0000C0018041802E001000000000000000064
:107A00000000000000000000C003600630063000E7
:107A10003000FE0130003000300030003000300017
:107A2000300030003000FC010000000000000000C9
:107A30000000000000000000000000000000000046
:107A40000000F007D8068C018C018C019801F80029
:107A50000C00FC00CC03060306038E03F8000000B4
:107A600000000000000008000E000C000C000C00DC
:107A70000C00EC011C030C030C030C030C030C03A3
:107A80000C030C030C039E07000000000000000024
:107A90000000000000000000600060000000000026
:107AA00040007C00600060006000600060006000DA
:107AB000600060006000FC030000000000000000A7
:107AC0000000000000000000C001C0010000000034
:107AD0000001F001800180018001800180018001AE
:107AE00080018001800180018001CC007C000000C9
:107AF00000000000000008000E000C000C000C004C
:107B00000C008C038C008C004C006C005C008C0022
:107B10008C010C010C039E07000000000000000017
:107B200000000000000040007C0060006000600079
:107B30006000600060006000600060006000600045
:107B4000600060006000FC03000000000000000016
:107B50000000000000000000000000000000000025
:107B600000003707EE0666066606660666066606C7
:107B7000660666066606FF0F0000000000000000B3
:107B800000000000000000000000000000000000F5
:107B90000000EE011C030C030C030C030C030C038C
:107BA0000C030C030C039E07000000000000000003
:107BB00000000000000000000000000000000000C5
:107BC0000000F00098010C030606060606060606ED
:107BD00006060C030C03F00000000000000000008B
:107BE0000000000000000000000000000000000095
:107BF0000000EE011C030C060C060C060C060C061D
:107C00000C060C031C03EC010C000C003E000000F1
:107C10000000000000000000000000000000000064
:107C2000000078028C030C03060306030603060318
:107C3000060304038C03780300030003C00700005D
:107C40000000000000000000000000000000000034
:107C500000009F0358063806180018001800180086
:107C6000180018001800FF000000000000000000CD
:107C70000000000000000000000000000000000004
:107C80000000F0031C030C020C023800F000C003DB
:107C9000040304038C03FC0100000000000000004A
:107CA0000000000000000000000020002000300064
:107CB0003000FE0130003000300030003000300075
:107CC000300030023002E00100000000000000003F
:107CD00000000000000000000000000000000000A4
:107CE00008028E030C030C030C030C030C030C039F
:107CF0000C030C039C07780100000000000000004A
:107D00000000000000000000000000000000000073
:107D100000001E070C020801080118019000B000C5
:107D2000B0006000600020000000000000000000C3
:107D30000000000000000000000000000000000043
:107D40000000F70E6204460464026402EC029C0127
:107D50009801980198010800000000000000000050
:107D60000000000000000000000000000000000013
:107D70000000BC0718011001B00060006000E000C6
:107D80009000080108039E070000000000000000AA
:107D900000000000000000000000000000000000E3
:107DA00000009E0708010801080190009000B00043
:107DB0006000600060002000200024001C00000023
:107DC00000000000000000000000000000000000B3
:107DD0000000FC018401C400440060002000300069
:107DE000180208020C03FC01000000000000000063
:107DF0000000000380008000800080008000800080
:107E00008000800040002000400080008000800052
:107E1000800080008000800080000003000040009F
:107E20004000400040004000400040004000400052
:107E30004000400040004000400040004000400042
:107E40004000400040004000400040004000000072
:107E500000000C00100010001000100010001000B6
:107E60001000100020004000200010001000100042
:107E7000100010001000100010000C0000000000A6
:107E80001C002204C2048003000000000000000067
:107E900000000000000000000000000000000000E2
:107EA00000000000000000000000000000000000D2
:107EB00000000000000000000000000000000000C2
:107EC00000000000000000000000000000000000B2
:107ED00000000000000000000000000000000000A2
:107EE0000000000000000000000000000000000092
:107EF0000000000000000000C001C001C001C0017E
:107F0000C001C001C00180008000800080008000AE
:107F10008000800000000000000000008001C0031D
:107F2000C00380010000000000000000000000000D
:107F300000000000E01CE01CF01E700E3807180363
:107F400008018400000000000000000000000000A4
:107F50000000000000000000000000000000000021
:107F60000000000000000000000000000000000011
:107F70000000000000000000000020102010201071
:107F800020102010FE7FFE7F100810081008100837
:107F9000100810081008FE7FFE7F0804080408047B
:107FA00008040804000000000000000000000000B9
:107FB00000000000000000010001C007601910313E
:107FC00018311839183938017001E001C0038007F1
:107FD000000F001D003900311C311C310C310C1117
:107FE000180DE00700010001000100000000000082
:107FF000000000000000000000001C10361863089C
:10800000630C63046304630263026301361D9C37DF
:1080100080228063406340632063206330631022CA
:108020001836081C000000000000000000000000DE
:1080300000000000000000000000F00098018C012A
:108040008C018C018C018C00CC007800183E1C083F
:108050003608320863046304C304C303834306433E
:108060008E26781C000000000000000000000000C8
:10807000000000001C003C003C00300030001000FC
:108080000C000600000000000000000000000000DE
:1080900000000000000000000000000000000000E0
:1080A00000000000000000000000000000000000D0
:1080B000000000000040002000100008000C000438
:1080C000000600030003000380018001800180019D
:1080D000800180018001800100030003000300068D
:1080E0000006000C00080010002000400000000006
:1080F0000000000002000400080010003000200012
:108100006000C000C000C0008001800180018001CB
:108110008001800180018001C000C000C0006000BB
:1081200060003000100008000400020000000000A1
:10813000000000000000000000000000000000013E
:108140008003800300011C713C79783DC007000169
:10815000C007783D3C791C710001800380038001D9
:10816000000000000000000000000000000000000F
:1081700000000000000000000000000000000000FF
:108180000001000100010001000100010001FC7F6D
:1081900000010001000100010001000100010000D8
:1081A00000000000000000000000000000000000CF
:1081B00000000000000000000000000000000000BF
:1081C00000000000000000000000000000000000AF
:1081D00000000000000000000000000000001C0083
:1081E0003C003C003000300010000C000600000095
:1081F000000000000000000000000000000000007F
:108200000000000000000000000000000000FE7FF1
:10821000000000000000000000000000000000005E
:10822000000000000000000000000000000000004E
:10823000000000000000000000000000000000003E
:10824000000000000000000000000000000000002E
:1082500000000000000000000000000018003C00CA
:108260003C001800000000000000000000000000BA
:1082700000000000004000600020003000100018E6
:108280000008000C00040006000200030001800149
:108290008000C00040006000200030001000180086
:1082A00008000C00040006000200000000000000AE
:1082B00000000000000000000000C007600C301843
:1082C0001830183018200C600C600C600C600C60CA
:1082D0000C600C600C600C601820183018303018DE
:1082E000600CC0070000000000000000000000005B
:1082F0000000000000000000000000018001F80103
:108300008001800180018001800180018001800165
:108310008001800180018001800180018001800155
:10832000C003F81F00000000000000000000000073
:1083300000000000000000000000E007101C08180A
:10834000043004300C300C300030001800080004F9
:10835000000200018000400020201020082004308E
:10836000FC1FFC1F000000000000000000000000D7
:1083700000000000000000000000E003180E0C0CDC
:108380000C180C180C180018000C0006C003000E86
:1083900000180010003000300C300C300C100C189D
:1083A000180CE003000000000000000000000000C6
:1083B00000000000000000000000000C000E000E95
:1083C000000F800E800E400E600E200E100E100E5C
:1083D000080E040E040EFE7F000E000E000E000EAE
:1083E000000E000EC07F0000000000000000000032
:1083F00000000000000000000000F03FF03F10000F
:108400001000100008000800C807280C18180810F1
:1084100000300030003000300C300C3004180418EC
:10842000080CF00300000000000000000000000045
:1084300000000000000000000000800FC01020308D
:1084400010301800180008000C008C0F6C183C301D
:108450001C600C600C600C600C60186018203030E0
:108460006018C007000000000000000000000000CD
:1084700000000000000000000000F83FF83F1C1062
:108480000C080408040400040002000200010001BA
:108490000001800080008000C000C000C000C0005B
:1084A000C000C0000000000000000000000000004C
:1084B00000000000000000000000E007300C181869
:1084C0000C300C300C301C3038187008E007B00746
:1084D000180E0C1C063806300630063006300C1814
:1084E000180CE00300000000000000000000000085
:1084F00000000000000000000000E00318040C0869
:108500000C180610063006300630063006380C3CD3
:108510001836F03100300018001800180C0C0C064A
:108520000C03F0010000000000000000000000004B
:10853000000000000000000000000000000000003B
:1085400000000000000000008001C003C0038001A3
:108550000000000000000000000000008001C003D7
:10856000C0038001000000000000000000000000C7
:1085700000000000000000000000000000000000FB
:108580000000000000000000C000C000000000006B
:1085900000000000000000000000000000000000DB
:1085A000C000C000800080004000400000000000CB
:1085B000000000000000000000200010000800047F
:1085C000000600038001C0006000300018000C00AD
:1085D000180030006000C0008001000300060004A5
:1085E0000008001000200000000000000000000053
:1085F000000000000000000000000000000000007B
:108600000000000000000000FE7F000000000000ED
:1086100000000000FE7F00000000000000000000DD
:10862000000000000000000000000000000000004A
:1086300000000000000000000400080010002000FE
:108640006000C000800100030006000C001800302C
:108650000018000C000600038001C000600020002C
:1086600010000800040000000000000000000000EE
:108670000000000000000000C0073018083008604B
:108680000C601C601C601C600030001C00060001B7
:108690008000800080008000000000008001C00396
:1086A000C003800100000000000000000000000086
:1086B00000000000000000000000C007601810303B
:1086C00018200C2F8C4D864CC64CC64C664C66440C
:1086D0006644662666266615CC1C0C4008201830B9
:1086E0003018C0070000000000000000000000007B
:1086F00000000000000000000001C001C001C00136
:1087000040016003200320032003300610061006FA
:108710001006F80F080C080C080C0C0C04180418B0
:1087200006181F7C00000000000000000000000090
:1087300000000000000000000000FE07181C1838B0
:1087400018301830183018301818180CF807181886
:1087500018301820186018601860186018601830F9
:108760001818FE0F000000000000000000000000CC
:1087700000000000000000000000C027603810303A
:1087800018200C400C4004000600060006000600FD
:1087900006000600060006000C400C400C201830B5
:1087A0003018C007000000000000000000000000BA
:1087B00000000000000000000000FE03180E181862
:1087C0001830183018301860186018601860186079
:1087D00018601860186018601830183018101818D1
:1087E000180EFE0300000000000000000000000062
:1087F00000000000000000000000FE3F18301820BC
:1088000018601840180018081808180CF80F180CF1
:1088100018081808180018001800184018401820E8
:108820001830FE3F000000000000000000000000C3
:1088300000000000000000000000FE7F18701840DB
:1088400018C018801800181018101818F81F1818D9
:108850001810181018001800180018001800180038
:1088600018007E0000000000000000000000000072
:1088700000000000000000000000C013701C101079
:1088800018100C200C20040006000600060006004C
:10889000060006FC063006300C300C30183018305C
:1088A0003008C007000000000000000000000000C9
:1088B000000000000000000000003F7E0C180C18B3
:1088C0000C180C180C180C180C180C180C18FC1F91
:1088D0000C180C180C180C180C180C180C180C1878
:1088E0000C183F7E000000000000000000000000A7
:1088F00000000000000000000000F81F800180015F
:10890000800180018001800180018001800180015F
:10891000800180018001800180018001800180014F
:108920008001F81F000000000000000000000000AF
:1089300000000000000000000000E07F00060006CC
:1089400000060006000600060006000600060006F7
:1089500000060006000600060006000600060006E7
:108960000006000600060E060E038E01FC00000045
:10897000000000000000000000007E7C18181808AD
:10898000180418061802180198019801D801B803B4
:10899000380318071806180E180C181C1818183069
:1089A00018307EFC00000000000000000000000005
:1089B000000000000000000000007E001800180009
:1089C00018001800180018001800180018001800E7
:1089D0001800180018001800180018401840182037
:1089E0001830FE3F00000000000000000000000002
:1089F000000000000000000000001FF81C381C38B8
:108A00001C381C3C343434343434343674326432DC
:108A1000643264326431C431C431C431C430C430CE
:108A200084309FFC000000000000000000000000F7
:108A3000000000000000000000001F7C1C103C1023
:108A40003410341074106410E410C410C411841174
:108A50008413041304170416041E041C041C041CB1
:108A600004181F18000000000000000000000000B3
:108A700000000000000000000000C003300C1818C7
:108A800008100C300C300660066006600660066058
:108A900006600660066006600C200C30081018188E
:108AA000300CC003000000000000000000000000C7
:108AB00000000000000000000000FE0F1818183031
:108AC0001860186018601860186018301818F80FCF
:108AD00018001800180018001800180018001800D6
:108AE00018007E00000000000000000000000000F0
:108AF00000000000000000000000C003300C181847
:108B00000C100C300C2006600660066006600660E3
:108B10000660066006600660E4612C331C3218169D
:108B2000300EC007004C007C003800000000000040
:108B300000000000000000000000FE07181C1838AC
:108B400018301830183018301818180CF807980317
:108B50001803180718061806180E180C180C181CFD
:108B600018187E78000000000000000000000000DF
:108B700000000000000000000000E027303818303E
:108B80000C200C200C000C0018007800E003800F73
:108B9000001E003800700060046004600860183037
:108BA0003818C80F0000000000000000000000009E
:108BB00000000000000000000000FC3F8C218461E8
:108BC0008241824180018001800180018001800119
:108BD000800180018001800180018001800180018D
:108BE0008001E0070000000000000000000000001D
:108BF000000000000000000000003F7C0C100C1082
:108C00000C100C100C100C100C100C100C100C1084
:108C10000C100C100C100C100C100C100C10080880
:108C20003804E00300000000000000000000000025
:108C3000000000000000000000003EF8182018208E
:108C400018203010301030103010600860086008B4
:108C5000E00CC004C004C0048003800380038003D0
:108C60000001000100000000000000000000000002
:108C700000000000000000000000DFF38661862194
:108C800086218C210C218C238C138C138C134C1378
:108C900058125816580E380E380E380E300C100474
:108CA000100410040000000000000000000000009C
:108CB000000000000000000000007E3E1808380898
:108CC0003004300470026002E001C001C001800184
:108CD00080034003400720062006100C100C0818E3
:108CE00008183E7C000000000000000000000000AA
:108CF000000000000000000000007E7C1C10181026
:108D000018083008300C700460046002C002C00211
:108D1000C00180018001800180018001800180010B
:108D20008001E007000000000000000000000000DB
:108D300000000000000000000000F83F18180818AC
:108D4000040C040E00060007000380038001C0012C
:108D5000C000E000600070003000382018201C10B7
:108D60000C18FE1F000000000000000000000000C2
:108D700000000000C03F40004000400040004000B4
:108D800040004000400040004000400040004000E3
:108D900040004000400040004000400040004000D3
:108DA0004000400040004000C03F000000000000C4
:108DB000000000000000000008001800180010006B
:108DC00030002000600060004000C0008000800192
:108DD0008001000100030002000600060004000CF0
:108DE00000080018001800100030002000000000EB
:108DF00000000000FC03000200020002000200026A
:108E00000002000200020002000200020002000252
:108E10000002000200020002000200020002000242
:108E20000002000200020002FC030000000000003B
:108E3000000000008007C00620081010000000009D
:108E40000000000000000000000000000000000022
:108E50000000000000000000000000000000000012
:108E60000000000000000000000000000000000002
:108E700000000000000000000000000000000000F2
:108E800000000000000000000000000000000000E2
:108E900000000000000000000000000000000000D2
:108EA000000000000000000000000000FFFF0000C4
:108EB000000000007800C000000100000000000079
:108EC00000000000000000000000000000000000A2
:108ED0000000000000000000000000000000000092
:108EE0000000000000000000000000000000000082
:108EF0000000000000000000000000000000000072
:108F00000000000000000000F00318060C0C0C0C20
:108F1000000C800F700C1C0C0C0C060C060C064C84
:108F20000C4FF838000000000000000000000000B6
:108F3000000000000000000010001E0018001800D3
:108F40001800180018001800180FD81838303860AA
:108F500018601860186018601860186018203830A1
:108F60007818C807000000000000000000000000A2
:108F700000000000000000000000000000000000F1
:108F80000000000000000000C007700C181818183E
:108F90000C180C000C000C000C000C2018201810F1
:108FA0003008C007000000000000000000000000C2
:108FB00000000000000000000010001E0018001853
:108FC0000018001800180018E01B301C181818189A
:108FD0000C180C180C180C180C180C180818181C65
:108FE000307AE009000000000000000000000000EE
:108FF0000000000000000000000000000000000071
:109000000000000000000000C007300C1818081015
:109010000C300C30FC3F0C000C000C001820181019
:109020007018C007000000000000000000000000F1
:1090300000000000000000000000003E80C380C06F
:10904000C0C0C000C000C000FC1FC000C000C00005
:10905000C000C000C000C000C000C000C000C00010
:10906000C000F80F00000000000000000000000039
:1090700000000000000000000000000000000000F0
:109080000000000000000000C077306C10181818B5
:10909000181818181018300CF00718001800F00FE6
:1090A000F03F08700C600C600C603838E00F000076
:1090B000000000000000000010001E001800180052
:1090C0001800180018001800980FD81838301830F9
:1090D0001830183018301830183018301830183050
:1090E00018307EFC000000000000000000000000BE
:1090F00000000000000000000000800380038003E7
:109100000000000000000001F801800180018001E2
:109110008001800180018001800180018001800147
:109120008001F81F000000000000000000000000A7
:109130000000000000000000000000380038003887
:109140000000000000000010801F00180018001828
:10915000001800180018001800180018001800184F
:109160000018001800180018180C1806F00300006A
:10917000000000000000000010001E001800180091
:109180001800180018001800183E180C18061803CC
:1091900018019801D801380318071806180C181C74
:1091A00018187E7C00000000000000000000000095
:1091B00000000000000000000001F80180018001B3
:1091C0008001800180018001800180018001800197
:1091D0008001800180018001800180018001800187
:1091E0008001F81F000000000000000000000000E7
:1091F000000000000000000000000000000000006F
:109200000000000000000800EE1C9C338C318C3103
:109210008C318C318C318C318C318C318C318C3166
:109220008C31DE7B00000000000000000000000028
:10923000000000000000000000000000000000002E
:1092400000000000000010001E0FD8183830183041
:1092500018301830183018301830183018301830CE
:1092600018307EFC0000000000000000000000003C
:1092700000000000000000000000000000000000EE
:109280000000000000000000C007701C1030183003
:109290000C600C600C600C600C600C6018301830B6
:1092A0003018C007000000000000000000000000AF
:1092B00000000000000000000000000000000000AE
:1092C00000000000000010009E0F581838301820D1
:1092D000186018601860186018601860183038300E
:1092E0007818980718001800180018007E00000071
:1092F000000000000000000000000000000000006E
:109300000000000000000000C023303C1838183076
:109310000C300C300C300C300C300C30083018385D
:10932000303CE033003000300030003000FC000002
:10933000000000000000000000000000000000002D
:1093400000000000000060007E3C60666061E0009C
:10935000E00060006000600060006000600060008D
:109360006000FE0700000000000000000000000098
:1093700000000000000000000000000000000000ED
:109380000000000000000000E027303818301820EE
:1093900018007000E003800F001C043004300C3013
:1093A0001C18EC0F0000000000000000000000008E
:1093B000000000000000000000000000000080002D
:1093C00080008000C000E000FC1FC000C000C000A2
:1093D000C000C000C000C000C000C000C020C0204D
:1093E0008011000F000000000000000000000000DD
:1093F000000000000000000000000000000000006D
:1094000000000000000010201E3C183018301830FA
:109410001830183018301830183018301830183804
:1094200030F4E01300000000000000000000000025
:10943000000000000000000000000000000000002C
:1094400000000000000000007E3C181818083808D2
:1094500030043004700260026002E001C001C0010B
:10946000C0008000000000000000000000000000BC
:1094700000000000000000000000000000000000EC
:109480000000000000000000DFF78E630C238C2337
:109490008C239813981358165816700E700E700E71
:1094A0002004200400000000000000000000000074
:1094B00000000000000000000000000000000000AC
:1094C0000000000000000000FC3E70087004E00492
:1094D000C002C0018003800340076006200C100C0E
:1094E00018183E7E00000000000000000000000090
:1094F000000000000000000000000000000000006C
:1095000000000000000000007E7C181818083008D9
:109510003008300460046004C002C002C002800150
:10952000800180018000800080004C003C00000031
:10953000000000000000000000000000000000002B
:109540000000000000000000FC1F0C0C040E0406CC
:10955000000380038001C000E0007020302038301C
:109560001C18FC1F000000000000000000000000AC
:1095700000000000003000080004000400040004A3
:109580000004000400040004000400040002800140
:1095900000020004000400040004000400040004AD
:1095A0000004000400040004000800300000000172
:1095B00000010001000100010001000100010001A3
:1095C0000001000100010001000100010001000193
:1095D0000001000100010001000100010001000183
:1095E0000001000100010001000100010001000074
:1095F000000000000C0010002000200020002000CF
:1096000020002000200020002000200040008001D9
:10961000400020002000200020002000200020002A
:10962000200020002000200010000C00000000009E
:109630003800C400864002610022001C00000000C7
:10964000000000000000000000000000000000001A
:10965000000000000000000000000000000000000A
:109660000000000000000000000000000000D6D054
:10967000200020002000FE03220222022202FE031C
:109680002202200020002000C9E80000840F880882
:109690008808800840702F00C81F881088080809B3
:1096A000280518020805C0183060B1B82000200055
:1096B000F00F18042602C001380E0770F80F880852
:1096C0008808F80F88088808F80F0808D0C5100225
:1096D0001004D07F080008008C3F0C000A00893F6E
:1096E00008000800883F88208820883F8820CFA273
:1096F00080004000F80F0808F80F0808F80F080865
:10970000F80F08088000102112491248E10F0000EC
:10971000CAFD100492045404107CFF2254229222A9
:10972000112508147F1444084208261418142C220A
:109730004341C1BF0000F80F0808F80F0808FF7F79
:109740000000F80F8808F80F8808F80F8000F80F5D
:109750008000FE3FCEC20000C41F48104810C11F49
:1097600042104210C81F0800E43F27252425242565
:109770002425F47F0000B6C880000001FC7F44046B
:109780004404FC3F44044404C4070400F40F2408C8
:1097900042048203610C1C70B2C90008001FFC0067
:1097A00040008808900810048000FE3FC001A0021D
:1097B00090048808841083608000BCAF9000100182
:1097C000F83F0C01FA1F0901F81F0801F83F880053
:1097D000FF7FA00290048C1883608000BFD808022D
:1097E00008040804C87F5F402829881058200C000E
:1097F0008B3F0804080408040804EA7F0400D6C666
:10980000202024202420FC2522242024FF2720247B
:109810002024FC25242524256421A4202028201090
:10982000D6D000000000000000180000080000086A
:1098300000000800080818F8FF1F18081818081872
:10984000180818180818180818180818F8FF1F081A
:1098500008080008000008000008000008000018C0
:1098600000001800001800000000BFAA000000005F
:1098700000000000000000000000000000000000E8
:109880000000000000FE7F0080FFFF01E0FFFF07F7
:10989000F0FFFF1FFC1FF83FFC03C03FFC00003F30
:1098A0003CF00F3C00FC3F0000FFFF0080FFFF0189
:1098B00080FFFF01801FF8010007E00000000000AA
:1098C00000E0070000F00F0000F00F0000E00700CC
:1098D00000C00300000000000000000000000000C5
:1098E000000000000000000000000000B9D80000E7
:1098F000000000000000000000000000000000C0A8
:10990000030000C0030000DC3B0080DFFB01E0DF60
:10991000FB07F0DFFB0FF8DFFB1FFCC3C33FFEC0FC
:10992000037F7EC0037E1CDC3B3808DFFB1080DF3A
:10993000FB01C0DFFB03C0DFFB0380C7E30100C303
:10994000C30000800100000000000000000000C013
:10995000030000C0030000C0030000C003000000BB
:109960000000000000000000000000000000BCAF8C
:1099700000000000000000060000000F0000000FC3
:109980000000000F0000000F0000000F0000000F9B
:109990000000000F0000000FFEFFFF7FFFFFFFFF32
:1099A000FFFFFFFDFFFFFFFDFFFFFFFDFFFFFFFDCF
:1099B000FFFFFFFDFFFFFFFD8FE3FFFDFFFFFFFD4B
:1099C000FFFFFFFDFFFFFFFDFFFFFFFFFFFFFFFFAB
:1099D000FFFFFFFFFFFFFFFFFEFFFF7FF000000F15
:1099E000F000000FF000000F600000060000000013
:1099F000BFD8000000000000000000066000000F5B
:109A0000F000000FF000FEFFFF7FFFFFFFFFFFFFF2
:109A1000FFFF070000E0070000E0070000E007008C
:109A200000E0F7FFFEEFF7FFFEEFF7FFFEEF0700A6
:109A3000FEEF0700FEEFF7FFFEEFF7FFFEEFF7FF89
:109A4000FEEF070000E0070000E0070000E007006D
:109A500000E07FFFFFFE7FFFFFFEFEFFFF7FF007BE
:109A6000E00FF007E00FF003C00F0000000000005F
:109A700000000000000000000000000000000000E6
:109A800000000000000000000000000000000000D6
:109A9000000000000000000000000000003E000088
:109AA000003F3435363738393A3B3C3D0000000042
:109AB000000000000102030405060708090A0B0C58
:109AC0000D0E0F101112131415161718190000009F
:109AD0000000001A1B1C1D1E1F20212223242526E6
:109AE0002728292A2B2C2D2E2F3031323304000029
:109AF000080000000000000002000100001000004B
:109B00004142434445464748494A4B4C4D4E4F50CD
:109B10005152535455565758595A61626364656699
:109B20006768696A6B6C6D6E6F707172737475764D
:109B30007778797A303132333435363738392B2FDC
:109B400000000000649B000800000020D008000016
:109B50006C01000814A10008D0080020980F000034
:109B6000C80100081123E0031BF8070413EF0314D6
:109B70003CEE035B1CEC0413CC01231C0CA9040B6E
:109B800014FC0D0423FE1D23EF3F23F77F13FF7FFB
:109B90001480FB6F5B80FF04190C2914391C23EF20
:109BA0003D1B7E1F34220F1AF0789122011A820485
:109BB0001A861423C7E713CFE74C80EFEF041AFF90
:109BC0003029042AF804196469042AF60419141ABD
:109BD000F64C1AE0C03119061F787FC0FFFEFF0166
:109BE00019051A7F041B3FFC041011F8FFFF1FF03A
:109BF000FFFF0FE0FFFF0380FFFF011AFE8C5934C7
:109C0000511AC078E90431582318F00F187CFC1F52
:109C10003EFCFE7F3FF87FFE1F701FF806800FF0AE
:109C2000018007E00180C7E30180E304290C2914C7
:109C3000191C19242E0FF87F7E1F34293C29440952
:109C40001A643113302013F0E0101B70C00170C093
:109C50003870FE7FF01B0EFE3E0F70700370B07305
:109C6000F0FF7FF0E113F0701C7C7070D55819760E
:109C7000380E701C07701C0370FC0370C00770E086
:109C80001E7E3838F80F70C6123013C0F113C07141
:109C90002BC03903380FDE1938CEFD7FCE1D0ECE16
:109CA0003D0ECE37030021233307CE7107CE610767
:109CB000FEE103DEC103CCC101C0E103C06107C006
:109CC000391EC01DFCC00F381DFCFFFF0F04231FF1
:109CD0000C6D18FCFF3F040A1538043920492C1C70
:109CE000FF1FF83C012D23E00723F81F23FE7F23ED
:109CF0001F7813EFF0180B80FFE00180FBC001809C
:109D00003F044B1D80041A010C5A03041407E001A0
:109D1000230FF01A1E301A1C044B3C3C44E9042962
:109D20005C6904C17BC00304101960C00306F0C065
:109D3000030FF001801FF0F3CF0FE0FFFF07C0FF1C
:109D4000FF0323FFFF2B7FFC161B01801E480CC066
:109D500007E003DF07E0FBDF03C004190C19882AC2
:109D6000031C15801FF801233FFC237E7CCBFC3FA6
:109D70008441E99801132238A0110CF881C11EF822
:109D800083E11FB083E11D8083E12398194BB81D47
:109D90000463B00D29A079044A7F042AFE04598087
:109DA0002AF0F819E4290401141AF01829AC1AFE53
:109DB000401CFEFF01045A03045A0704391010081E
:109DC00070FCFF01FCFDFF1CFCFB0F5F1FFF07FE8B
:109DD0003FFC1F041A3F049D7FFEFFFF043CFE7FF3
:109DE000FC041AFF1A1FFF3FF83FFF1F0418080F5B
:109DF000F01FFF07C00760114AFEE631321E2AFE3F
:109E00001219A339041AC7B32AC3AC29B412071410
:109E10007EE0472CFEE3C7041A01041A03041B0763
:109E2000FC041580E3C70F100EE0C70F0EC0C31F60
:109E3000FE80811FFE031A3F403904180EFCC70341
:109E40007EC0E3037E80E3477C1E04C0193EE043EE
:109E50007C7E80E17C7E04F07CFE0CF87CFE3CFC89
:109E60007CFE7C787839841A0F041A3F042AFF0498
:109E700029F3198423FF1F1AFC1513E07F1C3EC031
:109E8000FF281904101807FE01FE0FFC03FE3FF81F
:109E900003FE7FF007F0FFF00F80FFE10F14FEC319
:109EA0000F14FCC31F14F8871F180BF0873FF8E04E
:109EB0008F3FFCC10F0448081F3FFE811F3FFC0479
:109EC000E63EF8801F7E180E1C030638FF0F700751
:109ED0000EB0070EC0032010FF0FCE070EFC070EBA
:109EE0007C070E60FF0F601810F00118B0FF3FB83C
:109EF0009B1DBF9B1DBC9B1D095A9C031C7DF0FF35
:109F0000AF711208101C0810FE1F3006082006084A
:109F100080060842FE0F4C060858060848FE0F202F
:109F2000967822201001A010311011311813191C3D
:109F300012091816050812030810010C1001081068
:109F400031C0EF0E4611221010083010F0FF3F1004
:109F5000022810100C03100411100439F0FF071030
:109F60000401031BFC0120100F98FF0718040308CD
:109F7000040108880108D0130460A00A04D8010273
:109F8000067FE20118190B0911030D1508F8FF1FD0
:109F90001B1903F530FEFF7F1320C018132080200B
:109FA00020FF7F20A210203C1FA02411FE251109B4
:109FB000101920300220101220FE3F20100A20FC31
:109FC0001FA0102270FF7F0E9008130805130E02C9
:109FD00016490CC038781A18ADB990180D2018021F
:109FE000401806C018038019010311229816583032
:109FF000FCE70F226349031A61031B208003100D45
:10A000006020C0602060402010C07F0C6A1F8E114D
:10A010001B60600310130620600C3060041063089E
:10A0200008613C88FF03F66010164C601020603E0B
:10A0300020DF0110400888411C7C400608C0031343
:10A0400080211009C321FC30230C182613063C4341
:10A0500001381918290438088083C1018003C0041D
:10A06000111AF86213FE7F68151CFFFF389EFFFF70
:10A0700079DCFFFF3BC0FFFF03E0FFFF0704280977
:10A08000E3FFFFC7F7FFFFEF04290CA91C292C29C8
:10A0900034193C2A3944294C29546960296C69785F
:10A0A000696C1113FFFF280E80FFFF01C01FF8032A
:10A0B000C007E003E006190E200AE001803FF0012E
:10A0C000807FFC1BFCFE2E13FF011BF0BF04220F40
:10A0D00069041AF80423FC3F180F7FFFFFFF7FFE7F
:10A0E000FFFF3FFCFFFF0FF0849123C7E113CFF385
:10A0F000DA80041153C7E3C201129BD20884A24A3A
:10A1000004680901020304060708090C6910050028
:04A110000204060837
:0400000508000131BD
:00000001FF
