Component: ARM Compiler 5.05 update 1 (build 106) Tool: armlink [4d0efa]

==============================================================================

Section Cross References

    main.o(.text) refers to _printf_percent.o(.ARM.Collect$$_printf_percent$$00000000) for _printf_percent
    main.o(.text) refers to _printf_d.o(.ARM.Collect$$_printf_percent$$00000009) for _printf_d
    main.o(.text) refers to _printf_dec.o(.text) for _printf_int_dec
    main.o(.text) refers to nrf24l01_api.o(.text) for SEND_BUF
    main.o(.text) refers to key.o(.text) for KEY_Init
    main.o(.text) refers to led.o(.text) for LED_Init
    main.o(.text) refers to stm32f10x_gpio.o(.text) for GPIO_SetBits
    main.o(.text) refers to oled.o(.text) for OLED_Display_On
    main.o(.text) refers to noretval__2sprintf.o(.text) for __2sprintf
    main.o(.text) refers to dev.o(.text) for show_info
    main.o(.text) refers to delay.o(.text) for delay_ms
    main.o(.text) refers to dht11.o(.text) for DHT11_Read_Data
    main.o(.text) refers to misc.o(.text) for NVIC_PriorityGroupConfig
    main.o(.text) refers to usart.o(.text) for uart_init
    main.o(.text) refers to adc.o(.text) for Adc_Init
    main.o(.text) refers to timer.o(.text) for TIM4_Int_Init
    main.o(.text) refers to stm32f10x_tim.o(.text) for TIM_GetITStatus
    main.o(.text) refers to dev.o(.data) for it
==============================================================================

Removing Unused input sections from the image.

    Removing exti.o(.text), (78 bytes).
    Removing sys.o(.emb_text), (6 bytes).
    Removing sys.o(.text), (12 bytes).
    Removing core_cm3.o(.emb_text), (32 bytes).
    Removing stm32f10x_exti.o(.text), (284 bytes).

5 unused section(s) (total 412 bytes) removed from the image.

==============================================================================

Image Symbol Table

    Local Symbols

    Symbol Name                              Value     Ov Type        Size  Object(Section)

    ../clib/angel/boardlib.s                 0x00000000   Number         0  boardshut.o ABSOLUTE
    ../clib/angel/boardlib.s                 0x00000000   Number         0  boardinit1.o ABSOLUTE
    ../clib/angel/boardlib.s                 0x00000000   Number         0  boardinit2.o ABSOLUTE
    ../clib/angel/boardlib.s                 0x00000000   Number         0  boardinit3.o ABSOLUTE
    ../clib/angel/dczerorl2.s                0x00000000   Number         0  __dczerorl2.o ABSOLUTE
    ../clib/angel/handlers.s                 0x00000000   Number         0  __scatter_zi.o ABSOLUTE
    ../clib/angel/kernel.s                   0x00000000   Number         0  rtexit.o ABSOLUTE
    ../clib/angel/kernel.s                   0x00000000   Number         0  rtexit2.o ABSOLUTE
    ../clib/angel/kernel.s                   0x00000000   Number         0  __rtentry2.o ABSOLUTE
    ../clib/angel/kernel.s                   0x00000000   Number         0  __rtentry4.o ABSOLUTE
    ../clib/angel/kernel.s                   0x00000000   Number         0  __rtentry.o ABSOLUTE
    ../clib/angel/rt.s                       0x00000000   Number         0  rt_raise.o ABSOLUTE
    ../clib/angel/scatter.s                  0x00000000   Number         0  __scatter.o ABSOLUTE
    ../clib/angel/startup.s                  0x00000000   Number         0  __main.o ABSOLUTE
    ../clib/angel/sys.s                      0x00000000   Number         0  indicate_semi.o ABSOLUTE
    ../clib/angel/sys.s                      0x00000000   Number         0  use_no_semi.o ABSOLUTE
    ../clib/angel/sys.s                      0x00000000   Number         0  sys_stackheap_outer.o ABSOLUTE
    ../clib/angel/sys.s                      0x00000000   Number         0  use_no_semi_2.o ABSOLUTE
    ../clib/angel/sys.s                      0x00000000   Number         0  libspace.o ABSOLUTE
    ../clib/angel/sysapp.c                   0x00000000   Number         0  sys_wrch.o ABSOLUTE
    ../clib/angel/sysapp.c                   0x00000000   Number         0  sys_command.o ABSOLUTE
    ../clib/armsys.c                         0x00000000   Number         0  argv_veneer.o ABSOLUTE
    ../clib/armsys.c                         0x00000000   Number         0  argv_veneer.o ABSOLUTE
    ../clib/armsys.c                         0x00000000   Number         0  no_argv.o ABSOLUTE
    ../clib/armsys.c                         0x00000000   Number         0  _get_argv_nomalloc.o ABSOLUTE
    ../clib/heapalloc.c                      0x00000000   Number         0  hrguard.o ABSOLUTE
    ../clib/heapaux.c                        0x00000000   Number         0  heapauxi.o ABSOLUTE
    ../clib/libinit.s                        0x00000000   Number         0  libshutdown2.o ABSOLUTE
    ../clib/libinit.s                        0x00000000   Number         0  libinit2.o ABSOLUTE
    ../clib/libinit.s                        0x00000000   Number         0  libinit.o ABSOLUTE
    ../clib/libinit.s                        0x00000000   Number         0  libshutdown.o ABSOLUTE
    ../clib/printf.c                         0x00000000   Number         0  _printf_intcommon.o ABSOLUTE
    ../clib/printf.c                         0x00000000   Number         0  __printf_flags_ss.o ABSOLUTE
    ../clib/printf.c                         0x00000000   Number         0  __printf_wp.o ABSOLUTE
    ../clib/printf.c                         0x00000000   Number         0  __printf_flags_wp.o ABSOLUTE
    ../clib/printf.c                         0x00000000   Number         0  __printf_ss_wp.o ABSOLUTE
    ../clib/printf.c                         0x00000000   Number         0  __printf_flags_ss_wp.o ABSOLUTE
    ../clib/printf.c                         0x00000000   Number         0  __printf.o ABSOLUTE
    ../clib/printf.c                         0x00000000   Number         0  noretval__2sprintf.o ABSOLUTE
    ../clib/printf.c                         0x00000000   Number         0  __2sprintf.o ABSOLUTE
    ../clib/printf.c                         0x00000000   Number         0  __printf_flags.o ABSOLUTE
    ../clib/printf.c                         0x00000000   Number         0  __printf_nopercent.o ABSOLUTE
    ../clib/printf.c                         0x00000000   Number         0  __printf_ss.o ABSOLUTE
    ../clib/printf.c                         0x00000000   Number         0  _printf_char_common.o ABSOLUTE
    ../clib/printf.c                         0x00000000   Number         0  _printf_dec.o ABSOLUTE
    ../clib/printf.c                         0x00000000   Number         0  _sputc.o ABSOLUTE
    ../clib/printf_percent.s                 0x00000000   Number         0  _printf_d.o ABSOLUTE
    ../clib/printf_percent.s                 0x00000000   Number         0  _printf_percent.o ABSOLUTE
    ../clib/printf_percent.s                 0x00000000   Number         0  _printf_percent_end.o ABSOLUTE
    ../clib/signal.c                         0x00000000   Number         0  defsig_abrt_inner.o ABSOLUTE
    ../clib/signal.c                         0x00000000   Number         0  defsig_general.o ABSOLUTE
    ../clib/signal.c                         0x00000000   Number         0  __raise.o ABSOLUTE
    ../clib/signal.c                         0x00000000   Number         0  defsig_fpe_inner.o ABSOLUTE
    ../clib/signal.c                         0x00000000   Number         0  defsig_pvfn_inner.o ABSOLUTE
    ../clib/signal.c                         0x00000000   Number         0  defsig_cppl_inner.o ABSOLUTE
    ../clib/signal.c                         0x00000000   Number         0  defsig_segv_inner.o ABSOLUTE
    ../clib/signal.c                         0x00000000   Number         0  defsig_other.o ABSOLUTE
    ../clib/signal.c                         0x00000000   Number         0  defsig_stak_inner.o ABSOLUTE
    ../clib/signal.c                         0x00000000   Number         0  defsig_rtmem_outer.o ABSOLUTE
    ../clib/signal.c                         0x00000000   Number         0  defsig_exit.o ABSOLUTE
    ../clib/signal.c                         0x00000000   Number         0  defsig_rtred_inner.o ABSOLUTE
    ../clib/signal.c                         0x00000000   Number         0  defsig_rtmem_formal.o ABSOLUTE
    ../clib/signal.c                         0x00000000   Number         0  defsig_rtmem_inner.o ABSOLUTE
    ../clib/signal.s                         0x00000000   Number         0  defsig.o ABSOLUTE
    ../clib/stdlib.c                         0x00000000   Number         0  exit.o ABSOLUTE
    ../fplib/fpinit.s                        0x00000000   Number         0  fpinit.o ABSOLUTE
    ..\CORE\core_cm3.c                       0x00000000   Number         0  core_cm3.o ABSOLUTE
    ..\CORE\startup_stm32f10x_hd.s           0x00000000   Number         0  startup_stm32f10x_hd.o ABSOLUTE
    ..\HARDWARE\ADC\adc.c                    0x00000000   Number         0  adc.o ABSOLUTE
    ..\HARDWARE\DHT11\dht11.c                0x00000000   Number         0  dht11.o ABSOLUTE
    ..\HARDWARE\EXTI\exti.c                  0x00000000   Number         0  exti.o ABSOLUTE
    ..\HARDWARE\KEY\key.c                    0x00000000   Number         0  key.o ABSOLUTE
    ..\HARDWARE\LED\led.c                    0x00000000   Number         0  led.o ABSOLUTE
    ..\HARDWARE\OLED\oled.c                  0x00000000   Number         0  oled.o ABSOLUTE
    ..\HARDWARE\STMFLASH\stmflash.c          0x00000000   Number         0  stmflash.o ABSOLUTE
    ..\HARDWARE\TIMER\timer.c                0x00000000   Number         0  timer.o ABSOLUTE
    ..\HARDWARE\decive\dev.c                 0x00000000   Number         0  dev.o ABSOLUTE
    ..\HARDWARE\nrf\nRF24L01_API.c           0x00000000   Number         0  nrf24l01_api.o ABSOLUTE
    ..\STM32F10x_FWLib\src\misc.c            0x00000000   Number         0  misc.o ABSOLUTE
    ..\STM32F10x_FWLib\src\stm32f10x_adc.c   0x00000000   Number         0  stm32f10x_adc.o ABSOLUTE
    ..\STM32F10x_FWLib\src\stm32f10x_exti.c  0x00000000   Number         0  stm32f10x_exti.o ABSOLUTE
    ..\STM32F10x_FWLib\src\stm32f10x_flash.c 0x00000000   Number         0  stm32f10x_flash.o ABSOLUTE
    ..\STM32F10x_FWLib\src\stm32f10x_gpio.c  0x00000000   Number         0  stm32f10x_gpio.o ABSOLUTE
    ..\STM32F10x_FWLib\src\stm32f10x_rcc.c   0x00000000   Number         0  stm32f10x_rcc.o ABSOLUTE
    ..\STM32F10x_FWLib\src\stm32f10x_tim.c   0x00000000   Number         0  stm32f10x_tim.o ABSOLUTE
    ..\STM32F10x_FWLib\src\stm32f10x_usart.c 0x00000000   Number         0  stm32f10x_usart.o ABSOLUTE
    ..\SYSTEM\delay\delay.c                  0x00000000   Number         0  delay.o ABSOLUTE
    ..\SYSTEM\sys\sys.c                      0x00000000   Number         0  sys.o ABSOLUTE
    ..\SYSTEM\usart\usart.c                  0x00000000   Number         0  usart.o ABSOLUTE
    ..\\CORE\\core_cm3.c                     0x00000000   Number         0  core_cm3.o ABSOLUTE
    ..\\SYSTEM\\sys\\sys.c                   0x00000000   Number         0  sys.o ABSOLUTE
    dc.s                                     0x00000000   Number         0  dc.o ABSOLUTE
    main.c                                   0x00000000   Number         0  main.o ABSOLUTE
    stm32f10x_it.c                           0x00000000   Number         0  stm32f10x_it.o ABSOLUTE
    system_stm32f10x.c                       0x00000000   Number         0  system_stm32f10x.o ABSOLUTE
    RESET                                    0x08000000   Section      304  startup_stm32f10x_hd.o(RESET)
    !!!main                                  0x08000130   Section        8  __main.o(!!!main)
    !!!scatter                               0x08000138   Section       52  __scatter.o(!!!scatter)
    !!dczerorl2                              0x0800016c   Section       90  __dczerorl2.o(!!dczerorl2)
    !!handler_zi                             0x080001c8   Section       28  __scatter_zi.o(!!handler_zi)
    .ARM.Collect$$_printf_percent$$00000000  0x080001e4   Section        0  _printf_percent.o(.ARM.Collect$$_printf_percent$$00000000)
    .ARM.Collect$$_printf_percent$$00000009  0x080001e4   Section        6  _printf_d.o(.ARM.Collect$$_printf_percent$$00000009)
    .ARM.Collect$$_printf_percent$$00000017  0x080001ea   Section        4  _printf_percent_end.o(.ARM.Collect$$_printf_percent$$00000017)
    .ARM.Collect$$libinit$$00000000          0x080001ee   Section        2  libinit.o(.ARM.Collect$$libinit$$00000000)
    .ARM.Collect$$libinit$$00000002          0x080001f0   Section        0  libinit2.o(.ARM.Collect$$libinit$$00000002)
    .ARM.Collect$$libinit$$00000004          0x080001f0   Section        0  libinit2.o(.ARM.Collect$$libinit$$00000004)
    .ARM.Collect$$libinit$$0000000A          0x080001f0   Section        0  libinit2.o(.ARM.Collect$$libinit$$0000000A)
    .ARM.Collect$$libinit$$0000000C          0x080001f0   Section        0  libinit2.o(.ARM.Collect$$libinit$$0000000C)
    .ARM.Collect$$libinit$$0000000E          0x080001f0   Section        0  libinit2.o(.ARM.Collect$$libinit$$0000000E)
    .ARM.Collect$$libinit$$00000011          0x080001f0   Section        0  libinit2.o(.ARM.Collect$$libinit$$00000011)
    .ARM.Collect$$libinit$$00000013          0x080001f0   Section        0  libinit2.o(.ARM.Collect$$libinit$$00000013)
    .ARM.Collect$$libinit$$00000015          0x080001f0   Section        0  libinit2.o(.ARM.Collect$$libinit$$00000015)
    .ARM.Collect$$libinit$$00000017          0x080001f0   Section        0  libinit2.o(.ARM.Collect$$libinit$$00000017)
    .ARM.Collect$$libinit$$00000019          0x080001f0   Section        0  libinit2.o(.ARM.Collect$$libinit$$00000019)
    .ARM.Collect$$libinit$$0000001B          0x080001f0   Section        0  libinit2.o(.ARM.Collect$$libinit$$0000001B)
    .ARM.Collect$$libinit$$0000001D          0x080001f0   Section        0  libinit2.o(.ARM.Collect$$libinit$$0000001D)
    .ARM.Collect$$libinit$$0000001F          0x080001f0   Section        0  libinit2.o(.ARM.Collect$$libinit$$0000001F)
    .ARM.Collect$$libinit$$00000021          0x080001f0   Section        0  libinit2.o(.ARM.Collect$$libinit$$00000021)
    .ARM.Collect$$libinit$$00000023          0x080001f0   Section        0  libinit2.o(.ARM.Collect$$libinit$$00000023)
    .ARM.Collect$$libinit$$00000025          0x080001f0   Section        0  libinit2.o(.ARM.Collect$$libinit$$00000025)
    .ARM.Collect$$libinit$$0000002C          0x080001f0   Section        0  libinit2.o(.ARM.Collect$$libinit$$0000002C)
    .ARM.Collect$$libinit$$0000002E          0x080001f0   Section        0  libinit2.o(.ARM.Collect$$libinit$$0000002E)
    .ARM.Collect$$libinit$$00000030          0x080001f0   Section        0  libinit2.o(.ARM.Collect$$libinit$$00000030)
    .ARM.Collect$$libinit$$00000032          0x080001f0   Section        0  libinit2.o(.ARM.Collect$$libinit$$00000032)
    .ARM.Collect$$libinit$$00000033          0x080001f0   Section        2  libinit2.o(.ARM.Collect$$libinit$$00000033)
    .ARM.Collect$$libshutdown$$00000000      0x080001f2   Section        2  libshutdown.o(.ARM.Collect$$libshutdown$$00000000)
    .ARM.Collect$$libshutdown$$00000003      0x080001f4   Section        0  libshutdown2.o(.ARM.Collect$$libshutdown$$00000003)
    .ARM.Collect$$libshutdown$$00000006      0x080001f4   Section        0  libshutdown2.o(.ARM.Collect$$libshutdown$$00000006)
    .ARM.Collect$$libshutdown$$00000009      0x080001f4   Section        0  libshutdown2.o(.ARM.Collect$$libshutdown$$00000009)
    .ARM.Collect$$libshutdown$$0000000B      0x080001f4   Section        0  libshutdown2.o(.ARM.Collect$$libshutdown$$0000000B)
    .ARM.Collect$$libshutdown$$0000000E      0x080001f4   Section        0  libshutdown2.o(.ARM.Collect$$libshutdown$$0000000E)
    .ARM.Collect$$libshutdown$$0000000F      0x080001f4   Section        2  libshutdown2.o(.ARM.Collect$$libshutdown$$0000000F)
    .ARM.Collect$$rtentry$$00000000          0x080001f6   Section        0  __rtentry.o(.ARM.Collect$$rtentry$$00000000)
    .ARM.Collect$$rtentry$$00000002          0x080001f6   Section        0  __rtentry2.o(.ARM.Collect$$rtentry$$00000002)
    .ARM.Collect$$rtentry$$00000004          0x080001f6   Section        6  __rtentry4.o(.ARM.Collect$$rtentry$$00000004)
    .ARM.Collect$$rtentry$$00000009          0x080001fc   Section        0  __rtentry2.o(.ARM.Collect$$rtentry$$00000009)
    .ARM.Collect$$rtentry$$0000000A          0x080001fc   Section        4  __rtentry2.o(.ARM.Collect$$rtentry$$0000000A)
    .ARM.Collect$$rtentry$$0000000C          0x08000200   Section        0  __rtentry2.o(.ARM.Collect$$rtentry$$0000000C)
    .ARM.Collect$$rtentry$$0000000D          0x08000200   Section        8  __rtentry2.o(.ARM.Collect$$rtentry$$0000000D)
    .ARM.Collect$$rtexit$$00000000           0x08000208   Section        2  rtexit.o(.ARM.Collect$$rtexit$$00000000)
    .ARM.Collect$$rtexit$$00000002           0x0800020a   Section        0  rtexit2.o(.ARM.Collect$$rtexit$$00000002)
    .ARM.Collect$$rtexit$$00000003           0x0800020a   Section        4  rtexit2.o(.ARM.Collect$$rtexit$$00000003)
    .ARM.Collect$$rtexit$$00000004           0x0800020e   Section        6  rtexit2.o(.ARM.Collect$$rtexit$$00000004)
    .text                                    0x08000214   Section        0  main.o(.text)
    .text                                    0x08000700   Section        0  nrf24l01_api.o(.text)
    .text                                    0x08000a84   Section        0  timer.o(.text)
    .text                                    0x08000c40   Section        0  dht11.o(.text)
    .text                                    0x08000de0   Section        0  oled.o(.text)
    .text                                    0x08001400   Section        0  led.o(.text)
    .text                                    0x08001438   Section        0  key.o(.text)
    .text                                    0x080014b8   Section        0  stmflash.o(.text)
    .text                                    0x080015fc   Section        0  adc.o(.text)
    .text                                    0x080016e4   Section        0  dev.o(.text)
    .text                                    0x08001868   Section        0  delay.o(.text)
    .text                                    0x0800193c   Section        0  usart.o(.text)
    .text                                    0x08001a98   Section       64  startup_stm32f10x_hd.o(.text)
    .text                                    0x08001ad8   Section        0  stm32f10x_it.o(.text)
    .text                                    0x08001af4   Section        0  system_stm32f10x.o(.text)
    SetSysClockTo72                          0x08001af5   Thumb Code   214  system_stm32f10x.o(.text)
    SetSysClock                              0x08001bcb   Thumb Code     8  system_stm32f10x.o(.text)
    .text                                    0x08001cd4   Section        0  stm32f10x_tim.o(.text)
    TI4_Config                               0x0800217b   Thumb Code   130  stm32f10x_tim.o(.text)
    TI3_Config                               0x0800220f   Thumb Code   122  stm32f10x_tim.o(.text)
    TI2_Config                               0x080022a3   Thumb Code   130  stm32f10x_tim.o(.text)
    TI1_Config                               0x08002337   Thumb Code   108  stm32f10x_tim.o(.text)
    .text                                    0x08002af0   Section        0  misc.o(.text)
    .text                                    0x08002bcc   Section        0  stm32f10x_gpio.o(.text)
    .text                                    0x08002f28   Section        0  stm32f10x_rcc.o(.text)
    .text                                    0x080032cc   Section        0  stm32f10x_usart.o(.text)
    .text                                    0x080036d4   Section        0  stm32f10x_flash.o(.text)
    .text                                    0x08003c90   Section        0  stm32f10x_adc.o(.text)
    .text                                    0x080040de   Section        2  use_no_semi_2.o(.text)
    .text                                    0x080040e0   Section        0  noretval__2sprintf.o(.text)
    .text                                    0x08004108   Section        0  __printf.o(.text)
    .text                                    0x08004170   Section        0  _printf_dec.o(.text)
    .text                                    0x080041e8   Section        0  heapauxi.o(.text)
    .text                                    0x080041ee   Section        2  use_no_semi.o(.text)
    .text                                    0x080041f0   Section        0  _printf_intcommon.o(.text)
    .text                                    0x080042a4   Section        0  _printf_char_common.o(.text)
    _printf_input_char                       0x080042a5   Thumb Code    10  _printf_char_common.o(.text)
    .text                                    0x080042d4   Section        0  _sputc.o(.text)
    .text                                    0x080042de   Section       74  sys_stackheap_outer.o(.text)
    .text                                    0x08004328   Section        0  exit.o(.text)
    .text                                    0x08004334   Section        8  libspace.o(.text)
    .constdata                               0x0800433c   Section      352  main.o(.constdata)
    .constdata                               0x0800449c   Section       10  nrf24l01_api.o(.constdata)
    .constdata                               0x080044a6   Section     2072  oled.o(.constdata)
    .data                                    0x20000000   Section       16  main.o(.data)
    .data                                    0x20000010   Section      320  oled.o(.data)
    .data                                    0x20000150   Section        1  key.o(.data)
    key_up                                   0x20000150   Data           1  key.o(.data)
    .data                                    0x20000154   Section        4  dev.o(.data)
    .data                                    0x20000158   Section        4  delay.o(.data)
    fac_us                                   0x20000158   Data           1  delay.o(.data)
    fac_ms                                   0x2000015a   Data           2  delay.o(.data)
    .data                                    0x2000015c   Section       50  usart.o(.data)
    .data                                    0x20000190   Section       20  system_stm32f10x.o(.data)
    .data                                    0x200001a4   Section       20  stm32f10x_rcc.o(.data)
    APBAHBPrescTable                         0x200001a4   Data          16  stm32f10x_rcc.o(.data)
    ADCPrescTable                            0x200001b4   Data           4  stm32f10x_rcc.o(.data)
    .bss                                     0x200001b8   Section       64  main.o(.bss)
    .bss                                     0x200001f8   Section     2048  stmflash.o(.bss)
    .bss                                     0x200009f8   Section      200  usart.o(.bss)
    .bss                                     0x20000ac0   Section       96  libspace.o(.bss)
    HEAP                                     0x20000b20   Section      512  startup_stm32f10x_hd.o(HEAP)
    Heap_Mem                                 0x20000b20   Data         512  startup_stm32f10x_hd.o(HEAP)
    STACK                                    0x20000d20   Section     1024  startup_stm32f10x_hd.o(STACK)
    Stack_Mem                                0x20000d20   Data        1024  startup_stm32f10x_hd.o(STACK)
    __initial_sp                             0x20001120   Data           0  startup_stm32f10x_hd.o(STACK)

    Global Symbols

    Symbol Name                              Value     Ov Type        Size  Object(Section)

    BuildAttributes$$THM_ISAv4$P$D$K$B$S$PE$A:L22UL41UL21$X:L11$S22US41US21$IEEE1$IW$USESV6$~STKCKD$USESV7$~SHL$OSPACE$ROPI$EBA8$UX$STANDARDLIB$REQ8$PRES8$EABIv2 0x00000000   Number         0  anon$$obj.o ABSOLUTE
    __ARM_use_no_argv                        0x00000000   Number         0  main.o ABSOLUTE
    __ARM_exceptions_init                     - Undefined Weak Reference
    __alloca_initialize                       - Undefined Weak Reference
    __arm_preinit_                            - Undefined Weak Reference
    __cpp_initialize__aeabi_                  - Undefined Weak Reference
    __cxa_finalize                            - Undefined Weak Reference
    __rt_locale                               - Undefined Weak Reference
    __sigvec_lookup                           - Undefined Weak Reference
    _atexit_init                              - Undefined Weak Reference
    _call_atexit_fns                          - Undefined Weak Reference
    _clock_init                               - Undefined Weak Reference
    _fp_trap_init                             - Undefined Weak Reference
    _fp_trap_shutdown                         - Undefined Weak Reference
    _get_lc_collate                           - Undefined Weak Reference
    _get_lc_ctype                             - Undefined Weak Reference
    _get_lc_monetary                          - Undefined Weak Reference
    _get_lc_numeric                           - Undefined Weak Reference
    _get_lc_time                              - Undefined Weak Reference
    _getenv_init                              - Undefined Weak Reference
    _handle_redirection                       - Undefined Weak Reference
    _init_alloc                               - Undefined Weak Reference
    _init_user_alloc                          - Undefined Weak Reference
    _initio                                   - Undefined Weak Reference
    _printf_post_padding                      - Undefined Weak Reference
    _printf_pre_padding                       - Undefined Weak Reference
    _printf_truncate_signed                   - Undefined Weak Reference
    _printf_truncate_unsigned                 - Undefined Weak Reference
    _rand_init                                - Undefined Weak Reference
    _signal_finish                            - Undefined Weak Reference
    _signal_init                              - Undefined Weak Reference
    _terminate_alloc                          - Undefined Weak Reference
    _terminate_user_alloc                     - Undefined Weak Reference
    _terminateio                              - Undefined Weak Reference
    __Vectors_Size                           0x00000130   Number         0  startup_stm32f10x_hd.o ABSOLUTE
    __Vectors                                0x08000000   Data           4  startup_stm32f10x_hd.o(RESET)
    __Vectors_End                            0x08000130   Data           0  startup_stm32f10x_hd.o(RESET)
    __main                                   0x08000131   Thumb Code     8  __main.o(!!!main)
    __scatterload                            0x08000139   Thumb Code     0  __scatter.o(!!!scatter)
    __scatterload_rt2                        0x08000139   Thumb Code    44  __scatter.o(!!!scatter)
    __scatterload_rt2_thumb_only             0x08000139   Thumb Code     0  __scatter.o(!!!scatter)
    __scatterload_null                       0x08000147   Thumb Code     0  __scatter.o(!!!scatter)
    __decompress                             0x0800016d   Thumb Code    90  __dczerorl2.o(!!dczerorl2)
    __decompress1                            0x0800016d   Thumb Code     0  __dczerorl2.o(!!dczerorl2)
    __scatterload_zeroinit                   0x080001c9   Thumb Code    28  __scatter_zi.o(!!handler_zi)
    _printf_d                                0x080001e5   Thumb Code     0  _printf_d.o(.ARM.Collect$$_printf_percent$$00000009)
    _printf_percent                          0x080001e5   Thumb Code     0  _printf_percent.o(.ARM.Collect$$_printf_percent$$00000000)
    _printf_percent_end                      0x080001eb   Thumb Code     0  _printf_percent_end.o(.ARM.Collect$$_printf_percent$$00000017)
    __rt_lib_init                            0x080001ef   Thumb Code     0  libinit.o(.ARM.Collect$$libinit$$00000000)
    __rt_lib_init_alloca_1                   0x080001f1   Thumb Code     0  libinit2.o(.ARM.Collect$$libinit$$0000002E)
    __rt_lib_init_argv_1                     0x080001f1   Thumb Code     0  libinit2.o(.ARM.Collect$$libinit$$0000002C)
    __rt_lib_init_atexit_1                   0x080001f1   Thumb Code     0  libinit2.o(.ARM.Collect$$libinit$$0000001B)
    __rt_lib_init_clock_1                    0x080001f1   Thumb Code     0  libinit2.o(.ARM.Collect$$libinit$$00000021)
    __rt_lib_init_cpp_1                      0x080001f1   Thumb Code     0  libinit2.o(.ARM.Collect$$libinit$$00000032)
    __rt_lib_init_exceptions_1               0x080001f1   Thumb Code     0  libinit2.o(.ARM.Collect$$libinit$$00000030)
    __rt_lib_init_fp_1                       0x080001f1   Thumb Code     0  libinit2.o(.ARM.Collect$$libinit$$00000002)
    __rt_lib_init_fp_trap_1                  0x080001f1   Thumb Code     0  libinit2.o(.ARM.Collect$$libinit$$0000001F)
    __rt_lib_init_getenv_1                   0x080001f1   Thumb Code     0  libinit2.o(.ARM.Collect$$libinit$$00000023)
    __rt_lib_init_heap_1                     0x080001f1   Thumb Code     0  libinit2.o(.ARM.Collect$$libinit$$0000000A)
    __rt_lib_init_lc_collate_1               0x080001f1   Thumb Code     0  libinit2.o(.ARM.Collect$$libinit$$00000011)
    __rt_lib_init_lc_ctype_1                 0x080001f1   Thumb Code     0  libinit2.o(.ARM.Collect$$libinit$$00000013)
    __rt_lib_init_lc_monetary_1              0x080001f1   Thumb Code     0  libinit2.o(.ARM.Collect$$libinit$$00000015)
    __rt_lib_init_lc_numeric_1               0x080001f1   Thumb Code     0  libinit2.o(.ARM.Collect$$libinit$$00000017)
    __rt_lib_init_lc_time_1                  0x080001f1   Thumb Code     0  libinit2.o(.ARM.Collect$$libinit$$00000019)
    __rt_lib_init_preinit_1                  0x080001f1   Thumb Code     0  libinit2.o(.ARM.Collect$$libinit$$00000004)
    __rt_lib_init_rand_1                     0x080001f1   Thumb Code     0  libinit2.o(.ARM.Collect$$libinit$$0000000E)
    __rt_lib_init_return                     0x080001f1   Thumb Code     0  libinit2.o(.ARM.Collect$$libinit$$00000033)
    __rt_lib_init_signal_1                   0x080001f1   Thumb Code     0  libinit2.o(.ARM.Collect$$libinit$$0000001D)
    __rt_lib_init_stdio_1                    0x080001f1   Thumb Code     0  libinit2.o(.ARM.Collect$$libinit$$00000025)
    __rt_lib_init_user_alloc_1               0x080001f1   Thumb Code     0  libinit2.o(.ARM.Collect$$libinit$$0000000C)
    __rt_lib_shutdown                        0x080001f3   Thumb Code     0  libshutdown.o(.ARM.Collect$$libshutdown$$00000000)
    __rt_lib_shutdown_fp_trap_1              0x080001f5   Thumb Code     0  libshutdown2.o(.ARM.Collect$$libshutdown$$00000006)
    __rt_lib_shutdown_heap_1                 0x080001f5   Thumb Code     0  libshutdown2.o(.ARM.Collect$$libshutdown$$0000000E)
    __rt_lib_shutdown_return                 0x080001f5   Thumb Code     0  libshutdown2.o(.ARM.Collect$$libshutdown$$0000000F)
    __rt_lib_shutdown_signal_1               0x080001f5   Thumb Code     0  libshutdown2.o(.ARM.Collect$$libshutdown$$00000009)
    __rt_lib_shutdown_stdio_1                0x080001f5   Thumb Code     0  libshutdown2.o(.ARM.Collect$$libshutdown$$00000003)
    __rt_lib_shutdown_user_alloc_1           0x080001f5   Thumb Code     0  libshutdown2.o(.ARM.Collect$$libshutdown$$0000000B)
    __rt_entry                               0x080001f7   Thumb Code     0  __rtentry.o(.ARM.Collect$$rtentry$$00000000)
    __rt_entry_presh_1                       0x080001f7   Thumb Code     0  __rtentry2.o(.ARM.Collect$$rtentry$$00000002)
    __rt_entry_sh                            0x080001f7   Thumb Code     0  __rtentry4.o(.ARM.Collect$$rtentry$$00000004)
    __rt_entry_li                            0x080001fd   Thumb Code     0  __rtentry2.o(.ARM.Collect$$rtentry$$0000000A)
    __rt_entry_postsh_1                      0x080001fd   Thumb Code     0  __rtentry2.o(.ARM.Collect$$rtentry$$00000009)
    __rt_entry_main                          0x08000201   Thumb Code     0  __rtentry2.o(.ARM.Collect$$rtentry$$0000000D)
    __rt_entry_postli_1                      0x08000201   Thumb Code     0  __rtentry2.o(.ARM.Collect$$rtentry$$0000000C)
    __rt_exit                                0x08000209   Thumb Code     0  rtexit.o(.ARM.Collect$$rtexit$$00000000)
    __rt_exit_ls                             0x0800020b   Thumb Code     0  rtexit2.o(.ARM.Collect$$rtexit$$00000003)
    __rt_exit_prels_1                        0x0800020b   Thumb Code     0  rtexit2.o(.ARM.Collect$$rtexit$$00000002)
    __rt_exit_exit                           0x0800020f   Thumb Code     0  rtexit2.o(.ARM.Collect$$rtexit$$00000004)
    nrf_send                                 0x08000215   Thumb Code    94  main.o(.text)
    gpio_init                                0x08000273   Thumb Code    36  main.o(.text)
    oled_show                                0x08000297   Thumb Code   210  main.o(.text)
    match                                    0x08000369   Thumb Code    10  main.o(.text)
    event_nrf                                0x08000373   Thumb Code   146  main.o(.text)
    event_time                               0x08000405   Thumb Code   156  main.o(.text)
    event_key                                0x080004a1   Thumb Code    48  main.o(.text)
    main                                     0x080004d1   Thumb Code   216  main.o(.text)
    TIM4_IRQHandler                          0x080005a9   Thumb Code   330  main.o(.text)
    SPI_GPIO_Init                            0x08000701   Thumb Code   114  nrf24l01_api.o(.text)
    delay_150us                              0x08000773   Thumb Code    14  nrf24l01_api.o(.text)
    SPI_RW                                   0x08000781   Thumb Code    62  nrf24l01_api.o(.text)
    NRF24L01_Write_Reg                       0x080007bf   Thumb Code    40  nrf24l01_api.o(.text)
    NRF24L01_Read_Reg                        0x080007e7   Thumb Code    38  nrf24l01_api.o(.text)
    NRF24L01_Read_Buf                        0x0800080d   Thumb Code    60  nrf24l01_api.o(.text)
    NRF24L01_Write_Buf                       0x08000849   Thumb Code    60  nrf24l01_api.o(.text)
    NRF24L01_RxPacket                        0x08000885   Thumb Code    72  nrf24l01_api.o(.text)
    NRF24L01_TxPacket                        0x080008cd   Thumb Code    88  nrf24l01_api.o(.text)
    NRF24L01_Check                           0x08000925   Thumb Code   108  nrf24l01_api.o(.text)
    change_ch                                0x08000991   Thumb Code    34  nrf24l01_api.o(.text)
    NRF24L01_RT_Init                         0x080009b3   Thumb Code   104  nrf24l01_api.o(.text)
    SEND_BUF                                 0x08000a1b   Thumb Code    66  nrf24l01_api.o(.text)
    TIM2_Int_Init                            0x08000a85   Thumb Code    90  timer.o(.text)
    TIM3_PWM_Init                            0x08000adf   Thumb Code   146  timer.o(.text)
    TIM4_Int_Init                            0x08000b71   Thumb Code    88  timer.o(.text)
    TIM3_Int_Init                            0x08000bc9   Thumb Code   102  timer.o(.text)
    DHT11_Rst                                0x08000c41   Thumb Code    52  dht11.o(.text)
    DHT11_Check                              0x08000c75   Thumb Code    96  dht11.o(.text)
    DHT11_Read_Bit                           0x08000cd5   Thumb Code    76  dht11.o(.text)
    DHT11_Read_Byte                          0x08000d21   Thumb Code    30  dht11.o(.text)
    DHT11_Read_Data                          0x08000d3f   Thumb Code    88  dht11.o(.text)
    DHT11_Init                               0x08000d97   Thumb Code    62  dht11.o(.text)
    OLED_WR_Byte                             0x08000de1   Thumb Code   112  oled.o(.text)
    OLED_Set_Pos                             0x08000e51   Thumb Code    46  oled.o(.text)
    OLED_Display_On                          0x08000e7f   Thumb Code    28  oled.o(.text)
    OLED_Display_Off                         0x08000e9b   Thumb Code    28  oled.o(.text)
    OLED_Clear                               0x08000eb7   Thumb Code    64  oled.o(.text)
    OLED_Clear_menu                          0x08000ef7   Thumb Code    64  oled.o(.text)
    OLED_ShowChar                            0x08000f37   Thumb Code   106  oled.o(.text)
    oled_pow                                 0x08000fa1   Thumb Code    22  oled.o(.text)
    OLED_ShowNum                             0x08000fb7   Thumb Code   132  oled.o(.text)
    OLED_ShowString                          0x0800103b   Thumb Code    58  oled.o(.text)
    OLED_ShowCHinese                         0x08001075   Thumb Code    98  oled.o(.text)
    OLED_DrawBMP                             0x080010d7   Thumb Code   124  oled.o(.text)
    OLED_DrawPoint                           0x08001153   Thumb Code   104  oled.o(.text)
    show16                                   0x080011bb   Thumb Code    84  oled.o(.text)
    show32                                   0x0800120f   Thumb Code   132  oled.o(.text)
    OLED_Init                                0x08001293   Thumb Code   354  oled.o(.text)
    LED_Init                                 0x08001401   Thumb Code    50  led.o(.text)
    KEY_Init                                 0x08001439   Thumb Code    34  key.o(.text)
    KEY_Scan                                 0x0800145b   Thumb Code    80  key.o(.text)
    STMFLASH_ReadHalfWord                    0x080014b9   Thumb Code     6  stmflash.o(.text)
    STMFLASH_Write_NoCheck                   0x080014bf   Thumb Code    38  stmflash.o(.text)
    STMFLASH_Read                            0x080014e5   Thumb Code    34  stmflash.o(.text)
    STMFLASH_Write                           0x08001507   Thumb Code   222  stmflash.o(.text)
    Test_Write                               0x080015e5   Thumb Code    16  stmflash.o(.text)
    Adc_Init                                 0x080015fd   Thumb Code   132  adc.o(.text)
    Get_Adc                                  0x08001681   Thumb Code    46  adc.o(.text)
    Get_Adc_Average                          0x080016af   Thumb Code    46  adc.o(.text)
    save_sendtime                            0x080016e5   Thumb Code    24  dev.o(.text)
    show_info                                0x080016fd   Thumb Code   126  dev.o(.text)
    sys_info_init                            0x0800177b   Thumb Code   162  dev.o(.text)
    delay_init                               0x08001869   Thumb Code    50  delay.o(.text)
    delay_us                                 0x0800189b   Thumb Code    72  delay.o(.text)
    delay_ms                                 0x080018e3   Thumb Code    72  delay.o(.text)
    _sys_exit                                0x0800193d   Thumb Code     6  usart.o(.text)
    fputc                                    0x08001943   Thumb Code    24  usart.o(.text)
    uart_init                                0x0800195b   Thumb Code   174  usart.o(.text)
    USART2_IRQHandler                        0x08001a09   Thumb Code   122  usart.o(.text)
    Reset_Handler                            0x08001a99   Thumb Code     8  startup_stm32f10x_hd.o(.text)
    ADC1_2_IRQHandler                        0x08001ab3   Thumb Code     0  startup_stm32f10x_hd.o(.text)
    ADC3_IRQHandler                          0x08001ab3   Thumb Code     0  startup_stm32f10x_hd.o(.text)
    CAN1_RX1_IRQHandler                      0x08001ab3   Thumb Code     0  startup_stm32f10x_hd.o(.text)
    CAN1_SCE_IRQHandler                      0x08001ab3   Thumb Code     0  startup_stm32f10x_hd.o(.text)
    DMA1_Channel1_IRQHandler                 0x08001ab3   Thumb Code     0  startup_stm32f10x_hd.o(.text)
    DMA1_Channel2_IRQHandler                 0x08001ab3   Thumb Code     0  startup_stm32f10x_hd.o(.text)
    DMA1_Channel3_IRQHandler                 0x08001ab3   Thumb Code     0  startup_stm32f10x_hd.o(.text)
    DMA1_Channel4_IRQHandler                 0x08001ab3   Thumb Code     0  startup_stm32f10x_hd.o(.text)
    DMA1_Channel5_IRQHandler                 0x08001ab3   Thumb Code     0  startup_stm32f10x_hd.o(.text)
    DMA1_Channel6_IRQHandler                 0x08001ab3   Thumb Code     0  startup_stm32f10x_hd.o(.text)
    DMA1_Channel7_IRQHandler                 0x08001ab3   Thumb Code     0  startup_stm32f10x_hd.o(.text)
    DMA2_Channel1_IRQHandler                 0x08001ab3   Thumb Code     0  startup_stm32f10x_hd.o(.text)
    DMA2_Channel2_IRQHandler                 0x08001ab3   Thumb Code     0  startup_stm32f10x_hd.o(.text)
    DMA2_Channel3_IRQHandler                 0x08001ab3   Thumb Code     0  startup_stm32f10x_hd.o(.text)
    DMA2_Channel4_5_IRQHandler               0x08001ab3   Thumb Code     0  startup_stm32f10x_hd.o(.text)
    EXTI0_IRQHandler                         0x08001ab3   Thumb Code     0  startup_stm32f10x_hd.o(.text)
    EXTI15_10_IRQHandler                     0x08001ab3   Thumb Code     0  startup_stm32f10x_hd.o(.text)
    EXTI1_IRQHandler                         0x08001ab3   Thumb Code     0  startup_stm32f10x_hd.o(.text)
    EXTI2_IRQHandler                         0x08001ab3   Thumb Code     0  startup_stm32f10x_hd.o(.text)
    EXTI3_IRQHandler                         0x08001ab3   Thumb Code     0  startup_stm32f10x_hd.o(.text)
    EXTI4_IRQHandler                         0x08001ab3   Thumb Code     0  startup_stm32f10x_hd.o(.text)
    EXTI9_5_IRQHandler                       0x08001ab3   Thumb Code     0  startup_stm32f10x_hd.o(.text)
    FLASH_IRQHandler                         0x08001ab3   Thumb Code     0  startup_stm32f10x_hd.o(.text)
    FSMC_IRQHandler                          0x08001ab3   Thumb Code     0  startup_stm32f10x_hd.o(.text)
    I2C1_ER_IRQHandler                       0x08001ab3   Thumb Code     0  startup_stm32f10x_hd.o(.text)
    I2C1_EV_IRQHandler                       0x08001ab3   Thumb Code     0  startup_stm32f10x_hd.o(.text)
    I2C2_ER_IRQHandler                       0x08001ab3   Thumb Code     0  startup_stm32f10x_hd.o(.text)
    I2C2_EV_IRQHandler                       0x08001ab3   Thumb Code     0  startup_stm32f10x_hd.o(.text)
    PVD_IRQHandler                           0x08001ab3   Thumb Code     0  startup_stm32f10x_hd.o(.text)
    RCC_IRQHandler                           0x08001ab3   Thumb Code     0  startup_stm32f10x_hd.o(.text)
    RTCAlarm_IRQHandler                      0x08001ab3   Thumb Code     0  startup_stm32f10x_hd.o(.text)
    RTC_IRQHandler                           0x08001ab3   Thumb Code     0  startup_stm32f10x_hd.o(.text)
    SDIO_IRQHandler                          0x08001ab3   Thumb Code     0  startup_stm32f10x_hd.o(.text)
    SPI1_IRQHandler                          0x08001ab3   Thumb Code     0  startup_stm32f10x_hd.o(.text)
    SPI2_IRQHandler                          0x08001ab3   Thumb Code     0  startup_stm32f10x_hd.o(.text)
    SPI3_IRQHandler                          0x08001ab3   Thumb Code     0  startup_stm32f10x_hd.o(.text)
    TAMPER_IRQHandler                        0x08001ab3   Thumb Code     0  startup_stm32f10x_hd.o(.text)
    TIM1_BRK_IRQHandler                      0x08001ab3   Thumb Code     0  startup_stm32f10x_hd.o(.text)
    TIM1_CC_IRQHandler                       0x08001ab3   Thumb Code     0  startup_stm32f10x_hd.o(.text)
    TIM1_TRG_COM_IRQHandler                  0x08001ab3   Thumb Code     0  startup_stm32f10x_hd.o(.text)
    TIM1_UP_IRQHandler                       0x08001ab3   Thumb Code     0  startup_stm32f10x_hd.o(.text)
    TIM2_IRQHandler                          0x08001ab3   Thumb Code     0  startup_stm32f10x_hd.o(.text)
    TIM3_IRQHandler                          0x08001ab3   Thumb Code     0  startup_stm32f10x_hd.o(.text)
    TIM5_IRQHandler                          0x08001ab3   Thumb Code     0  startup_stm32f10x_hd.o(.text)
    TIM6_IRQHandler                          0x08001ab3   Thumb Code     0  startup_stm32f10x_hd.o(.text)
    TIM7_IRQHandler                          0x08001ab3   Thumb Code     0  startup_stm32f10x_hd.o(.text)
    TIM8_BRK_IRQHandler                      0x08001ab3   Thumb Code     0  startup_stm32f10x_hd.o(.text)
    TIM8_CC_IRQHandler                       0x08001ab3   Thumb Code     0  startup_stm32f10x_hd.o(.text)
    TIM8_TRG_COM_IRQHandler                  0x08001ab3   Thumb Code     0  startup_stm32f10x_hd.o(.text)
    TIM8_UP_IRQHandler                       0x08001ab3   Thumb Code     0  startup_stm32f10x_hd.o(.text)
    UART4_IRQHandler                         0x08001ab3   Thumb Code     0  startup_stm32f10x_hd.o(.text)
    UART5_IRQHandler                         0x08001ab3   Thumb Code     0  startup_stm32f10x_hd.o(.text)
    USART1_IRQHandler                        0x08001ab3   Thumb Code     0  startup_stm32f10x_hd.o(.text)
    USART3_IRQHandler                        0x08001ab3   Thumb Code     0  startup_stm32f10x_hd.o(.text)
    USBWakeUp_IRQHandler                     0x08001ab3   Thumb Code     0  startup_stm32f10x_hd.o(.text)
    USB_HP_CAN1_TX_IRQHandler                0x08001ab3   Thumb Code     0  startup_stm32f10x_hd.o(.text)
    USB_LP_CAN1_RX0_IRQHandler               0x08001ab3   Thumb Code     0  startup_stm32f10x_hd.o(.text)
    WWDG_IRQHandler                          0x08001ab3   Thumb Code     0  startup_stm32f10x_hd.o(.text)
    __user_initial_stackheap                 0x08001ab5   Thumb Code     0  startup_stm32f10x_hd.o(.text)
    NMI_Handler                              0x08001ad9   Thumb Code     2  stm32f10x_it.o(.text)
    HardFault_Handler                        0x08001adb   Thumb Code     4  stm32f10x_it.o(.text)
    MemManage_Handler                        0x08001adf   Thumb Code     4  stm32f10x_it.o(.text)
    BusFault_Handler                         0x08001ae3   Thumb Code     4  stm32f10x_it.o(.text)
    UsageFault_Handler                       0x08001ae7   Thumb Code     4  stm32f10x_it.o(.text)
    SVC_Handler                              0x08001aeb   Thumb Code     2  stm32f10x_it.o(.text)
    DebugMon_Handler                         0x08001aed   Thumb Code     2  stm32f10x_it.o(.text)
    PendSV_Handler                           0x08001aef   Thumb Code     2  stm32f10x_it.o(.text)
    SysTick_Handler                          0x08001af1   Thumb Code     2  stm32f10x_it.o(.text)
    SystemInit                               0x08001bd3   Thumb Code    78  system_stm32f10x.o(.text)
    SystemCoreClockUpdate                    0x08001c21   Thumb Code   142  system_stm32f10x.o(.text)
    TIM_DeInit                               0x08001cd5   Thumb Code   424  stm32f10x_tim.o(.text)
    TIM_TimeBaseInit                         0x08001e7d   Thumb Code   122  stm32f10x_tim.o(.text)
    TIM_OC1Init                              0x08001ef7   Thumb Code   132  stm32f10x_tim.o(.text)
    TIM_OC2Init                              0x08001f7b   Thumb Code   154  stm32f10x_tim.o(.text)
    TIM_OC3Init                              0x08002015   Thumb Code   150  stm32f10x_tim.o(.text)
    TIM_OC4Init                              0x080020ab   Thumb Code   182  stm32f10x_tim.o(.text)
    TIM_SetIC4Prescaler                      0x08002161   Thumb Code    26  stm32f10x_tim.o(.text)
    TIM_SetIC3Prescaler                      0x080021fd   Thumb Code    18  stm32f10x_tim.o(.text)
    TIM_SetIC2Prescaler                      0x08002289   Thumb Code    26  stm32f10x_tim.o(.text)
    TIM_SetIC1Prescaler                      0x08002325   Thumb Code    18  stm32f10x_tim.o(.text)
    TIM_ICInit                               0x080023a3   Thumb Code   150  stm32f10x_tim.o(.text)
    TIM_PWMIConfig                           0x08002439   Thumb Code   124  stm32f10x_tim.o(.text)
    TIM_BDTRConfig                           0x080024b5   Thumb Code    32  stm32f10x_tim.o(.text)
    TIM_TimeBaseStructInit                   0x080024d5   Thumb Code    18  stm32f10x_tim.o(.text)
    TIM_OCStructInit                         0x080024e7   Thumb Code    20  stm32f10x_tim.o(.text)
    TIM_ICStructInit                         0x080024fb   Thumb Code    18  stm32f10x_tim.o(.text)
    TIM_BDTRStructInit                       0x0800250d   Thumb Code    40  stm32f10x_tim.o(.text)
    TIM_Cmd                                  0x08002535   Thumb Code    24  stm32f10x_tim.o(.text)
    TIM_CtrlPWMOutputs                       0x0800254d   Thumb Code    30  stm32f10x_tim.o(.text)
    TIM_ITConfig                             0x0800256b   Thumb Code    18  stm32f10x_tim.o(.text)
    TIM_GenerateEvent                        0x0800257d   Thumb Code     4  stm32f10x_tim.o(.text)
    TIM_DMAConfig                            0x08002581   Thumb Code    10  stm32f10x_tim.o(.text)
    TIM_DMACmd                               0x0800258b   Thumb Code    18  stm32f10x_tim.o(.text)
    TIM_InternalClockConfig                  0x0800259d   Thumb Code    12  stm32f10x_tim.o(.text)
    TIM_SelectInputTrigger                   0x080025a9   Thumb Code    18  stm32f10x_tim.o(.text)
    TIM_ITRxExternalClockConfig              0x080025bb   Thumb Code    24  stm32f10x_tim.o(.text)
    TIM_TIxExternalClockConfig               0x080025d3   Thumb Code    62  stm32f10x_tim.o(.text)
    TIM_ETRConfig                            0x08002611   Thumb Code    28  stm32f10x_tim.o(.text)
    TIM_ETRClockMode1Config                  0x0800262d   Thumb Code    54  stm32f10x_tim.o(.text)
    TIM_ETRClockMode2Config                  0x08002663   Thumb Code    32  stm32f10x_tim.o(.text)
    TIM_PrescalerConfig                      0x08002683   Thumb Code     6  stm32f10x_tim.o(.text)
    TIM_CounterModeConfig                    0x08002689   Thumb Code    18  stm32f10x_tim.o(.text)
    TIM_EncoderInterfaceConfig               0x0800269b   Thumb Code    66  stm32f10x_tim.o(.text)
    TIM_ForcedOC1Config                      0x080026dd   Thumb Code    18  stm32f10x_tim.o(.text)
    TIM_ForcedOC2Config                      0x080026ef   Thumb Code    26  stm32f10x_tim.o(.text)
    TIM_ForcedOC3Config                      0x08002709   Thumb Code    18  stm32f10x_tim.o(.text)
    TIM_ForcedOC4Config                      0x0800271b   Thumb Code    26  stm32f10x_tim.o(.text)
    TIM_ARRPreloadConfig                     0x08002735   Thumb Code    24  stm32f10x_tim.o(.text)
    TIM_SelectCOM                            0x0800274d   Thumb Code    24  stm32f10x_tim.o(.text)
    TIM_SelectCCDMA                          0x08002765   Thumb Code    24  stm32f10x_tim.o(.text)
    TIM_CCPreloadControl                     0x0800277d   Thumb Code    24  stm32f10x_tim.o(.text)
    TIM_OC1PreloadConfig                     0x08002795   Thumb Code    18  stm32f10x_tim.o(.text)
    TIM_OC2PreloadConfig                     0x080027a7   Thumb Code    26  stm32f10x_tim.o(.text)
    TIM_OC3PreloadConfig                     0x080027c1   Thumb Code    18  stm32f10x_tim.o(.text)
    TIM_OC4PreloadConfig                     0x080027d3   Thumb Code    26  stm32f10x_tim.o(.text)
    TIM_OC1FastConfig                        0x080027ed   Thumb Code    18  stm32f10x_tim.o(.text)
    TIM_OC2FastConfig                        0x080027ff   Thumb Code    26  stm32f10x_tim.o(.text)
    TIM_OC3FastConfig                        0x08002819   Thumb Code    18  stm32f10x_tim.o(.text)
    TIM_OC4FastConfig                        0x0800282b   Thumb Code    26  stm32f10x_tim.o(.text)
    TIM_ClearOC1Ref                          0x08002845   Thumb Code    18  stm32f10x_tim.o(.text)
    TIM_ClearOC2Ref                          0x08002857   Thumb Code    24  stm32f10x_tim.o(.text)
    TIM_ClearOC3Ref                          0x0800286f   Thumb Code    18  stm32f10x_tim.o(.text)
    TIM_ClearOC4Ref                          0x08002881   Thumb Code    24  stm32f10x_tim.o(.text)
    TIM_OC1PolarityConfig                    0x08002899   Thumb Code    18  stm32f10x_tim.o(.text)
    TIM_OC1NPolarityConfig                   0x080028ab   Thumb Code    18  stm32f10x_tim.o(.text)
    TIM_OC2PolarityConfig                    0x080028bd   Thumb Code    26  stm32f10x_tim.o(.text)
    TIM_OC2NPolarityConfig                   0x080028d7   Thumb Code    26  stm32f10x_tim.o(.text)
    TIM_OC3PolarityConfig                    0x080028f1   Thumb Code    26  stm32f10x_tim.o(.text)
    TIM_OC3NPolarityConfig                   0x0800290b   Thumb Code    26  stm32f10x_tim.o(.text)
    TIM_OC4PolarityConfig                    0x08002925   Thumb Code    26  stm32f10x_tim.o(.text)
    TIM_CCxCmd                               0x0800293f   Thumb Code    30  stm32f10x_tim.o(.text)
    TIM_CCxNCmd                              0x0800295d   Thumb Code    30  stm32f10x_tim.o(.text)
    TIM_SelectOCxM                           0x0800297b   Thumb Code    82  stm32f10x_tim.o(.text)
    TIM_UpdateDisableConfig                  0x080029cd   Thumb Code    24  stm32f10x_tim.o(.text)
    TIM_UpdateRequestConfig                  0x080029e5   Thumb Code    24  stm32f10x_tim.o(.text)
    TIM_SelectHallSensor                     0x080029fd   Thumb Code    24  stm32f10x_tim.o(.text)
    TIM_SelectOnePulseMode                   0x08002a15   Thumb Code    18  stm32f10x_tim.o(.text)
    TIM_SelectOutputTrigger                  0x08002a27   Thumb Code    18  stm32f10x_tim.o(.text)
    TIM_SelectSlaveMode                      0x08002a39   Thumb Code    18  stm32f10x_tim.o(.text)
    TIM_SelectMasterSlaveMode                0x08002a4b   Thumb Code    18  stm32f10x_tim.o(.text)
    TIM_SetCounter                           0x08002a5d   Thumb Code     4  stm32f10x_tim.o(.text)
    TIM_SetAutoreload                        0x08002a61   Thumb Code     4  stm32f10x_tim.o(.text)
    TIM_SetCompare1                          0x08002a65   Thumb Code     4  stm32f10x_tim.o(.text)
    TIM_SetCompare2                          0x08002a69   Thumb Code     4  stm32f10x_tim.o(.text)
    TIM_SetCompare3                          0x08002a6d   Thumb Code     4  stm32f10x_tim.o(.text)
    TIM_SetCompare4                          0x08002a71   Thumb Code     6  stm32f10x_tim.o(.text)
    TIM_SetClockDivision                     0x08002a77   Thumb Code    18  stm32f10x_tim.o(.text)
    TIM_GetCapture1                          0x08002a89   Thumb Code     6  stm32f10x_tim.o(.text)
    TIM_GetCapture2                          0x08002a8f   Thumb Code     6  stm32f10x_tim.o(.text)
    TIM_GetCapture3                          0x08002a95   Thumb Code     6  stm32f10x_tim.o(.text)
    TIM_GetCapture4                          0x08002a9b   Thumb Code     8  stm32f10x_tim.o(.text)
    TIM_GetCounter                           0x08002aa3   Thumb Code     6  stm32f10x_tim.o(.text)
    TIM_GetPrescaler                         0x08002aa9   Thumb Code     6  stm32f10x_tim.o(.text)
    TIM_GetFlagStatus                        0x08002aaf   Thumb Code    18  stm32f10x_tim.o(.text)
    TIM_ClearFlag                            0x08002ac1   Thumb Code     6  stm32f10x_tim.o(.text)
    TIM_GetITStatus                          0x08002ac7   Thumb Code    34  stm32f10x_tim.o(.text)
    TIM_ClearITPendingBit                    0x08002ae9   Thumb Code     6  stm32f10x_tim.o(.text)
    NVIC_PriorityGroupConfig                 0x08002af1   Thumb Code    10  misc.o(.text)
    NVIC_Init                                0x08002afb   Thumb Code   100  misc.o(.text)
    NVIC_SetVectorTable                      0x08002b5f   Thumb Code    14  misc.o(.text)
    NVIC_SystemLPConfig                      0x08002b6d   Thumb Code    34  misc.o(.text)
    SysTick_CLKSourceConfig                  0x08002b8f   Thumb Code    40  misc.o(.text)
    GPIO_DeInit                              0x08002bcd   Thumb Code   172  stm32f10x_gpio.o(.text)
    GPIO_AFIODeInit                          0x08002c79   Thumb Code    20  stm32f10x_gpio.o(.text)
    GPIO_Init                                0x08002c8d   Thumb Code   278  stm32f10x_gpio.o(.text)
    GPIO_StructInit                          0x08002da3   Thumb Code    16  stm32f10x_gpio.o(.text)
    GPIO_ReadInputDataBit                    0x08002db3   Thumb Code    18  stm32f10x_gpio.o(.text)
    GPIO_ReadInputData                       0x08002dc5   Thumb Code     8  stm32f10x_gpio.o(.text)
    GPIO_ReadOutputDataBit                   0x08002dcd   Thumb Code    18  stm32f10x_gpio.o(.text)
    GPIO_ReadOutputData                      0x08002ddf   Thumb Code     8  stm32f10x_gpio.o(.text)
    GPIO_SetBits                             0x08002de7   Thumb Code     4  stm32f10x_gpio.o(.text)
    GPIO_ResetBits                           0x08002deb   Thumb Code     4  stm32f10x_gpio.o(.text)
    GPIO_WriteBit                            0x08002def   Thumb Code    10  stm32f10x_gpio.o(.text)
    GPIO_Write                               0x08002df9   Thumb Code     4  stm32f10x_gpio.o(.text)
    GPIO_PinLockConfig                       0x08002dfd   Thumb Code    18  stm32f10x_gpio.o(.text)
    GPIO_EventOutputConfig                   0x08002e0f   Thumb Code    26  stm32f10x_gpio.o(.text)
    GPIO_EventOutputCmd                      0x08002e29   Thumb Code     6  stm32f10x_gpio.o(.text)
    GPIO_PinRemapConfig                      0x08002e2f   Thumb Code   138  stm32f10x_gpio.o(.text)
    GPIO_EXTILineConfig                      0x08002eb9   Thumb Code    66  stm32f10x_gpio.o(.text)
    GPIO_ETH_MediaInterfaceConfig            0x08002efb   Thumb Code     8  stm32f10x_gpio.o(.text)
    RCC_DeInit                               0x08002f29   Thumb Code    64  stm32f10x_rcc.o(.text)
    RCC_HSEConfig                            0x08002f69   Thumb Code    70  stm32f10x_rcc.o(.text)
    RCC_GetFlagStatus                        0x08002faf   Thumb Code    56  stm32f10x_rcc.o(.text)
    RCC_WaitForHSEStartUp                    0x08002fe7   Thumb Code    56  stm32f10x_rcc.o(.text)
    RCC_AdjustHSICalibrationValue            0x0800301f   Thumb Code    20  stm32f10x_rcc.o(.text)
    RCC_HSICmd                               0x08003033   Thumb Code     6  stm32f10x_rcc.o(.text)
    RCC_PLLConfig                            0x08003039   Thumb Code    24  stm32f10x_rcc.o(.text)
    RCC_PLLCmd                               0x08003051   Thumb Code     6  stm32f10x_rcc.o(.text)
    RCC_SYSCLKConfig                         0x08003057   Thumb Code    18  stm32f10x_rcc.o(.text)
    RCC_GetSYSCLKSource                      0x08003069   Thumb Code    10  stm32f10x_rcc.o(.text)
    RCC_HCLKConfig                           0x08003073   Thumb Code    18  stm32f10x_rcc.o(.text)
    RCC_PCLK1Config                          0x08003085   Thumb Code    18  stm32f10x_rcc.o(.text)
    RCC_PCLK2Config                          0x08003097   Thumb Code    20  stm32f10x_rcc.o(.text)
    RCC_ITConfig                             0x080030ab   Thumb Code    26  stm32f10x_rcc.o(.text)
    RCC_USBCLKConfig                         0x080030c5   Thumb Code     8  stm32f10x_rcc.o(.text)
    RCC_ADCCLKConfig                         0x080030cd   Thumb Code    18  stm32f10x_rcc.o(.text)
    RCC_LSEConfig                            0x080030df   Thumb Code    50  stm32f10x_rcc.o(.text)
    RCC_LSICmd                               0x08003111   Thumb Code     6  stm32f10x_rcc.o(.text)
    RCC_RTCCLKConfig                         0x08003117   Thumb Code    12  stm32f10x_rcc.o(.text)
    RCC_RTCCLKCmd                            0x08003123   Thumb Code     8  stm32f10x_rcc.o(.text)
    RCC_GetClocksFreq                        0x0800312b   Thumb Code   192  stm32f10x_rcc.o(.text)
    RCC_AHBPeriphClockCmd                    0x080031eb   Thumb Code    26  stm32f10x_rcc.o(.text)
    RCC_APB2PeriphClockCmd                   0x08003205   Thumb Code    26  stm32f10x_rcc.o(.text)
    RCC_APB1PeriphClockCmd                   0x0800321f   Thumb Code    26  stm32f10x_rcc.o(.text)
    RCC_APB2PeriphResetCmd                   0x08003239   Thumb Code    26  stm32f10x_rcc.o(.text)
    RCC_APB1PeriphResetCmd                   0x08003253   Thumb Code    26  stm32f10x_rcc.o(.text)
    RCC_BackupResetCmd                       0x0800326d   Thumb Code     8  stm32f10x_rcc.o(.text)
    RCC_ClockSecuritySystemCmd               0x08003275   Thumb Code     6  stm32f10x_rcc.o(.text)
    RCC_MCOConfig                            0x0800327b   Thumb Code     6  stm32f10x_rcc.o(.text)
    RCC_ClearFlag                            0x08003281   Thumb Code    14  stm32f10x_rcc.o(.text)
    RCC_GetITStatus                          0x0800328f   Thumb Code    20  stm32f10x_rcc.o(.text)
    RCC_ClearITPendingBit                    0x080032a3   Thumb Code     6  stm32f10x_rcc.o(.text)
    USART_DeInit                             0x080032cd   Thumb Code   134  stm32f10x_usart.o(.text)
    USART_Init                               0x08003353   Thumb Code   210  stm32f10x_usart.o(.text)
    USART_StructInit                         0x08003425   Thumb Code    24  stm32f10x_usart.o(.text)
    USART_ClockInit                          0x0800343d   Thumb Code    34  stm32f10x_usart.o(.text)
    USART_ClockStructInit                    0x0800345f   Thumb Code    12  stm32f10x_usart.o(.text)
    USART_Cmd                                0x0800346b   Thumb Code    24  stm32f10x_usart.o(.text)
    USART_ITConfig                           0x08003483   Thumb Code    74  stm32f10x_usart.o(.text)
    USART_DMACmd                             0x080034cd   Thumb Code    18  stm32f10x_usart.o(.text)
    USART_SetAddress                         0x080034df   Thumb Code    18  stm32f10x_usart.o(.text)
    USART_WakeUpConfig                       0x080034f1   Thumb Code    18  stm32f10x_usart.o(.text)
    USART_ReceiverWakeUpCmd                  0x08003503   Thumb Code    24  stm32f10x_usart.o(.text)
    USART_LINBreakDetectLengthConfig         0x0800351b   Thumb Code    18  stm32f10x_usart.o(.text)
    USART_LINCmd                             0x0800352d   Thumb Code    24  stm32f10x_usart.o(.text)
    USART_SendData                           0x08003545   Thumb Code     8  stm32f10x_usart.o(.text)
    USART_ReceiveData                        0x0800354d   Thumb Code    10  stm32f10x_usart.o(.text)
    USART_SendBreak                          0x08003557   Thumb Code    10  stm32f10x_usart.o(.text)
    USART_SetGuardTime                       0x08003561   Thumb Code    16  stm32f10x_usart.o(.text)
    USART_SetPrescaler                       0x08003571   Thumb Code    16  stm32f10x_usart.o(.text)
    USART_SmartCardCmd                       0x08003581   Thumb Code    24  stm32f10x_usart.o(.text)
    USART_SmartCardNACKCmd                   0x08003599   Thumb Code    24  stm32f10x_usart.o(.text)
    USART_HalfDuplexCmd                      0x080035b1   Thumb Code    24  stm32f10x_usart.o(.text)
    USART_OverSampling8Cmd                   0x080035c9   Thumb Code    22  stm32f10x_usart.o(.text)
    USART_OneBitMethodCmd                    0x080035df   Thumb Code    24  stm32f10x_usart.o(.text)
    USART_IrDAConfig                         0x080035f7   Thumb Code    18  stm32f10x_usart.o(.text)
    USART_IrDACmd                            0x08003609   Thumb Code    24  stm32f10x_usart.o(.text)
    USART_GetFlagStatus                      0x08003621   Thumb Code    26  stm32f10x_usart.o(.text)
    USART_ClearFlag                          0x0800363b   Thumb Code    18  stm32f10x_usart.o(.text)
    USART_GetITStatus                        0x0800364d   Thumb Code    84  stm32f10x_usart.o(.text)
    USART_ClearITPendingBit                  0x080036a1   Thumb Code    52  stm32f10x_usart.o(.text)
    FLASH_SetLatency                         0x080036d5   Thumb Code    18  stm32f10x_flash.o(.text)
    FLASH_HalfCycleAccessCmd                 0x080036e7   Thumb Code    22  stm32f10x_flash.o(.text)
    FLASH_PrefetchBufferCmd                  0x080036fd   Thumb Code    22  stm32f10x_flash.o(.text)
    FLASH_Unlock                             0x08003713   Thumb Code    12  stm32f10x_flash.o(.text)
    FLASH_UnlockBank1                        0x0800371f   Thumb Code    12  stm32f10x_flash.o(.text)
    FLASH_Lock                               0x0800372b   Thumb Code    14  stm32f10x_flash.o(.text)
    FLASH_LockBank1                          0x08003739   Thumb Code    14  stm32f10x_flash.o(.text)
    FLASH_GetBank1Status                     0x08003747   Thumb Code    48  stm32f10x_flash.o(.text)
    FLASH_WaitForLastOperation               0x08003777   Thumb Code    38  stm32f10x_flash.o(.text)
    FLASH_ErasePage                          0x0800379d   Thumb Code    72  stm32f10x_flash.o(.text)
    FLASH_EraseAllPages                      0x080037e5   Thumb Code    68  stm32f10x_flash.o(.text)
    FLASH_WaitForLastBank1Operation          0x08003829   Thumb Code    38  stm32f10x_flash.o(.text)
    FLASH_EraseAllBank1Pages                 0x0800384f   Thumb Code    68  stm32f10x_flash.o(.text)
    FLASH_GetReadOutProtectionStatus         0x08003893   Thumb Code    20  stm32f10x_flash.o(.text)
    FLASH_EraseOptionBytes                   0x080038a7   Thumb Code   150  stm32f10x_flash.o(.text)
    FLASH_ProgramWord                        0x0800393d   Thumb Code   102  stm32f10x_flash.o(.text)
    FLASH_ProgramHalfWord                    0x080039a3   Thumb Code    60  stm32f10x_flash.o(.text)
    FLASH_ProgramOptionByteData              0x080039df   Thumb Code    72  stm32f10x_flash.o(.text)
    FLASH_EnableWriteProtection              0x08003a27   Thumb Code   200  stm32f10x_flash.o(.text)
    FLASH_ReadOutProtection                  0x08003aef   Thumb Code   156  stm32f10x_flash.o(.text)
    FLASH_UserOptionByteConfig               0x08003b8b   Thumb Code    88  stm32f10x_flash.o(.text)
    FLASH_GetUserOptionByte                  0x08003be3   Thumb Code     8  stm32f10x_flash.o(.text)
    FLASH_GetWriteProtectionOptionByte       0x08003beb   Thumb Code     6  stm32f10x_flash.o(.text)
    FLASH_GetPrefetchBufferStatus            0x08003bf1   Thumb Code    20  stm32f10x_flash.o(.text)
    FLASH_ITConfig                           0x08003c05   Thumb Code    26  stm32f10x_flash.o(.text)
    FLASH_GetFlagStatus                      0x08003c1f   Thumb Code    42  stm32f10x_flash.o(.text)
    FLASH_ClearFlag                          0x08003c49   Thumb Code     6  stm32f10x_flash.o(.text)
    FLASH_GetStatus                          0x08003c4f   Thumb Code    48  stm32f10x_flash.o(.text)
    ADC_DeInit                               0x08003c91   Thumb Code    78  stm32f10x_adc.o(.text)
    ADC_Init                                 0x08003cdf   Thumb Code    70  stm32f10x_adc.o(.text)
    ADC_StructInit                           0x08003d25   Thumb Code    18  stm32f10x_adc.o(.text)
    ADC_Cmd                                  0x08003d37   Thumb Code    22  stm32f10x_adc.o(.text)
    ADC_DMACmd                               0x08003d4d   Thumb Code    22  stm32f10x_adc.o(.text)
    ADC_ITConfig                             0x08003d63   Thumb Code    24  stm32f10x_adc.o(.text)
    ADC_ResetCalibration                     0x08003d7b   Thumb Code    10  stm32f10x_adc.o(.text)
    ADC_GetResetCalibrationStatus            0x08003d85   Thumb Code    20  stm32f10x_adc.o(.text)
    ADC_StartCalibration                     0x08003d99   Thumb Code    10  stm32f10x_adc.o(.text)
    ADC_GetCalibrationStatus                 0x08003da3   Thumb Code    20  stm32f10x_adc.o(.text)
    ADC_SoftwareStartConvCmd                 0x08003db7   Thumb Code    22  stm32f10x_adc.o(.text)
    ADC_GetSoftwareStartConvStatus           0x08003dcd   Thumb Code    20  stm32f10x_adc.o(.text)
    ADC_DiscModeChannelCountConfig           0x08003de1   Thumb Code    24  stm32f10x_adc.o(.text)
    ADC_DiscModeCmd                          0x08003df9   Thumb Code    22  stm32f10x_adc.o(.text)
    ADC_RegularChannelConfig                 0x08003e0f   Thumb Code   184  stm32f10x_adc.o(.text)
    ADC_ExternalTrigConvCmd                  0x08003ec7   Thumb Code    22  stm32f10x_adc.o(.text)
    ADC_GetConversionValue                   0x08003edd   Thumb Code     8  stm32f10x_adc.o(.text)
    ADC_GetDualModeConversionValue           0x08003ee5   Thumb Code     8  stm32f10x_adc.o(.text)
    ADC_AutoInjectedConvCmd                  0x08003eed   Thumb Code    22  stm32f10x_adc.o(.text)
    ADC_InjectedDiscModeCmd                  0x08003f03   Thumb Code    22  stm32f10x_adc.o(.text)
    ADC_ExternalTrigInjectedConvConfig       0x08003f19   Thumb Code    16  stm32f10x_adc.o(.text)
    ADC_ExternalTrigInjectedConvCmd          0x08003f29   Thumb Code    22  stm32f10x_adc.o(.text)
    ADC_SoftwareStartInjectedConvCmd         0x08003f3f   Thumb Code    22  stm32f10x_adc.o(.text)
    ADC_GetSoftwareStartInjectedConvCmdStatus 0x08003f55   Thumb Code    20  stm32f10x_adc.o(.text)
    ADC_InjectedChannelConfig                0x08003f69   Thumb Code   130  stm32f10x_adc.o(.text)
    ADC_InjectedSequencerLengthConfig        0x08003feb   Thumb Code    24  stm32f10x_adc.o(.text)
    ADC_SetInjectedOffset                    0x08004003   Thumb Code    20  stm32f10x_adc.o(.text)
    ADC_GetInjectedConversionValue           0x08004017   Thumb Code    28  stm32f10x_adc.o(.text)
    ADC_AnalogWatchdogCmd                    0x08004033   Thumb Code    16  stm32f10x_adc.o(.text)
    ADC_AnalogWatchdogThresholdsConfig       0x08004043   Thumb Code     6  stm32f10x_adc.o(.text)
    ADC_AnalogWatchdogSingleChannelConfig    0x08004049   Thumb Code    16  stm32f10x_adc.o(.text)
    ADC_TempSensorVrefintCmd                 0x08004059   Thumb Code    64  stm32f10x_adc.o(.text)
    ADC_GetFlagStatus                        0x08004099   Thumb Code    18  stm32f10x_adc.o(.text)
    ADC_ClearFlag                            0x080040ab   Thumb Code     6  stm32f10x_adc.o(.text)
    ADC_GetITStatus                          0x080040b1   Thumb Code    36  stm32f10x_adc.o(.text)
    ADC_ClearITPendingBit                    0x080040d5   Thumb Code    10  stm32f10x_adc.o(.text)
    __use_no_semihosting                     0x080040df   Thumb Code     2  use_no_semi_2.o(.text)
    __2sprintf                               0x080040e1   Thumb Code    34  noretval__2sprintf.o(.text)
    __printf                                 0x08004109   Thumb Code   104  __printf.o(.text)
    _printf_int_dec                          0x08004171   Thumb Code   104  _printf_dec.o(.text)
    __use_two_region_memory                  0x080041e9   Thumb Code     2  heapauxi.o(.text)
    __rt_heap_escrow$2region                 0x080041eb   Thumb Code     2  heapauxi.o(.text)
    __rt_heap_expand$2region                 0x080041ed   Thumb Code     2  heapauxi.o(.text)
    __I$use$semihosting                      0x080041ef   Thumb Code     0  use_no_semi.o(.text)
    __use_no_semihosting_swi                 0x080041ef   Thumb Code     2  use_no_semi.o(.text)
    _printf_int_common                       0x080041f1   Thumb Code   178  _printf_intcommon.o(.text)
    _printf_char_common                      0x080042af   Thumb Code    32  _printf_char_common.o(.text)
    _sputc                                   0x080042d5   Thumb Code    10  _sputc.o(.text)
    __user_setup_stackheap                   0x080042df   Thumb Code    74  sys_stackheap_outer.o(.text)
    exit                                     0x08004329   Thumb Code    12  exit.o(.text)
    __user_libspace                          0x08004335   Thumb Code     8  libspace.o(.text)
    __user_perproc_libspace                  0x08004335   Thumb Code     0  libspace.o(.text)
    __user_perthread_libspace                0x08004335   Thumb Code     0  libspace.o(.text)
    gImage_wifion                            0x0800433c   Data          32  main.o(.constdata)
    gImage_wifioff                           0x0800435c   Data          32  main.o(.constdata)
    gImage_shi                               0x0800437c   Data         128  main.o(.constdata)
    gImage_wen                               0x080043fc   Data         128  main.o(.constdata)
    gImage_dian                              0x0800447c   Data          32  main.o(.constdata)
    TX_ADDRESS                               0x0800449c   Data           5  nrf24l01_api.o(.constdata)
    RX_ADDRESS                               0x080044a1   Data           5  nrf24l01_api.o(.constdata)
    F6x8                                     0x080044a6   Data         552  oled.o(.constdata)
    F8X16                                    0x080046ce   Data        1520  oled.o(.constdata)
    Region$$Table$$Base                      0x08004cc0   Number         0  anon$$obj.o(Region$$Table)
    Region$$Table$$Limit                     0x08004ce0   Number         0  anon$$obj.o(Region$$Table)
    sys_info                                 0x20000000   Data           8  main.o(.data)
    sys_clock                                0x20000008   Data           1  main.o(.data)
    sys_state                                0x20000009   Data           1  main.o(.data)
    clock                                    0x2000000c   Data           4  main.o(.data)
    Hzk                                      0x20000010   Data         320  oled.o(.data)
    it                                       0x20000154   Data           4  dev.o(.data)
    flag1                                    0x2000015c   Data           1  usart.o(.data)
    flag2                                    0x2000015d   Data           1  usart.o(.data)
    R1                                       0x20000160   Data           4  usart.o(.data)
    Q1                                       0x20000164   Data           4  usart.o(.data)
    P1                                       0x20000168   Data           4  usart.o(.data)
    Bs1                                      0x2000016c   Data           1  usart.o(.data)
    kg1                                      0x20000170   Data           4  usart.o(.data)
    R2                                       0x20000174   Data           4  usart.o(.data)
    Q2                                       0x20000178   Data           4  usart.o(.data)
    P2                                       0x2000017c   Data           4  usart.o(.data)
    Bs2                                      0x20000180   Data           1  usart.o(.data)
    kg2                                      0x20000184   Data           4  usart.o(.data)
    __stdout                                 0x20000188   Data           4  usart.o(.data)
    USART_RX_STA                             0x2000018c   Data           2  usart.o(.data)
    SystemCoreClock                          0x20000190   Data           4  system_stm32f10x.o(.data)
    AHBPrescTable                            0x20000194   Data          16  system_stm32f10x.o(.data)
    rec_buff                                 0x200001b8   Data          32  main.o(.bss)
    use_buf                                  0x200001d8   Data          32  main.o(.bss)
    STMFLASH_BUF                             0x200001f8   Data        2048  stmflash.o(.bss)
    USART_RX_BUF                             0x200009f8   Data         200  usart.o(.bss)
    __libspace_start                         0x20000ac0   Data          96  libspace.o(.bss)
    __temporary_stack_top$libspace           0x20000b20   Data           0  libspace.o(.bss)



==============================================================================

Memory Map of the image

  Image Entry point : 0x08000131

  Load Region LR_IROM1 (Base: 0x08000000, Size: 0x00004e98, Max: 0x00010000, ABSOLUTE, COMPRESSED[0x00004e14])

    Execution Region ER_IROM1 (Base: 0x08000000, Size: 0x00004ce0, Max: 0x00010000, ABSOLUTE)

    Base Addr    Size         Type   Attr      Idx    E Section Name        Object

    0x08000000   0x00000130   Data   RO          376    RESET               startup_stm32f10x_hd.o
    0x08000130   0x00000008   Code   RO          574  * !!!main             c_w.l(__main.o)
    0x08000138   0x00000034   Code   RO          739    !!!scatter          c_w.l(__scatter.o)
    0x0800016c   0x0000005a   Code   RO          737    !!dczerorl2         c_w.l(__dczerorl2.o)
    0x080001c6   0x00000002   PAD
    0x080001c8   0x0000001c   Code   RO          741    !!handler_zi        c_w.l(__scatter_zi.o)
    0x080001e4   0x00000000   Code   RO          571    .ARM.Collect$$_printf_percent$$00000000  c_w.l(_printf_percent.o)
    0x080001e4   0x00000006   Code   RO          570    .ARM.Collect$$_printf_percent$$00000009  c_w.l(_printf_d.o)
    0x080001ea   0x00000004   Code   RO          585    .ARM.Collect$$_printf_percent$$00000017  c_w.l(_printf_percent_end.o)
    0x080001ee   0x00000002   Code   RO          612    .ARM.Collect$$libinit$$00000000  c_w.l(libinit.o)
    0x080001f0   0x00000000   Code   RO          619    .ARM.Collect$$libinit$$00000002  c_w.l(libinit2.o)
    0x080001f0   0x00000000   Code   RO          621    .ARM.Collect$$libinit$$00000004  c_w.l(libinit2.o)
    0x080001f0   0x00000000   Code   RO          624    .ARM.Collect$$libinit$$0000000A  c_w.l(libinit2.o)
    0x080001f0   0x00000000   Code   RO          626    .ARM.Collect$$libinit$$0000000C  c_w.l(libinit2.o)
    0x080001f0   0x00000000   Code   RO          628    .ARM.Collect$$libinit$$0000000E  c_w.l(libinit2.o)
    0x080001f0   0x00000000   Code   RO          631    .ARM.Collect$$libinit$$00000011  c_w.l(libinit2.o)
    0x080001f0   0x00000000   Code   RO          633    .ARM.Collect$$libinit$$00000013  c_w.l(libinit2.o)
    0x080001f0   0x00000000   Code   RO          635    .ARM.Collect$$libinit$$00000015  c_w.l(libinit2.o)
    0x080001f0   0x00000000   Code   RO          637    .ARM.Collect$$libinit$$00000017  c_w.l(libinit2.o)
    0x080001f0   0x00000000   Code   RO          639    .ARM.Collect$$libinit$$00000019  c_w.l(libinit2.o)
    0x080001f0   0x00000000   Code   RO          641    .ARM.Collect$$libinit$$0000001B  c_w.l(libinit2.o)
    0x080001f0   0x00000000   Code   RO          643    .ARM.Collect$$libinit$$0000001D  c_w.l(libinit2.o)
    0x080001f0   0x00000000   Code   RO          645    .ARM.Collect$$libinit$$0000001F  c_w.l(libinit2.o)
    0x080001f0   0x00000000   Code   RO          647    .ARM.Collect$$libinit$$00000021  c_w.l(libinit2.o)
    0x080001f0   0x00000000   Code   RO          649    .ARM.Collect$$libinit$$00000023  c_w.l(libinit2.o)
    0x080001f0   0x00000000   Code   RO          651    .ARM.Collect$$libinit$$00000025  c_w.l(libinit2.o)
    0x080001f0   0x00000000   Code   RO          655    .ARM.Collect$$libinit$$0000002C  c_w.l(libinit2.o)
    0x080001f0   0x00000000   Code   RO          657    .ARM.Collect$$libinit$$0000002E  c_w.l(libinit2.o)
    0x080001f0   0x00000000   Code   RO          659    .ARM.Collect$$libinit$$00000030  c_w.l(libinit2.o)
    0x080001f0   0x00000000   Code   RO          661    .ARM.Collect$$libinit$$00000032  c_w.l(libinit2.o)
    0x080001f0   0x00000002   Code   RO          662    .ARM.Collect$$libinit$$00000033  c_w.l(libinit2.o)
    0x080001f2   0x00000002   Code   RO          680    .ARM.Collect$$libshutdown$$00000000  c_w.l(libshutdown.o)
    0x080001f4   0x00000000   Code   RO          691    .ARM.Collect$$libshutdown$$00000003  c_w.l(libshutdown2.o)
    0x080001f4   0x00000000   Code   RO          694    .ARM.Collect$$libshutdown$$00000006  c_w.l(libshutdown2.o)
    0x080001f4   0x00000000   Code   RO          697    .ARM.Collect$$libshutdown$$00000009  c_w.l(libshutdown2.o)
    0x080001f4   0x00000000   Code   RO          699    .ARM.Collect$$libshutdown$$0000000B  c_w.l(libshutdown2.o)
    0x080001f4   0x00000000   Code   RO          702    .ARM.Collect$$libshutdown$$0000000E  c_w.l(libshutdown2.o)
    0x080001f4   0x00000002   Code   RO          703    .ARM.Collect$$libshutdown$$0000000F  c_w.l(libshutdown2.o)
    0x080001f6   0x00000000   Code   RO          578    .ARM.Collect$$rtentry$$00000000  c_w.l(__rtentry.o)
    0x080001f6   0x00000000   Code   RO          587    .ARM.Collect$$rtentry$$00000002  c_w.l(__rtentry2.o)
    0x080001f6   0x00000006   Code   RO          599    .ARM.Collect$$rtentry$$00000004  c_w.l(__rtentry4.o)
    0x080001fc   0x00000000   Code   RO          589    .ARM.Collect$$rtentry$$00000009  c_w.l(__rtentry2.o)
    0x080001fc   0x00000004   Code   RO          590    .ARM.Collect$$rtentry$$0000000A  c_w.l(__rtentry2.o)
    0x08000200   0x00000000   Code   RO          592    .ARM.Collect$$rtentry$$0000000C  c_w.l(__rtentry2.o)
    0x08000200   0x00000008   Code   RO          593    .ARM.Collect$$rtentry$$0000000D  c_w.l(__rtentry2.o)
    0x08000208   0x00000002   Code   RO          616    .ARM.Collect$$rtexit$$00000000  c_w.l(rtexit.o)
    0x0800020a   0x00000000   Code   RO          664    .ARM.Collect$$rtexit$$00000002  c_w.l(rtexit2.o)
    0x0800020a   0x00000004   Code   RO          665    .ARM.Collect$$rtexit$$00000003  c_w.l(rtexit2.o)
    0x0800020e   0x00000006   Code   RO          666    .ARM.Collect$$rtexit$$00000004  c_w.l(rtexit2.o)
    0x08000214   0x000004ec   Code   RO            1    .text               main.o
    0x08000700   0x00000384   Code   RO          162    .text               nrf24l01_api.o
    0x08000a84   0x000001bc   Code   RO          177    .text               timer.o
    0x08000c40   0x000001a0   Code   RO          190    .text               dht11.o
    0x08000de0   0x00000620   Code   RO          202    .text               oled.o
    0x08001400   0x00000038   Code   RO          224    .text               led.o
    0x08001438   0x00000080   Code   RO          236    .text               key.o
    0x080014b8   0x00000144   Code   RO          249    .text               stmflash.o
    0x080015fc   0x000000e8   Code   RO          264    .text               adc.o
    0x080016e4   0x00000184   Code   RO          291    .text               dev.o
    0x08001868   0x000000d4   Code   RO          309    .text               delay.o
    0x0800193c   0x0000015c   Code   RO          340    .text               usart.o
    0x08001a98   0x00000040   Code   RO          377    .text               startup_stm32f10x_hd.o
    0x08001ad8   0x0000001a   Code   RO          381    .text               stm32f10x_it.o
    0x08001af2   0x00000002   PAD
    0x08001af4   0x000001e0   Code   RO          434    .text               system_stm32f10x.o
    0x08001cd4   0x00000e1a   Code   RO          452    .text               stm32f10x_tim.o
    0x08002aee   0x00000002   PAD
    0x08002af0   0x000000dc   Code   RO          464    .text               misc.o
    0x08002bcc   0x0000035c   Code   RO          476    .text               stm32f10x_gpio.o
    0x08002f28   0x000003a4   Code   RO          488    .text               stm32f10x_rcc.o
    0x080032cc   0x00000408   Code   RO          502    .text               stm32f10x_usart.o
    0x080036d4   0x000005bc   Code   RO          514    .text               stm32f10x_flash.o
    0x08003c90   0x0000044e   Code   RO          526    .text               stm32f10x_adc.o
    0x080040de   0x00000002   Code   RO          540    .text               c_w.l(use_no_semi_2.o)
    0x080040e0   0x00000028   Code   RO          544    .text               c_w.l(noretval__2sprintf.o)
    0x08004108   0x00000068   Code   RO          546    .text               c_w.l(__printf.o)
    0x08004170   0x00000078   Code   RO          548    .text               c_w.l(_printf_dec.o)
    0x080041e8   0x00000006   Code   RO          572    .text               c_w.l(heapauxi.o)
    0x080041ee   0x00000002   Code   RO          576    .text               c_w.l(use_no_semi.o)
    0x080041f0   0x000000b2   Code   RO          579    .text               c_w.l(_printf_intcommon.o)
    0x080042a2   0x00000002   PAD
    0x080042a4   0x00000030   Code   RO          581    .text               c_w.l(_printf_char_common.o)
    0x080042d4   0x0000000a   Code   RO          583    .text               c_w.l(_sputc.o)
    0x080042de   0x0000004a   Code   RO          603    .text               c_w.l(sys_stackheap_outer.o)
    0x08004328   0x0000000c   Code   RO          605    .text               c_w.l(exit.o)
    0x08004334   0x00000008   Code   RO          613    .text               c_w.l(libspace.o)
    0x0800433c   0x00000160   Data   RO            3    .constdata          main.o
    0x0800449c   0x0000000a   Data   RO          163    .constdata          nrf24l01_api.o
    0x080044a6   0x00000818   Data   RO          203    .constdata          oled.o
    0x08004cbe   0x00000002   PAD
    0x08004cc0   0x00000020   Data   RO          735    Region$$Table       anon$$obj.o


    Execution Region RW_IRAM1 (Base: 0x20000000, Size: 0x00001120, Max: 0x00005000, ABSOLUTE, COMPRESSED[0x00000134])

    Base Addr    Size         Type   Attr      Idx    E Section Name        Object

    0x20000000   0x00000010   Data   RW            4    .data               main.o
    0x20000010   0x00000140   Data   RW          204    .data               oled.o
    0x20000150   0x00000001   Data   RW          237    .data               key.o
    0x20000151   0x00000003   PAD
    0x20000154   0x00000004   Data   RW          292    .data               dev.o
    0x20000158   0x00000004   Data   RW          310    .data               delay.o
    0x2000015c   0x00000032   Data   RW          342    .data               usart.o
    0x2000018e   0x00000002   PAD
    0x20000190   0x00000014   Data   RW          435    .data               system_stm32f10x.o
    0x200001a4   0x00000014   Data   RW          489    .data               stm32f10x_rcc.o
    0x200001b8   0x00000040   Zero   RW            2    .bss                main.o
    0x200001f8   0x00000800   Zero   RW          250    .bss                stmflash.o
    0x200009f8   0x000000c8   Zero   RW          341    .bss                usart.o
    0x20000ac0   0x00000060   Zero   RW          614    .bss                c_w.l(libspace.o)
    0x20000b20   0x00000200   Zero   RW          375    HEAP                startup_stm32f10x_hd.o
    0x20000d20   0x00000400   Zero   RW          374    STACK               startup_stm32f10x_hd.o


==============================================================================

Image component sizes


      Code (inc. data)   RO Data    RW Data    ZI Data      Debug   Object Name

       232          8          0          0          0       1067   adc.o
       212         18          0          4          0       1011   delay.o
       388         76          0          4          0       1685   dev.o
       416         12          0          0          0       2106   dht11.o
       128         14          0          1          0        736   key.o
        56          6          0          0          0        479   led.o
      1260        146        352         16         64     271523   main.o
       220         22          0          0          0       1789   misc.o
       900         40         10          0          0       4364   nrf24l01_api.o
      1568         24       2072        320          0       5490   oled.o
        64         26        304          0       1536        792   startup_stm32f10x_hd.o
      1102         26          0          0          0      10825   stm32f10x_adc.o
      1468         34          0          0          0       8022   stm32f10x_flash.o
       860         38          0          0          0       5633   stm32f10x_gpio.o
        26          0          0          0          0       1174   stm32f10x_it.o
       932         36          0         20          0       8800   stm32f10x_rcc.o
      3610         88          0          0          0      22120   stm32f10x_tim.o
      1032         22          0          0          0       8360   stm32f10x_usart.o
       324          8          0          0       2048       2594   stmflash.o
         0          0          0          0          0         32   sys.o
       480         38          0         20          0       1719   system_stm32f10x.o
       444         18          0          0          0       1638   timer.o
       348         22          0         50        200       3638   usart.o

    ----------------------------------------------------------------------
     16074        722       2772        440       3848     365597   Object Totals
         0          0         32          0          0          0   (incl. Generated)
         4          0          2          5          0          0   (incl. Padding)

    ----------------------------------------------------------------------

      Code (inc. data)   RO Data    RW Data    ZI Data      Debug   Library Member Name

        90          0          0          0          0          0   __dczerorl2.o
         8          0          0          0          0         68   __main.o
       104          0          0          0          0         84   __printf.o
         0          0          0          0          0          0   __rtentry.o
        12          0          0          0          0          0   __rtentry2.o
         6          0          0          0          0          0   __rtentry4.o
        52          8          0          0          0          0   __scatter.o
        28          0          0          0          0          0   __scatter_zi.o
        48          6          0          0          0         96   _printf_char_common.o
         6          0          0          0          0          0   _printf_d.o
       120         16          0          0          0         92   _printf_dec.o
       178          0          0          0          0         88   _printf_intcommon.o
         0          0          0          0          0          0   _printf_percent.o
         4          0          0          0          0          0   _printf_percent_end.o
        10          0          0          0          0         68   _sputc.o
        12          0          0          0          0         72   exit.o
         6          0          0          0          0        152   heapauxi.o
         2          0          0          0          0          0   libinit.o
         2          0          0          0          0          0   libinit2.o
         2          0          0          0          0          0   libshutdown.o
         2          0          0          0          0          0   libshutdown2.o
         8          4          0          0         96         68   libspace.o
        40          6          0          0          0         84   noretval__2sprintf.o
         2          0          0          0          0          0   rtexit.o
        10          0          0          0          0          0   rtexit2.o
        74          0          0          0          0         80   sys_stackheap_outer.o
         2          0          0          0          0         68   use_no_semi.o
         2          0          0          0          0         68   use_no_semi_2.o

    ----------------------------------------------------------------------
       834         40          0          0         96       1088   Library Totals
         4          0          0          0          0          0   (incl. Padding)

    ----------------------------------------------------------------------

      Code (inc. data)   RO Data    RW Data    ZI Data      Debug   Library Name

       830         40          0          0         96       1088   c_w.l

    ----------------------------------------------------------------------
       834         40          0          0         96       1088   Library Totals

    ----------------------------------------------------------------------

==============================================================================


      Code (inc. data)   RO Data    RW Data    ZI Data      Debug   

     16908        762       2772        440       3944     364393   Grand Totals
     16908        762       2772        308       3944     364393   ELF Image Totals (compressed)
     16908        762       2772        308          0          0   ROM Totals

==============================================================================

    Total RO  Size (Code + RO Data)                19680 (  19.22kB)
    Total RW  Size (RW Data + ZI Data)              4384 (   4.28kB)
    Total ROM Size (Code + RO Data + RW Data)      19988 (  19.52kB)

==============================================================================

